{
	"contracts/KipuBank.sol": {
		"KipuBank": {
			"abi": [
				{
					"inputs": [
						{
							"internalType": "address",
							"name": "initialOwner",
							"type": "address"
						},
						{
							"internalType": "uint256",
							"name": "withdrawLimit",
							"type": "uint256"
						},
						{
							"internalType": "uint256",
							"name": "bankCap",
							"type": "uint256"
						}
					],
					"stateMutability": "nonpayable",
					"type": "constructor"
				},
				{
					"inputs": [],
					"name": "ErrAliasTaken",
					"type": "error"
				},
				{
					"inputs": [
						{
							"internalType": "uint256",
							"name": "attempted",
							"type": "uint256"
						},
						{
							"internalType": "uint256",
							"name": "available",
							"type": "uint256"
						}
					],
					"name": "ErrBankCapExceeded",
					"type": "error"
				},
				{
					"inputs": [],
					"name": "ErrContactNotFound",
					"type": "error"
				},
				{
					"inputs": [
						{
							"internalType": "uint256",
							"name": "available",
							"type": "uint256"
						},
						{
							"internalType": "uint256",
							"name": "requested",
							"type": "uint256"
						}
					],
					"name": "ErrInsufficientBalance",
					"type": "error"
				},
				{
					"inputs": [],
					"name": "ErrInvalidContact",
					"type": "error"
				},
				{
					"inputs": [],
					"name": "ErrNativeTransferFailed",
					"type": "error"
				},
				{
					"inputs": [],
					"name": "ErrPaused",
					"type": "error"
				},
				{
					"inputs": [
						{
							"internalType": "uint256",
							"name": "limit",
							"type": "uint256"
						},
						{
							"internalType": "uint256",
							"name": "requested",
							"type": "uint256"
						}
					],
					"name": "ErrWithdrawLimitExceeded",
					"type": "error"
				},
				{
					"inputs": [],
					"name": "ErrZeroDeposit",
					"type": "error"
				},
				{
					"inputs": [
						{
							"internalType": "address",
							"name": "owner",
							"type": "address"
						}
					],
					"name": "OwnableInvalidOwner",
					"type": "error"
				},
				{
					"inputs": [
						{
							"internalType": "address",
							"name": "account",
							"type": "address"
						}
					],
					"name": "OwnableUnauthorizedAccount",
					"type": "error"
				},
				{
					"anonymous": false,
					"inputs": [
						{
							"indexed": true,
							"internalType": "address",
							"name": "owner",
							"type": "address"
						},
						{
							"indexed": true,
							"internalType": "address",
							"name": "contact",
							"type": "address"
						},
						{
							"indexed": false,
							"internalType": "uint256",
							"name": "newLimit",
							"type": "uint256"
						}
					],
					"name": "ContactLimitUpdated",
					"type": "event"
				},
				{
					"anonymous": false,
					"inputs": [
						{
							"indexed": true,
							"internalType": "address",
							"name": "owner",
							"type": "address"
						},
						{
							"indexed": true,
							"internalType": "address",
							"name": "contact",
							"type": "address"
						},
						{
							"indexed": false,
							"internalType": "string",
							"name": "alias_",
							"type": "string"
						}
					],
					"name": "ContactRemoved",
					"type": "event"
				},
				{
					"anonymous": false,
					"inputs": [
						{
							"indexed": true,
							"internalType": "address",
							"name": "owner",
							"type": "address"
						},
						{
							"indexed": true,
							"internalType": "address",
							"name": "contact",
							"type": "address"
						},
						{
							"indexed": false,
							"internalType": "string",
							"name": "alias_",
							"type": "string"
						},
						{
							"indexed": false,
							"internalType": "uint256",
							"name": "limit",
							"type": "uint256"
						}
					],
					"name": "ContactSet",
					"type": "event"
				},
				{
					"anonymous": false,
					"inputs": [
						{
							"indexed": true,
							"internalType": "address",
							"name": "user",
							"type": "address"
						},
						{
							"indexed": false,
							"internalType": "uint256",
							"name": "amount",
							"type": "uint256"
						},
						{
							"indexed": false,
							"internalType": "uint256",
							"name": "newBalance",
							"type": "uint256"
						}
					],
					"name": "Deposit",
					"type": "event"
				},
				{
					"anonymous": false,
					"inputs": [
						{
							"indexed": true,
							"internalType": "address",
							"name": "from",
							"type": "address"
						},
						{
							"indexed": true,
							"internalType": "address",
							"name": "to",
							"type": "address"
						},
						{
							"indexed": false,
							"internalType": "uint256",
							"name": "amount",
							"type": "uint256"
						}
					],
					"name": "InternalTransfer",
					"type": "event"
				},
				{
					"anonymous": false,
					"inputs": [
						{
							"indexed": true,
							"internalType": "address",
							"name": "previousOwner",
							"type": "address"
						},
						{
							"indexed": true,
							"internalType": "address",
							"name": "newOwner",
							"type": "address"
						}
					],
					"name": "OwnershipTransferStarted",
					"type": "event"
				},
				{
					"anonymous": false,
					"inputs": [
						{
							"indexed": true,
							"internalType": "address",
							"name": "previousOwner",
							"type": "address"
						},
						{
							"indexed": true,
							"internalType": "address",
							"name": "newOwner",
							"type": "address"
						}
					],
					"name": "OwnershipTransferred",
					"type": "event"
				},
				{
					"anonymous": false,
					"inputs": [
						{
							"indexed": true,
							"internalType": "address",
							"name": "user",
							"type": "address"
						},
						{
							"indexed": false,
							"internalType": "uint256",
							"name": "amount",
							"type": "uint256"
						},
						{
							"indexed": false,
							"internalType": "uint256",
							"name": "newBalance",
							"type": "uint256"
						}
					],
					"name": "Withdrawal",
					"type": "event"
				},
				{
					"stateMutability": "payable",
					"type": "fallback"
				},
				{
					"inputs": [],
					"name": "BANK_CAP",
					"outputs": [
						{
							"internalType": "uint256",
							"name": "",
							"type": "uint256"
						}
					],
					"stateMutability": "view",
					"type": "function"
				},
				{
					"inputs": [],
					"name": "VERSION",
					"outputs": [
						{
							"internalType": "string",
							"name": "",
							"type": "string"
						}
					],
					"stateMutability": "view",
					"type": "function"
				},
				{
					"inputs": [],
					"name": "WITHDRAW_LIMIT",
					"outputs": [
						{
							"internalType": "uint256",
							"name": "",
							"type": "uint256"
						}
					],
					"stateMutability": "view",
					"type": "function"
				},
				{
					"inputs": [],
					"name": "acceptOwnership",
					"outputs": [],
					"stateMutability": "nonpayable",
					"type": "function"
				},
				{
					"inputs": [],
					"name": "deposit",
					"outputs": [],
					"stateMutability": "payable",
					"type": "function"
				},
				{
					"inputs": [],
					"name": "depositCount",
					"outputs": [
						{
							"internalType": "uint256",
							"name": "",
							"type": "uint256"
						}
					],
					"stateMutability": "view",
					"type": "function"
				},
				{
					"inputs": [],
					"name": "getBankTotalBalance",
					"outputs": [
						{
							"internalType": "uint256",
							"name": "",
							"type": "uint256"
						}
					],
					"stateMutability": "view",
					"type": "function"
				},
				{
					"inputs": [
						{
							"internalType": "address",
							"name": "owner",
							"type": "address"
						},
						{
							"internalType": "address",
							"name": "contact",
							"type": "address"
						}
					],
					"name": "getContact",
					"outputs": [
						{
							"internalType": "string",
							"name": "alias_",
							"type": "string"
						},
						{
							"internalType": "bool",
							"name": "exists",
							"type": "bool"
						}
					],
					"stateMutability": "view",
					"type": "function"
				},
				{
					"inputs": [
						{
							"internalType": "address",
							"name": "owner",
							"type": "address"
						},
						{
							"internalType": "string",
							"name": "alias_",
							"type": "string"
						}
					],
					"name": "getContactByAlias",
					"outputs": [
						{
							"internalType": "address",
							"name": "contact",
							"type": "address"
						},
						{
							"internalType": "bool",
							"name": "exists",
							"type": "bool"
						}
					],
					"stateMutability": "view",
					"type": "function"
				},
				{
					"inputs": [
						{
							"internalType": "address",
							"name": "user",
							"type": "address"
						}
					],
					"name": "getVaultBalance",
					"outputs": [
						{
							"internalType": "uint256",
							"name": "",
							"type": "uint256"
						}
					],
					"stateMutability": "view",
					"type": "function"
				},
				{
					"inputs": [],
					"name": "owner",
					"outputs": [
						{
							"internalType": "address",
							"name": "",
							"type": "address"
						}
					],
					"stateMutability": "view",
					"type": "function"
				},
				{
					"inputs": [],
					"name": "pendingOwner",
					"outputs": [
						{
							"internalType": "address",
							"name": "",
							"type": "address"
						}
					],
					"stateMutability": "view",
					"type": "function"
				},
				{
					"inputs": [
						{
							"internalType": "address",
							"name": "contact",
							"type": "address"
						}
					],
					"name": "removeContact",
					"outputs": [],
					"stateMutability": "nonpayable",
					"type": "function"
				},
				{
					"inputs": [],
					"name": "renounceOwnership",
					"outputs": [],
					"stateMutability": "nonpayable",
					"type": "function"
				},
				{
					"inputs": [
						{
							"internalType": "address",
							"name": "contact",
							"type": "address"
						},
						{
							"internalType": "string",
							"name": "alias_",
							"type": "string"
						},
						{
							"internalType": "uint256",
							"name": "limit",
							"type": "uint256"
						}
					],
					"name": "setContact",
					"outputs": [],
					"stateMutability": "nonpayable",
					"type": "function"
				},
				{
					"inputs": [
						{
							"internalType": "address",
							"name": "newOwner",
							"type": "address"
						}
					],
					"name": "transferOwnership",
					"outputs": [],
					"stateMutability": "nonpayable",
					"type": "function"
				},
				{
					"inputs": [
						{
							"internalType": "string",
							"name": "alias_",
							"type": "string"
						},
						{
							"internalType": "uint256",
							"name": "amount",
							"type": "uint256"
						}
					],
					"name": "transferToAlias",
					"outputs": [],
					"stateMutability": "nonpayable",
					"type": "function"
				},
				{
					"inputs": [
						{
							"internalType": "address",
							"name": "contact",
							"type": "address"
						},
						{
							"internalType": "uint256",
							"name": "amount",
							"type": "uint256"
						}
					],
					"name": "transferToContact",
					"outputs": [],
					"stateMutability": "nonpayable",
					"type": "function"
				},
				{
					"inputs": [
						{
							"internalType": "address",
							"name": "contact",
							"type": "address"
						},
						{
							"internalType": "uint256",
							"name": "newLimit",
							"type": "uint256"
						}
					],
					"name": "updateContactLimit",
					"outputs": [],
					"stateMutability": "nonpayable",
					"type": "function"
				},
				{
					"inputs": [
						{
							"internalType": "uint256",
							"name": "amount",
							"type": "uint256"
						}
					],
					"name": "withdraw",
					"outputs": [],
					"stateMutability": "nonpayable",
					"type": "function"
				},
				{
					"inputs": [],
					"name": "withdrawCount",
					"outputs": [
						{
							"internalType": "uint256",
							"name": "",
							"type": "uint256"
						}
					],
					"stateMutability": "view",
					"type": "function"
				},
				{
					"stateMutability": "payable",
					"type": "receive"
				}
			],
			"devdoc": {
				"author": "-",
				"custom:dev-run-script": "scripts/deploy_with_ethers.ts",
				"details": "Implementa buenas prácticas: errores personalizados, checks-effects-interactions,      transferencias nativas seguras, modificadores y NatSpec.",
				"errors": {
					"OwnableInvalidOwner(address)": [
						{
							"details": "The owner is not a valid owner account. (eg. `address(0)`)"
						}
					],
					"OwnableUnauthorizedAccount(address)": [
						{
							"details": "The caller account is not authorized to perform an operation."
						}
					]
				},
				"kind": "dev",
				"methods": {
					"acceptOwnership()": {
						"details": "The new owner accepts the ownership transfer."
					},
					"constructor": {
						"params": {
							"bankCap": "tope global del banco",
							"initialOwner": "dueño inicial que deberá aceptar si se usa transferOwnership luego",
							"withdrawLimit": "límite por retiro"
						}
					},
					"owner()": {
						"details": "Returns the address of the current owner."
					},
					"pendingOwner()": {
						"details": "Returns the address of the pending owner."
					},
					"renounceOwnership()": {
						"details": "Leaves the contract without owner. It will not be possible to call `onlyOwner` functions. Can only be called by the current owner. NOTE: Renouncing ownership will leave the contract without an owner, thereby disabling any functionality that is only available to the owner."
					},
					"transferOwnership(address)": {
						"details": "Starts the ownership transfer of the contract to a new account. Replaces the pending transfer if there is one. Can only be called by the current owner. Setting `newOwner` to the zero address is allowed; this can be used to cancel an initiated ownership transfer."
					}
				},
				"title": "KipuBank",
				"version": 1
			},
			"evm": {
				"assembly": "    /* \"contracts/KipuBank.sol\":533:9050  contract KipuBank is Ownable2Step {... */\n  mstore(0x40, 0xc0)\n    /* \"contracts/KipuBank.sol\":2941:3408  constructor(... */\n  callvalue\n  dup1\n  iszero\n  tag_1\n  jumpi\n  revert(0x00, 0x00)\ntag_1:\n  pop\n  mload(0x40)\n  sub(codesize, bytecodeSize)\n  dup1\n  bytecodeSize\n  dup4\n  codecopy\n  dup2\n  dup2\n  add\n  0x40\n  mstore\n  dup2\n  add\n  swap1\n  tag_2\n  swap2\n  swap1\n  tag_3\n  jump\t// in\ntag_2:\n    /* \"contracts/KipuBank.sol\":3053:3065  initialOwner */\n  dup3\n    /* \"@openzeppelin/contracts/access/Ownable.sol\":1297:1298  0 */\n  0x00\n    /* \"@openzeppelin/contracts/access/Ownable.sol\":1273:1299  initialOwner == address(0) */\n  0xffffffffffffffffffffffffffffffffffffffff\n  and\n    /* \"@openzeppelin/contracts/access/Ownable.sol\":1273:1285  initialOwner */\n  dup2\n    /* \"@openzeppelin/contracts/access/Ownable.sol\":1273:1299  initialOwner == address(0) */\n  0xffffffffffffffffffffffffffffffffffffffff\n  and\n  sub\n    /* \"@openzeppelin/contracts/access/Ownable.sol\":1269:1364  if (initialOwner == address(0)) {... */\n  tag_7\n  jumpi\n    /* \"@openzeppelin/contracts/access/Ownable.sol\":1350:1351  0 */\n  0x00\n    /* \"@openzeppelin/contracts/access/Ownable.sol\":1322:1353  OwnableInvalidOwner(address(0)) */\n  mload(0x40)\n  0x1e4fbdf700000000000000000000000000000000000000000000000000000000\n  dup2\n  mstore\n  0x04\n  add\n  tag_8\n  swap2\n  swap1\n  tag_9\n  jump\t// in\ntag_8:\n  mload(0x40)\n  dup1\n  swap2\n  sub\n  swap1\n  revert\n    /* \"@openzeppelin/contracts/access/Ownable.sol\":1269:1364  if (initialOwner == address(0)) {... */\ntag_7:\n    /* \"@openzeppelin/contracts/access/Ownable.sol\":1373:1405  _transferOwnership(initialOwner) */\n  tag_10\n    /* \"@openzeppelin/contracts/access/Ownable.sol\":1392:1404  initialOwner */\n  dup2\n    /* \"@openzeppelin/contracts/access/Ownable.sol\":1373:1391  _transferOwnership */\n  shl(0x20, tag_11)\n    /* \"@openzeppelin/contracts/access/Ownable.sol\":1373:1405  _transferOwnership(initialOwner) */\n  0x20\n  shr\n  jump\t// in\ntag_10:\n    /* \"@openzeppelin/contracts/access/Ownable.sol\":1225:1412  constructor(address initialOwner) {... */\n  pop\n    /* \"contracts/KipuBank.sol\":3109:3110  0 */\n  0x00\n    /* \"contracts/KipuBank.sol\":3085:3111  initialOwner != address(0) */\n  0xffffffffffffffffffffffffffffffffffffffff\n  and\n    /* \"contracts/KipuBank.sol\":3085:3097  initialOwner */\n  dup4\n    /* \"contracts/KipuBank.sol\":3085:3111  initialOwner != address(0) */\n  0xffffffffffffffffffffffffffffffffffffffff\n  and\n  sub\n    /* \"contracts/KipuBank.sol\":3077:3129  require(initialOwner != address(0), \"owner is zero\") */\n  tag_13\n  jumpi\n  mload(0x40)\n  0x08c379a000000000000000000000000000000000000000000000000000000000\n  dup2\n  mstore\n  0x04\n  add\n  tag_14\n  swap1\n  tag_15\n  jump\t// in\ntag_14:\n  mload(0x40)\n  dup1\n  swap2\n  sub\n  swap1\n  revert\ntag_13:\n    /* \"contracts/KipuBank.sol\":3163:3164  0 */\n  0x00\n    /* \"contracts/KipuBank.sol\":3147:3160  withdrawLimit */\n  dup3\n    /* \"contracts/KipuBank.sol\":3147:3164  withdrawLimit > 0 */\n  gt\n    /* \"contracts/KipuBank.sol\":3139:3194  require(withdrawLimit > 0, \"withdrawLimit must be > 0\") */\n  tag_16\n  jumpi\n  mload(0x40)\n  0x08c379a000000000000000000000000000000000000000000000000000000000\n  dup2\n  mstore\n  0x04\n  add\n  tag_17\n  swap1\n  tag_18\n  jump\t// in\ntag_17:\n  mload(0x40)\n  dup1\n  swap2\n  sub\n  swap1\n  revert\ntag_16:\n    /* \"contracts/KipuBank.sol\":3222:3223  0 */\n  0x00\n    /* \"contracts/KipuBank.sol\":3212:3219  bankCap */\n  dup2\n    /* \"contracts/KipuBank.sol\":3212:3223  bankCap > 0 */\n  gt\n    /* \"contracts/KipuBank.sol\":3204:3247  require(bankCap > 0, \"bankCap must be > 0\") */\n  tag_19\n  jumpi\n  mload(0x40)\n  0x08c379a000000000000000000000000000000000000000000000000000000000\n  dup2\n  mstore\n  0x04\n  add\n  tag_20\n  swap1\n  tag_21\n  jump\t// in\ntag_20:\n  mload(0x40)\n  dup1\n  swap2\n  sub\n  swap1\n  revert\ntag_19:\n    /* \"contracts/KipuBank.sol\":3258:3290  _transferOwnership(initialOwner) */\n  tag_22\n    /* \"contracts/KipuBank.sol\":3277:3289  initialOwner */\n  dup4\n    /* \"contracts/KipuBank.sol\":3258:3276  _transferOwnership */\n  shl(0x20, tag_11)\n    /* \"contracts/KipuBank.sol\":3258:3290  _transferOwnership(initialOwner) */\n  0x20\n  shr\n  jump\t// in\ntag_22:\n    /* \"contracts/KipuBank.sol\":3334:3347  withdrawLimit */\n  dup2\n    /* \"contracts/KipuBank.sol\":3317:3347  WITHDRAW_LIMIT = withdrawLimit */\n  0x80\n  dup2\n  dup2\n  mstore\n  pop\n  pop\n    /* \"contracts/KipuBank.sol\":3368:3375  bankCap */\n  dup1\n    /* \"contracts/KipuBank.sol\":3357:3375  BANK_CAP = bankCap */\n  0xa0\n  dup2\n  dup2\n  mstore\n  pop\n  pop\n    /* \"contracts/KipuBank.sol\":3396:3401  false */\n  0x00\n    /* \"contracts/KipuBank.sol\":3385:3393  isPaused */\n  0x09\n  0x00\n    /* \"contracts/KipuBank.sol\":3385:3401  isPaused = false */\n  0x0100\n  exp\n  dup2\n  sload\n  dup2\n  0xff\n  mul\n  not\n  and\n  swap1\n  dup4\n  iszero\n  iszero\n  mul\n  or\n  swap1\n  sstore\n  pop\n    /* \"contracts/KipuBank.sol\":2941:3408  constructor(... */\n  pop\n  pop\n  pop\n    /* \"contracts/KipuBank.sol\":533:9050  contract KipuBank is Ownable2Step {... */\n  jump(tag_23)\n    /* \"@openzeppelin/contracts/access/Ownable2Step.sol\":2011:2164  function _transferOwnership(address newOwner) internal virtual override {... */\ntag_11:\n    /* \"@openzeppelin/contracts/access/Ownable2Step.sol\":2100:2113  _pendingOwner */\n  0x01\n  0x00\n    /* \"@openzeppelin/contracts/access/Ownable2Step.sol\":2093:2113  delete _pendingOwner */\n  0x0100\n  exp\n  dup2\n  sload\n  swap1\n  0xffffffffffffffffffffffffffffffffffffffff\n  mul\n  not\n  and\n  swap1\n  sstore\n    /* \"@openzeppelin/contracts/access/Ownable2Step.sol\":2123:2157  super._transferOwnership(newOwner) */\n  tag_25\n    /* \"@openzeppelin/contracts/access/Ownable2Step.sol\":2148:2156  newOwner */\n  dup2\n    /* \"@openzeppelin/contracts/access/Ownable2Step.sol\":2123:2147  super._transferOwnership */\n  shl(0x20, tag_26)\n    /* \"@openzeppelin/contracts/access/Ownable2Step.sol\":2123:2157  super._transferOwnership(newOwner) */\n  0x20\n  shr\n  jump\t// in\ntag_25:\n    /* \"@openzeppelin/contracts/access/Ownable2Step.sol\":2011:2164  function _transferOwnership(address newOwner) internal virtual override {... */\n  pop\n  jump\t// out\n    /* \"@openzeppelin/contracts/access/Ownable.sol\":2912:3099  function _transferOwnership(address newOwner) internal virtual {... */\ntag_26:\n    /* \"@openzeppelin/contracts/access/Ownable.sol\":2985:3001  address oldOwner */\n  0x00\n    /* \"@openzeppelin/contracts/access/Ownable.sol\":3004:3010  _owner */\n  0x00\n  0x00\n  swap1\n  sload\n  swap1\n  0x0100\n  exp\n  swap1\n  div\n  0xffffffffffffffffffffffffffffffffffffffff\n  and\n    /* \"@openzeppelin/contracts/access/Ownable.sol\":2985:3010  address oldOwner = _owner */\n  swap1\n  pop\n    /* \"@openzeppelin/contracts/access/Ownable.sol\":3029:3037  newOwner */\n  dup2\n    /* \"@openzeppelin/contracts/access/Ownable.sol\":3020:3026  _owner */\n  0x00\n  0x00\n    /* \"@openzeppelin/contracts/access/Ownable.sol\":3020:3037  _owner = newOwner */\n  0x0100\n  exp\n  dup2\n  sload\n  dup2\n  0xffffffffffffffffffffffffffffffffffffffff\n  mul\n  not\n  and\n  swap1\n  dup4\n  0xffffffffffffffffffffffffffffffffffffffff\n  and\n  mul\n  or\n  swap1\n  sstore\n  pop\n    /* \"@openzeppelin/contracts/access/Ownable.sol\":3083:3091  newOwner */\n  dup2\n    /* \"@openzeppelin/contracts/access/Ownable.sol\":3052:3092  OwnershipTransferred(oldOwner, newOwner) */\n  0xffffffffffffffffffffffffffffffffffffffff\n  and\n    /* \"@openzeppelin/contracts/access/Ownable.sol\":3073:3081  oldOwner */\n  dup2\n    /* \"@openzeppelin/contracts/access/Ownable.sol\":3052:3092  OwnershipTransferred(oldOwner, newOwner) */\n  0xffffffffffffffffffffffffffffffffffffffff\n  and\n  0x8be0079c531659141344cd1fd0a4f28419497f9722a3daafe3b4186f6b6457e0\n  mload(0x40)\n  mload(0x40)\n  dup1\n  swap2\n  sub\n  swap1\n  log3\n    /* \"@openzeppelin/contracts/access/Ownable.sol\":2975:3099  {... */\n  pop\n    /* \"@openzeppelin/contracts/access/Ownable.sol\":2912:3099  function _transferOwnership(address newOwner) internal virtual {... */\n  pop\n  jump\t// out\n    /* \"#utility.yul\":88:205   */\ntag_29:\n    /* \"#utility.yul\":197:198   */\n  0x00\n    /* \"#utility.yul\":194:195   */\n  0x00\n    /* \"#utility.yul\":187:199   */\n  revert\n    /* \"#utility.yul\":334:460   */\ntag_31:\n    /* \"#utility.yul\":371:378   */\n  0x00\n    /* \"#utility.yul\":411:453   */\n  0xffffffffffffffffffffffffffffffffffffffff\n    /* \"#utility.yul\":404:409   */\n  dup3\n    /* \"#utility.yul\":400:454   */\n  and\n    /* \"#utility.yul\":389:454   */\n  swap1\n  pop\n    /* \"#utility.yul\":334:460   */\n  swap2\n  swap1\n  pop\n  jump\t// out\n    /* \"#utility.yul\":466:562   */\ntag_32:\n    /* \"#utility.yul\":503:510   */\n  0x00\n    /* \"#utility.yul\":532:556   */\n  tag_52\n    /* \"#utility.yul\":550:555   */\n  dup3\n    /* \"#utility.yul\":532:556   */\n  tag_31\n  jump\t// in\ntag_52:\n    /* \"#utility.yul\":521:556   */\n  swap1\n  pop\n    /* \"#utility.yul\":466:562   */\n  swap2\n  swap1\n  pop\n  jump\t// out\n    /* \"#utility.yul\":568:690   */\ntag_33:\n    /* \"#utility.yul\":641:665   */\n  tag_54\n    /* \"#utility.yul\":659:664   */\n  dup2\n    /* \"#utility.yul\":641:665   */\n  tag_32\n  jump\t// in\ntag_54:\n    /* \"#utility.yul\":634:639   */\n  dup2\n    /* \"#utility.yul\":631:666   */\n  eq\n    /* \"#utility.yul\":621:684   */\n  tag_55\n  jumpi\n    /* \"#utility.yul\":680:681   */\n  0x00\n    /* \"#utility.yul\":677:678   */\n  0x00\n    /* \"#utility.yul\":670:682   */\n  revert\n    /* \"#utility.yul\":621:684   */\ntag_55:\n    /* \"#utility.yul\":568:690   */\n  pop\n  jump\t// out\n    /* \"#utility.yul\":696:839   */\ntag_34:\n    /* \"#utility.yul\":753:758   */\n  0x00\n    /* \"#utility.yul\":784:790   */\n  dup2\n    /* \"#utility.yul\":778:791   */\n  mload\n    /* \"#utility.yul\":769:791   */\n  swap1\n  pop\n    /* \"#utility.yul\":800:833   */\n  tag_57\n    /* \"#utility.yul\":827:832   */\n  dup2\n    /* \"#utility.yul\":800:833   */\n  tag_33\n  jump\t// in\ntag_57:\n    /* \"#utility.yul\":696:839   */\n  swap3\n  swap2\n  pop\n  pop\n  jump\t// out\n    /* \"#utility.yul\":845:922   */\ntag_35:\n    /* \"#utility.yul\":882:889   */\n  0x00\n    /* \"#utility.yul\":911:916   */\n  dup2\n    /* \"#utility.yul\":900:916   */\n  swap1\n  pop\n    /* \"#utility.yul\":845:922   */\n  swap2\n  swap1\n  pop\n  jump\t// out\n    /* \"#utility.yul\":928:1050   */\ntag_36:\n    /* \"#utility.yul\":1001:1025   */\n  tag_60\n    /* \"#utility.yul\":1019:1024   */\n  dup2\n    /* \"#utility.yul\":1001:1025   */\n  tag_35\n  jump\t// in\ntag_60:\n    /* \"#utility.yul\":994:999   */\n  dup2\n    /* \"#utility.yul\":991:1026   */\n  eq\n    /* \"#utility.yul\":981:1044   */\n  tag_61\n  jumpi\n    /* \"#utility.yul\":1040:1041   */\n  0x00\n    /* \"#utility.yul\":1037:1038   */\n  0x00\n    /* \"#utility.yul\":1030:1042   */\n  revert\n    /* \"#utility.yul\":981:1044   */\ntag_61:\n    /* \"#utility.yul\":928:1050   */\n  pop\n  jump\t// out\n    /* \"#utility.yul\":1056:1199   */\ntag_37:\n    /* \"#utility.yul\":1113:1118   */\n  0x00\n    /* \"#utility.yul\":1144:1150   */\n  dup2\n    /* \"#utility.yul\":1138:1151   */\n  mload\n    /* \"#utility.yul\":1129:1151   */\n  swap1\n  pop\n    /* \"#utility.yul\":1160:1193   */\n  tag_63\n    /* \"#utility.yul\":1187:1192   */\n  dup2\n    /* \"#utility.yul\":1160:1193   */\n  tag_36\n  jump\t// in\ntag_63:\n    /* \"#utility.yul\":1056:1199   */\n  swap3\n  swap2\n  pop\n  pop\n  jump\t// out\n    /* \"#utility.yul\":1205:1868   */\ntag_3:\n    /* \"#utility.yul\":1293:1299   */\n  0x00\n    /* \"#utility.yul\":1301:1307   */\n  0x00\n    /* \"#utility.yul\":1309:1315   */\n  0x00\n    /* \"#utility.yul\":1358:1360   */\n  0x60\n    /* \"#utility.yul\":1346:1355   */\n  dup5\n    /* \"#utility.yul\":1337:1344   */\n  dup7\n    /* \"#utility.yul\":1333:1356   */\n  sub\n    /* \"#utility.yul\":1329:1361   */\n  slt\n    /* \"#utility.yul\":1326:1445   */\n  iszero\n  tag_65\n  jumpi\n    /* \"#utility.yul\":1364:1443   */\n  tag_66\n  tag_29\n  jump\t// in\ntag_66:\n    /* \"#utility.yul\":1326:1445   */\ntag_65:\n    /* \"#utility.yul\":1484:1485   */\n  0x00\n    /* \"#utility.yul\":1509:1573   */\n  tag_67\n    /* \"#utility.yul\":1565:1572   */\n  dup7\n    /* \"#utility.yul\":1556:1562   */\n  dup3\n    /* \"#utility.yul\":1545:1554   */\n  dup8\n    /* \"#utility.yul\":1541:1563   */\n  add\n    /* \"#utility.yul\":1509:1573   */\n  tag_34\n  jump\t// in\ntag_67:\n    /* \"#utility.yul\":1499:1573   */\n  swap4\n  pop\n    /* \"#utility.yul\":1455:1583   */\n  pop\n    /* \"#utility.yul\":1622:1624   */\n  0x20\n    /* \"#utility.yul\":1648:1712   */\n  tag_68\n    /* \"#utility.yul\":1704:1711   */\n  dup7\n    /* \"#utility.yul\":1695:1701   */\n  dup3\n    /* \"#utility.yul\":1684:1693   */\n  dup8\n    /* \"#utility.yul\":1680:1702   */\n  add\n    /* \"#utility.yul\":1648:1712   */\n  tag_37\n  jump\t// in\ntag_68:\n    /* \"#utility.yul\":1638:1712   */\n  swap3\n  pop\n    /* \"#utility.yul\":1593:1722   */\n  pop\n    /* \"#utility.yul\":1761:1763   */\n  0x40\n    /* \"#utility.yul\":1787:1851   */\n  tag_69\n    /* \"#utility.yul\":1843:1850   */\n  dup7\n    /* \"#utility.yul\":1834:1840   */\n  dup3\n    /* \"#utility.yul\":1823:1832   */\n  dup8\n    /* \"#utility.yul\":1819:1841   */\n  add\n    /* \"#utility.yul\":1787:1851   */\n  tag_37\n  jump\t// in\ntag_69:\n    /* \"#utility.yul\":1777:1851   */\n  swap2\n  pop\n    /* \"#utility.yul\":1732:1861   */\n  pop\n    /* \"#utility.yul\":1205:1868   */\n  swap3\n  pop\n  swap3\n  pop\n  swap3\n  jump\t// out\n    /* \"#utility.yul\":1874:1992   */\ntag_38:\n    /* \"#utility.yul\":1961:1985   */\n  tag_71\n    /* \"#utility.yul\":1979:1984   */\n  dup2\n    /* \"#utility.yul\":1961:1985   */\n  tag_32\n  jump\t// in\ntag_71:\n    /* \"#utility.yul\":1956:1959   */\n  dup3\n    /* \"#utility.yul\":1949:1986   */\n  mstore\n    /* \"#utility.yul\":1874:1992   */\n  pop\n  pop\n  jump\t// out\n    /* \"#utility.yul\":1998:2220   */\ntag_9:\n    /* \"#utility.yul\":2091:2095   */\n  0x00\n    /* \"#utility.yul\":2129:2131   */\n  0x20\n    /* \"#utility.yul\":2118:2127   */\n  dup3\n    /* \"#utility.yul\":2114:2132   */\n  add\n    /* \"#utility.yul\":2106:2132   */\n  swap1\n  pop\n    /* \"#utility.yul\":2142:2213   */\n  tag_73\n    /* \"#utility.yul\":2210:2211   */\n  0x00\n    /* \"#utility.yul\":2199:2208   */\n  dup4\n    /* \"#utility.yul\":2195:2212   */\n  add\n    /* \"#utility.yul\":2186:2192   */\n  dup5\n    /* \"#utility.yul\":2142:2213   */\n  tag_38\n  jump\t// in\ntag_73:\n    /* \"#utility.yul\":1998:2220   */\n  swap3\n  swap2\n  pop\n  pop\n  jump\t// out\n    /* \"#utility.yul\":2226:2395   */\ntag_39:\n    /* \"#utility.yul\":2310:2321   */\n  0x00\n    /* \"#utility.yul\":2344:2350   */\n  dup3\n    /* \"#utility.yul\":2339:2342   */\n  dup3\n    /* \"#utility.yul\":2332:2351   */\n  mstore\n    /* \"#utility.yul\":2384:2388   */\n  0x20\n    /* \"#utility.yul\":2379:2382   */\n  dup3\n    /* \"#utility.yul\":2375:2389   */\n  add\n    /* \"#utility.yul\":2360:2389   */\n  swap1\n  pop\n    /* \"#utility.yul\":2226:2395   */\n  swap3\n  swap2\n  pop\n  pop\n  jump\t// out\n    /* \"#utility.yul\":2401:2564   */\ntag_40:\n    /* \"#utility.yul\":2541:2556   */\n  0x6f776e6572206973207a65726f00000000000000000000000000000000000000\n    /* \"#utility.yul\":2537:2538   */\n  0x00\n    /* \"#utility.yul\":2529:2535   */\n  dup3\n    /* \"#utility.yul\":2525:2539   */\n  add\n    /* \"#utility.yul\":2518:2557   */\n  mstore\n    /* \"#utility.yul\":2401:2564   */\n  pop\n  jump\t// out\n    /* \"#utility.yul\":2570:2936   */\ntag_41:\n    /* \"#utility.yul\":2712:2715   */\n  0x00\n    /* \"#utility.yul\":2733:2800   */\n  tag_77\n    /* \"#utility.yul\":2797:2799   */\n  0x0d\n    /* \"#utility.yul\":2792:2795   */\n  dup4\n    /* \"#utility.yul\":2733:2800   */\n  tag_39\n  jump\t// in\ntag_77:\n    /* \"#utility.yul\":2726:2800   */\n  swap2\n  pop\n    /* \"#utility.yul\":2809:2902   */\n  tag_78\n    /* \"#utility.yul\":2898:2901   */\n  dup3\n    /* \"#utility.yul\":2809:2902   */\n  tag_40\n  jump\t// in\ntag_78:\n    /* \"#utility.yul\":2927:2929   */\n  0x20\n    /* \"#utility.yul\":2922:2925   */\n  dup3\n    /* \"#utility.yul\":2918:2930   */\n  add\n    /* \"#utility.yul\":2911:2930   */\n  swap1\n  pop\n    /* \"#utility.yul\":2570:2936   */\n  swap2\n  swap1\n  pop\n  jump\t// out\n    /* \"#utility.yul\":2942:3361   */\ntag_15:\n    /* \"#utility.yul\":3108:3112   */\n  0x00\n    /* \"#utility.yul\":3146:3148   */\n  0x20\n    /* \"#utility.yul\":3135:3144   */\n  dup3\n    /* \"#utility.yul\":3131:3149   */\n  add\n    /* \"#utility.yul\":3123:3149   */\n  swap1\n  pop\n    /* \"#utility.yul\":3195:3204   */\n  dup2\n    /* \"#utility.yul\":3189:3193   */\n  dup2\n    /* \"#utility.yul\":3185:3205   */\n  sub\n    /* \"#utility.yul\":3181:3182   */\n  0x00\n    /* \"#utility.yul\":3170:3179   */\n  dup4\n    /* \"#utility.yul\":3166:3183   */\n  add\n    /* \"#utility.yul\":3159:3206   */\n  mstore\n    /* \"#utility.yul\":3223:3354   */\n  tag_80\n    /* \"#utility.yul\":3349:3353   */\n  dup2\n    /* \"#utility.yul\":3223:3354   */\n  tag_41\n  jump\t// in\ntag_80:\n    /* \"#utility.yul\":3215:3354   */\n  swap1\n  pop\n    /* \"#utility.yul\":2942:3361   */\n  swap2\n  swap1\n  pop\n  jump\t// out\n    /* \"#utility.yul\":3367:3542   */\ntag_42:\n    /* \"#utility.yul\":3507:3534   */\n  0x77697468647261774c696d6974206d757374206265203e203000000000000000\n    /* \"#utility.yul\":3503:3504   */\n  0x00\n    /* \"#utility.yul\":3495:3501   */\n  dup3\n    /* \"#utility.yul\":3491:3505   */\n  add\n    /* \"#utility.yul\":3484:3535   */\n  mstore\n    /* \"#utility.yul\":3367:3542   */\n  pop\n  jump\t// out\n    /* \"#utility.yul\":3548:3914   */\ntag_43:\n    /* \"#utility.yul\":3690:3693   */\n  0x00\n    /* \"#utility.yul\":3711:3778   */\n  tag_83\n    /* \"#utility.yul\":3775:3777   */\n  0x19\n    /* \"#utility.yul\":3770:3773   */\n  dup4\n    /* \"#utility.yul\":3711:3778   */\n  tag_39\n  jump\t// in\ntag_83:\n    /* \"#utility.yul\":3704:3778   */\n  swap2\n  pop\n    /* \"#utility.yul\":3787:3880   */\n  tag_84\n    /* \"#utility.yul\":3876:3879   */\n  dup3\n    /* \"#utility.yul\":3787:3880   */\n  tag_42\n  jump\t// in\ntag_84:\n    /* \"#utility.yul\":3905:3907   */\n  0x20\n    /* \"#utility.yul\":3900:3903   */\n  dup3\n    /* \"#utility.yul\":3896:3908   */\n  add\n    /* \"#utility.yul\":3889:3908   */\n  swap1\n  pop\n    /* \"#utility.yul\":3548:3914   */\n  swap2\n  swap1\n  pop\n  jump\t// out\n    /* \"#utility.yul\":3920:4339   */\ntag_18:\n    /* \"#utility.yul\":4086:4090   */\n  0x00\n    /* \"#utility.yul\":4124:4126   */\n  0x20\n    /* \"#utility.yul\":4113:4122   */\n  dup3\n    /* \"#utility.yul\":4109:4127   */\n  add\n    /* \"#utility.yul\":4101:4127   */\n  swap1\n  pop\n    /* \"#utility.yul\":4173:4182   */\n  dup2\n    /* \"#utility.yul\":4167:4171   */\n  dup2\n    /* \"#utility.yul\":4163:4183   */\n  sub\n    /* \"#utility.yul\":4159:4160   */\n  0x00\n    /* \"#utility.yul\":4148:4157   */\n  dup4\n    /* \"#utility.yul\":4144:4161   */\n  add\n    /* \"#utility.yul\":4137:4184   */\n  mstore\n    /* \"#utility.yul\":4201:4332   */\n  tag_86\n    /* \"#utility.yul\":4327:4331   */\n  dup2\n    /* \"#utility.yul\":4201:4332   */\n  tag_43\n  jump\t// in\ntag_86:\n    /* \"#utility.yul\":4193:4332   */\n  swap1\n  pop\n    /* \"#utility.yul\":3920:4339   */\n  swap2\n  swap1\n  pop\n  jump\t// out\n    /* \"#utility.yul\":4345:4514   */\ntag_44:\n    /* \"#utility.yul\":4485:4506   */\n  0x62616e6b436170206d757374206265203e203000000000000000000000000000\n    /* \"#utility.yul\":4481:4482   */\n  0x00\n    /* \"#utility.yul\":4473:4479   */\n  dup3\n    /* \"#utility.yul\":4469:4483   */\n  add\n    /* \"#utility.yul\":4462:4507   */\n  mstore\n    /* \"#utility.yul\":4345:4514   */\n  pop\n  jump\t// out\n    /* \"#utility.yul\":4520:4886   */\ntag_45:\n    /* \"#utility.yul\":4662:4665   */\n  0x00\n    /* \"#utility.yul\":4683:4750   */\n  tag_89\n    /* \"#utility.yul\":4747:4749   */\n  0x13\n    /* \"#utility.yul\":4742:4745   */\n  dup4\n    /* \"#utility.yul\":4683:4750   */\n  tag_39\n  jump\t// in\ntag_89:\n    /* \"#utility.yul\":4676:4750   */\n  swap2\n  pop\n    /* \"#utility.yul\":4759:4852   */\n  tag_90\n    /* \"#utility.yul\":4848:4851   */\n  dup3\n    /* \"#utility.yul\":4759:4852   */\n  tag_44\n  jump\t// in\ntag_90:\n    /* \"#utility.yul\":4877:4879   */\n  0x20\n    /* \"#utility.yul\":4872:4875   */\n  dup3\n    /* \"#utility.yul\":4868:4880   */\n  add\n    /* \"#utility.yul\":4861:4880   */\n  swap1\n  pop\n    /* \"#utility.yul\":4520:4886   */\n  swap2\n  swap1\n  pop\n  jump\t// out\n    /* \"#utility.yul\":4892:5311   */\ntag_21:\n    /* \"#utility.yul\":5058:5062   */\n  0x00\n    /* \"#utility.yul\":5096:5098   */\n  0x20\n    /* \"#utility.yul\":5085:5094   */\n  dup3\n    /* \"#utility.yul\":5081:5099   */\n  add\n    /* \"#utility.yul\":5073:5099   */\n  swap1\n  pop\n    /* \"#utility.yul\":5145:5154   */\n  dup2\n    /* \"#utility.yul\":5139:5143   */\n  dup2\n    /* \"#utility.yul\":5135:5155   */\n  sub\n    /* \"#utility.yul\":5131:5132   */\n  0x00\n    /* \"#utility.yul\":5120:5129   */\n  dup4\n    /* \"#utility.yul\":5116:5133   */\n  add\n    /* \"#utility.yul\":5109:5156   */\n  mstore\n    /* \"#utility.yul\":5173:5304   */\n  tag_92\n    /* \"#utility.yul\":5299:5303   */\n  dup2\n    /* \"#utility.yul\":5173:5304   */\n  tag_45\n  jump\t// in\ntag_92:\n    /* \"#utility.yul\":5165:5304   */\n  swap1\n  pop\n    /* \"#utility.yul\":4892:5311   */\n  swap2\n  swap1\n  pop\n  jump\t// out\n    /* \"contracts/KipuBank.sol\":533:9050  contract KipuBank is Ownable2Step {... */\ntag_23:\n  mload(0x80)\n  mload(0xa0)\n  codecopy(0x00, dataOffset(sub_0), dataSize(sub_0))\n  0x00\n  assignImmutable(\"0x813d1b11b8dd1556b28990a7c9be030b5a7cac9bde9a8342a13a89c68a3780b1\")\n  0x00\n  assignImmutable(\"0x7a54ea38c6e84582f8d39074db7876849c2b4a6a0d270a38f071e30cc74a8c79\")\n  return(0x00, dataSize(sub_0))\nstop\n\nsub_0: assembly {\n        /* \"contracts/KipuBank.sol\":533:9050  contract KipuBank is Ownable2Step {... */\n      mstore(0x40, 0x80)\n      jumpi(tag_1, lt(calldatasize, 0x04))\n      shr(0xe0, calldataload(0x00))\n      dup1\n      0x8da5cb5b\n      gt\n      tag_24\n      jumpi\n      dup1\n      0xd0e30db0\n      gt\n      tag_25\n      jumpi\n      dup1\n      0xd0e30db0\n      eq\n      tag_18\n      jumpi\n      dup1\n      0xd3d7c002\n      eq\n      tag_19\n      jumpi\n      dup1\n      0xe30c3978\n      eq\n      tag_20\n      jumpi\n      dup1\n      0xea402b41\n      eq\n      tag_21\n      jumpi\n      dup1\n      0xf2fde38b\n      eq\n      tag_22\n      jumpi\n      dup1\n      0xffa1ad74\n      eq\n      tag_23\n      jumpi\n      jump(tag_2)\n    tag_25:\n      dup1\n      0x8da5cb5b\n      eq\n      tag_13\n      jumpi\n      dup1\n      0x8e0a3004\n      eq\n      tag_14\n      jumpi\n      dup1\n      0x92b4f898\n      eq\n      tag_15\n      jumpi\n      dup1\n      0x94c2c612\n      eq\n      tag_16\n      jumpi\n      dup1\n      0xa6a66072\n      eq\n      tag_17\n      jumpi\n      jump(tag_2)\n    tag_24:\n      dup1\n      0x4a2ecf9e\n      gt\n      tag_26\n      jumpi\n      dup1\n      0x4a2ecf9e\n      eq\n      tag_8\n      jumpi\n      dup1\n      0x4cc05a71\n      eq\n      tag_9\n      jumpi\n      dup1\n      0x5dd387b8\n      eq\n      tag_10\n      jumpi\n      dup1\n      0x715018a6\n      eq\n      tag_11\n      jumpi\n      dup1\n      0x79ba5097\n      eq\n      tag_12\n      jumpi\n      jump(tag_2)\n    tag_26:\n      dup1\n      0x0dbad953\n      eq\n      tag_3\n      jumpi\n      dup1\n      0x197e2b31\n      eq\n      tag_4\n      jumpi\n      dup1\n      0x22bc56bd\n      eq\n      tag_5\n      jumpi\n      dup1\n      0x2dfdf0b5\n      eq\n      tag_6\n      jumpi\n      dup1\n      0x2e1a7d4d\n      eq\n      tag_7\n      jumpi\n      jump(tag_2)\n    tag_1:\n      jumpi(tag_2, calldatasize)\n        /* \"contracts/KipuBank.sol\":8952:8968  ErrZeroDeposit() */\n      mload(0x40)\n      0x6b388cc800000000000000000000000000000000000000000000000000000000\n      dup2\n      mstore\n      0x04\n      add\n      mload(0x40)\n      dup1\n      swap2\n      sub\n      swap1\n      revert\n        /* \"contracts/KipuBank.sol\":533:9050  contract KipuBank is Ownable2Step {... */\n    tag_2:\n        /* \"contracts/KipuBank.sol\":9025:9041  ErrZeroDeposit() */\n      mload(0x40)\n      0x6b388cc800000000000000000000000000000000000000000000000000000000\n      dup2\n      mstore\n      0x04\n      add\n      mload(0x40)\n      dup1\n      swap2\n      sub\n      swap1\n      revert\n        /* \"contracts/KipuBank.sol\":673:706  uint256 public immutable BANK_CAP */\n    tag_3:\n      callvalue\n      dup1\n      iszero\n      tag_31\n      jumpi\n      revert(0x00, 0x00)\n    tag_31:\n      pop\n      tag_32\n      tag_33\n      jump\t// in\n    tag_32:\n      mload(0x40)\n      tag_34\n      swap2\n      swap1\n      tag_35\n      jump\t// in\n    tag_34:\n      mload(0x40)\n      dup1\n      swap2\n      sub\n      swap1\n      return\n        /* \"contracts/KipuBank.sol\":7583:7814  function getContact(... */\n    tag_4:\n      callvalue\n      dup1\n      iszero\n      tag_36\n      jumpi\n      revert(0x00, 0x00)\n    tag_36:\n      pop\n      tag_37\n      0x04\n      dup1\n      calldatasize\n      sub\n      dup2\n      add\n      swap1\n      tag_38\n      swap2\n      swap1\n      tag_39\n      jump\t// in\n    tag_38:\n      tag_40\n      jump\t// in\n    tag_37:\n      mload(0x40)\n      tag_41\n      swap3\n      swap2\n      swap1\n      tag_42\n      jump\t// in\n    tag_41:\n      mload(0x40)\n      dup1\n      swap2\n      sub\n      swap1\n      return\n        /* \"contracts/KipuBank.sol\":8234:8339  function getBankTotalBalance() external view returns (uint256) {... */\n    tag_5:\n      callvalue\n      dup1\n      iszero\n      tag_43\n      jumpi\n      revert(0x00, 0x00)\n    tag_43:\n      pop\n      tag_44\n      tag_45\n      jump\t// in\n    tag_44:\n      mload(0x40)\n      tag_46\n      swap2\n      swap1\n      tag_35\n      jump\t// in\n    tag_46:\n      mload(0x40)\n      dup1\n      swap2\n      sub\n      swap1\n      return\n        /* \"contracts/KipuBank.sol\":1337:1364  uint256 public depositCount */\n    tag_6:\n      callvalue\n      dup1\n      iszero\n      tag_47\n      jumpi\n      revert(0x00, 0x00)\n    tag_47:\n      pop\n      tag_48\n      tag_49\n      jump\t// in\n    tag_48:\n      mload(0x40)\n      tag_50\n      swap2\n      swap1\n      tag_35\n      jump\t// in\n    tag_50:\n      mload(0x40)\n      dup1\n      swap2\n      sub\n      swap1\n      return\n        /* \"contracts/KipuBank.sol\":3938:4513  function withdraw(uint256 amount) external positive(amount) {... */\n    tag_7:\n      callvalue\n      dup1\n      iszero\n      tag_51\n      jumpi\n      revert(0x00, 0x00)\n    tag_51:\n      pop\n      tag_52\n      0x04\n      dup1\n      calldatasize\n      sub\n      dup2\n      add\n      swap1\n      tag_53\n      swap2\n      swap1\n      tag_54\n      jump\t// in\n    tag_53:\n      tag_55\n      jump\t// in\n    tag_52:\n      stop\n        /* \"contracts/KipuBank.sol\":5789:6399  function transferToContact(... */\n    tag_8:\n      callvalue\n      dup1\n      iszero\n      tag_56\n      jumpi\n      revert(0x00, 0x00)\n    tag_56:\n      pop\n      tag_57\n      0x04\n      dup1\n      calldatasize\n      sub\n      dup2\n      add\n      swap1\n      tag_58\n      swap2\n      swap1\n      tag_59\n      jump\t// in\n    tag_58:\n      tag_60\n      jump\t// in\n    tag_57:\n      stop\n        /* \"contracts/KipuBank.sol\":1370:1398  uint256 public withdrawCount */\n    tag_9:\n      callvalue\n      dup1\n      iszero\n      tag_61\n      jumpi\n      revert(0x00, 0x00)\n    tag_61:\n      pop\n      tag_62\n      tag_63\n      jump\t// in\n    tag_62:\n      mload(0x40)\n      tag_64\n      swap2\n      swap1\n      tag_35\n      jump\t// in\n    tag_64:\n      mload(0x40)\n      dup1\n      swap2\n      sub\n      swap1\n      return\n        /* \"contracts/KipuBank.sol\":4565:5451  function setContact(... */\n    tag_10:\n      callvalue\n      dup1\n      iszero\n      tag_65\n      jumpi\n      revert(0x00, 0x00)\n    tag_65:\n      pop\n      tag_66\n      0x04\n      dup1\n      calldatasize\n      sub\n      dup2\n      add\n      swap1\n      tag_67\n      swap2\n      swap1\n      tag_68\n      jump\t// in\n    tag_67:\n      tag_69\n      jump\t// in\n    tag_66:\n      stop\n        /* \"@openzeppelin/contracts/access/Ownable.sol\":2293:2394  function renounceOwnership() public virtual onlyOwner {... */\n    tag_11:\n      callvalue\n      dup1\n      iszero\n      tag_70\n      jumpi\n      revert(0x00, 0x00)\n    tag_70:\n      pop\n      tag_71\n      tag_72\n      jump\t// in\n    tag_71:\n      stop\n        /* \"@openzeppelin/contracts/access/Ownable2Step.sol\":2244:2473  function acceptOwnership() public virtual {... */\n    tag_12:\n      callvalue\n      dup1\n      iszero\n      tag_73\n      jumpi\n      revert(0x00, 0x00)\n    tag_73:\n      pop\n      tag_74\n      tag_75\n      jump\t// in\n    tag_74:\n      stop\n        /* \"@openzeppelin/contracts/access/Ownable.sol\":1638:1723  function owner() public view virtual returns (address) {... */\n    tag_13:\n      callvalue\n      dup1\n      iszero\n      tag_76\n      jumpi\n      revert(0x00, 0x00)\n    tag_76:\n      pop\n      tag_77\n      tag_78\n      jump\t// in\n    tag_77:\n      mload(0x40)\n      tag_79\n      swap2\n      swap1\n      tag_80\n      jump\t// in\n    tag_79:\n      mload(0x40)\n      dup1\n      swap2\n      sub\n      swap1\n      return\n        /* \"contracts/KipuBank.sol\":6444:7110  function transferToAlias(... */\n    tag_14:\n      callvalue\n      dup1\n      iszero\n      tag_81\n      jumpi\n      revert(0x00, 0x00)\n    tag_81:\n      pop\n      tag_82\n      0x04\n      dup1\n      calldatasize\n      sub\n      dup2\n      add\n      swap1\n      tag_83\n      swap2\n      swap1\n      tag_84\n      jump\t// in\n    tag_83:\n      tag_85\n      jump\t// in\n    tag_82:\n      stop\n        /* \"contracts/KipuBank.sol\":7820:8112  function getContactByAlias(... */\n    tag_15:\n      callvalue\n      dup1\n      iszero\n      tag_86\n      jumpi\n      revert(0x00, 0x00)\n    tag_86:\n      pop\n      tag_87\n      0x04\n      dup1\n      calldatasize\n      sub\n      dup2\n      add\n      swap1\n      tag_88\n      swap2\n      swap1\n      tag_89\n      jump\t// in\n    tag_88:\n      tag_90\n      jump\t// in\n    tag_87:\n      mload(0x40)\n      tag_91\n      swap3\n      swap2\n      swap1\n      tag_92\n      jump\t// in\n    tag_91:\n      mload(0x40)\n      dup1\n      swap2\n      sub\n      swap1\n      return\n        /* \"contracts/KipuBank.sol\":628:667  uint256 public immutable WITHDRAW_LIMIT */\n    tag_16:\n      callvalue\n      dup1\n      iszero\n      tag_93\n      jumpi\n      revert(0x00, 0x00)\n    tag_93:\n      pop\n      tag_94\n      tag_95\n      jump\t// in\n    tag_94:\n      mload(0x40)\n      tag_96\n      swap2\n      swap1\n      tag_35\n      jump\t// in\n    tag_96:\n      mload(0x40)\n      dup1\n      swap2\n      sub\n      swap1\n      return\n        /* \"contracts/KipuBank.sol\":7116:7577  function removeContact(address contact) external {... */\n    tag_17:\n      callvalue\n      dup1\n      iszero\n      tag_97\n      jumpi\n      revert(0x00, 0x00)\n    tag_97:\n      pop\n      tag_98\n      0x04\n      dup1\n      calldatasize\n      sub\n      dup2\n      add\n      swap1\n      tag_99\n      swap2\n      swap1\n      tag_100\n      jump\t// in\n    tag_99:\n      tag_101\n      jump\t// in\n    tag_98:\n      stop\n        /* \"contracts/KipuBank.sol\":3474:3932  function deposit() external payable positive(msg.value) {... */\n    tag_18:\n      tag_102\n      tag_103\n      jump\t// in\n    tag_102:\n      stop\n        /* \"contracts/KipuBank.sol\":8118:8228  function getVaultBalance(address user) external view returns (uint256) {... */\n    tag_19:\n      callvalue\n      dup1\n      iszero\n      tag_104\n      jumpi\n      revert(0x00, 0x00)\n    tag_104:\n      pop\n      tag_105\n      0x04\n      dup1\n      calldatasize\n      sub\n      dup2\n      add\n      swap1\n      tag_106\n      swap2\n      swap1\n      tag_100\n      jump\t// in\n    tag_106:\n      tag_107\n      jump\t// in\n    tag_105:\n      mload(0x40)\n      tag_108\n      swap2\n      swap1\n      tag_35\n      jump\t// in\n    tag_108:\n      mload(0x40)\n      dup1\n      swap2\n      sub\n      swap1\n      return\n        /* \"@openzeppelin/contracts/access/Ownable2Step.sol\":1232:1331  function pendingOwner() public view virtual returns (address) {... */\n    tag_20:\n      callvalue\n      dup1\n      iszero\n      tag_109\n      jumpi\n      revert(0x00, 0x00)\n    tag_109:\n      pop\n      tag_110\n      tag_111\n      jump\t// in\n    tag_110:\n      mload(0x40)\n      tag_112\n      swap2\n      swap1\n      tag_80\n      jump\t// in\n    tag_112:\n      mload(0x40)\n      dup1\n      swap2\n      sub\n      swap1\n      return\n        /* \"contracts/KipuBank.sol\":5457:5741  function updateContactLimit(address contact, uint256 newLimit) external {... */\n    tag_21:\n      callvalue\n      dup1\n      iszero\n      tag_113\n      jumpi\n      revert(0x00, 0x00)\n    tag_113:\n      pop\n      tag_114\n      0x04\n      dup1\n      calldatasize\n      sub\n      dup2\n      add\n      swap1\n      tag_115\n      swap2\n      swap1\n      tag_59\n      jump\t// in\n    tag_115:\n      tag_116\n      jump\t// in\n    tag_114:\n      stop\n        /* \"@openzeppelin/contracts/access/Ownable2Step.sol\":1649:1827  function transferOwnership(address newOwner) public virtual override onlyOwner {... */\n    tag_22:\n      callvalue\n      dup1\n      iszero\n      tag_117\n      jumpi\n      revert(0x00, 0x00)\n    tag_117:\n      pop\n      tag_118\n      0x04\n      dup1\n      calldatasize\n      sub\n      dup2\n      add\n      swap1\n      tag_119\n      swap2\n      swap1\n      tag_100\n      jump\t// in\n    tag_119:\n      tag_120\n      jump\t// in\n    tag_118:\n      stop\n        /* \"contracts/KipuBank.sol\":712:758  string public constant VERSION = \"KipuBank v2\" */\n    tag_23:\n      callvalue\n      dup1\n      iszero\n      tag_121\n      jumpi\n      revert(0x00, 0x00)\n    tag_121:\n      pop\n      tag_122\n      tag_123\n      jump\t// in\n    tag_122:\n      mload(0x40)\n      tag_124\n      swap2\n      swap1\n      tag_125\n      jump\t// in\n    tag_124:\n      mload(0x40)\n      dup1\n      swap2\n      sub\n      swap1\n      return\n        /* \"contracts/KipuBank.sol\":673:706  uint256 public immutable BANK_CAP */\n    tag_33:\n      immutable(\"0x813d1b11b8dd1556b28990a7c9be030b5a7cac9bde9a8342a13a89c68a3780b1\")\n      dup2\n      jump\t// out\n        /* \"contracts/KipuBank.sol\":7583:7814  function getContact(... */\n    tag_40:\n        /* \"contracts/KipuBank.sol\":7680:7700  string memory alias_ */\n      0x60\n        /* \"contracts/KipuBank.sol\":7702:7713  bool exists */\n      0x00\n        /* \"contracts/KipuBank.sol\":7725:7742  Contact storage c */\n      0x00\n        /* \"contracts/KipuBank.sol\":7745:7754  _contacts */\n      0x02\n        /* \"contracts/KipuBank.sol\":7745:7761  _contacts[owner] */\n      0x00\n        /* \"contracts/KipuBank.sol\":7755:7760  owner */\n      dup7\n        /* \"contracts/KipuBank.sol\":7745:7761  _contacts[owner] */\n      0xffffffffffffffffffffffffffffffffffffffff\n      and\n      0xffffffffffffffffffffffffffffffffffffffff\n      and\n      dup2\n      mstore\n      0x20\n      add\n      swap1\n      dup2\n      mstore\n      0x20\n      add\n      0x00\n      keccak256\n        /* \"contracts/KipuBank.sol\":7745:7770  _contacts[owner][contact] */\n      0x00\n        /* \"contracts/KipuBank.sol\":7762:7769  contact */\n      dup6\n        /* \"contracts/KipuBank.sol\":7745:7770  _contacts[owner][contact] */\n      0xffffffffffffffffffffffffffffffffffffffff\n      and\n      0xffffffffffffffffffffffffffffffffffffffff\n      and\n      dup2\n      mstore\n      0x20\n      add\n      swap1\n      dup2\n      mstore\n      0x20\n      add\n      0x00\n      keccak256\n        /* \"contracts/KipuBank.sol\":7725:7770  Contact storage c = _contacts[owner][contact] */\n      swap1\n      pop\n        /* \"contracts/KipuBank.sol\":7788:7789  c */\n      dup1\n        /* \"contracts/KipuBank.sol\":7788:7796  c.alias_ */\n      0x00\n      add\n        /* \"contracts/KipuBank.sol\":7798:7799  c */\n      dup2\n        /* \"contracts/KipuBank.sol\":7798:7806  c.exists */\n      0x02\n      add\n      0x00\n      swap1\n      sload\n      swap1\n      0x0100\n      exp\n      swap1\n      div\n      0xff\n      and\n        /* \"contracts/KipuBank.sol\":7780:7807  return (c.alias_, c.exists) */\n      dup2\n      dup1\n      sload\n      tag_127\n      swap1\n      tag_128\n      jump\t// in\n    tag_127:\n      dup1\n      0x1f\n      add\n      0x20\n      dup1\n      swap2\n      div\n      mul\n      0x20\n      add\n      mload(0x40)\n      swap1\n      dup2\n      add\n      0x40\n      mstore\n      dup1\n      swap3\n      swap2\n      swap1\n      dup2\n      dup2\n      mstore\n      0x20\n      add\n      dup3\n      dup1\n      sload\n      tag_129\n      swap1\n      tag_128\n      jump\t// in\n    tag_129:\n      dup1\n      iszero\n      tag_130\n      jumpi\n      dup1\n      0x1f\n      lt\n      tag_131\n      jumpi\n      0x0100\n      dup1\n      dup4\n      sload\n      div\n      mul\n      dup4\n      mstore\n      swap2\n      0x20\n      add\n      swap2\n      jump(tag_130)\n    tag_131:\n      dup3\n      add\n      swap2\n      swap1\n      0x00\n      mstore\n      keccak256(0x00, 0x20)\n      swap1\n    tag_132:\n      dup2\n      sload\n      dup2\n      mstore\n      swap1\n      0x01\n      add\n      swap1\n      0x20\n      add\n      dup1\n      dup4\n      gt\n      tag_132\n      jumpi\n      dup3\n      swap1\n      sub\n      0x1f\n      and\n      dup3\n      add\n      swap2\n    tag_130:\n      pop\n      pop\n      pop\n      pop\n      pop\n      swap2\n      pop\n      swap3\n      pop\n      swap3\n      pop\n      pop\n        /* \"contracts/KipuBank.sol\":7583:7814  function getContact(... */\n      swap3\n      pop\n      swap3\n      swap1\n      pop\n      jump\t// out\n        /* \"contracts/KipuBank.sol\":8234:8339  function getBankTotalBalance() external view returns (uint256) {... */\n    tag_45:\n        /* \"contracts/KipuBank.sol\":8288:8295  uint256 */\n      0x00\n        /* \"contracts/KipuBank.sol\":8314:8332  _totalVaultBalance */\n      sload(0x06)\n        /* \"contracts/KipuBank.sol\":8307:8332  return _totalVaultBalance */\n      swap1\n      pop\n        /* \"contracts/KipuBank.sol\":8234:8339  function getBankTotalBalance() external view returns (uint256) {... */\n      swap1\n      jump\t// out\n        /* \"contracts/KipuBank.sol\":1337:1364  uint256 public depositCount */\n    tag_49:\n      sload(0x07)\n      dup2\n      jump\t// out\n        /* \"contracts/KipuBank.sol\":3938:4513  function withdraw(uint256 amount) external positive(amount) {... */\n    tag_55:\n        /* \"contracts/KipuBank.sol\":3990:3996  amount */\n      dup1\n        /* \"contracts/KipuBank.sol\":2657:2658  0 */\n      0x00\n        /* \"contracts/KipuBank.sol\":2647:2653  amount */\n      dup2\n        /* \"contracts/KipuBank.sol\":2647:2658  amount == 0 */\n      sub\n        /* \"contracts/KipuBank.sol\":2643:2683  if (amount == 0) revert ErrZeroDeposit() */\n      tag_135\n      jumpi\n        /* \"contracts/KipuBank.sol\":2667:2683  ErrZeroDeposit() */\n      mload(0x40)\n      0x6b388cc800000000000000000000000000000000000000000000000000000000\n      dup2\n      mstore\n      0x04\n      add\n      mload(0x40)\n      dup1\n      swap2\n      sub\n      swap1\n      revert\n        /* \"contracts/KipuBank.sol\":2643:2683  if (amount == 0) revert ErrZeroDeposit() */\n    tag_135:\n        /* \"contracts/KipuBank.sol\":4021:4035  WITHDRAW_LIMIT */\n      immutable(\"0x7a54ea38c6e84582f8d39074db7876849c2b4a6a0d270a38f071e30cc74a8c79\")\n        /* \"contracts/KipuBank.sol\":4012:4018  amount */\n      dup3\n        /* \"contracts/KipuBank.sol\":4012:4035  amount > WITHDRAW_LIMIT */\n      gt\n        /* \"contracts/KipuBank.sol\":4008:4104  if (amount > WITHDRAW_LIMIT)... */\n      iszero\n      tag_137\n      jumpi\n        /* \"contracts/KipuBank.sol\":4081:4095  WITHDRAW_LIMIT */\n      immutable(\"0x7a54ea38c6e84582f8d39074db7876849c2b4a6a0d270a38f071e30cc74a8c79\")\n        /* \"contracts/KipuBank.sol\":4097:4103  amount */\n      dup3\n        /* \"contracts/KipuBank.sol\":4056:4104  ErrWithdrawLimitExceeded(WITHDRAW_LIMIT, amount) */\n      mload(0x40)\n      0x2996304900000000000000000000000000000000000000000000000000000000\n      dup2\n      mstore\n      0x04\n      add\n      tag_138\n      swap3\n      swap2\n      swap1\n      tag_139\n      jump\t// in\n    tag_138:\n      mload(0x40)\n      dup1\n      swap2\n      sub\n      swap1\n      revert\n        /* \"contracts/KipuBank.sol\":4008:4104  if (amount > WITHDRAW_LIMIT)... */\n    tag_137:\n        /* \"contracts/KipuBank.sol\":4115:4134  uint256 userBalance */\n      0x00\n        /* \"contracts/KipuBank.sol\":4137:4146  _balances */\n      0x05\n        /* \"contracts/KipuBank.sol\":4137:4158  _balances[msg.sender] */\n      0x00\n        /* \"contracts/KipuBank.sol\":4147:4157  msg.sender */\n      caller\n        /* \"contracts/KipuBank.sol\":4137:4158  _balances[msg.sender] */\n      0xffffffffffffffffffffffffffffffffffffffff\n      and\n      0xffffffffffffffffffffffffffffffffffffffff\n      and\n      dup2\n      mstore\n      0x20\n      add\n      swap1\n      dup2\n      mstore\n      0x20\n      add\n      0x00\n      keccak256\n      sload\n        /* \"contracts/KipuBank.sol\":4115:4158  uint256 userBalance = _balances[msg.sender] */\n      swap1\n      pop\n        /* \"contracts/KipuBank.sol\":4186:4192  amount */\n      dup3\n        /* \"contracts/KipuBank.sol\":4172:4183  userBalance */\n      dup2\n        /* \"contracts/KipuBank.sol\":4172:4192  userBalance < amount */\n      lt\n        /* \"contracts/KipuBank.sol\":4168:4256  if (userBalance < amount)... */\n      iszero\n      tag_140\n      jumpi\n        /* \"contracts/KipuBank.sol\":4236:4247  userBalance */\n      dup1\n        /* \"contracts/KipuBank.sol\":4249:4255  amount */\n      dup4\n        /* \"contracts/KipuBank.sol\":4213:4256  ErrInsufficientBalance(userBalance, amount) */\n      mload(0x40)\n      0x9d2afa9000000000000000000000000000000000000000000000000000000000\n      dup2\n      mstore\n      0x04\n      add\n      tag_141\n      swap3\n      swap2\n      swap1\n      tag_139\n      jump\t// in\n    tag_141:\n      mload(0x40)\n      dup1\n      swap2\n      sub\n      swap1\n      revert\n        /* \"contracts/KipuBank.sol\":4168:4256  if (userBalance < amount)... */\n    tag_140:\n        /* \"contracts/KipuBank.sol\":4305:4311  amount */\n      dup3\n        /* \"contracts/KipuBank.sol\":4291:4302  userBalance */\n      dup2\n        /* \"contracts/KipuBank.sol\":4291:4311  userBalance - amount */\n      tag_142\n      swap2\n      swap1\n      tag_143\n      jump\t// in\n    tag_142:\n        /* \"contracts/KipuBank.sol\":4267:4276  _balances */\n      0x05\n        /* \"contracts/KipuBank.sol\":4267:4288  _balances[msg.sender] */\n      0x00\n        /* \"contracts/KipuBank.sol\":4277:4287  msg.sender */\n      caller\n        /* \"contracts/KipuBank.sol\":4267:4288  _balances[msg.sender] */\n      0xffffffffffffffffffffffffffffffffffffffff\n      and\n      0xffffffffffffffffffffffffffffffffffffffff\n      and\n      dup2\n      mstore\n      0x20\n      add\n      swap1\n      dup2\n      mstore\n      0x20\n      add\n      0x00\n      keccak256\n        /* \"contracts/KipuBank.sol\":4267:4311  _balances[msg.sender] = userBalance - amount */\n      dup2\n      swap1\n      sstore\n      pop\n        /* \"contracts/KipuBank.sol\":4343:4349  amount */\n      dup3\n        /* \"contracts/KipuBank.sol\":4321:4339  _totalVaultBalance */\n      0x06\n      0x00\n        /* \"contracts/KipuBank.sol\":4321:4349  _totalVaultBalance -= amount */\n      dup3\n      dup3\n      sload\n      tag_144\n      swap2\n      swap1\n      tag_143\n      jump\t// in\n    tag_144:\n      swap3\n      pop\n      pop\n      dup2\n      swap1\n      sstore\n      pop\n        /* \"contracts/KipuBank.sol\":4359:4384  _incrementWithdrawCount() */\n      tag_145\n        /* \"contracts/KipuBank.sol\":4359:4382  _incrementWithdrawCount */\n      tag_146\n        /* \"contracts/KipuBank.sol\":4359:4384  _incrementWithdrawCount() */\n      jump\t// in\n    tag_145:\n        /* \"contracts/KipuBank.sol\":4395:4437  _safeTransfer(payable(msg.sender), amount) */\n      tag_147\n        /* \"contracts/KipuBank.sol\":4417:4427  msg.sender */\n      caller\n        /* \"contracts/KipuBank.sol\":4430:4436  amount */\n      dup5\n        /* \"contracts/KipuBank.sol\":4395:4408  _safeTransfer */\n      tag_148\n        /* \"contracts/KipuBank.sol\":4395:4437  _safeTransfer(payable(msg.sender), amount) */\n      jump\t// in\n    tag_147:\n        /* \"contracts/KipuBank.sol\":4464:4474  msg.sender */\n      caller\n        /* \"contracts/KipuBank.sol\":4453:4506  Withdrawal(msg.sender, amount, _balances[msg.sender]) */\n      0xffffffffffffffffffffffffffffffffffffffff\n      and\n      0xdf273cb619d95419a9cd0ec88123a0538c85064229baa6363788f743fff90deb\n        /* \"contracts/KipuBank.sol\":4476:4482  amount */\n      dup5\n        /* \"contracts/KipuBank.sol\":4484:4493  _balances */\n      0x05\n        /* \"contracts/KipuBank.sol\":4484:4505  _balances[msg.sender] */\n      0x00\n        /* \"contracts/KipuBank.sol\":4494:4504  msg.sender */\n      caller\n        /* \"contracts/KipuBank.sol\":4484:4505  _balances[msg.sender] */\n      0xffffffffffffffffffffffffffffffffffffffff\n      and\n      0xffffffffffffffffffffffffffffffffffffffff\n      and\n      dup2\n      mstore\n      0x20\n      add\n      swap1\n      dup2\n      mstore\n      0x20\n      add\n      0x00\n      keccak256\n      sload\n        /* \"contracts/KipuBank.sol\":4453:4506  Withdrawal(msg.sender, amount, _balances[msg.sender]) */\n      mload(0x40)\n      tag_149\n      swap3\n      swap2\n      swap1\n      tag_139\n      jump\t// in\n    tag_149:\n      mload(0x40)\n      dup1\n      swap2\n      sub\n      swap1\n      log2\n        /* \"contracts/KipuBank.sol\":3998:4513  {... */\n      pop\n        /* \"contracts/KipuBank.sol\":3938:4513  function withdraw(uint256 amount) external positive(amount) {... */\n      pop\n      pop\n      jump\t// out\n        /* \"contracts/KipuBank.sol\":5789:6399  function transferToContact(... */\n    tag_60:\n        /* \"contracts/KipuBank.sol\":5889:5895  amount */\n      dup1\n        /* \"contracts/KipuBank.sol\":2657:2658  0 */\n      0x00\n        /* \"contracts/KipuBank.sol\":2647:2653  amount */\n      dup2\n        /* \"contracts/KipuBank.sol\":2647:2658  amount == 0 */\n      sub\n        /* \"contracts/KipuBank.sol\":2643:2683  if (amount == 0) revert ErrZeroDeposit() */\n      tag_151\n      jumpi\n        /* \"contracts/KipuBank.sol\":2667:2683  ErrZeroDeposit() */\n      mload(0x40)\n      0x6b388cc800000000000000000000000000000000000000000000000000000000\n      dup2\n      mstore\n      0x04\n      add\n      mload(0x40)\n      dup1\n      swap2\n      sub\n      swap1\n      revert\n        /* \"contracts/KipuBank.sol\":2643:2683  if (amount == 0) revert ErrZeroDeposit() */\n    tag_151:\n        /* \"contracts/KipuBank.sol\":5907:5924  Contact storage c */\n      0x00\n        /* \"contracts/KipuBank.sol\":5927:5936  _contacts */\n      0x02\n        /* \"contracts/KipuBank.sol\":5927:5948  _contacts[msg.sender] */\n      0x00\n        /* \"contracts/KipuBank.sol\":5937:5947  msg.sender */\n      caller\n        /* \"contracts/KipuBank.sol\":5927:5948  _contacts[msg.sender] */\n      0xffffffffffffffffffffffffffffffffffffffff\n      and\n      0xffffffffffffffffffffffffffffffffffffffff\n      and\n      dup2\n      mstore\n      0x20\n      add\n      swap1\n      dup2\n      mstore\n      0x20\n      add\n      0x00\n      keccak256\n        /* \"contracts/KipuBank.sol\":5927:5957  _contacts[msg.sender][contact] */\n      0x00\n        /* \"contracts/KipuBank.sol\":5949:5956  contact */\n      dup6\n        /* \"contracts/KipuBank.sol\":5927:5957  _contacts[msg.sender][contact] */\n      0xffffffffffffffffffffffffffffffffffffffff\n      and\n      0xffffffffffffffffffffffffffffffffffffffff\n      and\n      dup2\n      mstore\n      0x20\n      add\n      swap1\n      dup2\n      mstore\n      0x20\n      add\n      0x00\n      keccak256\n        /* \"contracts/KipuBank.sol\":5907:5957  Contact storage c = _contacts[msg.sender][contact] */\n      swap1\n      pop\n        /* \"contracts/KipuBank.sol\":5972:5973  c */\n      dup1\n        /* \"contracts/KipuBank.sol\":5972:5980  c.exists */\n      0x02\n      add\n      0x00\n      swap1\n      sload\n      swap1\n      0x0100\n      exp\n      swap1\n      div\n      0xff\n      and\n        /* \"contracts/KipuBank.sol\":5967:6009  if (!c.exists) revert ErrContactNotFound() */\n      tag_153\n      jumpi\n        /* \"contracts/KipuBank.sol\":5989:6009  ErrContactNotFound() */\n      mload(0x40)\n      0xda2b2f1300000000000000000000000000000000000000000000000000000000\n      dup2\n      mstore\n      0x04\n      add\n      mload(0x40)\n      dup1\n      swap2\n      sub\n      swap1\n      revert\n        /* \"contracts/KipuBank.sol\":5967:6009  if (!c.exists) revert ErrContactNotFound() */\n    tag_153:\n        /* \"contracts/KipuBank.sol\":6034:6035  0 */\n      0x00\n        /* \"contracts/KipuBank.sol\":6023:6024  c */\n      dup2\n        /* \"contracts/KipuBank.sol\":6023:6030  c.limit */\n      0x01\n      add\n      sload\n        /* \"contracts/KipuBank.sol\":6023:6035  c.limit != 0 */\n      eq\n      iszero\n        /* \"contracts/KipuBank.sol\":6023:6055  c.limit != 0 && amount > c.limit */\n      dup1\n      iszero\n      tag_154\n      jumpi\n      pop\n        /* \"contracts/KipuBank.sol\":6048:6049  c */\n      dup1\n        /* \"contracts/KipuBank.sol\":6048:6055  c.limit */\n      0x01\n      add\n      sload\n        /* \"contracts/KipuBank.sol\":6039:6045  amount */\n      dup4\n        /* \"contracts/KipuBank.sol\":6039:6055  amount > c.limit */\n      gt\n        /* \"contracts/KipuBank.sol\":6023:6055  c.limit != 0 && amount > c.limit */\n    tag_154:\n        /* \"contracts/KipuBank.sol\":6019:6117  if (c.limit != 0 && amount > c.limit)... */\n      iszero\n      tag_155\n      jumpi\n        /* \"contracts/KipuBank.sol\":6101:6102  c */\n      dup1\n        /* \"contracts/KipuBank.sol\":6101:6108  c.limit */\n      0x01\n      add\n      sload\n        /* \"contracts/KipuBank.sol\":6110:6116  amount */\n      dup4\n        /* \"contracts/KipuBank.sol\":6076:6117  ErrWithdrawLimitExceeded(c.limit, amount) */\n      mload(0x40)\n      0x2996304900000000000000000000000000000000000000000000000000000000\n      dup2\n      mstore\n      0x04\n      add\n      tag_156\n      swap3\n      swap2\n      swap1\n      tag_139\n      jump\t// in\n    tag_156:\n      mload(0x40)\n      dup1\n      swap2\n      sub\n      swap1\n      revert\n        /* \"contracts/KipuBank.sol\":6019:6117  if (c.limit != 0 && amount > c.limit)... */\n    tag_155:\n        /* \"contracts/KipuBank.sol\":6146:6156  uint256 sb */\n      0x00\n        /* \"contracts/KipuBank.sol\":6159:6168  _balances */\n      0x05\n        /* \"contracts/KipuBank.sol\":6159:6180  _balances[msg.sender] */\n      0x00\n        /* \"contracts/KipuBank.sol\":6169:6179  msg.sender */\n      caller\n        /* \"contracts/KipuBank.sol\":6159:6180  _balances[msg.sender] */\n      0xffffffffffffffffffffffffffffffffffffffff\n      and\n      0xffffffffffffffffffffffffffffffffffffffff\n      and\n      dup2\n      mstore\n      0x20\n      add\n      swap1\n      dup2\n      mstore\n      0x20\n      add\n      0x00\n      keccak256\n      sload\n        /* \"contracts/KipuBank.sol\":6146:6180  uint256 sb = _balances[msg.sender] */\n      swap1\n      pop\n        /* \"contracts/KipuBank.sol\":6199:6205  amount */\n      dup4\n        /* \"contracts/KipuBank.sol\":6194:6196  sb */\n      dup2\n        /* \"contracts/KipuBank.sol\":6194:6205  sb < amount */\n      lt\n        /* \"contracts/KipuBank.sol\":6190:6248  if (sb < amount) revert ErrInsufficientBalance(sb, amount) */\n      iszero\n      tag_157\n      jumpi\n        /* \"contracts/KipuBank.sol\":6237:6239  sb */\n      dup1\n        /* \"contracts/KipuBank.sol\":6241:6247  amount */\n      dup5\n        /* \"contracts/KipuBank.sol\":6214:6248  ErrInsufficientBalance(sb, amount) */\n      mload(0x40)\n      0x9d2afa9000000000000000000000000000000000000000000000000000000000\n      dup2\n      mstore\n      0x04\n      add\n      tag_158\n      swap3\n      swap2\n      swap1\n      tag_139\n      jump\t// in\n    tag_158:\n      mload(0x40)\n      dup1\n      swap2\n      sub\n      swap1\n      revert\n        /* \"contracts/KipuBank.sol\":6190:6248  if (sb < amount) revert ErrInsufficientBalance(sb, amount) */\n    tag_157:\n        /* \"contracts/KipuBank.sol\":6288:6294  amount */\n      dup4\n        /* \"contracts/KipuBank.sol\":6283:6285  sb */\n      dup2\n        /* \"contracts/KipuBank.sol\":6283:6294  sb - amount */\n      tag_159\n      swap2\n      swap1\n      tag_143\n      jump\t// in\n    tag_159:\n        /* \"contracts/KipuBank.sol\":6259:6268  _balances */\n      0x05\n        /* \"contracts/KipuBank.sol\":6259:6280  _balances[msg.sender] */\n      0x00\n        /* \"contracts/KipuBank.sol\":6269:6279  msg.sender */\n      caller\n        /* \"contracts/KipuBank.sol\":6259:6280  _balances[msg.sender] */\n      0xffffffffffffffffffffffffffffffffffffffff\n      and\n      0xffffffffffffffffffffffffffffffffffffffff\n      and\n      dup2\n      mstore\n      0x20\n      add\n      swap1\n      dup2\n      mstore\n      0x20\n      add\n      0x00\n      keccak256\n        /* \"contracts/KipuBank.sol\":6259:6294  _balances[msg.sender] = sb - amount */\n      dup2\n      swap1\n      sstore\n      pop\n        /* \"contracts/KipuBank.sol\":6326:6332  amount */\n      dup4\n        /* \"contracts/KipuBank.sol\":6304:6313  _balances */\n      0x05\n        /* \"contracts/KipuBank.sol\":6304:6322  _balances[contact] */\n      0x00\n        /* \"contracts/KipuBank.sol\":6314:6321  contact */\n      dup8\n        /* \"contracts/KipuBank.sol\":6304:6322  _balances[contact] */\n      0xffffffffffffffffffffffffffffffffffffffff\n      and\n      0xffffffffffffffffffffffffffffffffffffffff\n      and\n      dup2\n      mstore\n      0x20\n      add\n      swap1\n      dup2\n      mstore\n      0x20\n      add\n      0x00\n      keccak256\n      0x00\n        /* \"contracts/KipuBank.sol\":6304:6332  _balances[contact] += amount */\n      dup3\n      dup3\n      sload\n      tag_160\n      swap2\n      swap1\n      tag_161\n      jump\t// in\n    tag_160:\n      swap3\n      pop\n      pop\n      dup2\n      swap1\n      sstore\n      pop\n        /* \"contracts/KipuBank.sol\":6376:6383  contact */\n      dup5\n        /* \"contracts/KipuBank.sol\":6347:6392  InternalTransfer(msg.sender, contact, amount) */\n      0xffffffffffffffffffffffffffffffffffffffff\n      and\n        /* \"contracts/KipuBank.sol\":6364:6374  msg.sender */\n      caller\n        /* \"contracts/KipuBank.sol\":6347:6392  InternalTransfer(msg.sender, contact, amount) */\n      0xffffffffffffffffffffffffffffffffffffffff\n      and\n      0xe2080c8fc8d86c864d8dc081fadaebf2be7191086615e786f954420f13ed122a\n        /* \"contracts/KipuBank.sol\":6385:6391  amount */\n      dup7\n        /* \"contracts/KipuBank.sol\":6347:6392  InternalTransfer(msg.sender, contact, amount) */\n      mload(0x40)\n      tag_162\n      swap2\n      swap1\n      tag_35\n      jump\t// in\n    tag_162:\n      mload(0x40)\n      dup1\n      swap2\n      sub\n      swap1\n      log3\n        /* \"contracts/KipuBank.sol\":5897:6399  {... */\n      pop\n      pop\n        /* \"contracts/KipuBank.sol\":5789:6399  function transferToContact(... */\n      pop\n      pop\n      pop\n      jump\t// out\n        /* \"contracts/KipuBank.sol\":1370:1398  uint256 public withdrawCount */\n    tag_63:\n      sload(0x08)\n      dup2\n      jump\t// out\n        /* \"contracts/KipuBank.sol\":4565:5451  function setContact(... */\n    tag_69:\n        /* \"contracts/KipuBank.sol\":4713:4714  0 */\n      0x00\n        /* \"contracts/KipuBank.sol\":4694:4715  contact == address(0) */\n      0xffffffffffffffffffffffffffffffffffffffff\n      and\n        /* \"contracts/KipuBank.sol\":4694:4701  contact */\n      dup5\n        /* \"contracts/KipuBank.sol\":4694:4715  contact == address(0) */\n      0xffffffffffffffffffffffffffffffffffffffff\n      and\n      sub\n        /* \"contracts/KipuBank.sol\":4690:4743  if (contact == address(0)) revert ErrInvalidContact() */\n      tag_164\n      jumpi\n        /* \"contracts/KipuBank.sol\":4724:4743  ErrInvalidContact() */\n      mload(0x40)\n      0x2a7fb4ea00000000000000000000000000000000000000000000000000000000\n      dup2\n      mstore\n      0x04\n      add\n      mload(0x40)\n      dup1\n      swap2\n      sub\n      swap1\n      revert\n        /* \"contracts/KipuBank.sol\":4690:4743  if (contact == address(0)) revert ErrInvalidContact() */\n    tag_164:\n        /* \"contracts/KipuBank.sol\":4753:4762  bytes32 k */\n      0x00\n        /* \"contracts/KipuBank.sol\":4765:4782  _aliasKey(alias_) */\n      tag_165\n        /* \"contracts/KipuBank.sol\":4775:4781  alias_ */\n      dup5\n      dup5\n        /* \"contracts/KipuBank.sol\":4765:4782  _aliasKey(alias_) */\n      dup1\n      dup1\n      0x1f\n      add\n      0x20\n      dup1\n      swap2\n      div\n      mul\n      0x20\n      add\n      mload(0x40)\n      swap1\n      dup2\n      add\n      0x40\n      mstore\n      dup1\n      swap4\n      swap3\n      swap2\n      swap1\n      dup2\n      dup2\n      mstore\n      0x20\n      add\n      dup4\n      dup4\n      dup1\n      dup3\n      dup5\n      calldatacopy\n      0x00\n      dup2\n      dup5\n      add\n      mstore\n      not(0x1f)\n      0x1f\n      dup3\n      add\n      and\n      swap1\n      pop\n      dup1\n      dup4\n      add\n      swap3\n      pop\n      pop\n      pop\n      pop\n      pop\n      pop\n      pop\n        /* \"contracts/KipuBank.sol\":4765:4774  _aliasKey */\n      tag_166\n        /* \"contracts/KipuBank.sol\":4765:4782  _aliasKey(alias_) */\n      jump\t// in\n    tag_165:\n        /* \"contracts/KipuBank.sol\":4753:4782  bytes32 k = _aliasKey(alias_) */\n      swap1\n      pop\n        /* \"contracts/KipuBank.sol\":4792:4807  address current */\n      0x00\n        /* \"contracts/KipuBank.sol\":4810:4821  _aliasIndex */\n      0x03\n        /* \"contracts/KipuBank.sol\":4810:4833  _aliasIndex[msg.sender] */\n      0x00\n        /* \"contracts/KipuBank.sol\":4822:4832  msg.sender */\n      caller\n        /* \"contracts/KipuBank.sol\":4810:4833  _aliasIndex[msg.sender] */\n      0xffffffffffffffffffffffffffffffffffffffff\n      and\n      0xffffffffffffffffffffffffffffffffffffffff\n      and\n      dup2\n      mstore\n      0x20\n      add\n      swap1\n      dup2\n      mstore\n      0x20\n      add\n      0x00\n      keccak256\n        /* \"contracts/KipuBank.sol\":4810:4836  _aliasIndex[msg.sender][k] */\n      0x00\n        /* \"contracts/KipuBank.sol\":4834:4835  k */\n      dup4\n        /* \"contracts/KipuBank.sol\":4810:4836  _aliasIndex[msg.sender][k] */\n      dup2\n      mstore\n      0x20\n      add\n      swap1\n      dup2\n      mstore\n      0x20\n      add\n      0x00\n      keccak256\n      0x00\n      swap1\n      sload\n      swap1\n      0x0100\n      exp\n      swap1\n      div\n      0xffffffffffffffffffffffffffffffffffffffff\n      and\n        /* \"contracts/KipuBank.sol\":4792:4836  address current = _aliasIndex[msg.sender][k] */\n      swap1\n      pop\n        /* \"contracts/KipuBank.sol\":4869:4870  0 */\n      0x00\n        /* \"contracts/KipuBank.sol\":4850:4871  current != address(0) */\n      0xffffffffffffffffffffffffffffffffffffffff\n      and\n        /* \"contracts/KipuBank.sol\":4850:4857  current */\n      dup2\n        /* \"contracts/KipuBank.sol\":4850:4871  current != address(0) */\n      0xffffffffffffffffffffffffffffffffffffffff\n      and\n      eq\n      iszero\n        /* \"contracts/KipuBank.sol\":4850:4893  current != address(0) && current != contact */\n      dup1\n      iszero\n      tag_167\n      jumpi\n      pop\n        /* \"contracts/KipuBank.sol\":4886:4893  contact */\n      dup6\n        /* \"contracts/KipuBank.sol\":4875:4893  current != contact */\n      0xffffffffffffffffffffffffffffffffffffffff\n      and\n        /* \"contracts/KipuBank.sol\":4875:4882  current */\n      dup2\n        /* \"contracts/KipuBank.sol\":4875:4893  current != contact */\n      0xffffffffffffffffffffffffffffffffffffffff\n      and\n      eq\n      iszero\n        /* \"contracts/KipuBank.sol\":4850:4893  current != address(0) && current != contact */\n    tag_167:\n        /* \"contracts/KipuBank.sol\":4846:4917  if (current != address(0) && current != contact) revert ErrAliasTaken() */\n      iszero\n      tag_168\n      jumpi\n        /* \"contracts/KipuBank.sol\":4902:4917  ErrAliasTaken() */\n      mload(0x40)\n      0x1fba8fb900000000000000000000000000000000000000000000000000000000\n      dup2\n      mstore\n      0x04\n      add\n      mload(0x40)\n      dup1\n      swap2\n      sub\n      swap1\n      revert\n        /* \"contracts/KipuBank.sol\":4846:4917  if (current != address(0) && current != contact) revert ErrAliasTaken() */\n    tag_168:\n        /* \"contracts/KipuBank.sol\":4928:4948  Contact storage prev */\n      0x00\n        /* \"contracts/KipuBank.sol\":4951:4960  _contacts */\n      0x02\n        /* \"contracts/KipuBank.sol\":4951:4972  _contacts[msg.sender] */\n      0x00\n        /* \"contracts/KipuBank.sol\":4961:4971  msg.sender */\n      caller\n        /* \"contracts/KipuBank.sol\":4951:4972  _contacts[msg.sender] */\n      0xffffffffffffffffffffffffffffffffffffffff\n      and\n      0xffffffffffffffffffffffffffffffffffffffff\n      and\n      dup2\n      mstore\n      0x20\n      add\n      swap1\n      dup2\n      mstore\n      0x20\n      add\n      0x00\n      keccak256\n        /* \"contracts/KipuBank.sol\":4951:4981  _contacts[msg.sender][contact] */\n      0x00\n        /* \"contracts/KipuBank.sol\":4973:4980  contact */\n      dup9\n        /* \"contracts/KipuBank.sol\":4951:4981  _contacts[msg.sender][contact] */\n      0xffffffffffffffffffffffffffffffffffffffff\n      and\n      0xffffffffffffffffffffffffffffffffffffffff\n      and\n      dup2\n      mstore\n      0x20\n      add\n      swap1\n      dup2\n      mstore\n      0x20\n      add\n      0x00\n      keccak256\n        /* \"contracts/KipuBank.sol\":4928:4981  Contact storage prev = _contacts[msg.sender][contact] */\n      swap1\n      pop\n        /* \"contracts/KipuBank.sol\":4995:4999  prev */\n      dup1\n        /* \"contracts/KipuBank.sol\":4995:5006  prev.exists */\n      0x02\n      add\n      0x00\n      swap1\n      sload\n      swap1\n      0x0100\n      exp\n      swap1\n      div\n      0xff\n      and\n        /* \"contracts/KipuBank.sol\":4991:5195  if (prev.exists) {... */\n      iszero\n      tag_169\n      jumpi\n        /* \"contracts/KipuBank.sol\":5022:5034  bytes32 oldK */\n      0x00\n        /* \"contracts/KipuBank.sol\":5037:5059  _aliasKey(prev.alias_) */\n      tag_170\n        /* \"contracts/KipuBank.sol\":5047:5051  prev */\n      dup3\n        /* \"contracts/KipuBank.sol\":5047:5058  prev.alias_ */\n      0x00\n      add\n        /* \"contracts/KipuBank.sol\":5037:5059  _aliasKey(prev.alias_) */\n      dup1\n      sload\n      tag_171\n      swap1\n      tag_128\n      jump\t// in\n    tag_171:\n      dup1\n      0x1f\n      add\n      0x20\n      dup1\n      swap2\n      div\n      mul\n      0x20\n      add\n      mload(0x40)\n      swap1\n      dup2\n      add\n      0x40\n      mstore\n      dup1\n      swap3\n      swap2\n      swap1\n      dup2\n      dup2\n      mstore\n      0x20\n      add\n      dup3\n      dup1\n      sload\n      tag_172\n      swap1\n      tag_128\n      jump\t// in\n    tag_172:\n      dup1\n      iszero\n      tag_173\n      jumpi\n      dup1\n      0x1f\n      lt\n      tag_174\n      jumpi\n      0x0100\n      dup1\n      dup4\n      sload\n      div\n      mul\n      dup4\n      mstore\n      swap2\n      0x20\n      add\n      swap2\n      jump(tag_173)\n    tag_174:\n      dup3\n      add\n      swap2\n      swap1\n      0x00\n      mstore\n      keccak256(0x00, 0x20)\n      swap1\n    tag_175:\n      dup2\n      sload\n      dup2\n      mstore\n      swap1\n      0x01\n      add\n      swap1\n      0x20\n      add\n      dup1\n      dup4\n      gt\n      tag_175\n      jumpi\n      dup3\n      swap1\n      sub\n      0x1f\n      and\n      dup3\n      add\n      swap2\n    tag_173:\n      pop\n      pop\n      pop\n      pop\n      pop\n        /* \"contracts/KipuBank.sol\":5037:5046  _aliasKey */\n      tag_166\n        /* \"contracts/KipuBank.sol\":5037:5059  _aliasKey(prev.alias_) */\n      jump\t// in\n    tag_170:\n        /* \"contracts/KipuBank.sol\":5022:5059  bytes32 oldK = _aliasKey(prev.alias_) */\n      swap1\n      pop\n        /* \"contracts/KipuBank.sol\":5085:5086  k */\n      dup4\n        /* \"contracts/KipuBank.sol\":5077:5081  oldK */\n      dup2\n        /* \"contracts/KipuBank.sol\":5077:5086  oldK != k */\n      eq\n      iszero\n        /* \"contracts/KipuBank.sol\":5077:5130  oldK != k && _aliasIndex[msg.sender][oldK] == contact */\n      dup1\n      iszero\n      tag_176\n      jumpi\n      pop\n        /* \"contracts/KipuBank.sol\":5123:5130  contact */\n      dup8\n        /* \"contracts/KipuBank.sol\":5090:5130  _aliasIndex[msg.sender][oldK] == contact */\n      0xffffffffffffffffffffffffffffffffffffffff\n      and\n        /* \"contracts/KipuBank.sol\":5090:5101  _aliasIndex */\n      0x03\n        /* \"contracts/KipuBank.sol\":5090:5113  _aliasIndex[msg.sender] */\n      0x00\n        /* \"contracts/KipuBank.sol\":5102:5112  msg.sender */\n      caller\n        /* \"contracts/KipuBank.sol\":5090:5113  _aliasIndex[msg.sender] */\n      0xffffffffffffffffffffffffffffffffffffffff\n      and\n      0xffffffffffffffffffffffffffffffffffffffff\n      and\n      dup2\n      mstore\n      0x20\n      add\n      swap1\n      dup2\n      mstore\n      0x20\n      add\n      0x00\n      keccak256\n        /* \"contracts/KipuBank.sol\":5090:5119  _aliasIndex[msg.sender][oldK] */\n      0x00\n        /* \"contracts/KipuBank.sol\":5114:5118  oldK */\n      dup4\n        /* \"contracts/KipuBank.sol\":5090:5119  _aliasIndex[msg.sender][oldK] */\n      dup2\n      mstore\n      0x20\n      add\n      swap1\n      dup2\n      mstore\n      0x20\n      add\n      0x00\n      keccak256\n      0x00\n      swap1\n      sload\n      swap1\n      0x0100\n      exp\n      swap1\n      div\n      0xffffffffffffffffffffffffffffffffffffffff\n      and\n        /* \"contracts/KipuBank.sol\":5090:5130  _aliasIndex[msg.sender][oldK] == contact */\n      0xffffffffffffffffffffffffffffffffffffffff\n      and\n      eq\n        /* \"contracts/KipuBank.sol\":5077:5130  oldK != k && _aliasIndex[msg.sender][oldK] == contact */\n    tag_176:\n        /* \"contracts/KipuBank.sol\":5073:5184  if (oldK != k && _aliasIndex[msg.sender][oldK] == contact)... */\n      iszero\n      tag_177\n      jumpi\n        /* \"contracts/KipuBank.sol\":5155:5166  _aliasIndex */\n      0x03\n        /* \"contracts/KipuBank.sol\":5155:5178  _aliasIndex[msg.sender] */\n      0x00\n        /* \"contracts/KipuBank.sol\":5167:5177  msg.sender */\n      caller\n        /* \"contracts/KipuBank.sol\":5155:5178  _aliasIndex[msg.sender] */\n      0xffffffffffffffffffffffffffffffffffffffff\n      and\n      0xffffffffffffffffffffffffffffffffffffffff\n      and\n      dup2\n      mstore\n      0x20\n      add\n      swap1\n      dup2\n      mstore\n      0x20\n      add\n      0x00\n      keccak256\n        /* \"contracts/KipuBank.sol\":5155:5184  _aliasIndex[msg.sender][oldK] */\n      0x00\n        /* \"contracts/KipuBank.sol\":5179:5183  oldK */\n      dup3\n        /* \"contracts/KipuBank.sol\":5155:5184  _aliasIndex[msg.sender][oldK] */\n      dup2\n      mstore\n      0x20\n      add\n      swap1\n      dup2\n      mstore\n      0x20\n      add\n      0x00\n      keccak256\n      0x00\n        /* \"contracts/KipuBank.sol\":5148:5184  delete _aliasIndex[msg.sender][oldK] */\n      0x0100\n      exp\n      dup2\n      sload\n      swap1\n      0xffffffffffffffffffffffffffffffffffffffff\n      mul\n      not\n      and\n      swap1\n      sstore\n        /* \"contracts/KipuBank.sol\":5073:5184  if (oldK != k && _aliasIndex[msg.sender][oldK] == contact)... */\n    tag_177:\n        /* \"contracts/KipuBank.sol\":5008:5195  {... */\n      pop\n        /* \"contracts/KipuBank.sol\":4991:5195  if (prev.exists) {... */\n    tag_169:\n        /* \"contracts/KipuBank.sol\":5238:5337  Contact({... */\n      mload(0x40)\n      dup1\n      0x60\n      add\n      0x40\n      mstore\n      dup1\n        /* \"contracts/KipuBank.sol\":5268:5274  alias_ */\n      dup8\n      dup8\n        /* \"contracts/KipuBank.sol\":5238:5337  Contact({... */\n      dup1\n      dup1\n      0x1f\n      add\n      0x20\n      dup1\n      swap2\n      div\n      mul\n      0x20\n      add\n      mload(0x40)\n      swap1\n      dup2\n      add\n      0x40\n      mstore\n      dup1\n      swap4\n      swap3\n      swap2\n      swap1\n      dup2\n      dup2\n      mstore\n      0x20\n      add\n      dup4\n      dup4\n      dup1\n      dup3\n      dup5\n      calldatacopy\n      0x00\n      dup2\n      dup5\n      add\n      mstore\n      not(0x1f)\n      0x1f\n      dup3\n      add\n      and\n      swap1\n      pop\n      dup1\n      dup4\n      add\n      swap3\n      pop\n      pop\n      pop\n      pop\n      pop\n      pop\n      pop\n      dup2\n      mstore\n      0x20\n      add\n        /* \"contracts/KipuBank.sol\":5295:5300  limit */\n      dup6\n        /* \"contracts/KipuBank.sol\":5238:5337  Contact({... */\n      dup2\n      mstore\n      0x20\n      add\n        /* \"contracts/KipuBank.sol\":5322:5326  true */\n      0x01\n        /* \"contracts/KipuBank.sol\":5238:5337  Contact({... */\n      iszero\n      iszero\n      dup2\n      mstore\n      pop\n        /* \"contracts/KipuBank.sol\":5205:5214  _contacts */\n      0x02\n        /* \"contracts/KipuBank.sol\":5205:5226  _contacts[msg.sender] */\n      0x00\n        /* \"contracts/KipuBank.sol\":5215:5225  msg.sender */\n      caller\n        /* \"contracts/KipuBank.sol\":5205:5226  _contacts[msg.sender] */\n      0xffffffffffffffffffffffffffffffffffffffff\n      and\n      0xffffffffffffffffffffffffffffffffffffffff\n      and\n      dup2\n      mstore\n      0x20\n      add\n      swap1\n      dup2\n      mstore\n      0x20\n      add\n      0x00\n      keccak256\n        /* \"contracts/KipuBank.sol\":5205:5235  _contacts[msg.sender][contact] */\n      0x00\n        /* \"contracts/KipuBank.sol\":5227:5234  contact */\n      dup10\n        /* \"contracts/KipuBank.sol\":5205:5235  _contacts[msg.sender][contact] */\n      0xffffffffffffffffffffffffffffffffffffffff\n      and\n      0xffffffffffffffffffffffffffffffffffffffff\n      and\n      dup2\n      mstore\n      0x20\n      add\n      swap1\n      dup2\n      mstore\n      0x20\n      add\n      0x00\n      keccak256\n        /* \"contracts/KipuBank.sol\":5205:5337  _contacts[msg.sender][contact] = Contact({... */\n      0x00\n      dup3\n      add\n      mload\n      dup2\n      0x00\n      add\n      swap1\n      dup2\n      tag_178\n      swap2\n      swap1\n      tag_179\n      jump\t// in\n    tag_178:\n      pop\n      0x20\n      dup3\n      add\n      mload\n      dup2\n      0x01\n      add\n      sstore\n      0x40\n      dup3\n      add\n      mload\n      dup2\n      0x02\n      add\n      exp(0x0100, 0x00)\n      dup2\n      sload\n      dup2\n      0xff\n      mul\n      not\n      and\n      swap1\n      dup4\n      iszero\n      iszero\n      mul\n      or\n      swap1\n      sstore\n      pop\n      swap1\n      pop\n      pop\n        /* \"contracts/KipuBank.sol\":5376:5383  contact */\n      dup7\n        /* \"contracts/KipuBank.sol\":5347:5358  _aliasIndex */\n      0x03\n        /* \"contracts/KipuBank.sol\":5347:5370  _aliasIndex[msg.sender] */\n      0x00\n        /* \"contracts/KipuBank.sol\":5359:5369  msg.sender */\n      caller\n        /* \"contracts/KipuBank.sol\":5347:5370  _aliasIndex[msg.sender] */\n      0xffffffffffffffffffffffffffffffffffffffff\n      and\n      0xffffffffffffffffffffffffffffffffffffffff\n      and\n      dup2\n      mstore\n      0x20\n      add\n      swap1\n      dup2\n      mstore\n      0x20\n      add\n      0x00\n      keccak256\n        /* \"contracts/KipuBank.sol\":5347:5373  _aliasIndex[msg.sender][k] */\n      0x00\n        /* \"contracts/KipuBank.sol\":5371:5372  k */\n      dup6\n        /* \"contracts/KipuBank.sol\":5347:5373  _aliasIndex[msg.sender][k] */\n      dup2\n      mstore\n      0x20\n      add\n      swap1\n      dup2\n      mstore\n      0x20\n      add\n      0x00\n      keccak256\n      0x00\n        /* \"contracts/KipuBank.sol\":5347:5383  _aliasIndex[msg.sender][k] = contact */\n      0x0100\n      exp\n      dup2\n      sload\n      dup2\n      0xffffffffffffffffffffffffffffffffffffffff\n      mul\n      not\n      and\n      swap1\n      dup4\n      0xffffffffffffffffffffffffffffffffffffffff\n      and\n      mul\n      or\n      swap1\n      sstore\n      pop\n        /* \"contracts/KipuBank.sol\":5421:5428  contact */\n      dup7\n        /* \"contracts/KipuBank.sol\":5398:5444  ContactSet(msg.sender, contact, alias_, limit) */\n      0xffffffffffffffffffffffffffffffffffffffff\n      and\n        /* \"contracts/KipuBank.sol\":5409:5419  msg.sender */\n      caller\n        /* \"contracts/KipuBank.sol\":5398:5444  ContactSet(msg.sender, contact, alias_, limit) */\n      0xffffffffffffffffffffffffffffffffffffffff\n      and\n      0x69e157838b5404594033e52d6411f8b1c5dfbe4fbd04e9bd08d300d6a1524a32\n        /* \"contracts/KipuBank.sol\":5430:5436  alias_ */\n      dup9\n      dup9\n        /* \"contracts/KipuBank.sol\":5438:5443  limit */\n      dup9\n        /* \"contracts/KipuBank.sol\":5398:5444  ContactSet(msg.sender, contact, alias_, limit) */\n      mload(0x40)\n      tag_180\n      swap4\n      swap3\n      swap2\n      swap1\n      tag_181\n      jump\t// in\n    tag_180:\n      mload(0x40)\n      dup1\n      swap2\n      sub\n      swap1\n      log3\n        /* \"contracts/KipuBank.sol\":4680:5451  {... */\n      pop\n      pop\n      pop\n        /* \"contracts/KipuBank.sol\":4565:5451  function setContact(... */\n      pop\n      pop\n      pop\n      pop\n      jump\t// out\n        /* \"@openzeppelin/contracts/access/Ownable.sol\":2293:2394  function renounceOwnership() public virtual onlyOwner {... */\n    tag_72:\n        /* \"@openzeppelin/contracts/access/Ownable.sol\":1531:1544  _checkOwner() */\n      tag_183\n        /* \"@openzeppelin/contracts/access/Ownable.sol\":1531:1542  _checkOwner */\n      tag_184\n        /* \"@openzeppelin/contracts/access/Ownable.sol\":1531:1544  _checkOwner() */\n      jump\t// in\n    tag_183:\n        /* \"@openzeppelin/contracts/access/Ownable.sol\":2357:2387  _transferOwnership(address(0)) */\n      tag_186\n        /* \"@openzeppelin/contracts/access/Ownable.sol\":2384:2385  0 */\n      0x00\n        /* \"@openzeppelin/contracts/access/Ownable.sol\":2357:2375  _transferOwnership */\n      tag_187\n        /* \"@openzeppelin/contracts/access/Ownable.sol\":2357:2387  _transferOwnership(address(0)) */\n      jump\t// in\n    tag_186:\n        /* \"@openzeppelin/contracts/access/Ownable.sol\":2293:2394  function renounceOwnership() public virtual onlyOwner {... */\n      jump\t// out\n        /* \"@openzeppelin/contracts/access/Ownable2Step.sol\":2244:2473  function acceptOwnership() public virtual {... */\n    tag_75:\n        /* \"@openzeppelin/contracts/access/Ownable2Step.sol\":2296:2310  address sender */\n      0x00\n        /* \"@openzeppelin/contracts/access/Ownable2Step.sol\":2313:2325  _msgSender() */\n      tag_189\n        /* \"@openzeppelin/contracts/access/Ownable2Step.sol\":2313:2323  _msgSender */\n      tag_190\n        /* \"@openzeppelin/contracts/access/Ownable2Step.sol\":2313:2325  _msgSender() */\n      jump\t// in\n    tag_189:\n        /* \"@openzeppelin/contracts/access/Ownable2Step.sol\":2296:2325  address sender = _msgSender() */\n      swap1\n      pop\n        /* \"@openzeppelin/contracts/access/Ownable2Step.sol\":2357:2363  sender */\n      dup1\n        /* \"@openzeppelin/contracts/access/Ownable2Step.sol\":2339:2363  pendingOwner() != sender */\n      0xffffffffffffffffffffffffffffffffffffffff\n      and\n        /* \"@openzeppelin/contracts/access/Ownable2Step.sol\":2339:2353  pendingOwner() */\n      tag_191\n        /* \"@openzeppelin/contracts/access/Ownable2Step.sol\":2339:2351  pendingOwner */\n      tag_111\n        /* \"@openzeppelin/contracts/access/Ownable2Step.sol\":2339:2353  pendingOwner() */\n      jump\t// in\n    tag_191:\n        /* \"@openzeppelin/contracts/access/Ownable2Step.sol\":2339:2363  pendingOwner() != sender */\n      0xffffffffffffffffffffffffffffffffffffffff\n      and\n      eq\n        /* \"@openzeppelin/contracts/access/Ownable2Step.sol\":2335:2431  if (pendingOwner() != sender) {... */\n      tag_192\n      jumpi\n        /* \"@openzeppelin/contracts/access/Ownable2Step.sol\":2413:2419  sender */\n      dup1\n        /* \"@openzeppelin/contracts/access/Ownable2Step.sol\":2386:2420  OwnableUnauthorizedAccount(sender) */\n      mload(0x40)\n      0x118cdaa700000000000000000000000000000000000000000000000000000000\n      dup2\n      mstore\n      0x04\n      add\n      tag_193\n      swap2\n      swap1\n      tag_80\n      jump\t// in\n    tag_193:\n      mload(0x40)\n      dup1\n      swap2\n      sub\n      swap1\n      revert\n        /* \"@openzeppelin/contracts/access/Ownable2Step.sol\":2335:2431  if (pendingOwner() != sender) {... */\n    tag_192:\n        /* \"@openzeppelin/contracts/access/Ownable2Step.sol\":2440:2466  _transferOwnership(sender) */\n      tag_194\n        /* \"@openzeppelin/contracts/access/Ownable2Step.sol\":2459:2465  sender */\n      dup2\n        /* \"@openzeppelin/contracts/access/Ownable2Step.sol\":2440:2458  _transferOwnership */\n      tag_187\n        /* \"@openzeppelin/contracts/access/Ownable2Step.sol\":2440:2466  _transferOwnership(sender) */\n      jump\t// in\n    tag_194:\n        /* \"@openzeppelin/contracts/access/Ownable2Step.sol\":2286:2473  {... */\n      pop\n        /* \"@openzeppelin/contracts/access/Ownable2Step.sol\":2244:2473  function acceptOwnership() public virtual {... */\n      jump\t// out\n        /* \"@openzeppelin/contracts/access/Ownable.sol\":1638:1723  function owner() public view virtual returns (address) {... */\n    tag_78:\n        /* \"@openzeppelin/contracts/access/Ownable.sol\":1684:1691  address */\n      0x00\n        /* \"@openzeppelin/contracts/access/Ownable.sol\":1710:1716  _owner */\n      0x00\n      0x00\n      swap1\n      sload\n      swap1\n      0x0100\n      exp\n      swap1\n      div\n      0xffffffffffffffffffffffffffffffffffffffff\n      and\n        /* \"@openzeppelin/contracts/access/Ownable.sol\":1703:1716  return _owner */\n      swap1\n      pop\n        /* \"@openzeppelin/contracts/access/Ownable.sol\":1638:1723  function owner() public view virtual returns (address) {... */\n      swap1\n      jump\t// out\n        /* \"contracts/KipuBank.sol\":6444:7110  function transferToAlias(... */\n    tag_85:\n        /* \"contracts/KipuBank.sol\":6549:6555  amount */\n      dup1\n        /* \"contracts/KipuBank.sol\":2657:2658  0 */\n      0x00\n        /* \"contracts/KipuBank.sol\":2647:2653  amount */\n      dup2\n        /* \"contracts/KipuBank.sol\":2647:2658  amount == 0 */\n      sub\n        /* \"contracts/KipuBank.sol\":2643:2683  if (amount == 0) revert ErrZeroDeposit() */\n      tag_197\n      jumpi\n        /* \"contracts/KipuBank.sol\":2667:2683  ErrZeroDeposit() */\n      mload(0x40)\n      0x6b388cc800000000000000000000000000000000000000000000000000000000\n      dup2\n      mstore\n      0x04\n      add\n      mload(0x40)\n      dup1\n      swap2\n      sub\n      swap1\n      revert\n        /* \"contracts/KipuBank.sol\":2643:2683  if (amount == 0) revert ErrZeroDeposit() */\n    tag_197:\n        /* \"contracts/KipuBank.sol\":6567:6582  address contact */\n      0x00\n        /* \"contracts/KipuBank.sol\":6585:6596  _aliasIndex */\n      0x03\n        /* \"contracts/KipuBank.sol\":6585:6608  _aliasIndex[msg.sender] */\n      0x00\n        /* \"contracts/KipuBank.sol\":6597:6607  msg.sender */\n      caller\n        /* \"contracts/KipuBank.sol\":6585:6608  _aliasIndex[msg.sender] */\n      0xffffffffffffffffffffffffffffffffffffffff\n      and\n      0xffffffffffffffffffffffffffffffffffffffff\n      and\n      dup2\n      mstore\n      0x20\n      add\n      swap1\n      dup2\n      mstore\n      0x20\n      add\n      0x00\n      keccak256\n        /* \"contracts/KipuBank.sol\":6585:6627  _aliasIndex[msg.sender][_aliasKey(alias_)] */\n      0x00\n        /* \"contracts/KipuBank.sol\":6609:6626  _aliasKey(alias_) */\n      tag_199\n        /* \"contracts/KipuBank.sol\":6619:6625  alias_ */\n      dup8\n      dup8\n        /* \"contracts/KipuBank.sol\":6609:6626  _aliasKey(alias_) */\n      dup1\n      dup1\n      0x1f\n      add\n      0x20\n      dup1\n      swap2\n      div\n      mul\n      0x20\n      add\n      mload(0x40)\n      swap1\n      dup2\n      add\n      0x40\n      mstore\n      dup1\n      swap4\n      swap3\n      swap2\n      swap1\n      dup2\n      dup2\n      mstore\n      0x20\n      add\n      dup4\n      dup4\n      dup1\n      dup3\n      dup5\n      calldatacopy\n      0x00\n      dup2\n      dup5\n      add\n      mstore\n      not(0x1f)\n      0x1f\n      dup3\n      add\n      and\n      swap1\n      pop\n      dup1\n      dup4\n      add\n      swap3\n      pop\n      pop\n      pop\n      pop\n      pop\n      pop\n      pop\n        /* \"contracts/KipuBank.sol\":6609:6618  _aliasKey */\n      tag_166\n        /* \"contracts/KipuBank.sol\":6609:6626  _aliasKey(alias_) */\n      jump\t// in\n    tag_199:\n        /* \"contracts/KipuBank.sol\":6585:6627  _aliasIndex[msg.sender][_aliasKey(alias_)] */\n      dup2\n      mstore\n      0x20\n      add\n      swap1\n      dup2\n      mstore\n      0x20\n      add\n      0x00\n      keccak256\n      0x00\n      swap1\n      sload\n      swap1\n      0x0100\n      exp\n      swap1\n      div\n      0xffffffffffffffffffffffffffffffffffffffff\n      and\n        /* \"contracts/KipuBank.sol\":6567:6627  address contact = _aliasIndex[msg.sender][_aliasKey(alias_)] */\n      swap1\n      pop\n        /* \"contracts/KipuBank.sol\":6637:6654  Contact storage c */\n      0x00\n        /* \"contracts/KipuBank.sol\":6657:6666  _contacts */\n      0x02\n        /* \"contracts/KipuBank.sol\":6657:6678  _contacts[msg.sender] */\n      0x00\n        /* \"contracts/KipuBank.sol\":6667:6677  msg.sender */\n      caller\n        /* \"contracts/KipuBank.sol\":6657:6678  _contacts[msg.sender] */\n      0xffffffffffffffffffffffffffffffffffffffff\n      and\n      0xffffffffffffffffffffffffffffffffffffffff\n      and\n      dup2\n      mstore\n      0x20\n      add\n      swap1\n      dup2\n      mstore\n      0x20\n      add\n      0x00\n      keccak256\n        /* \"contracts/KipuBank.sol\":6657:6687  _contacts[msg.sender][contact] */\n      0x00\n        /* \"contracts/KipuBank.sol\":6679:6686  contact */\n      dup4\n        /* \"contracts/KipuBank.sol\":6657:6687  _contacts[msg.sender][contact] */\n      0xffffffffffffffffffffffffffffffffffffffff\n      and\n      0xffffffffffffffffffffffffffffffffffffffff\n      and\n      dup2\n      mstore\n      0x20\n      add\n      swap1\n      dup2\n      mstore\n      0x20\n      add\n      0x00\n      keccak256\n        /* \"contracts/KipuBank.sol\":6637:6687  Contact storage c = _contacts[msg.sender][contact] */\n      swap1\n      pop\n        /* \"contracts/KipuBank.sol\":6702:6703  c */\n      dup1\n        /* \"contracts/KipuBank.sol\":6702:6710  c.exists */\n      0x02\n      add\n      0x00\n      swap1\n      sload\n      swap1\n      0x0100\n      exp\n      swap1\n      div\n      0xff\n      and\n        /* \"contracts/KipuBank.sol\":6697:6739  if (!c.exists) revert ErrContactNotFound() */\n      tag_200\n      jumpi\n        /* \"contracts/KipuBank.sol\":6719:6739  ErrContactNotFound() */\n      mload(0x40)\n      0xda2b2f1300000000000000000000000000000000000000000000000000000000\n      dup2\n      mstore\n      0x04\n      add\n      mload(0x40)\n      dup1\n      swap2\n      sub\n      swap1\n      revert\n        /* \"contracts/KipuBank.sol\":6697:6739  if (!c.exists) revert ErrContactNotFound() */\n    tag_200:\n        /* \"contracts/KipuBank.sol\":6764:6765  0 */\n      0x00\n        /* \"contracts/KipuBank.sol\":6753:6754  c */\n      dup2\n        /* \"contracts/KipuBank.sol\":6753:6760  c.limit */\n      0x01\n      add\n      sload\n        /* \"contracts/KipuBank.sol\":6753:6765  c.limit != 0 */\n      eq\n      iszero\n        /* \"contracts/KipuBank.sol\":6753:6785  c.limit != 0 && amount > c.limit */\n      dup1\n      iszero\n      tag_201\n      jumpi\n      pop\n        /* \"contracts/KipuBank.sol\":6778:6779  c */\n      dup1\n        /* \"contracts/KipuBank.sol\":6778:6785  c.limit */\n      0x01\n      add\n      sload\n        /* \"contracts/KipuBank.sol\":6769:6775  amount */\n      dup5\n        /* \"contracts/KipuBank.sol\":6769:6785  amount > c.limit */\n      gt\n        /* \"contracts/KipuBank.sol\":6753:6785  c.limit != 0 && amount > c.limit */\n    tag_201:\n        /* \"contracts/KipuBank.sol\":6749:6847  if (c.limit != 0 && amount > c.limit)... */\n      iszero\n      tag_202\n      jumpi\n        /* \"contracts/KipuBank.sol\":6831:6832  c */\n      dup1\n        /* \"contracts/KipuBank.sol\":6831:6838  c.limit */\n      0x01\n      add\n      sload\n        /* \"contracts/KipuBank.sol\":6840:6846  amount */\n      dup5\n        /* \"contracts/KipuBank.sol\":6806:6847  ErrWithdrawLimitExceeded(c.limit, amount) */\n      mload(0x40)\n      0x2996304900000000000000000000000000000000000000000000000000000000\n      dup2\n      mstore\n      0x04\n      add\n      tag_203\n      swap3\n      swap2\n      swap1\n      tag_139\n      jump\t// in\n    tag_203:\n      mload(0x40)\n      dup1\n      swap2\n      sub\n      swap1\n      revert\n        /* \"contracts/KipuBank.sol\":6749:6847  if (c.limit != 0 && amount > c.limit)... */\n    tag_202:\n        /* \"contracts/KipuBank.sol\":6857:6867  uint256 sb */\n      0x00\n        /* \"contracts/KipuBank.sol\":6870:6879  _balances */\n      0x05\n        /* \"contracts/KipuBank.sol\":6870:6891  _balances[msg.sender] */\n      0x00\n        /* \"contracts/KipuBank.sol\":6880:6890  msg.sender */\n      caller\n        /* \"contracts/KipuBank.sol\":6870:6891  _balances[msg.sender] */\n      0xffffffffffffffffffffffffffffffffffffffff\n      and\n      0xffffffffffffffffffffffffffffffffffffffff\n      and\n      dup2\n      mstore\n      0x20\n      add\n      swap1\n      dup2\n      mstore\n      0x20\n      add\n      0x00\n      keccak256\n      sload\n        /* \"contracts/KipuBank.sol\":6857:6891  uint256 sb = _balances[msg.sender] */\n      swap1\n      pop\n        /* \"contracts/KipuBank.sol\":6910:6916  amount */\n      dup5\n        /* \"contracts/KipuBank.sol\":6905:6907  sb */\n      dup2\n        /* \"contracts/KipuBank.sol\":6905:6916  sb < amount */\n      lt\n        /* \"contracts/KipuBank.sol\":6901:6959  if (sb < amount) revert ErrInsufficientBalance(sb, amount) */\n      iszero\n      tag_204\n      jumpi\n        /* \"contracts/KipuBank.sol\":6948:6950  sb */\n      dup1\n        /* \"contracts/KipuBank.sol\":6952:6958  amount */\n      dup6\n        /* \"contracts/KipuBank.sol\":6925:6959  ErrInsufficientBalance(sb, amount) */\n      mload(0x40)\n      0x9d2afa9000000000000000000000000000000000000000000000000000000000\n      dup2\n      mstore\n      0x04\n      add\n      tag_205\n      swap3\n      swap2\n      swap1\n      tag_139\n      jump\t// in\n    tag_205:\n      mload(0x40)\n      dup1\n      swap2\n      sub\n      swap1\n      revert\n        /* \"contracts/KipuBank.sol\":6901:6959  if (sb < amount) revert ErrInsufficientBalance(sb, amount) */\n    tag_204:\n        /* \"contracts/KipuBank.sol\":6999:7005  amount */\n      dup5\n        /* \"contracts/KipuBank.sol\":6994:6996  sb */\n      dup2\n        /* \"contracts/KipuBank.sol\":6994:7005  sb - amount */\n      tag_206\n      swap2\n      swap1\n      tag_143\n      jump\t// in\n    tag_206:\n        /* \"contracts/KipuBank.sol\":6970:6979  _balances */\n      0x05\n        /* \"contracts/KipuBank.sol\":6970:6991  _balances[msg.sender] */\n      0x00\n        /* \"contracts/KipuBank.sol\":6980:6990  msg.sender */\n      caller\n        /* \"contracts/KipuBank.sol\":6970:6991  _balances[msg.sender] */\n      0xffffffffffffffffffffffffffffffffffffffff\n      and\n      0xffffffffffffffffffffffffffffffffffffffff\n      and\n      dup2\n      mstore\n      0x20\n      add\n      swap1\n      dup2\n      mstore\n      0x20\n      add\n      0x00\n      keccak256\n        /* \"contracts/KipuBank.sol\":6970:7005  _balances[msg.sender] = sb - amount */\n      dup2\n      swap1\n      sstore\n      pop\n        /* \"contracts/KipuBank.sol\":7037:7043  amount */\n      dup5\n        /* \"contracts/KipuBank.sol\":7015:7024  _balances */\n      0x05\n        /* \"contracts/KipuBank.sol\":7015:7033  _balances[contact] */\n      0x00\n        /* \"contracts/KipuBank.sol\":7025:7032  contact */\n      dup6\n        /* \"contracts/KipuBank.sol\":7015:7033  _balances[contact] */\n      0xffffffffffffffffffffffffffffffffffffffff\n      and\n      0xffffffffffffffffffffffffffffffffffffffff\n      and\n      dup2\n      mstore\n      0x20\n      add\n      swap1\n      dup2\n      mstore\n      0x20\n      add\n      0x00\n      keccak256\n      0x00\n        /* \"contracts/KipuBank.sol\":7015:7043  _balances[contact] += amount */\n      dup3\n      dup3\n      sload\n      tag_207\n      swap2\n      swap1\n      tag_161\n      jump\t// in\n    tag_207:\n      swap3\n      pop\n      pop\n      dup2\n      swap1\n      sstore\n      pop\n        /* \"contracts/KipuBank.sol\":7087:7094  contact */\n      dup3\n        /* \"contracts/KipuBank.sol\":7058:7103  InternalTransfer(msg.sender, contact, amount) */\n      0xffffffffffffffffffffffffffffffffffffffff\n      and\n        /* \"contracts/KipuBank.sol\":7075:7085  msg.sender */\n      caller\n        /* \"contracts/KipuBank.sol\":7058:7103  InternalTransfer(msg.sender, contact, amount) */\n      0xffffffffffffffffffffffffffffffffffffffff\n      and\n      0xe2080c8fc8d86c864d8dc081fadaebf2be7191086615e786f954420f13ed122a\n        /* \"contracts/KipuBank.sol\":7096:7102  amount */\n      dup8\n        /* \"contracts/KipuBank.sol\":7058:7103  InternalTransfer(msg.sender, contact, amount) */\n      mload(0x40)\n      tag_208\n      swap2\n      swap1\n      tag_35\n      jump\t// in\n    tag_208:\n      mload(0x40)\n      dup1\n      swap2\n      sub\n      swap1\n      log3\n        /* \"contracts/KipuBank.sol\":6557:7110  {... */\n      pop\n      pop\n      pop\n        /* \"contracts/KipuBank.sol\":6444:7110  function transferToAlias(... */\n      pop\n      pop\n      pop\n      pop\n      jump\t// out\n        /* \"contracts/KipuBank.sol\":7820:8112  function getContactByAlias(... */\n    tag_90:\n        /* \"contracts/KipuBank.sol\":7931:7946  address contact */\n      0x00\n        /* \"contracts/KipuBank.sol\":7948:7959  bool exists */\n      0x00\n        /* \"contracts/KipuBank.sol\":7971:7982  address who */\n      0x00\n        /* \"contracts/KipuBank.sol\":7985:7996  _aliasIndex */\n      0x03\n        /* \"contracts/KipuBank.sol\":7985:8003  _aliasIndex[owner] */\n      0x00\n        /* \"contracts/KipuBank.sol\":7997:8002  owner */\n      dup8\n        /* \"contracts/KipuBank.sol\":7985:8003  _aliasIndex[owner] */\n      0xffffffffffffffffffffffffffffffffffffffff\n      and\n      0xffffffffffffffffffffffffffffffffffffffff\n      and\n      dup2\n      mstore\n      0x20\n      add\n      swap1\n      dup2\n      mstore\n      0x20\n      add\n      0x00\n      keccak256\n        /* \"contracts/KipuBank.sol\":7985:8022  _aliasIndex[owner][_aliasKey(alias_)] */\n      0x00\n        /* \"contracts/KipuBank.sol\":8004:8021  _aliasKey(alias_) */\n      tag_210\n        /* \"contracts/KipuBank.sol\":8014:8020  alias_ */\n      dup8\n      dup8\n        /* \"contracts/KipuBank.sol\":8004:8021  _aliasKey(alias_) */\n      dup1\n      dup1\n      0x1f\n      add\n      0x20\n      dup1\n      swap2\n      div\n      mul\n      0x20\n      add\n      mload(0x40)\n      swap1\n      dup2\n      add\n      0x40\n      mstore\n      dup1\n      swap4\n      swap3\n      swap2\n      swap1\n      dup2\n      dup2\n      mstore\n      0x20\n      add\n      dup4\n      dup4\n      dup1\n      dup3\n      dup5\n      calldatacopy\n      0x00\n      dup2\n      dup5\n      add\n      mstore\n      not(0x1f)\n      0x1f\n      dup3\n      add\n      and\n      swap1\n      pop\n      dup1\n      dup4\n      add\n      swap3\n      pop\n      pop\n      pop\n      pop\n      pop\n      pop\n      pop\n        /* \"contracts/KipuBank.sol\":8004:8013  _aliasKey */\n      tag_166\n        /* \"contracts/KipuBank.sol\":8004:8021  _aliasKey(alias_) */\n      jump\t// in\n    tag_210:\n        /* \"contracts/KipuBank.sol\":7985:8022  _aliasIndex[owner][_aliasKey(alias_)] */\n      dup2\n      mstore\n      0x20\n      add\n      swap1\n      dup2\n      mstore\n      0x20\n      add\n      0x00\n      keccak256\n      0x00\n      swap1\n      sload\n      swap1\n      0x0100\n      exp\n      swap1\n      div\n      0xffffffffffffffffffffffffffffffffffffffff\n      and\n        /* \"contracts/KipuBank.sol\":7971:8022  address who = _aliasIndex[owner][_aliasKey(alias_)] */\n      swap1\n      pop\n        /* \"contracts/KipuBank.sol\":8032:8049  Contact storage c */\n      0x00\n        /* \"contracts/KipuBank.sol\":8052:8061  _contacts */\n      0x02\n        /* \"contracts/KipuBank.sol\":8052:8068  _contacts[owner] */\n      0x00\n        /* \"contracts/KipuBank.sol\":8062:8067  owner */\n      dup9\n        /* \"contracts/KipuBank.sol\":8052:8068  _contacts[owner] */\n      0xffffffffffffffffffffffffffffffffffffffff\n      and\n      0xffffffffffffffffffffffffffffffffffffffff\n      and\n      dup2\n      mstore\n      0x20\n      add\n      swap1\n      dup2\n      mstore\n      0x20\n      add\n      0x00\n      keccak256\n        /* \"contracts/KipuBank.sol\":8052:8073  _contacts[owner][who] */\n      0x00\n        /* \"contracts/KipuBank.sol\":8069:8072  who */\n      dup4\n        /* \"contracts/KipuBank.sol\":8052:8073  _contacts[owner][who] */\n      0xffffffffffffffffffffffffffffffffffffffff\n      and\n      0xffffffffffffffffffffffffffffffffffffffff\n      and\n      dup2\n      mstore\n      0x20\n      add\n      swap1\n      dup2\n      mstore\n      0x20\n      add\n      0x00\n      keccak256\n        /* \"contracts/KipuBank.sol\":8032:8073  Contact storage c = _contacts[owner][who] */\n      swap1\n      pop\n        /* \"contracts/KipuBank.sol\":8091:8094  who */\n      dup2\n        /* \"contracts/KipuBank.sol\":8096:8097  c */\n      dup2\n        /* \"contracts/KipuBank.sol\":8096:8104  c.exists */\n      0x02\n      add\n      0x00\n      swap1\n      sload\n      swap1\n      0x0100\n      exp\n      swap1\n      div\n      0xff\n      and\n        /* \"contracts/KipuBank.sol\":8083:8105  return (who, c.exists) */\n      swap4\n      pop\n      swap4\n      pop\n      pop\n      pop\n        /* \"contracts/KipuBank.sol\":7820:8112  function getContactByAlias(... */\n      swap4\n      pop\n      swap4\n      swap2\n      pop\n      pop\n      jump\t// out\n        /* \"contracts/KipuBank.sol\":628:667  uint256 public immutable WITHDRAW_LIMIT */\n    tag_95:\n      immutable(\"0x7a54ea38c6e84582f8d39074db7876849c2b4a6a0d270a38f071e30cc74a8c79\")\n      dup2\n      jump\t// out\n        /* \"contracts/KipuBank.sol\":7116:7577  function removeContact(address contact) external {... */\n    tag_101:\n        /* \"contracts/KipuBank.sol\":7175:7192  Contact storage c */\n      0x00\n        /* \"contracts/KipuBank.sol\":7195:7204  _contacts */\n      0x02\n        /* \"contracts/KipuBank.sol\":7195:7216  _contacts[msg.sender] */\n      0x00\n        /* \"contracts/KipuBank.sol\":7205:7215  msg.sender */\n      caller\n        /* \"contracts/KipuBank.sol\":7195:7216  _contacts[msg.sender] */\n      0xffffffffffffffffffffffffffffffffffffffff\n      and\n      0xffffffffffffffffffffffffffffffffffffffff\n      and\n      dup2\n      mstore\n      0x20\n      add\n      swap1\n      dup2\n      mstore\n      0x20\n      add\n      0x00\n      keccak256\n        /* \"contracts/KipuBank.sol\":7195:7225  _contacts[msg.sender][contact] */\n      0x00\n        /* \"contracts/KipuBank.sol\":7217:7224  contact */\n      dup4\n        /* \"contracts/KipuBank.sol\":7195:7225  _contacts[msg.sender][contact] */\n      0xffffffffffffffffffffffffffffffffffffffff\n      and\n      0xffffffffffffffffffffffffffffffffffffffff\n      and\n      dup2\n      mstore\n      0x20\n      add\n      swap1\n      dup2\n      mstore\n      0x20\n      add\n      0x00\n      keccak256\n        /* \"contracts/KipuBank.sol\":7175:7225  Contact storage c = _contacts[msg.sender][contact] */\n      swap1\n      pop\n        /* \"contracts/KipuBank.sol\":7240:7241  c */\n      dup1\n        /* \"contracts/KipuBank.sol\":7240:7248  c.exists */\n      0x02\n      add\n      0x00\n      swap1\n      sload\n      swap1\n      0x0100\n      exp\n      swap1\n      div\n      0xff\n      and\n        /* \"contracts/KipuBank.sol\":7235:7277  if (!c.exists) revert ErrContactNotFound() */\n      tag_212\n      jumpi\n        /* \"contracts/KipuBank.sol\":7257:7277  ErrContactNotFound() */\n      mload(0x40)\n      0xda2b2f1300000000000000000000000000000000000000000000000000000000\n      dup2\n      mstore\n      0x04\n      add\n      mload(0x40)\n      dup1\n      swap2\n      sub\n      swap1\n      revert\n        /* \"contracts/KipuBank.sol\":7235:7277  if (!c.exists) revert ErrContactNotFound() */\n    tag_212:\n        /* \"contracts/KipuBank.sol\":7287:7296  bytes32 k */\n      0x00\n        /* \"contracts/KipuBank.sol\":7299:7318  _aliasKey(c.alias_) */\n      tag_213\n        /* \"contracts/KipuBank.sol\":7309:7310  c */\n      dup3\n        /* \"contracts/KipuBank.sol\":7309:7317  c.alias_ */\n      0x00\n      add\n        /* \"contracts/KipuBank.sol\":7299:7318  _aliasKey(c.alias_) */\n      dup1\n      sload\n      tag_214\n      swap1\n      tag_128\n      jump\t// in\n    tag_214:\n      dup1\n      0x1f\n      add\n      0x20\n      dup1\n      swap2\n      div\n      mul\n      0x20\n      add\n      mload(0x40)\n      swap1\n      dup2\n      add\n      0x40\n      mstore\n      dup1\n      swap3\n      swap2\n      swap1\n      dup2\n      dup2\n      mstore\n      0x20\n      add\n      dup3\n      dup1\n      sload\n      tag_215\n      swap1\n      tag_128\n      jump\t// in\n    tag_215:\n      dup1\n      iszero\n      tag_216\n      jumpi\n      dup1\n      0x1f\n      lt\n      tag_217\n      jumpi\n      0x0100\n      dup1\n      dup4\n      sload\n      div\n      mul\n      dup4\n      mstore\n      swap2\n      0x20\n      add\n      swap2\n      jump(tag_216)\n    tag_217:\n      dup3\n      add\n      swap2\n      swap1\n      0x00\n      mstore\n      keccak256(0x00, 0x20)\n      swap1\n    tag_218:\n      dup2\n      sload\n      dup2\n      mstore\n      swap1\n      0x01\n      add\n      swap1\n      0x20\n      add\n      dup1\n      dup4\n      gt\n      tag_218\n      jumpi\n      dup3\n      swap1\n      sub\n      0x1f\n      and\n      dup3\n      add\n      swap2\n    tag_216:\n      pop\n      pop\n      pop\n      pop\n      pop\n        /* \"contracts/KipuBank.sol\":7299:7308  _aliasKey */\n      tag_166\n        /* \"contracts/KipuBank.sol\":7299:7318  _aliasKey(c.alias_) */\n      jump\t// in\n    tag_213:\n        /* \"contracts/KipuBank.sol\":7287:7318  bytes32 k = _aliasKey(c.alias_) */\n      swap1\n      pop\n        /* \"contracts/KipuBank.sol\":7362:7369  contact */\n      dup3\n        /* \"contracts/KipuBank.sol\":7332:7369  _aliasIndex[msg.sender][k] == contact */\n      0xffffffffffffffffffffffffffffffffffffffff\n      and\n        /* \"contracts/KipuBank.sol\":7332:7343  _aliasIndex */\n      0x03\n        /* \"contracts/KipuBank.sol\":7332:7355  _aliasIndex[msg.sender] */\n      0x00\n        /* \"contracts/KipuBank.sol\":7344:7354  msg.sender */\n      caller\n        /* \"contracts/KipuBank.sol\":7332:7355  _aliasIndex[msg.sender] */\n      0xffffffffffffffffffffffffffffffffffffffff\n      and\n      0xffffffffffffffffffffffffffffffffffffffff\n      and\n      dup2\n      mstore\n      0x20\n      add\n      swap1\n      dup2\n      mstore\n      0x20\n      add\n      0x00\n      keccak256\n        /* \"contracts/KipuBank.sol\":7332:7358  _aliasIndex[msg.sender][k] */\n      0x00\n        /* \"contracts/KipuBank.sol\":7356:7357  k */\n      dup4\n        /* \"contracts/KipuBank.sol\":7332:7358  _aliasIndex[msg.sender][k] */\n      dup2\n      mstore\n      0x20\n      add\n      swap1\n      dup2\n      mstore\n      0x20\n      add\n      0x00\n      keccak256\n      0x00\n      swap1\n      sload\n      swap1\n      0x0100\n      exp\n      swap1\n      div\n      0xffffffffffffffffffffffffffffffffffffffff\n      and\n        /* \"contracts/KipuBank.sol\":7332:7369  _aliasIndex[msg.sender][k] == contact */\n      0xffffffffffffffffffffffffffffffffffffffff\n      and\n      sub\n        /* \"contracts/KipuBank.sol\":7328:7416  if (_aliasIndex[msg.sender][k] == contact)... */\n      tag_219\n      jumpi\n        /* \"contracts/KipuBank.sol\":7390:7401  _aliasIndex */\n      0x03\n        /* \"contracts/KipuBank.sol\":7390:7413  _aliasIndex[msg.sender] */\n      0x00\n        /* \"contracts/KipuBank.sol\":7402:7412  msg.sender */\n      caller\n        /* \"contracts/KipuBank.sol\":7390:7413  _aliasIndex[msg.sender] */\n      0xffffffffffffffffffffffffffffffffffffffff\n      and\n      0xffffffffffffffffffffffffffffffffffffffff\n      and\n      dup2\n      mstore\n      0x20\n      add\n      swap1\n      dup2\n      mstore\n      0x20\n      add\n      0x00\n      keccak256\n        /* \"contracts/KipuBank.sol\":7390:7416  _aliasIndex[msg.sender][k] */\n      0x00\n        /* \"contracts/KipuBank.sol\":7414:7415  k */\n      dup3\n        /* \"contracts/KipuBank.sol\":7390:7416  _aliasIndex[msg.sender][k] */\n      dup2\n      mstore\n      0x20\n      add\n      swap1\n      dup2\n      mstore\n      0x20\n      add\n      0x00\n      keccak256\n      0x00\n        /* \"contracts/KipuBank.sol\":7383:7416  delete _aliasIndex[msg.sender][k] */\n      0x0100\n      exp\n      dup2\n      sload\n      swap1\n      0xffffffffffffffffffffffffffffffffffffffff\n      mul\n      not\n      and\n      swap1\n      sstore\n        /* \"contracts/KipuBank.sol\":7328:7416  if (_aliasIndex[msg.sender][k] == contact)... */\n    tag_219:\n        /* \"contracts/KipuBank.sol\":7426:7450  string memory aliasLocal */\n      0x00\n        /* \"contracts/KipuBank.sol\":7453:7454  c */\n      dup3\n        /* \"contracts/KipuBank.sol\":7453:7461  c.alias_ */\n      0x00\n      add\n        /* \"contracts/KipuBank.sol\":7426:7461  string memory aliasLocal = c.alias_ */\n      dup1\n      sload\n      tag_220\n      swap1\n      tag_128\n      jump\t// in\n    tag_220:\n      dup1\n      0x1f\n      add\n      0x20\n      dup1\n      swap2\n      div\n      mul\n      0x20\n      add\n      mload(0x40)\n      swap1\n      dup2\n      add\n      0x40\n      mstore\n      dup1\n      swap3\n      swap2\n      swap1\n      dup2\n      dup2\n      mstore\n      0x20\n      add\n      dup3\n      dup1\n      sload\n      tag_221\n      swap1\n      tag_128\n      jump\t// in\n    tag_221:\n      dup1\n      iszero\n      tag_222\n      jumpi\n      dup1\n      0x1f\n      lt\n      tag_223\n      jumpi\n      0x0100\n      dup1\n      dup4\n      sload\n      div\n      mul\n      dup4\n      mstore\n      swap2\n      0x20\n      add\n      swap2\n      jump(tag_222)\n    tag_223:\n      dup3\n      add\n      swap2\n      swap1\n      0x00\n      mstore\n      keccak256(0x00, 0x20)\n      swap1\n    tag_224:\n      dup2\n      sload\n      dup2\n      mstore\n      swap1\n      0x01\n      add\n      swap1\n      0x20\n      add\n      dup1\n      dup4\n      gt\n      tag_224\n      jumpi\n      dup3\n      swap1\n      sub\n      0x1f\n      and\n      dup3\n      add\n      swap2\n    tag_222:\n      pop\n      pop\n      pop\n      pop\n      pop\n      swap1\n      pop\n        /* \"contracts/KipuBank.sol\":7478:7487  _contacts */\n      0x02\n        /* \"contracts/KipuBank.sol\":7478:7499  _contacts[msg.sender] */\n      0x00\n        /* \"contracts/KipuBank.sol\":7488:7498  msg.sender */\n      caller\n        /* \"contracts/KipuBank.sol\":7478:7499  _contacts[msg.sender] */\n      0xffffffffffffffffffffffffffffffffffffffff\n      and\n      0xffffffffffffffffffffffffffffffffffffffff\n      and\n      dup2\n      mstore\n      0x20\n      add\n      swap1\n      dup2\n      mstore\n      0x20\n      add\n      0x00\n      keccak256\n        /* \"contracts/KipuBank.sol\":7478:7508  _contacts[msg.sender][contact] */\n      0x00\n        /* \"contracts/KipuBank.sol\":7500:7507  contact */\n      dup6\n        /* \"contracts/KipuBank.sol\":7478:7508  _contacts[msg.sender][contact] */\n      0xffffffffffffffffffffffffffffffffffffffff\n      and\n      0xffffffffffffffffffffffffffffffffffffffff\n      and\n      dup2\n      mstore\n      0x20\n      add\n      swap1\n      dup2\n      mstore\n      0x20\n      add\n      0x00\n      keccak256\n      0x00\n        /* \"contracts/KipuBank.sol\":7471:7508  delete _contacts[msg.sender][contact] */\n      0x00\n      dup3\n      add\n      0x00\n      tag_225\n      swap2\n      swap1\n      tag_226\n      jump\t// in\n    tag_225:\n      0x01\n      dup3\n      add\n      0x00\n      swap1\n      sstore\n      0x02\n      dup3\n      add\n      exp(0x0100, 0x00)\n      dup2\n      sload\n      swap1\n      0xff\n      mul\n      not\n      and\n      swap1\n      sstore\n      pop\n      pop\n        /* \"contracts/KipuBank.sol\":7550:7557  contact */\n      dup4\n        /* \"contracts/KipuBank.sol\":7523:7570  ContactRemoved(msg.sender, contact, aliasLocal) */\n      0xffffffffffffffffffffffffffffffffffffffff\n      and\n        /* \"contracts/KipuBank.sol\":7538:7548  msg.sender */\n      caller\n        /* \"contracts/KipuBank.sol\":7523:7570  ContactRemoved(msg.sender, contact, aliasLocal) */\n      0xffffffffffffffffffffffffffffffffffffffff\n      and\n      0xe5a25c298748d4cebca849ebdbf68023dac253726538ece59dc0313b6e6839b2\n        /* \"contracts/KipuBank.sol\":7559:7569  aliasLocal */\n      dup4\n        /* \"contracts/KipuBank.sol\":7523:7570  ContactRemoved(msg.sender, contact, aliasLocal) */\n      mload(0x40)\n      tag_227\n      swap2\n      swap1\n      tag_125\n      jump\t// in\n    tag_227:\n      mload(0x40)\n      dup1\n      swap2\n      sub\n      swap1\n      log3\n        /* \"contracts/KipuBank.sol\":7165:7577  {... */\n      pop\n      pop\n      pop\n        /* \"contracts/KipuBank.sol\":7116:7577  function removeContact(address contact) external {... */\n      pop\n      jump\t// out\n        /* \"contracts/KipuBank.sol\":3474:3932  function deposit() external payable positive(msg.value) {... */\n    tag_103:\n        /* \"contracts/KipuBank.sol\":3519:3528  msg.value */\n      callvalue\n        /* \"contracts/KipuBank.sol\":2657:2658  0 */\n      0x00\n        /* \"contracts/KipuBank.sol\":2647:2653  amount */\n      dup2\n        /* \"contracts/KipuBank.sol\":2647:2658  amount == 0 */\n      sub\n        /* \"contracts/KipuBank.sol\":2643:2683  if (amount == 0) revert ErrZeroDeposit() */\n      tag_229\n      jumpi\n        /* \"contracts/KipuBank.sol\":2667:2683  ErrZeroDeposit() */\n      mload(0x40)\n      0x6b388cc800000000000000000000000000000000000000000000000000000000\n      dup2\n      mstore\n      0x04\n      add\n      mload(0x40)\n      dup1\n      swap2\n      sub\n      swap1\n      revert\n        /* \"contracts/KipuBank.sol\":2643:2683  if (amount == 0) revert ErrZeroDeposit() */\n    tag_229:\n        /* \"contracts/KipuBank.sol\":3540:3554  uint256 amount */\n      0x00\n        /* \"contracts/KipuBank.sol\":3557:3566  msg.value */\n      callvalue\n        /* \"contracts/KipuBank.sol\":3540:3566  uint256 amount = msg.value */\n      swap1\n      pop\n        /* \"contracts/KipuBank.sol\":3576:3593  uint256 available */\n      0x00\n        /* \"contracts/KipuBank.sol\":3607:3625  _totalVaultBalance */\n      sload(0x06)\n        /* \"contracts/KipuBank.sol\":3596:3604  BANK_CAP */\n      immutable(\"0x813d1b11b8dd1556b28990a7c9be030b5a7cac9bde9a8342a13a89c68a3780b1\")\n        /* \"contracts/KipuBank.sol\":3596:3625  BANK_CAP - _totalVaultBalance */\n      tag_231\n      swap2\n      swap1\n      tag_143\n      jump\t// in\n    tag_231:\n        /* \"contracts/KipuBank.sol\":3576:3625  uint256 available = BANK_CAP - _totalVaultBalance */\n      swap1\n      pop\n        /* \"contracts/KipuBank.sol\":3639:3647  isPaused */\n      0x09\n      0x00\n      swap1\n      sload\n      swap1\n      0x0100\n      exp\n      swap1\n      div\n      0xff\n      and\n        /* \"contracts/KipuBank.sol\":3635:3667  if (isPaused) revert ErrPaused() */\n      iszero\n      tag_232\n      jumpi\n        /* \"contracts/KipuBank.sol\":3656:3667  ErrPaused() */\n      mload(0x40)\n      0x79fc1abc00000000000000000000000000000000000000000000000000000000\n      dup2\n      mstore\n      0x04\n      add\n      mload(0x40)\n      dup1\n      swap2\n      sub\n      swap1\n      revert\n        /* \"contracts/KipuBank.sol\":3635:3667  if (isPaused) revert ErrPaused() */\n    tag_232:\n        /* \"contracts/KipuBank.sol\":3690:3699  available */\n      dup1\n        /* \"contracts/KipuBank.sol\":3681:3687  amount */\n      dup3\n        /* \"contracts/KipuBank.sol\":3681:3699  amount > available */\n      gt\n        /* \"contracts/KipuBank.sol\":3677:3745  if (amount > available) revert ErrBankCapExceeded(amount, available) */\n      iszero\n      tag_233\n      jumpi\n        /* \"contracts/KipuBank.sol\":3727:3733  amount */\n      dup2\n        /* \"contracts/KipuBank.sol\":3735:3744  available */\n      dup2\n        /* \"contracts/KipuBank.sol\":3708:3745  ErrBankCapExceeded(amount, available) */\n      mload(0x40)\n      0x82d40bd900000000000000000000000000000000000000000000000000000000\n      dup2\n      mstore\n      0x04\n      add\n      tag_234\n      swap3\n      swap2\n      swap1\n      tag_139\n      jump\t// in\n    tag_234:\n      mload(0x40)\n      dup1\n      swap2\n      sub\n      swap1\n      revert\n        /* \"contracts/KipuBank.sol\":3677:3745  if (amount > available) revert ErrBankCapExceeded(amount, available) */\n    tag_233:\n        /* \"contracts/KipuBank.sol\":3781:3787  amount */\n      dup2\n        /* \"contracts/KipuBank.sol\":3756:3765  _balances */\n      0x05\n        /* \"contracts/KipuBank.sol\":3756:3777  _balances[msg.sender] */\n      0x00\n        /* \"contracts/KipuBank.sol\":3766:3776  msg.sender */\n      caller\n        /* \"contracts/KipuBank.sol\":3756:3777  _balances[msg.sender] */\n      0xffffffffffffffffffffffffffffffffffffffff\n      and\n      0xffffffffffffffffffffffffffffffffffffffff\n      and\n      dup2\n      mstore\n      0x20\n      add\n      swap1\n      dup2\n      mstore\n      0x20\n      add\n      0x00\n      keccak256\n      0x00\n        /* \"contracts/KipuBank.sol\":3756:3787  _balances[msg.sender] += amount */\n      dup3\n      dup3\n      sload\n      tag_235\n      swap2\n      swap1\n      tag_161\n      jump\t// in\n    tag_235:\n      swap3\n      pop\n      pop\n      dup2\n      swap1\n      sstore\n      pop\n        /* \"contracts/KipuBank.sol\":3819:3825  amount */\n      dup2\n        /* \"contracts/KipuBank.sol\":3797:3815  _totalVaultBalance */\n      0x06\n      0x00\n        /* \"contracts/KipuBank.sol\":3797:3825  _totalVaultBalance += amount */\n      dup3\n      dup3\n      sload\n      tag_236\n      swap2\n      swap1\n      tag_161\n      jump\t// in\n    tag_236:\n      swap3\n      pop\n      pop\n      dup2\n      swap1\n      sstore\n      pop\n        /* \"contracts/KipuBank.sol\":3835:3859  _incrementDepositCount() */\n      tag_237\n        /* \"contracts/KipuBank.sol\":3835:3857  _incrementDepositCount */\n      tag_238\n        /* \"contracts/KipuBank.sol\":3835:3859  _incrementDepositCount() */\n      jump\t// in\n    tag_237:\n        /* \"contracts/KipuBank.sol\":3883:3893  msg.sender */\n      caller\n        /* \"contracts/KipuBank.sol\":3875:3925  Deposit(msg.sender, amount, _balances[msg.sender]) */\n      0xffffffffffffffffffffffffffffffffffffffff\n      and\n      0x90890809c654f11d6e72a28fa60149770a0d11ec6c92319d6ceb2bb0a4ea1a15\n        /* \"contracts/KipuBank.sol\":3895:3901  amount */\n      dup4\n        /* \"contracts/KipuBank.sol\":3903:3912  _balances */\n      0x05\n        /* \"contracts/KipuBank.sol\":3903:3924  _balances[msg.sender] */\n      0x00\n        /* \"contracts/KipuBank.sol\":3913:3923  msg.sender */\n      caller\n        /* \"contracts/KipuBank.sol\":3903:3924  _balances[msg.sender] */\n      0xffffffffffffffffffffffffffffffffffffffff\n      and\n      0xffffffffffffffffffffffffffffffffffffffff\n      and\n      dup2\n      mstore\n      0x20\n      add\n      swap1\n      dup2\n      mstore\n      0x20\n      add\n      0x00\n      keccak256\n      sload\n        /* \"contracts/KipuBank.sol\":3875:3925  Deposit(msg.sender, amount, _balances[msg.sender]) */\n      mload(0x40)\n      tag_239\n      swap3\n      swap2\n      swap1\n      tag_139\n      jump\t// in\n    tag_239:\n      mload(0x40)\n      dup1\n      swap2\n      sub\n      swap1\n      log2\n        /* \"contracts/KipuBank.sol\":3530:3932  {... */\n      pop\n      pop\n        /* \"contracts/KipuBank.sol\":3474:3932  function deposit() external payable positive(msg.value) {... */\n      pop\n      jump\t// out\n        /* \"contracts/KipuBank.sol\":8118:8228  function getVaultBalance(address user) external view returns (uint256) {... */\n    tag_107:\n        /* \"contracts/KipuBank.sol\":8180:8187  uint256 */\n      0x00\n        /* \"contracts/KipuBank.sol\":8206:8215  _balances */\n      0x05\n        /* \"contracts/KipuBank.sol\":8206:8221  _balances[user] */\n      0x00\n        /* \"contracts/KipuBank.sol\":8216:8220  user */\n      dup4\n        /* \"contracts/KipuBank.sol\":8206:8221  _balances[user] */\n      0xffffffffffffffffffffffffffffffffffffffff\n      and\n      0xffffffffffffffffffffffffffffffffffffffff\n      and\n      dup2\n      mstore\n      0x20\n      add\n      swap1\n      dup2\n      mstore\n      0x20\n      add\n      0x00\n      keccak256\n      sload\n        /* \"contracts/KipuBank.sol\":8199:8221  return _balances[user] */\n      swap1\n      pop\n        /* \"contracts/KipuBank.sol\":8118:8228  function getVaultBalance(address user) external view returns (uint256) {... */\n      swap2\n      swap1\n      pop\n      jump\t// out\n        /* \"@openzeppelin/contracts/access/Ownable2Step.sol\":1232:1331  function pendingOwner() public view virtual returns (address) {... */\n    tag_111:\n        /* \"@openzeppelin/contracts/access/Ownable2Step.sol\":1285:1292  address */\n      0x00\n        /* \"@openzeppelin/contracts/access/Ownable2Step.sol\":1311:1324  _pendingOwner */\n      0x01\n      0x00\n      swap1\n      sload\n      swap1\n      0x0100\n      exp\n      swap1\n      div\n      0xffffffffffffffffffffffffffffffffffffffff\n      and\n        /* \"@openzeppelin/contracts/access/Ownable2Step.sol\":1304:1324  return _pendingOwner */\n      swap1\n      pop\n        /* \"@openzeppelin/contracts/access/Ownable2Step.sol\":1232:1331  function pendingOwner() public view virtual returns (address) {... */\n      swap1\n      jump\t// out\n        /* \"contracts/KipuBank.sol\":5457:5741  function updateContactLimit(address contact, uint256 newLimit) external {... */\n    tag_116:\n        /* \"contracts/KipuBank.sol\":5539:5556  Contact storage c */\n      0x00\n        /* \"contracts/KipuBank.sol\":5559:5568  _contacts */\n      0x02\n        /* \"contracts/KipuBank.sol\":5559:5580  _contacts[msg.sender] */\n      0x00\n        /* \"contracts/KipuBank.sol\":5569:5579  msg.sender */\n      caller\n        /* \"contracts/KipuBank.sol\":5559:5580  _contacts[msg.sender] */\n      0xffffffffffffffffffffffffffffffffffffffff\n      and\n      0xffffffffffffffffffffffffffffffffffffffff\n      and\n      dup2\n      mstore\n      0x20\n      add\n      swap1\n      dup2\n      mstore\n      0x20\n      add\n      0x00\n      keccak256\n        /* \"contracts/KipuBank.sol\":5559:5589  _contacts[msg.sender][contact] */\n      0x00\n        /* \"contracts/KipuBank.sol\":5581:5588  contact */\n      dup5\n        /* \"contracts/KipuBank.sol\":5559:5589  _contacts[msg.sender][contact] */\n      0xffffffffffffffffffffffffffffffffffffffff\n      and\n      0xffffffffffffffffffffffffffffffffffffffff\n      and\n      dup2\n      mstore\n      0x20\n      add\n      swap1\n      dup2\n      mstore\n      0x20\n      add\n      0x00\n      keccak256\n        /* \"contracts/KipuBank.sol\":5539:5589  Contact storage c = _contacts[msg.sender][contact] */\n      swap1\n      pop\n        /* \"contracts/KipuBank.sol\":5604:5605  c */\n      dup1\n        /* \"contracts/KipuBank.sol\":5604:5612  c.exists */\n      0x02\n      add\n      0x00\n      swap1\n      sload\n      swap1\n      0x0100\n      exp\n      swap1\n      div\n      0xff\n      and\n        /* \"contracts/KipuBank.sol\":5599:5641  if (!c.exists) revert ErrContactNotFound() */\n      tag_243\n      jumpi\n        /* \"contracts/KipuBank.sol\":5621:5641  ErrContactNotFound() */\n      mload(0x40)\n      0xda2b2f1300000000000000000000000000000000000000000000000000000000\n      dup2\n      mstore\n      0x04\n      add\n      mload(0x40)\n      dup1\n      swap2\n      sub\n      swap1\n      revert\n        /* \"contracts/KipuBank.sol\":5599:5641  if (!c.exists) revert ErrContactNotFound() */\n    tag_243:\n        /* \"contracts/KipuBank.sol\":5661:5669  newLimit */\n      dup2\n        /* \"contracts/KipuBank.sol\":5651:5652  c */\n      dup2\n        /* \"contracts/KipuBank.sol\":5651:5658  c.limit */\n      0x01\n      add\n        /* \"contracts/KipuBank.sol\":5651:5669  c.limit = newLimit */\n      dup2\n      swap1\n      sstore\n      pop\n        /* \"contracts/KipuBank.sol\":5716:5723  contact */\n      dup3\n        /* \"contracts/KipuBank.sol\":5684:5734  ContactLimitUpdated(msg.sender, contact, newLimit) */\n      0xffffffffffffffffffffffffffffffffffffffff\n      and\n        /* \"contracts/KipuBank.sol\":5704:5714  msg.sender */\n      caller\n        /* \"contracts/KipuBank.sol\":5684:5734  ContactLimitUpdated(msg.sender, contact, newLimit) */\n      0xffffffffffffffffffffffffffffffffffffffff\n      and\n      0x79bdf489b3a4e4f4c835420c6aa2bc4c1cd787d185d0e56e599a2c92fb88dc2e\n        /* \"contracts/KipuBank.sol\":5725:5733  newLimit */\n      dup5\n        /* \"contracts/KipuBank.sol\":5684:5734  ContactLimitUpdated(msg.sender, contact, newLimit) */\n      mload(0x40)\n      tag_244\n      swap2\n      swap1\n      tag_35\n      jump\t// in\n    tag_244:\n      mload(0x40)\n      dup1\n      swap2\n      sub\n      swap1\n      log3\n        /* \"contracts/KipuBank.sol\":5529:5741  {... */\n      pop\n        /* \"contracts/KipuBank.sol\":5457:5741  function updateContactLimit(address contact, uint256 newLimit) external {... */\n      pop\n      pop\n      jump\t// out\n        /* \"@openzeppelin/contracts/access/Ownable2Step.sol\":1649:1827  function transferOwnership(address newOwner) public virtual override onlyOwner {... */\n    tag_120:\n        /* \"@openzeppelin/contracts/access/Ownable.sol\":1531:1544  _checkOwner() */\n      tag_246\n        /* \"@openzeppelin/contracts/access/Ownable.sol\":1531:1542  _checkOwner */\n      tag_184\n        /* \"@openzeppelin/contracts/access/Ownable.sol\":1531:1544  _checkOwner() */\n      jump\t// in\n    tag_246:\n        /* \"@openzeppelin/contracts/access/Ownable2Step.sol\":1754:1762  newOwner */\n      dup1\n        /* \"@openzeppelin/contracts/access/Ownable2Step.sol\":1738:1751  _pendingOwner */\n      0x01\n      0x00\n        /* \"@openzeppelin/contracts/access/Ownable2Step.sol\":1738:1762  _pendingOwner = newOwner */\n      0x0100\n      exp\n      dup2\n      sload\n      dup2\n      0xffffffffffffffffffffffffffffffffffffffff\n      mul\n      not\n      and\n      swap1\n      dup4\n      0xffffffffffffffffffffffffffffffffffffffff\n      and\n      mul\n      or\n      swap1\n      sstore\n      pop\n        /* \"@openzeppelin/contracts/access/Ownable2Step.sol\":1811:1819  newOwner */\n      dup1\n        /* \"@openzeppelin/contracts/access/Ownable2Step.sol\":1777:1820  OwnershipTransferStarted(owner(), newOwner) */\n      0xffffffffffffffffffffffffffffffffffffffff\n      and\n        /* \"@openzeppelin/contracts/access/Ownable2Step.sol\":1802:1809  owner() */\n      tag_248\n        /* \"@openzeppelin/contracts/access/Ownable2Step.sol\":1802:1807  owner */\n      tag_78\n        /* \"@openzeppelin/contracts/access/Ownable2Step.sol\":1802:1809  owner() */\n      jump\t// in\n    tag_248:\n        /* \"@openzeppelin/contracts/access/Ownable2Step.sol\":1777:1820  OwnershipTransferStarted(owner(), newOwner) */\n      0xffffffffffffffffffffffffffffffffffffffff\n      and\n      0x38d16b8cac22d99fc7c124b9cd0de2d3fa1faef420bfe791d8c362d765e22700\n      mload(0x40)\n      mload(0x40)\n      dup1\n      swap2\n      sub\n      swap1\n      log3\n        /* \"@openzeppelin/contracts/access/Ownable2Step.sol\":1649:1827  function transferOwnership(address newOwner) public virtual override onlyOwner {... */\n      pop\n      jump\t// out\n        /* \"contracts/KipuBank.sol\":712:758  string public constant VERSION = \"KipuBank v2\" */\n    tag_123:\n      mload(0x40)\n      dup1\n      0x40\n      add\n      0x40\n      mstore\n      dup1\n      0x0b\n      dup2\n      mstore\n      0x20\n      add\n      0x4b69707542616e6b207632000000000000000000000000000000000000000000\n      dup2\n      mstore\n      pop\n      dup2\n      jump\t// out\n        /* \"contracts/KipuBank.sol\":8466:8544  function _incrementWithdrawCount() private {... */\n    tag_146:\n        /* \"contracts/KipuBank.sol\":8536:8537  1 */\n      0x01\n        /* \"contracts/KipuBank.sol\":8519:8532  withdrawCount */\n      0x08\n      0x00\n        /* \"contracts/KipuBank.sol\":8519:8537  withdrawCount += 1 */\n      dup3\n      dup3\n      sload\n      tag_250\n      swap2\n      swap1\n      tag_161\n      jump\t// in\n    tag_250:\n      swap3\n      pop\n      pop\n      dup2\n      swap1\n      sstore\n      pop\n        /* \"contracts/KipuBank.sol\":8466:8544  function _incrementWithdrawCount() private {... */\n      jump\t// out\n        /* \"contracts/KipuBank.sol\":8550:8735  function _safeTransfer(address payable to, uint256 amount) private {... */\n    tag_148:\n        /* \"contracts/KipuBank.sol\":8628:8640  bool success */\n      0x00\n        /* \"contracts/KipuBank.sol\":8646:8648  to */\n      dup3\n        /* \"contracts/KipuBank.sol\":8646:8653  to.call */\n      0xffffffffffffffffffffffffffffffffffffffff\n      and\n        /* \"contracts/KipuBank.sol\":8661:8667  amount */\n      dup3\n        /* \"contracts/KipuBank.sol\":8646:8672  to.call{value: amount}(\"\") */\n      mload(0x40)\n      tag_252\n      swap1\n      tag_253\n      jump\t// in\n    tag_252:\n      0x00\n      mload(0x40)\n      dup1\n      dup4\n      sub\n      dup2\n      dup6\n      dup8\n      gas\n      call\n      swap3\n      pop\n      pop\n      pop\n      returndatasize\n      dup1\n      0x00\n      dup2\n      eq\n      tag_256\n      jumpi\n      mload(0x40)\n      swap2\n      pop\n      and(add(returndatasize, 0x3f), not(0x1f))\n      dup3\n      add\n      0x40\n      mstore\n      returndatasize\n      dup3\n      mstore\n      returndatasize\n      0x00\n      0x20\n      dup5\n      add\n      returndatacopy\n      jump(tag_255)\n    tag_256:\n      0x60\n      swap2\n      pop\n    tag_255:\n      pop\n        /* \"contracts/KipuBank.sol\":8627:8672  (bool success, ) = to.call{value: amount}(\"\") */\n      pop\n      swap1\n      pop\n        /* \"contracts/KipuBank.sol\":8687:8694  success */\n      dup1\n        /* \"contracts/KipuBank.sol\":8682:8728  if (!success) revert ErrNativeTransferFailed() */\n      tag_257\n      jumpi\n        /* \"contracts/KipuBank.sol\":8703:8728  ErrNativeTransferFailed() */\n      mload(0x40)\n      0xce534f4700000000000000000000000000000000000000000000000000000000\n      dup2\n      mstore\n      0x04\n      add\n      mload(0x40)\n      dup1\n      swap2\n      sub\n      swap1\n      revert\n        /* \"contracts/KipuBank.sol\":8682:8728  if (!success) revert ErrNativeTransferFailed() */\n    tag_257:\n        /* \"contracts/KipuBank.sol\":8617:8735  {... */\n      pop\n        /* \"contracts/KipuBank.sol\":8550:8735  function _safeTransfer(address payable to, uint256 amount) private {... */\n      pop\n      pop\n      jump\t// out\n        /* \"contracts/KipuBank.sol\":8741:8851  function _aliasKey(string memory a) private pure returns (bytes32) {... */\n    tag_166:\n        /* \"contracts/KipuBank.sol\":8799:8806  bytes32 */\n      0x00\n        /* \"contracts/KipuBank.sol\":8841:8842  a */\n      dup2\n        /* \"contracts/KipuBank.sol\":8825:8844  keccak256(bytes(a)) */\n      dup1\n      mload\n      swap1\n      0x20\n      add\n      keccak256\n        /* \"contracts/KipuBank.sol\":8818:8844  return keccak256(bytes(a)) */\n      swap1\n      pop\n        /* \"contracts/KipuBank.sol\":8741:8851  function _aliasKey(string memory a) private pure returns (bytes32) {... */\n      swap2\n      swap1\n      pop\n      jump\t// out\n        /* \"@openzeppelin/contracts/access/Ownable.sol\":1796:1958  function _checkOwner() internal view virtual {... */\n    tag_184:\n        /* \"@openzeppelin/contracts/access/Ownable.sol\":1866:1878  _msgSender() */\n      tag_260\n        /* \"@openzeppelin/contracts/access/Ownable.sol\":1866:1876  _msgSender */\n      tag_190\n        /* \"@openzeppelin/contracts/access/Ownable.sol\":1866:1878  _msgSender() */\n      jump\t// in\n    tag_260:\n        /* \"@openzeppelin/contracts/access/Ownable.sol\":1855:1878  owner() != _msgSender() */\n      0xffffffffffffffffffffffffffffffffffffffff\n      and\n        /* \"@openzeppelin/contracts/access/Ownable.sol\":1855:1862  owner() */\n      tag_261\n        /* \"@openzeppelin/contracts/access/Ownable.sol\":1855:1860  owner */\n      tag_78\n        /* \"@openzeppelin/contracts/access/Ownable.sol\":1855:1862  owner() */\n      jump\t// in\n    tag_261:\n        /* \"@openzeppelin/contracts/access/Ownable.sol\":1855:1878  owner() != _msgSender() */\n      0xffffffffffffffffffffffffffffffffffffffff\n      and\n      eq\n        /* \"@openzeppelin/contracts/access/Ownable.sol\":1851:1952  if (owner() != _msgSender()) {... */\n      tag_262\n      jumpi\n        /* \"@openzeppelin/contracts/access/Ownable.sol\":1928:1940  _msgSender() */\n      tag_263\n        /* \"@openzeppelin/contracts/access/Ownable.sol\":1928:1938  _msgSender */\n      tag_190\n        /* \"@openzeppelin/contracts/access/Ownable.sol\":1928:1940  _msgSender() */\n      jump\t// in\n    tag_263:\n        /* \"@openzeppelin/contracts/access/Ownable.sol\":1901:1941  OwnableUnauthorizedAccount(_msgSender()) */\n      mload(0x40)\n      0x118cdaa700000000000000000000000000000000000000000000000000000000\n      dup2\n      mstore\n      0x04\n      add\n      tag_264\n      swap2\n      swap1\n      tag_80\n      jump\t// in\n    tag_264:\n      mload(0x40)\n      dup1\n      swap2\n      sub\n      swap1\n      revert\n        /* \"@openzeppelin/contracts/access/Ownable.sol\":1851:1952  if (owner() != _msgSender()) {... */\n    tag_262:\n        /* \"@openzeppelin/contracts/access/Ownable.sol\":1796:1958  function _checkOwner() internal view virtual {... */\n      jump\t// out\n        /* \"@openzeppelin/contracts/access/Ownable2Step.sol\":2011:2164  function _transferOwnership(address newOwner) internal virtual override {... */\n    tag_187:\n        /* \"@openzeppelin/contracts/access/Ownable2Step.sol\":2100:2113  _pendingOwner */\n      0x01\n      0x00\n        /* \"@openzeppelin/contracts/access/Ownable2Step.sol\":2093:2113  delete _pendingOwner */\n      0x0100\n      exp\n      dup2\n      sload\n      swap1\n      0xffffffffffffffffffffffffffffffffffffffff\n      mul\n      not\n      and\n      swap1\n      sstore\n        /* \"@openzeppelin/contracts/access/Ownable2Step.sol\":2123:2157  super._transferOwnership(newOwner) */\n      tag_266\n        /* \"@openzeppelin/contracts/access/Ownable2Step.sol\":2148:2156  newOwner */\n      dup2\n        /* \"@openzeppelin/contracts/access/Ownable2Step.sol\":2123:2147  super._transferOwnership */\n      tag_267\n        /* \"@openzeppelin/contracts/access/Ownable2Step.sol\":2123:2157  super._transferOwnership(newOwner) */\n      jump\t// in\n    tag_266:\n        /* \"@openzeppelin/contracts/access/Ownable2Step.sol\":2011:2164  function _transferOwnership(address newOwner) internal virtual override {... */\n      pop\n      jump\t// out\n        /* \"@openzeppelin/contracts/utils/Context.sol\":656:752  function _msgSender() internal view virtual returns (address) {... */\n    tag_190:\n        /* \"@openzeppelin/contracts/utils/Context.sol\":709:716  address */\n      0x00\n        /* \"@openzeppelin/contracts/utils/Context.sol\":735:745  msg.sender */\n      caller\n        /* \"@openzeppelin/contracts/utils/Context.sol\":728:745  return msg.sender */\n      swap1\n      pop\n        /* \"@openzeppelin/contracts/utils/Context.sol\":656:752  function _msgSender() internal view virtual returns (address) {... */\n      swap1\n      jump\t// out\n        /* \"contracts/KipuBank.sol\":8385:8461  function _incrementDepositCount() private {... */\n    tag_238:\n        /* \"contracts/KipuBank.sol\":8453:8454  1 */\n      0x01\n        /* \"contracts/KipuBank.sol\":8437:8449  depositCount */\n      0x07\n      0x00\n        /* \"contracts/KipuBank.sol\":8437:8454  depositCount += 1 */\n      dup3\n      dup3\n      sload\n      tag_270\n      swap2\n      swap1\n      tag_161\n      jump\t// in\n    tag_270:\n      swap3\n      pop\n      pop\n      dup2\n      swap1\n      sstore\n      pop\n        /* \"contracts/KipuBank.sol\":8385:8461  function _incrementDepositCount() private {... */\n      jump\t// out\n        /* \"@openzeppelin/contracts/access/Ownable.sol\":2912:3099  function _transferOwnership(address newOwner) internal virtual {... */\n    tag_267:\n        /* \"@openzeppelin/contracts/access/Ownable.sol\":2985:3001  address oldOwner */\n      0x00\n        /* \"@openzeppelin/contracts/access/Ownable.sol\":3004:3010  _owner */\n      0x00\n      0x00\n      swap1\n      sload\n      swap1\n      0x0100\n      exp\n      swap1\n      div\n      0xffffffffffffffffffffffffffffffffffffffff\n      and\n        /* \"@openzeppelin/contracts/access/Ownable.sol\":2985:3010  address oldOwner = _owner */\n      swap1\n      pop\n        /* \"@openzeppelin/contracts/access/Ownable.sol\":3029:3037  newOwner */\n      dup2\n        /* \"@openzeppelin/contracts/access/Ownable.sol\":3020:3026  _owner */\n      0x00\n      0x00\n        /* \"@openzeppelin/contracts/access/Ownable.sol\":3020:3037  _owner = newOwner */\n      0x0100\n      exp\n      dup2\n      sload\n      dup2\n      0xffffffffffffffffffffffffffffffffffffffff\n      mul\n      not\n      and\n      swap1\n      dup4\n      0xffffffffffffffffffffffffffffffffffffffff\n      and\n      mul\n      or\n      swap1\n      sstore\n      pop\n        /* \"@openzeppelin/contracts/access/Ownable.sol\":3083:3091  newOwner */\n      dup2\n        /* \"@openzeppelin/contracts/access/Ownable.sol\":3052:3092  OwnershipTransferred(oldOwner, newOwner) */\n      0xffffffffffffffffffffffffffffffffffffffff\n      and\n        /* \"@openzeppelin/contracts/access/Ownable.sol\":3073:3081  oldOwner */\n      dup2\n        /* \"@openzeppelin/contracts/access/Ownable.sol\":3052:3092  OwnershipTransferred(oldOwner, newOwner) */\n      0xffffffffffffffffffffffffffffffffffffffff\n      and\n      0x8be0079c531659141344cd1fd0a4f28419497f9722a3daafe3b4186f6b6457e0\n      mload(0x40)\n      mload(0x40)\n      dup1\n      swap2\n      sub\n      swap1\n      log3\n        /* \"@openzeppelin/contracts/access/Ownable.sol\":2975:3099  {... */\n      pop\n        /* \"@openzeppelin/contracts/access/Ownable.sol\":2912:3099  function _transferOwnership(address newOwner) internal virtual {... */\n      pop\n      jump\t// out\n    tag_226:\n      pop\n      dup1\n      sload\n      tag_272\n      swap1\n      tag_128\n      jump\t// in\n    tag_272:\n      0x00\n      dup3\n      sstore\n      dup1\n      0x1f\n      lt\n      tag_274\n      jumpi\n      pop\n      jump(tag_273)\n    tag_274:\n      0x1f\n      add\n      0x20\n      swap1\n      div\n      swap1\n      0x00\n      mstore\n      keccak256(0x00, 0x20)\n      swap1\n      dup2\n      add\n      swap1\n      tag_275\n      swap2\n      swap1\n      tag_276\n      jump\t// in\n    tag_275:\n    tag_273:\n      pop\n      jump\t// out\n    tag_276:\n    tag_277:\n      dup1\n      dup3\n      gt\n      iszero\n      tag_278\n      jumpi\n      0x00\n      dup2\n      0x00\n      swap1\n      sstore\n      pop\n      0x01\n      add\n      jump(tag_277)\n    tag_278:\n      pop\n      swap1\n      jump\t// out\n        /* \"#utility.yul\":7:84   */\n    tag_279:\n        /* \"#utility.yul\":44:51   */\n      0x00\n        /* \"#utility.yul\":73:78   */\n      dup2\n        /* \"#utility.yul\":62:78   */\n      swap1\n      pop\n        /* \"#utility.yul\":7:84   */\n      swap2\n      swap1\n      pop\n      jump\t// out\n        /* \"#utility.yul\":90:208   */\n    tag_280:\n        /* \"#utility.yul\":177:201   */\n      tag_328\n        /* \"#utility.yul\":195:200   */\n      dup2\n        /* \"#utility.yul\":177:201   */\n      tag_279\n      jump\t// in\n    tag_328:\n        /* \"#utility.yul\":172:175   */\n      dup3\n        /* \"#utility.yul\":165:202   */\n      mstore\n        /* \"#utility.yul\":90:208   */\n      pop\n      pop\n      jump\t// out\n        /* \"#utility.yul\":214:436   */\n    tag_35:\n        /* \"#utility.yul\":307:311   */\n      0x00\n        /* \"#utility.yul\":345:347   */\n      0x20\n        /* \"#utility.yul\":334:343   */\n      dup3\n        /* \"#utility.yul\":330:348   */\n      add\n        /* \"#utility.yul\":322:348   */\n      swap1\n      pop\n        /* \"#utility.yul\":358:429   */\n      tag_330\n        /* \"#utility.yul\":426:427   */\n      0x00\n        /* \"#utility.yul\":415:424   */\n      dup4\n        /* \"#utility.yul\":411:428   */\n      add\n        /* \"#utility.yul\":402:408   */\n      dup5\n        /* \"#utility.yul\":358:429   */\n      tag_280\n      jump\t// in\n    tag_330:\n        /* \"#utility.yul\":214:436   */\n      swap3\n      swap2\n      pop\n      pop\n      jump\t// out\n        /* \"#utility.yul\":523:640   */\n    tag_282:\n        /* \"#utility.yul\":632:633   */\n      0x00\n        /* \"#utility.yul\":629:630   */\n      0x00\n        /* \"#utility.yul\":622:634   */\n      revert\n        /* \"#utility.yul\":646:763   */\n    tag_283:\n        /* \"#utility.yul\":755:756   */\n      0x00\n        /* \"#utility.yul\":752:753   */\n      0x00\n        /* \"#utility.yul\":745:757   */\n      revert\n        /* \"#utility.yul\":769:895   */\n    tag_284:\n        /* \"#utility.yul\":806:813   */\n      0x00\n        /* \"#utility.yul\":846:888   */\n      0xffffffffffffffffffffffffffffffffffffffff\n        /* \"#utility.yul\":839:844   */\n      dup3\n        /* \"#utility.yul\":835:889   */\n      and\n        /* \"#utility.yul\":824:889   */\n      swap1\n      pop\n        /* \"#utility.yul\":769:895   */\n      swap2\n      swap1\n      pop\n      jump\t// out\n        /* \"#utility.yul\":901:997   */\n    tag_285:\n        /* \"#utility.yul\":938:945   */\n      0x00\n        /* \"#utility.yul\":967:991   */\n      tag_336\n        /* \"#utility.yul\":985:990   */\n      dup3\n        /* \"#utility.yul\":967:991   */\n      tag_284\n      jump\t// in\n    tag_336:\n        /* \"#utility.yul\":956:991   */\n      swap1\n      pop\n        /* \"#utility.yul\":901:997   */\n      swap2\n      swap1\n      pop\n      jump\t// out\n        /* \"#utility.yul\":1003:1125   */\n    tag_286:\n        /* \"#utility.yul\":1076:1100   */\n      tag_338\n        /* \"#utility.yul\":1094:1099   */\n      dup2\n        /* \"#utility.yul\":1076:1100   */\n      tag_285\n      jump\t// in\n    tag_338:\n        /* \"#utility.yul\":1069:1074   */\n      dup2\n        /* \"#utility.yul\":1066:1101   */\n      eq\n        /* \"#utility.yul\":1056:1119   */\n      tag_339\n      jumpi\n        /* \"#utility.yul\":1115:1116   */\n      0x00\n        /* \"#utility.yul\":1112:1113   */\n      0x00\n        /* \"#utility.yul\":1105:1117   */\n      revert\n        /* \"#utility.yul\":1056:1119   */\n    tag_339:\n        /* \"#utility.yul\":1003:1125   */\n      pop\n      jump\t// out\n        /* \"#utility.yul\":1131:1270   */\n    tag_287:\n        /* \"#utility.yul\":1177:1182   */\n      0x00\n        /* \"#utility.yul\":1215:1221   */\n      dup2\n        /* \"#utility.yul\":1202:1222   */\n      calldataload\n        /* \"#utility.yul\":1193:1222   */\n      swap1\n      pop\n        /* \"#utility.yul\":1231:1264   */\n      tag_341\n        /* \"#utility.yul\":1258:1263   */\n      dup2\n        /* \"#utility.yul\":1231:1264   */\n      tag_286\n      jump\t// in\n    tag_341:\n        /* \"#utility.yul\":1131:1270   */\n      swap3\n      swap2\n      pop\n      pop\n      jump\t// out\n        /* \"#utility.yul\":1276:1750   */\n    tag_39:\n        /* \"#utility.yul\":1344:1350   */\n      0x00\n        /* \"#utility.yul\":1352:1358   */\n      0x00\n        /* \"#utility.yul\":1401:1403   */\n      0x40\n        /* \"#utility.yul\":1389:1398   */\n      dup4\n        /* \"#utility.yul\":1380:1387   */\n      dup6\n        /* \"#utility.yul\":1376:1399   */\n      sub\n        /* \"#utility.yul\":1372:1404   */\n      slt\n        /* \"#utility.yul\":1369:1488   */\n      iszero\n      tag_343\n      jumpi\n        /* \"#utility.yul\":1407:1486   */\n      tag_344\n      tag_282\n      jump\t// in\n    tag_344:\n        /* \"#utility.yul\":1369:1488   */\n    tag_343:\n        /* \"#utility.yul\":1527:1528   */\n      0x00\n        /* \"#utility.yul\":1552:1605   */\n      tag_345\n        /* \"#utility.yul\":1597:1604   */\n      dup6\n        /* \"#utility.yul\":1588:1594   */\n      dup3\n        /* \"#utility.yul\":1577:1586   */\n      dup7\n        /* \"#utility.yul\":1573:1595   */\n      add\n        /* \"#utility.yul\":1552:1605   */\n      tag_287\n      jump\t// in\n    tag_345:\n        /* \"#utility.yul\":1542:1605   */\n      swap3\n      pop\n        /* \"#utility.yul\":1498:1615   */\n      pop\n        /* \"#utility.yul\":1654:1656   */\n      0x20\n        /* \"#utility.yul\":1680:1733   */\n      tag_346\n        /* \"#utility.yul\":1725:1732   */\n      dup6\n        /* \"#utility.yul\":1716:1722   */\n      dup3\n        /* \"#utility.yul\":1705:1714   */\n      dup7\n        /* \"#utility.yul\":1701:1723   */\n      add\n        /* \"#utility.yul\":1680:1733   */\n      tag_287\n      jump\t// in\n    tag_346:\n        /* \"#utility.yul\":1670:1733   */\n      swap2\n      pop\n        /* \"#utility.yul\":1625:1743   */\n      pop\n        /* \"#utility.yul\":1276:1750   */\n      swap3\n      pop\n      swap3\n      swap1\n      pop\n      jump\t// out\n        /* \"#utility.yul\":1756:1855   */\n    tag_288:\n        /* \"#utility.yul\":1808:1814   */\n      0x00\n        /* \"#utility.yul\":1842:1847   */\n      dup2\n        /* \"#utility.yul\":1836:1848   */\n      mload\n        /* \"#utility.yul\":1826:1848   */\n      swap1\n      pop\n        /* \"#utility.yul\":1756:1855   */\n      swap2\n      swap1\n      pop\n      jump\t// out\n        /* \"#utility.yul\":1861:2030   */\n    tag_289:\n        /* \"#utility.yul\":1945:1956   */\n      0x00\n        /* \"#utility.yul\":1979:1985   */\n      dup3\n        /* \"#utility.yul\":1974:1977   */\n      dup3\n        /* \"#utility.yul\":1967:1986   */\n      mstore\n        /* \"#utility.yul\":2019:2023   */\n      0x20\n        /* \"#utility.yul\":2014:2017   */\n      dup3\n        /* \"#utility.yul\":2010:2024   */\n      add\n        /* \"#utility.yul\":1995:2024   */\n      swap1\n      pop\n        /* \"#utility.yul\":1861:2030   */\n      swap3\n      swap2\n      pop\n      pop\n      jump\t// out\n        /* \"#utility.yul\":2036:2175   */\n    tag_290:\n        /* \"#utility.yul\":2125:2131   */\n      dup3\n        /* \"#utility.yul\":2120:2123   */\n      dup2\n        /* \"#utility.yul\":2115:2118   */\n      dup4\n        /* \"#utility.yul\":2109:2132   */\n      mcopy\n        /* \"#utility.yul\":2166:2167   */\n      0x00\n        /* \"#utility.yul\":2157:2163   */\n      dup4\n        /* \"#utility.yul\":2152:2155   */\n      dup4\n        /* \"#utility.yul\":2148:2164   */\n      add\n        /* \"#utility.yul\":2141:2168   */\n      mstore\n        /* \"#utility.yul\":2036:2175   */\n      pop\n      pop\n      pop\n      jump\t// out\n        /* \"#utility.yul\":2181:2283   */\n    tag_291:\n        /* \"#utility.yul\":2222:2228   */\n      0x00\n        /* \"#utility.yul\":2273:2275   */\n      0x1f\n        /* \"#utility.yul\":2269:2276   */\n      not\n        /* \"#utility.yul\":2264:2266   */\n      0x1f\n        /* \"#utility.yul\":2257:2262   */\n      dup4\n        /* \"#utility.yul\":2253:2267   */\n      add\n        /* \"#utility.yul\":2249:2277   */\n      and\n        /* \"#utility.yul\":2239:2277   */\n      swap1\n      pop\n        /* \"#utility.yul\":2181:2283   */\n      swap2\n      swap1\n      pop\n      jump\t// out\n        /* \"#utility.yul\":2289:2666   */\n    tag_292:\n        /* \"#utility.yul\":2377:2380   */\n      0x00\n        /* \"#utility.yul\":2405:2444   */\n      tag_352\n        /* \"#utility.yul\":2438:2443   */\n      dup3\n        /* \"#utility.yul\":2405:2444   */\n      tag_288\n      jump\t// in\n    tag_352:\n        /* \"#utility.yul\":2460:2531   */\n      tag_353\n        /* \"#utility.yul\":2524:2530   */\n      dup2\n        /* \"#utility.yul\":2519:2522   */\n      dup6\n        /* \"#utility.yul\":2460:2531   */\n      tag_289\n      jump\t// in\n    tag_353:\n        /* \"#utility.yul\":2453:2531   */\n      swap4\n      pop\n        /* \"#utility.yul\":2540:2605   */\n      tag_354\n        /* \"#utility.yul\":2598:2604   */\n      dup2\n        /* \"#utility.yul\":2593:2596   */\n      dup6\n        /* \"#utility.yul\":2586:2590   */\n      0x20\n        /* \"#utility.yul\":2579:2584   */\n      dup7\n        /* \"#utility.yul\":2575:2591   */\n      add\n        /* \"#utility.yul\":2540:2605   */\n      tag_290\n      jump\t// in\n    tag_354:\n        /* \"#utility.yul\":2630:2659   */\n      tag_355\n        /* \"#utility.yul\":2652:2658   */\n      dup2\n        /* \"#utility.yul\":2630:2659   */\n      tag_291\n      jump\t// in\n    tag_355:\n        /* \"#utility.yul\":2625:2628   */\n      dup5\n        /* \"#utility.yul\":2621:2660   */\n      add\n        /* \"#utility.yul\":2614:2660   */\n      swap2\n      pop\n        /* \"#utility.yul\":2381:2666   */\n      pop\n        /* \"#utility.yul\":2289:2666   */\n      swap3\n      swap2\n      pop\n      pop\n      jump\t// out\n        /* \"#utility.yul\":2672:2762   */\n    tag_293:\n        /* \"#utility.yul\":2706:2713   */\n      0x00\n        /* \"#utility.yul\":2749:2754   */\n      dup2\n        /* \"#utility.yul\":2742:2755   */\n      iszero\n        /* \"#utility.yul\":2735:2756   */\n      iszero\n        /* \"#utility.yul\":2724:2756   */\n      swap1\n      pop\n        /* \"#utility.yul\":2672:2762   */\n      swap2\n      swap1\n      pop\n      jump\t// out\n        /* \"#utility.yul\":2768:2877   */\n    tag_294:\n        /* \"#utility.yul\":2849:2870   */\n      tag_358\n        /* \"#utility.yul\":2864:2869   */\n      dup2\n        /* \"#utility.yul\":2849:2870   */\n      tag_293\n      jump\t// in\n    tag_358:\n        /* \"#utility.yul\":2844:2847   */\n      dup3\n        /* \"#utility.yul\":2837:2871   */\n      mstore\n        /* \"#utility.yul\":2768:2877   */\n      pop\n      pop\n      jump\t// out\n        /* \"#utility.yul\":2883:3294   */\n    tag_42:\n        /* \"#utility.yul\":3018:3022   */\n      0x00\n        /* \"#utility.yul\":3056:3058   */\n      0x40\n        /* \"#utility.yul\":3045:3054   */\n      dup3\n        /* \"#utility.yul\":3041:3059   */\n      add\n        /* \"#utility.yul\":3033:3059   */\n      swap1\n      pop\n        /* \"#utility.yul\":3105:3114   */\n      dup2\n        /* \"#utility.yul\":3099:3103   */\n      dup2\n        /* \"#utility.yul\":3095:3115   */\n      sub\n        /* \"#utility.yul\":3091:3092   */\n      0x00\n        /* \"#utility.yul\":3080:3089   */\n      dup4\n        /* \"#utility.yul\":3076:3093   */\n      add\n        /* \"#utility.yul\":3069:3116   */\n      mstore\n        /* \"#utility.yul\":3133:3211   */\n      tag_360\n        /* \"#utility.yul\":3206:3210   */\n      dup2\n        /* \"#utility.yul\":3197:3203   */\n      dup6\n        /* \"#utility.yul\":3133:3211   */\n      tag_292\n      jump\t// in\n    tag_360:\n        /* \"#utility.yul\":3125:3211   */\n      swap1\n      pop\n        /* \"#utility.yul\":3221:3287   */\n      tag_361\n        /* \"#utility.yul\":3283:3285   */\n      0x20\n        /* \"#utility.yul\":3272:3281   */\n      dup4\n        /* \"#utility.yul\":3268:3286   */\n      add\n        /* \"#utility.yul\":3259:3265   */\n      dup5\n        /* \"#utility.yul\":3221:3287   */\n      tag_294\n      jump\t// in\n    tag_361:\n        /* \"#utility.yul\":2883:3294   */\n      swap4\n      swap3\n      pop\n      pop\n      pop\n      jump\t// out\n        /* \"#utility.yul\":3300:3422   */\n    tag_295:\n        /* \"#utility.yul\":3373:3397   */\n      tag_363\n        /* \"#utility.yul\":3391:3396   */\n      dup2\n        /* \"#utility.yul\":3373:3397   */\n      tag_279\n      jump\t// in\n    tag_363:\n        /* \"#utility.yul\":3366:3371   */\n      dup2\n        /* \"#utility.yul\":3363:3398   */\n      eq\n        /* \"#utility.yul\":3353:3416   */\n      tag_364\n      jumpi\n        /* \"#utility.yul\":3412:3413   */\n      0x00\n        /* \"#utility.yul\":3409:3410   */\n      0x00\n        /* \"#utility.yul\":3402:3414   */\n      revert\n        /* \"#utility.yul\":3353:3416   */\n    tag_364:\n        /* \"#utility.yul\":3300:3422   */\n      pop\n      jump\t// out\n        /* \"#utility.yul\":3428:3567   */\n    tag_296:\n        /* \"#utility.yul\":3474:3479   */\n      0x00\n        /* \"#utility.yul\":3512:3518   */\n      dup2\n        /* \"#utility.yul\":3499:3519   */\n      calldataload\n        /* \"#utility.yul\":3490:3519   */\n      swap1\n      pop\n        /* \"#utility.yul\":3528:3561   */\n      tag_366\n        /* \"#utility.yul\":3555:3560   */\n      dup2\n        /* \"#utility.yul\":3528:3561   */\n      tag_295\n      jump\t// in\n    tag_366:\n        /* \"#utility.yul\":3428:3567   */\n      swap3\n      swap2\n      pop\n      pop\n      jump\t// out\n        /* \"#utility.yul\":3573:3902   */\n    tag_54:\n        /* \"#utility.yul\":3632:3638   */\n      0x00\n        /* \"#utility.yul\":3681:3683   */\n      0x20\n        /* \"#utility.yul\":3669:3678   */\n      dup3\n        /* \"#utility.yul\":3660:3667   */\n      dup5\n        /* \"#utility.yul\":3656:3679   */\n      sub\n        /* \"#utility.yul\":3652:3684   */\n      slt\n        /* \"#utility.yul\":3649:3768   */\n      iszero\n      tag_368\n      jumpi\n        /* \"#utility.yul\":3687:3766   */\n      tag_369\n      tag_282\n      jump\t// in\n    tag_369:\n        /* \"#utility.yul\":3649:3768   */\n    tag_368:\n        /* \"#utility.yul\":3807:3808   */\n      0x00\n        /* \"#utility.yul\":3832:3885   */\n      tag_370\n        /* \"#utility.yul\":3877:3884   */\n      dup5\n        /* \"#utility.yul\":3868:3874   */\n      dup3\n        /* \"#utility.yul\":3857:3866   */\n      dup6\n        /* \"#utility.yul\":3853:3875   */\n      add\n        /* \"#utility.yul\":3832:3885   */\n      tag_296\n      jump\t// in\n    tag_370:\n        /* \"#utility.yul\":3822:3885   */\n      swap2\n      pop\n        /* \"#utility.yul\":3778:3895   */\n      pop\n        /* \"#utility.yul\":3573:3902   */\n      swap3\n      swap2\n      pop\n      pop\n      jump\t// out\n        /* \"#utility.yul\":3908:4382   */\n    tag_59:\n        /* \"#utility.yul\":3976:3982   */\n      0x00\n        /* \"#utility.yul\":3984:3990   */\n      0x00\n        /* \"#utility.yul\":4033:4035   */\n      0x40\n        /* \"#utility.yul\":4021:4030   */\n      dup4\n        /* \"#utility.yul\":4012:4019   */\n      dup6\n        /* \"#utility.yul\":4008:4031   */\n      sub\n        /* \"#utility.yul\":4004:4036   */\n      slt\n        /* \"#utility.yul\":4001:4120   */\n      iszero\n      tag_372\n      jumpi\n        /* \"#utility.yul\":4039:4118   */\n      tag_373\n      tag_282\n      jump\t// in\n    tag_373:\n        /* \"#utility.yul\":4001:4120   */\n    tag_372:\n        /* \"#utility.yul\":4159:4160   */\n      0x00\n        /* \"#utility.yul\":4184:4237   */\n      tag_374\n        /* \"#utility.yul\":4229:4236   */\n      dup6\n        /* \"#utility.yul\":4220:4226   */\n      dup3\n        /* \"#utility.yul\":4209:4218   */\n      dup7\n        /* \"#utility.yul\":4205:4227   */\n      add\n        /* \"#utility.yul\":4184:4237   */\n      tag_287\n      jump\t// in\n    tag_374:\n        /* \"#utility.yul\":4174:4237   */\n      swap3\n      pop\n        /* \"#utility.yul\":4130:4247   */\n      pop\n        /* \"#utility.yul\":4286:4288   */\n      0x20\n        /* \"#utility.yul\":4312:4365   */\n      tag_375\n        /* \"#utility.yul\":4357:4364   */\n      dup6\n        /* \"#utility.yul\":4348:4354   */\n      dup3\n        /* \"#utility.yul\":4337:4346   */\n      dup7\n        /* \"#utility.yul\":4333:4355   */\n      add\n        /* \"#utility.yul\":4312:4365   */\n      tag_296\n      jump\t// in\n    tag_375:\n        /* \"#utility.yul\":4302:4365   */\n      swap2\n      pop\n        /* \"#utility.yul\":4257:4375   */\n      pop\n        /* \"#utility.yul\":3908:4382   */\n      swap3\n      pop\n      swap3\n      swap1\n      pop\n      jump\t// out\n        /* \"#utility.yul\":4388:4505   */\n    tag_297:\n        /* \"#utility.yul\":4497:4498   */\n      0x00\n        /* \"#utility.yul\":4494:4495   */\n      0x00\n        /* \"#utility.yul\":4487:4499   */\n      revert\n        /* \"#utility.yul\":4511:4628   */\n    tag_298:\n        /* \"#utility.yul\":4620:4621   */\n      0x00\n        /* \"#utility.yul\":4617:4618   */\n      0x00\n        /* \"#utility.yul\":4610:4622   */\n      revert\n        /* \"#utility.yul\":4634:4751   */\n    tag_299:\n        /* \"#utility.yul\":4743:4744   */\n      0x00\n        /* \"#utility.yul\":4740:4741   */\n      0x00\n        /* \"#utility.yul\":4733:4745   */\n      revert\n        /* \"#utility.yul\":4771:5324   */\n    tag_300:\n        /* \"#utility.yul\":4829:4837   */\n      0x00\n        /* \"#utility.yul\":4839:4845   */\n      0x00\n        /* \"#utility.yul\":4889:4892   */\n      dup4\n        /* \"#utility.yul\":4882:4886   */\n      0x1f\n        /* \"#utility.yul\":4874:4880   */\n      dup5\n        /* \"#utility.yul\":4870:4887   */\n      add\n        /* \"#utility.yul\":4866:4893   */\n      slt\n        /* \"#utility.yul\":4856:4978   */\n      tag_380\n      jumpi\n        /* \"#utility.yul\":4897:4976   */\n      tag_381\n      tag_297\n      jump\t// in\n    tag_381:\n        /* \"#utility.yul\":4856:4978   */\n    tag_380:\n        /* \"#utility.yul\":5010:5016   */\n      dup3\n        /* \"#utility.yul\":4997:5017   */\n      calldataload\n        /* \"#utility.yul\":4987:5017   */\n      swap1\n      pop\n        /* \"#utility.yul\":5040:5058   */\n      0xffffffffffffffff\n        /* \"#utility.yul\":5032:5038   */\n      dup2\n        /* \"#utility.yul\":5029:5059   */\n      gt\n        /* \"#utility.yul\":5026:5143   */\n      iszero\n      tag_382\n      jumpi\n        /* \"#utility.yul\":5062:5141   */\n      tag_383\n      tag_298\n      jump\t// in\n    tag_383:\n        /* \"#utility.yul\":5026:5143   */\n    tag_382:\n        /* \"#utility.yul\":5176:5180   */\n      0x20\n        /* \"#utility.yul\":5168:5174   */\n      dup4\n        /* \"#utility.yul\":5164:5181   */\n      add\n        /* \"#utility.yul\":5152:5181   */\n      swap2\n      pop\n        /* \"#utility.yul\":5230:5233   */\n      dup4\n        /* \"#utility.yul\":5222:5226   */\n      0x01\n        /* \"#utility.yul\":5214:5220   */\n      dup3\n        /* \"#utility.yul\":5210:5227   */\n      mul\n        /* \"#utility.yul\":5200:5208   */\n      dup4\n        /* \"#utility.yul\":5196:5228   */\n      add\n        /* \"#utility.yul\":5193:5234   */\n      gt\n        /* \"#utility.yul\":5190:5318   */\n      iszero\n      tag_384\n      jumpi\n        /* \"#utility.yul\":5237:5316   */\n      tag_385\n      tag_299\n      jump\t// in\n    tag_385:\n        /* \"#utility.yul\":5190:5318   */\n    tag_384:\n        /* \"#utility.yul\":4771:5324   */\n      swap3\n      pop\n      swap3\n      swap1\n      pop\n      jump\t// out\n        /* \"#utility.yul\":5330:6149   */\n    tag_68:\n        /* \"#utility.yul\":5419:5425   */\n      0x00\n        /* \"#utility.yul\":5427:5433   */\n      0x00\n        /* \"#utility.yul\":5435:5441   */\n      0x00\n        /* \"#utility.yul\":5443:5449   */\n      0x00\n        /* \"#utility.yul\":5492:5494   */\n      0x60\n        /* \"#utility.yul\":5480:5489   */\n      dup6\n        /* \"#utility.yul\":5471:5478   */\n      dup8\n        /* \"#utility.yul\":5467:5490   */\n      sub\n        /* \"#utility.yul\":5463:5495   */\n      slt\n        /* \"#utility.yul\":5460:5579   */\n      iszero\n      tag_387\n      jumpi\n        /* \"#utility.yul\":5498:5577   */\n      tag_388\n      tag_282\n      jump\t// in\n    tag_388:\n        /* \"#utility.yul\":5460:5579   */\n    tag_387:\n        /* \"#utility.yul\":5618:5619   */\n      0x00\n        /* \"#utility.yul\":5643:5696   */\n      tag_389\n        /* \"#utility.yul\":5688:5695   */\n      dup8\n        /* \"#utility.yul\":5679:5685   */\n      dup3\n        /* \"#utility.yul\":5668:5677   */\n      dup9\n        /* \"#utility.yul\":5664:5686   */\n      add\n        /* \"#utility.yul\":5643:5696   */\n      tag_287\n      jump\t// in\n    tag_389:\n        /* \"#utility.yul\":5633:5696   */\n      swap5\n      pop\n        /* \"#utility.yul\":5589:5706   */\n      pop\n        /* \"#utility.yul\":5773:5775   */\n      0x20\n        /* \"#utility.yul\":5762:5771   */\n      dup6\n        /* \"#utility.yul\":5758:5776   */\n      add\n        /* \"#utility.yul\":5745:5777   */\n      calldataload\n        /* \"#utility.yul\":5804:5822   */\n      0xffffffffffffffff\n        /* \"#utility.yul\":5796:5802   */\n      dup2\n        /* \"#utility.yul\":5793:5823   */\n      gt\n        /* \"#utility.yul\":5790:5907   */\n      iszero\n      tag_390\n      jumpi\n        /* \"#utility.yul\":5826:5905   */\n      tag_391\n      tag_283\n      jump\t// in\n    tag_391:\n        /* \"#utility.yul\":5790:5907   */\n    tag_390:\n        /* \"#utility.yul\":5939:6004   */\n      tag_392\n        /* \"#utility.yul\":5996:6003   */\n      dup8\n        /* \"#utility.yul\":5987:5993   */\n      dup3\n        /* \"#utility.yul\":5976:5985   */\n      dup9\n        /* \"#utility.yul\":5972:5994   */\n      add\n        /* \"#utility.yul\":5939:6004   */\n      tag_300\n      jump\t// in\n    tag_392:\n        /* \"#utility.yul\":5921:6004   */\n      swap4\n      pop\n      swap4\n      pop\n        /* \"#utility.yul\":5716:6014   */\n      pop\n        /* \"#utility.yul\":6053:6055   */\n      0x40\n        /* \"#utility.yul\":6079:6132   */\n      tag_393\n        /* \"#utility.yul\":6124:6131   */\n      dup8\n        /* \"#utility.yul\":6115:6121   */\n      dup3\n        /* \"#utility.yul\":6104:6113   */\n      dup9\n        /* \"#utility.yul\":6100:6122   */\n      add\n        /* \"#utility.yul\":6079:6132   */\n      tag_296\n      jump\t// in\n    tag_393:\n        /* \"#utility.yul\":6069:6132   */\n      swap2\n      pop\n        /* \"#utility.yul\":6024:6142   */\n      pop\n        /* \"#utility.yul\":5330:6149   */\n      swap3\n      swap6\n      swap2\n      swap5\n      pop\n      swap3\n      pop\n      jump\t// out\n        /* \"#utility.yul\":6155:6273   */\n    tag_301:\n        /* \"#utility.yul\":6242:6266   */\n      tag_395\n        /* \"#utility.yul\":6260:6265   */\n      dup2\n        /* \"#utility.yul\":6242:6266   */\n      tag_285\n      jump\t// in\n    tag_395:\n        /* \"#utility.yul\":6237:6240   */\n      dup3\n        /* \"#utility.yul\":6230:6267   */\n      mstore\n        /* \"#utility.yul\":6155:6273   */\n      pop\n      pop\n      jump\t// out\n        /* \"#utility.yul\":6279:6501   */\n    tag_80:\n        /* \"#utility.yul\":6372:6376   */\n      0x00\n        /* \"#utility.yul\":6410:6412   */\n      0x20\n        /* \"#utility.yul\":6399:6408   */\n      dup3\n        /* \"#utility.yul\":6395:6413   */\n      add\n        /* \"#utility.yul\":6387:6413   */\n      swap1\n      pop\n        /* \"#utility.yul\":6423:6494   */\n      tag_397\n        /* \"#utility.yul\":6491:6492   */\n      0x00\n        /* \"#utility.yul\":6480:6489   */\n      dup4\n        /* \"#utility.yul\":6476:6493   */\n      add\n        /* \"#utility.yul\":6467:6473   */\n      dup5\n        /* \"#utility.yul\":6423:6494   */\n      tag_301\n      jump\t// in\n    tag_397:\n        /* \"#utility.yul\":6279:6501   */\n      swap3\n      swap2\n      pop\n      pop\n      jump\t// out\n        /* \"#utility.yul\":6507:7181   */\n    tag_84:\n        /* \"#utility.yul\":6587:6593   */\n      0x00\n        /* \"#utility.yul\":6595:6601   */\n      0x00\n        /* \"#utility.yul\":6603:6609   */\n      0x00\n        /* \"#utility.yul\":6652:6654   */\n      0x40\n        /* \"#utility.yul\":6640:6649   */\n      dup5\n        /* \"#utility.yul\":6631:6638   */\n      dup7\n        /* \"#utility.yul\":6627:6650   */\n      sub\n        /* \"#utility.yul\":6623:6655   */\n      slt\n        /* \"#utility.yul\":6620:6739   */\n      iszero\n      tag_399\n      jumpi\n        /* \"#utility.yul\":6658:6737   */\n      tag_400\n      tag_282\n      jump\t// in\n    tag_400:\n        /* \"#utility.yul\":6620:6739   */\n    tag_399:\n        /* \"#utility.yul\":6806:6807   */\n      0x00\n        /* \"#utility.yul\":6795:6804   */\n      dup5\n        /* \"#utility.yul\":6791:6808   */\n      add\n        /* \"#utility.yul\":6778:6809   */\n      calldataload\n        /* \"#utility.yul\":6836:6854   */\n      0xffffffffffffffff\n        /* \"#utility.yul\":6828:6834   */\n      dup2\n        /* \"#utility.yul\":6825:6855   */\n      gt\n        /* \"#utility.yul\":6822:6939   */\n      iszero\n      tag_401\n      jumpi\n        /* \"#utility.yul\":6858:6937   */\n      tag_402\n      tag_283\n      jump\t// in\n    tag_402:\n        /* \"#utility.yul\":6822:6939   */\n    tag_401:\n        /* \"#utility.yul\":6971:7036   */\n      tag_403\n        /* \"#utility.yul\":7028:7035   */\n      dup7\n        /* \"#utility.yul\":7019:7025   */\n      dup3\n        /* \"#utility.yul\":7008:7017   */\n      dup8\n        /* \"#utility.yul\":7004:7026   */\n      add\n        /* \"#utility.yul\":6971:7036   */\n      tag_300\n      jump\t// in\n    tag_403:\n        /* \"#utility.yul\":6953:7036   */\n      swap4\n      pop\n      swap4\n      pop\n        /* \"#utility.yul\":6749:7046   */\n      pop\n        /* \"#utility.yul\":7085:7087   */\n      0x20\n        /* \"#utility.yul\":7111:7164   */\n      tag_404\n        /* \"#utility.yul\":7156:7163   */\n      dup7\n        /* \"#utility.yul\":7147:7153   */\n      dup3\n        /* \"#utility.yul\":7136:7145   */\n      dup8\n        /* \"#utility.yul\":7132:7154   */\n      add\n        /* \"#utility.yul\":7111:7164   */\n      tag_296\n      jump\t// in\n    tag_404:\n        /* \"#utility.yul\":7101:7164   */\n      swap2\n      pop\n        /* \"#utility.yul\":7056:7174   */\n      pop\n        /* \"#utility.yul\":6507:7181   */\n      swap3\n      pop\n      swap3\n      pop\n      swap3\n      jump\t// out\n        /* \"#utility.yul\":7187:7861   */\n    tag_89:\n        /* \"#utility.yul\":7267:7273   */\n      0x00\n        /* \"#utility.yul\":7275:7281   */\n      0x00\n        /* \"#utility.yul\":7283:7289   */\n      0x00\n        /* \"#utility.yul\":7332:7334   */\n      0x40\n        /* \"#utility.yul\":7320:7329   */\n      dup5\n        /* \"#utility.yul\":7311:7318   */\n      dup7\n        /* \"#utility.yul\":7307:7330   */\n      sub\n        /* \"#utility.yul\":7303:7335   */\n      slt\n        /* \"#utility.yul\":7300:7419   */\n      iszero\n      tag_406\n      jumpi\n        /* \"#utility.yul\":7338:7417   */\n      tag_407\n      tag_282\n      jump\t// in\n    tag_407:\n        /* \"#utility.yul\":7300:7419   */\n    tag_406:\n        /* \"#utility.yul\":7458:7459   */\n      0x00\n        /* \"#utility.yul\":7483:7536   */\n      tag_408\n        /* \"#utility.yul\":7528:7535   */\n      dup7\n        /* \"#utility.yul\":7519:7525   */\n      dup3\n        /* \"#utility.yul\":7508:7517   */\n      dup8\n        /* \"#utility.yul\":7504:7526   */\n      add\n        /* \"#utility.yul\":7483:7536   */\n      tag_287\n      jump\t// in\n    tag_408:\n        /* \"#utility.yul\":7473:7536   */\n      swap4\n      pop\n        /* \"#utility.yul\":7429:7546   */\n      pop\n        /* \"#utility.yul\":7613:7615   */\n      0x20\n        /* \"#utility.yul\":7602:7611   */\n      dup5\n        /* \"#utility.yul\":7598:7616   */\n      add\n        /* \"#utility.yul\":7585:7617   */\n      calldataload\n        /* \"#utility.yul\":7644:7662   */\n      0xffffffffffffffff\n        /* \"#utility.yul\":7636:7642   */\n      dup2\n        /* \"#utility.yul\":7633:7663   */\n      gt\n        /* \"#utility.yul\":7630:7747   */\n      iszero\n      tag_409\n      jumpi\n        /* \"#utility.yul\":7666:7745   */\n      tag_410\n      tag_283\n      jump\t// in\n    tag_410:\n        /* \"#utility.yul\":7630:7747   */\n    tag_409:\n        /* \"#utility.yul\":7779:7844   */\n      tag_411\n        /* \"#utility.yul\":7836:7843   */\n      dup7\n        /* \"#utility.yul\":7827:7833   */\n      dup3\n        /* \"#utility.yul\":7816:7825   */\n      dup8\n        /* \"#utility.yul\":7812:7834   */\n      add\n        /* \"#utility.yul\":7779:7844   */\n      tag_300\n      jump\t// in\n    tag_411:\n        /* \"#utility.yul\":7761:7844   */\n      swap3\n      pop\n      swap3\n      pop\n        /* \"#utility.yul\":7556:7854   */\n      pop\n        /* \"#utility.yul\":7187:7861   */\n      swap3\n      pop\n      swap3\n      pop\n      swap3\n      jump\t// out\n        /* \"#utility.yul\":7867:8187   */\n    tag_92:\n        /* \"#utility.yul\":7982:7986   */\n      0x00\n        /* \"#utility.yul\":8020:8022   */\n      0x40\n        /* \"#utility.yul\":8009:8018   */\n      dup3\n        /* \"#utility.yul\":8005:8023   */\n      add\n        /* \"#utility.yul\":7997:8023   */\n      swap1\n      pop\n        /* \"#utility.yul\":8033:8104   */\n      tag_413\n        /* \"#utility.yul\":8101:8102   */\n      0x00\n        /* \"#utility.yul\":8090:8099   */\n      dup4\n        /* \"#utility.yul\":8086:8103   */\n      add\n        /* \"#utility.yul\":8077:8083   */\n      dup6\n        /* \"#utility.yul\":8033:8104   */\n      tag_301\n      jump\t// in\n    tag_413:\n        /* \"#utility.yul\":8114:8180   */\n      tag_414\n        /* \"#utility.yul\":8176:8178   */\n      0x20\n        /* \"#utility.yul\":8165:8174   */\n      dup4\n        /* \"#utility.yul\":8161:8179   */\n      add\n        /* \"#utility.yul\":8152:8158   */\n      dup5\n        /* \"#utility.yul\":8114:8180   */\n      tag_294\n      jump\t// in\n    tag_414:\n        /* \"#utility.yul\":7867:8187   */\n      swap4\n      swap3\n      pop\n      pop\n      pop\n      jump\t// out\n        /* \"#utility.yul\":8193:8522   */\n    tag_100:\n        /* \"#utility.yul\":8252:8258   */\n      0x00\n        /* \"#utility.yul\":8301:8303   */\n      0x20\n        /* \"#utility.yul\":8289:8298   */\n      dup3\n        /* \"#utility.yul\":8280:8287   */\n      dup5\n        /* \"#utility.yul\":8276:8299   */\n      sub\n        /* \"#utility.yul\":8272:8304   */\n      slt\n        /* \"#utility.yul\":8269:8388   */\n      iszero\n      tag_416\n      jumpi\n        /* \"#utility.yul\":8307:8386   */\n      tag_417\n      tag_282\n      jump\t// in\n    tag_417:\n        /* \"#utility.yul\":8269:8388   */\n    tag_416:\n        /* \"#utility.yul\":8427:8428   */\n      0x00\n        /* \"#utility.yul\":8452:8505   */\n      tag_418\n        /* \"#utility.yul\":8497:8504   */\n      dup5\n        /* \"#utility.yul\":8488:8494   */\n      dup3\n        /* \"#utility.yul\":8477:8486   */\n      dup6\n        /* \"#utility.yul\":8473:8495   */\n      add\n        /* \"#utility.yul\":8452:8505   */\n      tag_287\n      jump\t// in\n    tag_418:\n        /* \"#utility.yul\":8442:8505   */\n      swap2\n      pop\n        /* \"#utility.yul\":8398:8515   */\n      pop\n        /* \"#utility.yul\":8193:8522   */\n      swap3\n      swap2\n      pop\n      pop\n      jump\t// out\n        /* \"#utility.yul\":8528:8841   */\n    tag_125:\n        /* \"#utility.yul\":8641:8645   */\n      0x00\n        /* \"#utility.yul\":8679:8681   */\n      0x20\n        /* \"#utility.yul\":8668:8677   */\n      dup3\n        /* \"#utility.yul\":8664:8682   */\n      add\n        /* \"#utility.yul\":8656:8682   */\n      swap1\n      pop\n        /* \"#utility.yul\":8728:8737   */\n      dup2\n        /* \"#utility.yul\":8722:8726   */\n      dup2\n        /* \"#utility.yul\":8718:8738   */\n      sub\n        /* \"#utility.yul\":8714:8715   */\n      0x00\n        /* \"#utility.yul\":8703:8712   */\n      dup4\n        /* \"#utility.yul\":8699:8716   */\n      add\n        /* \"#utility.yul\":8692:8739   */\n      mstore\n        /* \"#utility.yul\":8756:8834   */\n      tag_420\n        /* \"#utility.yul\":8829:8833   */\n      dup2\n        /* \"#utility.yul\":8820:8826   */\n      dup5\n        /* \"#utility.yul\":8756:8834   */\n      tag_292\n      jump\t// in\n    tag_420:\n        /* \"#utility.yul\":8748:8834   */\n      swap1\n      pop\n        /* \"#utility.yul\":8528:8841   */\n      swap3\n      swap2\n      pop\n      pop\n      jump\t// out\n        /* \"#utility.yul\":8847:9027   */\n    tag_302:\n        /* \"#utility.yul\":8895:8972   */\n      0x4e487b7100000000000000000000000000000000000000000000000000000000\n        /* \"#utility.yul\":8892:8893   */\n      0x00\n        /* \"#utility.yul\":8885:8973   */\n      mstore\n        /* \"#utility.yul\":8992:8996   */\n      0x22\n        /* \"#utility.yul\":8989:8990   */\n      0x04\n        /* \"#utility.yul\":8982:8997   */\n      mstore\n        /* \"#utility.yul\":9016:9020   */\n      0x24\n        /* \"#utility.yul\":9013:9014   */\n      0x00\n        /* \"#utility.yul\":9006:9021   */\n      revert\n        /* \"#utility.yul\":9033:9353   */\n    tag_128:\n        /* \"#utility.yul\":9077:9083   */\n      0x00\n        /* \"#utility.yul\":9114:9115   */\n      0x02\n        /* \"#utility.yul\":9108:9112   */\n      dup3\n        /* \"#utility.yul\":9104:9116   */\n      div\n        /* \"#utility.yul\":9094:9116   */\n      swap1\n      pop\n        /* \"#utility.yul\":9161:9162   */\n      0x01\n        /* \"#utility.yul\":9155:9159   */\n      dup3\n        /* \"#utility.yul\":9151:9163   */\n      and\n        /* \"#utility.yul\":9182:9200   */\n      dup1\n        /* \"#utility.yul\":9172:9253   */\n      tag_423\n      jumpi\n        /* \"#utility.yul\":9238:9242   */\n      0x7f\n        /* \"#utility.yul\":9230:9236   */\n      dup3\n        /* \"#utility.yul\":9226:9243   */\n      and\n        /* \"#utility.yul\":9216:9243   */\n      swap2\n      pop\n        /* \"#utility.yul\":9172:9253   */\n    tag_423:\n        /* \"#utility.yul\":9300:9302   */\n      0x20\n        /* \"#utility.yul\":9292:9298   */\n      dup3\n        /* \"#utility.yul\":9289:9303   */\n      lt\n        /* \"#utility.yul\":9269:9287   */\n      dup2\n        /* \"#utility.yul\":9266:9304   */\n      sub\n        /* \"#utility.yul\":9263:9347   */\n      tag_424\n      jumpi\n        /* \"#utility.yul\":9319:9337   */\n      tag_425\n      tag_302\n      jump\t// in\n    tag_425:\n        /* \"#utility.yul\":9263:9347   */\n    tag_424:\n        /* \"#utility.yul\":9084:9353   */\n      pop\n        /* \"#utility.yul\":9033:9353   */\n      swap2\n      swap1\n      pop\n      jump\t// out\n        /* \"#utility.yul\":9359:9691   */\n    tag_139:\n        /* \"#utility.yul\":9480:9484   */\n      0x00\n        /* \"#utility.yul\":9518:9520   */\n      0x40\n        /* \"#utility.yul\":9507:9516   */\n      dup3\n        /* \"#utility.yul\":9503:9521   */\n      add\n        /* \"#utility.yul\":9495:9521   */\n      swap1\n      pop\n        /* \"#utility.yul\":9531:9602   */\n      tag_427\n        /* \"#utility.yul\":9599:9600   */\n      0x00\n        /* \"#utility.yul\":9588:9597   */\n      dup4\n        /* \"#utility.yul\":9584:9601   */\n      add\n        /* \"#utility.yul\":9575:9581   */\n      dup6\n        /* \"#utility.yul\":9531:9602   */\n      tag_280\n      jump\t// in\n    tag_427:\n        /* \"#utility.yul\":9612:9684   */\n      tag_428\n        /* \"#utility.yul\":9680:9682   */\n      0x20\n        /* \"#utility.yul\":9669:9678   */\n      dup4\n        /* \"#utility.yul\":9665:9683   */\n      add\n        /* \"#utility.yul\":9656:9662   */\n      dup5\n        /* \"#utility.yul\":9612:9684   */\n      tag_280\n      jump\t// in\n    tag_428:\n        /* \"#utility.yul\":9359:9691   */\n      swap4\n      swap3\n      pop\n      pop\n      pop\n      jump\t// out\n        /* \"#utility.yul\":9697:9877   */\n    tag_303:\n        /* \"#utility.yul\":9745:9822   */\n      0x4e487b7100000000000000000000000000000000000000000000000000000000\n        /* \"#utility.yul\":9742:9743   */\n      0x00\n        /* \"#utility.yul\":9735:9823   */\n      mstore\n        /* \"#utility.yul\":9842:9846   */\n      0x11\n        /* \"#utility.yul\":9839:9840   */\n      0x04\n        /* \"#utility.yul\":9832:9847   */\n      mstore\n        /* \"#utility.yul\":9866:9870   */\n      0x24\n        /* \"#utility.yul\":9863:9864   */\n      0x00\n        /* \"#utility.yul\":9856:9871   */\n      revert\n        /* \"#utility.yul\":9883:10077   */\n    tag_143:\n        /* \"#utility.yul\":9923:9927   */\n      0x00\n        /* \"#utility.yul\":9943:9963   */\n      tag_431\n        /* \"#utility.yul\":9961:9962   */\n      dup3\n        /* \"#utility.yul\":9943:9963   */\n      tag_279\n      jump\t// in\n    tag_431:\n        /* \"#utility.yul\":9938:9963   */\n      swap2\n      pop\n        /* \"#utility.yul\":9977:9997   */\n      tag_432\n        /* \"#utility.yul\":9995:9996   */\n      dup4\n        /* \"#utility.yul\":9977:9997   */\n      tag_279\n      jump\t// in\n    tag_432:\n        /* \"#utility.yul\":9972:9997   */\n      swap3\n      pop\n        /* \"#utility.yul\":10021:10022   */\n      dup3\n        /* \"#utility.yul\":10018:10019   */\n      dup3\n        /* \"#utility.yul\":10014:10023   */\n      sub\n        /* \"#utility.yul\":10006:10023   */\n      swap1\n      pop\n        /* \"#utility.yul\":10045:10046   */\n      dup2\n        /* \"#utility.yul\":10039:10043   */\n      dup2\n        /* \"#utility.yul\":10036:10047   */\n      gt\n        /* \"#utility.yul\":10033:10070   */\n      iszero\n      tag_433\n      jumpi\n        /* \"#utility.yul\":10050:10068   */\n      tag_434\n      tag_303\n      jump\t// in\n    tag_434:\n        /* \"#utility.yul\":10033:10070   */\n    tag_433:\n        /* \"#utility.yul\":9883:10077   */\n      swap3\n      swap2\n      pop\n      pop\n      jump\t// out\n        /* \"#utility.yul\":10083:10274   */\n    tag_161:\n        /* \"#utility.yul\":10123:10126   */\n      0x00\n        /* \"#utility.yul\":10142:10162   */\n      tag_436\n        /* \"#utility.yul\":10160:10161   */\n      dup3\n        /* \"#utility.yul\":10142:10162   */\n      tag_279\n      jump\t// in\n    tag_436:\n        /* \"#utility.yul\":10137:10162   */\n      swap2\n      pop\n        /* \"#utility.yul\":10176:10196   */\n      tag_437\n        /* \"#utility.yul\":10194:10195   */\n      dup4\n        /* \"#utility.yul\":10176:10196   */\n      tag_279\n      jump\t// in\n    tag_437:\n        /* \"#utility.yul\":10171:10196   */\n      swap3\n      pop\n        /* \"#utility.yul\":10219:10220   */\n      dup3\n        /* \"#utility.yul\":10216:10217   */\n      dup3\n        /* \"#utility.yul\":10212:10221   */\n      add\n        /* \"#utility.yul\":10205:10221   */\n      swap1\n      pop\n        /* \"#utility.yul\":10240:10243   */\n      dup1\n        /* \"#utility.yul\":10237:10238   */\n      dup3\n        /* \"#utility.yul\":10234:10244   */\n      gt\n        /* \"#utility.yul\":10231:10267   */\n      iszero\n      tag_438\n      jumpi\n        /* \"#utility.yul\":10247:10265   */\n      tag_439\n      tag_303\n      jump\t// in\n    tag_439:\n        /* \"#utility.yul\":10231:10267   */\n    tag_438:\n        /* \"#utility.yul\":10083:10274   */\n      swap3\n      swap2\n      pop\n      pop\n      jump\t// out\n        /* \"#utility.yul\":10280:10460   */\n    tag_304:\n        /* \"#utility.yul\":10328:10405   */\n      0x4e487b7100000000000000000000000000000000000000000000000000000000\n        /* \"#utility.yul\":10325:10326   */\n      0x00\n        /* \"#utility.yul\":10318:10406   */\n      mstore\n        /* \"#utility.yul\":10425:10429   */\n      0x41\n        /* \"#utility.yul\":10422:10423   */\n      0x04\n        /* \"#utility.yul\":10415:10430   */\n      mstore\n        /* \"#utility.yul\":10449:10453   */\n      0x24\n        /* \"#utility.yul\":10446:10447   */\n      0x00\n        /* \"#utility.yul\":10439:10454   */\n      revert\n        /* \"#utility.yul\":10466:10607   */\n    tag_305:\n        /* \"#utility.yul\":10515:10519   */\n      0x00\n        /* \"#utility.yul\":10538:10541   */\n      dup2\n        /* \"#utility.yul\":10530:10541   */\n      swap1\n      pop\n        /* \"#utility.yul\":10561:10564   */\n      dup2\n        /* \"#utility.yul\":10558:10559   */\n      0x00\n        /* \"#utility.yul\":10551:10565   */\n      mstore\n        /* \"#utility.yul\":10595:10599   */\n      0x20\n        /* \"#utility.yul\":10592:10593   */\n      0x00\n        /* \"#utility.yul\":10582:10600   */\n      keccak256\n        /* \"#utility.yul\":10574:10600   */\n      swap1\n      pop\n        /* \"#utility.yul\":10466:10607   */\n      swap2\n      swap1\n      pop\n      jump\t// out\n        /* \"#utility.yul\":10613:10706   */\n    tag_306:\n        /* \"#utility.yul\":10650:10656   */\n      0x00\n        /* \"#utility.yul\":10697:10699   */\n      0x20\n        /* \"#utility.yul\":10692:10694   */\n      0x1f\n        /* \"#utility.yul\":10685:10690   */\n      dup4\n        /* \"#utility.yul\":10681:10695   */\n      add\n        /* \"#utility.yul\":10677:10700   */\n      div\n        /* \"#utility.yul\":10667:10700   */\n      swap1\n      pop\n        /* \"#utility.yul\":10613:10706   */\n      swap2\n      swap1\n      pop\n      jump\t// out\n        /* \"#utility.yul\":10712:10819   */\n    tag_307:\n        /* \"#utility.yul\":10756:10764   */\n      0x00\n        /* \"#utility.yul\":10806:10811   */\n      dup3\n        /* \"#utility.yul\":10800:10804   */\n      dup3\n        /* \"#utility.yul\":10796:10812   */\n      shl\n        /* \"#utility.yul\":10775:10812   */\n      swap1\n      pop\n        /* \"#utility.yul\":10712:10819   */\n      swap3\n      swap2\n      pop\n      pop\n      jump\t// out\n        /* \"#utility.yul\":10825:11218   */\n    tag_308:\n        /* \"#utility.yul\":10894:10900   */\n      0x00\n        /* \"#utility.yul\":10944:10945   */\n      0x08\n        /* \"#utility.yul\":10932:10942   */\n      dup4\n        /* \"#utility.yul\":10928:10946   */\n      mul\n        /* \"#utility.yul\":10967:11064   */\n      tag_445\n        /* \"#utility.yul\":10997:11063   */\n      0xffffffffffffffffffffffffffffffffffffffffffffffffffffffffffffffff\n        /* \"#utility.yul\":10986:10995   */\n      dup3\n        /* \"#utility.yul\":10967:11064   */\n      tag_307\n      jump\t// in\n    tag_445:\n        /* \"#utility.yul\":11085:11124   */\n      tag_446\n        /* \"#utility.yul\":11115:11123   */\n      dup7\n        /* \"#utility.yul\":11104:11113   */\n      dup4\n        /* \"#utility.yul\":11085:11124   */\n      tag_307\n      jump\t// in\n    tag_446:\n        /* \"#utility.yul\":11073:11124   */\n      swap6\n      pop\n        /* \"#utility.yul\":11157:11161   */\n      dup1\n        /* \"#utility.yul\":11153:11162   */\n      not\n        /* \"#utility.yul\":11146:11151   */\n      dup5\n        /* \"#utility.yul\":11142:11163   */\n      and\n        /* \"#utility.yul\":11133:11163   */\n      swap4\n      pop\n        /* \"#utility.yul\":11206:11210   */\n      dup1\n        /* \"#utility.yul\":11196:11204   */\n      dup7\n        /* \"#utility.yul\":11192:11211   */\n      and\n        /* \"#utility.yul\":11185:11190   */\n      dup5\n        /* \"#utility.yul\":11182:11212   */\n      or\n        /* \"#utility.yul\":11172:11212   */\n      swap3\n      pop\n        /* \"#utility.yul\":10901:11218   */\n      pop\n      pop\n        /* \"#utility.yul\":10825:11218   */\n      swap4\n      swap3\n      pop\n      pop\n      pop\n      jump\t// out\n        /* \"#utility.yul\":11224:11284   */\n    tag_309:\n        /* \"#utility.yul\":11252:11255   */\n      0x00\n        /* \"#utility.yul\":11273:11278   */\n      dup2\n        /* \"#utility.yul\":11266:11278   */\n      swap1\n      pop\n        /* \"#utility.yul\":11224:11284   */\n      swap2\n      swap1\n      pop\n      jump\t// out\n        /* \"#utility.yul\":11290:11432   */\n    tag_310:\n        /* \"#utility.yul\":11340:11349   */\n      0x00\n        /* \"#utility.yul\":11373:11426   */\n      tag_449\n        /* \"#utility.yul\":11391:11425   */\n      tag_450\n        /* \"#utility.yul\":11400:11424   */\n      tag_451\n        /* \"#utility.yul\":11418:11423   */\n      dup5\n        /* \"#utility.yul\":11400:11424   */\n      tag_279\n      jump\t// in\n    tag_451:\n        /* \"#utility.yul\":11391:11425   */\n      tag_309\n      jump\t// in\n    tag_450:\n        /* \"#utility.yul\":11373:11426   */\n      tag_279\n      jump\t// in\n    tag_449:\n        /* \"#utility.yul\":11360:11426   */\n      swap1\n      pop\n        /* \"#utility.yul\":11290:11432   */\n      swap2\n      swap1\n      pop\n      jump\t// out\n        /* \"#utility.yul\":11438:11513   */\n    tag_311:\n        /* \"#utility.yul\":11481:11484   */\n      0x00\n        /* \"#utility.yul\":11502:11507   */\n      dup2\n        /* \"#utility.yul\":11495:11507   */\n      swap1\n      pop\n        /* \"#utility.yul\":11438:11513   */\n      swap2\n      swap1\n      pop\n      jump\t// out\n        /* \"#utility.yul\":11519:11788   */\n    tag_312:\n        /* \"#utility.yul\":11629:11668   */\n      tag_454\n        /* \"#utility.yul\":11660:11667   */\n      dup4\n        /* \"#utility.yul\":11629:11668   */\n      tag_310\n      jump\t// in\n    tag_454:\n        /* \"#utility.yul\":11690:11781   */\n      tag_455\n        /* \"#utility.yul\":11739:11780   */\n      tag_456\n        /* \"#utility.yul\":11763:11779   */\n      dup3\n        /* \"#utility.yul\":11739:11780   */\n      tag_311\n      jump\t// in\n    tag_456:\n        /* \"#utility.yul\":11731:11737   */\n      dup5\n        /* \"#utility.yul\":11724:11728   */\n      dup5\n        /* \"#utility.yul\":11718:11729   */\n      sload\n        /* \"#utility.yul\":11690:11781   */\n      tag_308\n      jump\t// in\n    tag_455:\n        /* \"#utility.yul\":11684:11688   */\n      dup3\n        /* \"#utility.yul\":11677:11782   */\n      sstore\n        /* \"#utility.yul\":11595:11788   */\n      pop\n        /* \"#utility.yul\":11519:11788   */\n      pop\n      pop\n      pop\n      jump\t// out\n        /* \"#utility.yul\":11794:11867   */\n    tag_313:\n        /* \"#utility.yul\":11839:11842   */\n      0x00\n        /* \"#utility.yul\":11860:11861   */\n      0x00\n        /* \"#utility.yul\":11853:11861   */\n      swap1\n      pop\n        /* \"#utility.yul\":11794:11867   */\n      swap1\n      jump\t// out\n        /* \"#utility.yul\":11873:12062   */\n    tag_314:\n        /* \"#utility.yul\":11950:11982   */\n      tag_459\n      tag_313\n      jump\t// in\n    tag_459:\n        /* \"#utility.yul\":11991:12056   */\n      tag_460\n        /* \"#utility.yul\":12049:12055   */\n      dup2\n        /* \"#utility.yul\":12041:12047   */\n      dup5\n        /* \"#utility.yul\":12035:12039   */\n      dup5\n        /* \"#utility.yul\":11991:12056   */\n      tag_312\n      jump\t// in\n    tag_460:\n        /* \"#utility.yul\":11926:12062   */\n      pop\n        /* \"#utility.yul\":11873:12062   */\n      pop\n      pop\n      jump\t// out\n        /* \"#utility.yul\":12068:12254   */\n    tag_315:\n        /* \"#utility.yul\":12128:12248   */\n    tag_462:\n        /* \"#utility.yul\":12145:12148   */\n      dup2\n        /* \"#utility.yul\":12138:12143   */\n      dup2\n        /* \"#utility.yul\":12135:12149   */\n      lt\n        /* \"#utility.yul\":12128:12248   */\n      iszero\n      tag_464\n      jumpi\n        /* \"#utility.yul\":12199:12238   */\n      tag_465\n        /* \"#utility.yul\":12236:12237   */\n      0x00\n        /* \"#utility.yul\":12229:12234   */\n      dup3\n        /* \"#utility.yul\":12199:12238   */\n      tag_314\n      jump\t// in\n    tag_465:\n        /* \"#utility.yul\":12172:12173   */\n      0x01\n        /* \"#utility.yul\":12165:12170   */\n      dup2\n        /* \"#utility.yul\":12161:12174   */\n      add\n        /* \"#utility.yul\":12152:12174   */\n      swap1\n      pop\n        /* \"#utility.yul\":12128:12248   */\n      jump(tag_462)\n    tag_464:\n        /* \"#utility.yul\":12068:12254   */\n      pop\n      pop\n      jump\t// out\n        /* \"#utility.yul\":12260:12803   */\n    tag_316:\n        /* \"#utility.yul\":12361:12363   */\n      0x1f\n        /* \"#utility.yul\":12356:12359   */\n      dup3\n        /* \"#utility.yul\":12353:12364   */\n      gt\n        /* \"#utility.yul\":12350:12796   */\n      iszero\n      tag_467\n      jumpi\n        /* \"#utility.yul\":12395:12433   */\n      tag_468\n        /* \"#utility.yul\":12427:12432   */\n      dup2\n        /* \"#utility.yul\":12395:12433   */\n      tag_305\n      jump\t// in\n    tag_468:\n        /* \"#utility.yul\":12479:12508   */\n      tag_469\n        /* \"#utility.yul\":12497:12507   */\n      dup5\n        /* \"#utility.yul\":12479:12508   */\n      tag_306\n      jump\t// in\n    tag_469:\n        /* \"#utility.yul\":12469:12477   */\n      dup2\n        /* \"#utility.yul\":12465:12509   */\n      add\n        /* \"#utility.yul\":12662:12664   */\n      0x20\n        /* \"#utility.yul\":12650:12660   */\n      dup6\n        /* \"#utility.yul\":12647:12665   */\n      lt\n        /* \"#utility.yul\":12644:12693   */\n      iszero\n      tag_470\n      jumpi\n        /* \"#utility.yul\":12683:12691   */\n      dup2\n        /* \"#utility.yul\":12668:12691   */\n      swap1\n      pop\n        /* \"#utility.yul\":12644:12693   */\n    tag_470:\n        /* \"#utility.yul\":12706:12786   */\n      tag_471\n        /* \"#utility.yul\":12762:12784   */\n      tag_472\n        /* \"#utility.yul\":12780:12783   */\n      dup6\n        /* \"#utility.yul\":12762:12784   */\n      tag_306\n      jump\t// in\n    tag_472:\n        /* \"#utility.yul\":12752:12760   */\n      dup4\n        /* \"#utility.yul\":12748:12785   */\n      add\n        /* \"#utility.yul\":12735:12746   */\n      dup3\n        /* \"#utility.yul\":12706:12786   */\n      tag_315\n      jump\t// in\n    tag_471:\n        /* \"#utility.yul\":12365:12796   */\n      pop\n      pop\n        /* \"#utility.yul\":12350:12796   */\n    tag_467:\n        /* \"#utility.yul\":12260:12803   */\n      pop\n      pop\n      pop\n      jump\t// out\n        /* \"#utility.yul\":12809:12926   */\n    tag_317:\n        /* \"#utility.yul\":12863:12871   */\n      0x00\n        /* \"#utility.yul\":12913:12918   */\n      dup3\n        /* \"#utility.yul\":12907:12911   */\n      dup3\n        /* \"#utility.yul\":12903:12919   */\n      shr\n        /* \"#utility.yul\":12882:12919   */\n      swap1\n      pop\n        /* \"#utility.yul\":12809:12926   */\n      swap3\n      swap2\n      pop\n      pop\n      jump\t// out\n        /* \"#utility.yul\":12932:13101   */\n    tag_318:\n        /* \"#utility.yul\":12976:12982   */\n      0x00\n        /* \"#utility.yul\":13009:13060   */\n      tag_475\n        /* \"#utility.yul\":13057:13058   */\n      0x00\n        /* \"#utility.yul\":13053:13059   */\n      not\n        /* \"#utility.yul\":13045:13050   */\n      dup5\n        /* \"#utility.yul\":13042:13043   */\n      0x08\n        /* \"#utility.yul\":13038:13051   */\n      mul\n        /* \"#utility.yul\":13009:13060   */\n      tag_317\n      jump\t// in\n    tag_475:\n        /* \"#utility.yul\":13005:13061   */\n      not\n        /* \"#utility.yul\":13090:13094   */\n      dup1\n        /* \"#utility.yul\":13084:13088   */\n      dup4\n        /* \"#utility.yul\":13080:13095   */\n      and\n        /* \"#utility.yul\":13070:13095   */\n      swap2\n      pop\n        /* \"#utility.yul\":12983:13101   */\n      pop\n        /* \"#utility.yul\":12932:13101   */\n      swap3\n      swap2\n      pop\n      pop\n      jump\t// out\n        /* \"#utility.yul\":13106:13401   */\n    tag_319:\n        /* \"#utility.yul\":13182:13186   */\n      0x00\n        /* \"#utility.yul\":13328:13357   */\n      tag_477\n        /* \"#utility.yul\":13353:13356   */\n      dup4\n        /* \"#utility.yul\":13347:13351   */\n      dup4\n        /* \"#utility.yul\":13328:13357   */\n      tag_318\n      jump\t// in\n    tag_477:\n        /* \"#utility.yul\":13320:13357   */\n      swap2\n      pop\n        /* \"#utility.yul\":13390:13393   */\n      dup3\n        /* \"#utility.yul\":13387:13388   */\n      0x02\n        /* \"#utility.yul\":13383:13394   */\n      mul\n        /* \"#utility.yul\":13377:13381   */\n      dup3\n        /* \"#utility.yul\":13374:13395   */\n      or\n        /* \"#utility.yul\":13366:13395   */\n      swap1\n      pop\n        /* \"#utility.yul\":13106:13401   */\n      swap3\n      swap2\n      pop\n      pop\n      jump\t// out\n        /* \"#utility.yul\":13406:14801   */\n    tag_179:\n        /* \"#utility.yul\":13523:13560   */\n      tag_479\n        /* \"#utility.yul\":13556:13559   */\n      dup3\n        /* \"#utility.yul\":13523:13560   */\n      tag_288\n      jump\t// in\n    tag_479:\n        /* \"#utility.yul\":13625:13643   */\n      0xffffffffffffffff\n        /* \"#utility.yul\":13617:13623   */\n      dup2\n        /* \"#utility.yul\":13614:13644   */\n      gt\n        /* \"#utility.yul\":13611:13667   */\n      iszero\n      tag_480\n      jumpi\n        /* \"#utility.yul\":13647:13665   */\n      tag_481\n      tag_304\n      jump\t// in\n    tag_481:\n        /* \"#utility.yul\":13611:13667   */\n    tag_480:\n        /* \"#utility.yul\":13691:13729   */\n      tag_482\n        /* \"#utility.yul\":13723:13727   */\n      dup3\n        /* \"#utility.yul\":13717:13728   */\n      sload\n        /* \"#utility.yul\":13691:13729   */\n      tag_128\n      jump\t// in\n    tag_482:\n        /* \"#utility.yul\":13776:13843   */\n      tag_483\n        /* \"#utility.yul\":13836:13842   */\n      dup3\n        /* \"#utility.yul\":13828:13834   */\n      dup3\n        /* \"#utility.yul\":13822:13826   */\n      dup6\n        /* \"#utility.yul\":13776:13843   */\n      tag_316\n      jump\t// in\n    tag_483:\n        /* \"#utility.yul\":13870:13871   */\n      0x00\n        /* \"#utility.yul\":13894:13898   */\n      0x20\n        /* \"#utility.yul\":13881:13898   */\n      swap1\n      pop\n        /* \"#utility.yul\":13926:13928   */\n      0x1f\n        /* \"#utility.yul\":13918:13924   */\n      dup4\n        /* \"#utility.yul\":13915:13929   */\n      gt\n        /* \"#utility.yul\":13943:13944   */\n      0x01\n        /* \"#utility.yul\":13938:14556   */\n      dup2\n      eq\n      tag_485\n      jumpi\n        /* \"#utility.yul\":14600:14601   */\n      0x00\n        /* \"#utility.yul\":14617:14623   */\n      dup5\n        /* \"#utility.yul\":14614:14691   */\n      iszero\n      tag_486\n      jumpi\n        /* \"#utility.yul\":14666:14675   */\n      dup3\n        /* \"#utility.yul\":14661:14664   */\n      dup8\n        /* \"#utility.yul\":14657:14676   */\n      add\n        /* \"#utility.yul\":14651:14677   */\n      mload\n        /* \"#utility.yul\":14642:14677   */\n      swap1\n      pop\n        /* \"#utility.yul\":14614:14691   */\n    tag_486:\n        /* \"#utility.yul\":14717:14784   */\n      tag_487\n        /* \"#utility.yul\":14777:14783   */\n      dup6\n        /* \"#utility.yul\":14770:14775   */\n      dup3\n        /* \"#utility.yul\":14717:14784   */\n      tag_319\n      jump\t// in\n    tag_487:\n        /* \"#utility.yul\":14711:14715   */\n      dup7\n        /* \"#utility.yul\":14704:14785   */\n      sstore\n        /* \"#utility.yul\":14573:14795   */\n      pop\n        /* \"#utility.yul\":13908:14795   */\n      jump(tag_484)\n        /* \"#utility.yul\":13938:14556   */\n    tag_485:\n        /* \"#utility.yul\":13990:13994   */\n      0x1f\n        /* \"#utility.yul\":13986:13995   */\n      not\n        /* \"#utility.yul\":13978:13984   */\n      dup5\n        /* \"#utility.yul\":13974:13996   */\n      and\n        /* \"#utility.yul\":14024:14061   */\n      tag_488\n        /* \"#utility.yul\":14056:14060   */\n      dup7\n        /* \"#utility.yul\":14024:14061   */\n      tag_305\n      jump\t// in\n    tag_488:\n        /* \"#utility.yul\":14083:14084   */\n      0x00\n        /* \"#utility.yul\":14097:14305   */\n    tag_489:\n        /* \"#utility.yul\":14111:14118   */\n      dup3\n        /* \"#utility.yul\":14108:14109   */\n      dup2\n        /* \"#utility.yul\":14105:14119   */\n      lt\n        /* \"#utility.yul\":14097:14305   */\n      iszero\n      tag_491\n      jumpi\n        /* \"#utility.yul\":14190:14199   */\n      dup5\n        /* \"#utility.yul\":14185:14188   */\n      dup10\n        /* \"#utility.yul\":14181:14200   */\n      add\n        /* \"#utility.yul\":14175:14201   */\n      mload\n        /* \"#utility.yul\":14167:14173   */\n      dup3\n        /* \"#utility.yul\":14160:14202   */\n      sstore\n        /* \"#utility.yul\":14241:14242   */\n      0x01\n        /* \"#utility.yul\":14233:14239   */\n      dup3\n        /* \"#utility.yul\":14229:14243   */\n      add\n        /* \"#utility.yul\":14219:14243   */\n      swap2\n      pop\n        /* \"#utility.yul\":14288:14290   */\n      0x20\n        /* \"#utility.yul\":14277:14286   */\n      dup6\n        /* \"#utility.yul\":14273:14291   */\n      add\n        /* \"#utility.yul\":14260:14291   */\n      swap5\n      pop\n        /* \"#utility.yul\":14134:14138   */\n      0x20\n        /* \"#utility.yul\":14131:14132   */\n      dup2\n        /* \"#utility.yul\":14127:14139   */\n      add\n        /* \"#utility.yul\":14122:14139   */\n      swap1\n      pop\n        /* \"#utility.yul\":14097:14305   */\n      jump(tag_489)\n    tag_491:\n        /* \"#utility.yul\":14333:14339   */\n      dup7\n        /* \"#utility.yul\":14324:14331   */\n      dup4\n        /* \"#utility.yul\":14321:14340   */\n      lt\n        /* \"#utility.yul\":14318:14497   */\n      iszero\n      tag_492\n      jumpi\n        /* \"#utility.yul\":14391:14400   */\n      dup5\n        /* \"#utility.yul\":14386:14389   */\n      dup10\n        /* \"#utility.yul\":14382:14401   */\n      add\n        /* \"#utility.yul\":14376:14402   */\n      mload\n        /* \"#utility.yul\":14434:14482   */\n      tag_493\n        /* \"#utility.yul\":14476:14480   */\n      0x1f\n        /* \"#utility.yul\":14468:14474   */\n      dup10\n        /* \"#utility.yul\":14464:14481   */\n      and\n        /* \"#utility.yul\":14453:14462   */\n      dup3\n        /* \"#utility.yul\":14434:14482   */\n      tag_318\n      jump\t// in\n    tag_493:\n        /* \"#utility.yul\":14426:14432   */\n      dup4\n        /* \"#utility.yul\":14419:14483   */\n      sstore\n        /* \"#utility.yul\":14341:14497   */\n      pop\n        /* \"#utility.yul\":14318:14497   */\n    tag_492:\n        /* \"#utility.yul\":14543:14544   */\n      0x01\n        /* \"#utility.yul\":14539:14540   */\n      0x02\n        /* \"#utility.yul\":14531:14537   */\n      dup9\n        /* \"#utility.yul\":14527:14541   */\n      mul\n        /* \"#utility.yul\":14523:14545   */\n      add\n        /* \"#utility.yul\":14517:14521   */\n      dup9\n        /* \"#utility.yul\":14510:14546   */\n      sstore\n        /* \"#utility.yul\":13945:14556   */\n      pop\n      pop\n      pop\n        /* \"#utility.yul\":13908:14795   */\n    tag_484:\n      pop\n        /* \"#utility.yul\":13498:14801   */\n      pop\n      pop\n      pop\n        /* \"#utility.yul\":13406:14801   */\n      pop\n      pop\n      jump\t// out\n        /* \"#utility.yul\":14807:14955   */\n    tag_320:\n        /* \"#utility.yul\":14905:14911   */\n      dup3\n        /* \"#utility.yul\":14900:14903   */\n      dup2\n        /* \"#utility.yul\":14895:14898   */\n      dup4\n        /* \"#utility.yul\":14882:14912   */\n      calldatacopy\n        /* \"#utility.yul\":14946:14947   */\n      0x00\n        /* \"#utility.yul\":14937:14943   */\n      dup4\n        /* \"#utility.yul\":14932:14935   */\n      dup4\n        /* \"#utility.yul\":14928:14944   */\n      add\n        /* \"#utility.yul\":14921:14948   */\n      mstore\n        /* \"#utility.yul\":14807:14955   */\n      pop\n      pop\n      pop\n      jump\t// out\n        /* \"#utility.yul\":14985:15302   */\n    tag_321:\n        /* \"#utility.yul\":15083:15086   */\n      0x00\n        /* \"#utility.yul\":15104:15175   */\n      tag_496\n        /* \"#utility.yul\":15168:15174   */\n      dup4\n        /* \"#utility.yul\":15163:15166   */\n      dup6\n        /* \"#utility.yul\":15104:15175   */\n      tag_289\n      jump\t// in\n    tag_496:\n        /* \"#utility.yul\":15097:15175   */\n      swap4\n      pop\n        /* \"#utility.yul\":15185:15241   */\n      tag_497\n        /* \"#utility.yul\":15234:15240   */\n      dup4\n        /* \"#utility.yul\":15229:15232   */\n      dup6\n        /* \"#utility.yul\":15222:15227   */\n      dup5\n        /* \"#utility.yul\":15185:15241   */\n      tag_320\n      jump\t// in\n    tag_497:\n        /* \"#utility.yul\":15266:15295   */\n      tag_498\n        /* \"#utility.yul\":15288:15294   */\n      dup4\n        /* \"#utility.yul\":15266:15295   */\n      tag_291\n      jump\t// in\n    tag_498:\n        /* \"#utility.yul\":15261:15264   */\n      dup5\n        /* \"#utility.yul\":15257:15296   */\n      add\n        /* \"#utility.yul\":15250:15296   */\n      swap1\n      pop\n        /* \"#utility.yul\":14985:15302   */\n      swap4\n      swap3\n      pop\n      pop\n      pop\n      jump\t// out\n        /* \"#utility.yul\":15308:15751   */\n    tag_181:\n        /* \"#utility.yul\":15459:15463   */\n      0x00\n        /* \"#utility.yul\":15497:15499   */\n      0x40\n        /* \"#utility.yul\":15486:15495   */\n      dup3\n        /* \"#utility.yul\":15482:15500   */\n      add\n        /* \"#utility.yul\":15474:15500   */\n      swap1\n      pop\n        /* \"#utility.yul\":15546:15555   */\n      dup2\n        /* \"#utility.yul\":15540:15544   */\n      dup2\n        /* \"#utility.yul\":15536:15556   */\n      sub\n        /* \"#utility.yul\":15532:15533   */\n      0x00\n        /* \"#utility.yul\":15521:15530   */\n      dup4\n        /* \"#utility.yul\":15517:15534   */\n      add\n        /* \"#utility.yul\":15510:15557   */\n      mstore\n        /* \"#utility.yul\":15574:15662   */\n      tag_500\n        /* \"#utility.yul\":15657:15661   */\n      dup2\n        /* \"#utility.yul\":15648:15654   */\n      dup6\n        /* \"#utility.yul\":15640:15646   */\n      dup8\n        /* \"#utility.yul\":15574:15662   */\n      tag_321\n      jump\t// in\n    tag_500:\n        /* \"#utility.yul\":15566:15662   */\n      swap1\n      pop\n        /* \"#utility.yul\":15672:15744   */\n      tag_501\n        /* \"#utility.yul\":15740:15742   */\n      0x20\n        /* \"#utility.yul\":15729:15738   */\n      dup4\n        /* \"#utility.yul\":15725:15743   */\n      add\n        /* \"#utility.yul\":15716:15722   */\n      dup5\n        /* \"#utility.yul\":15672:15744   */\n      tag_280\n      jump\t// in\n    tag_501:\n        /* \"#utility.yul\":15308:15751   */\n      swap5\n      swap4\n      pop\n      pop\n      pop\n      pop\n      jump\t// out\n        /* \"#utility.yul\":15757:15904   */\n    tag_322:\n        /* \"#utility.yul\":15858:15869   */\n      0x00\n        /* \"#utility.yul\":15895:15898   */\n      dup2\n        /* \"#utility.yul\":15880:15898   */\n      swap1\n      pop\n        /* \"#utility.yul\":15757:15904   */\n      swap3\n      swap2\n      pop\n      pop\n      jump\t// out\n        /* \"#utility.yul\":15910:16024   */\n    tag_323:\n      pop\n      jump\t// out\n        /* \"#utility.yul\":16030:16428   */\n    tag_324:\n        /* \"#utility.yul\":16189:16192   */\n      0x00\n        /* \"#utility.yul\":16210:16293   */\n      tag_505\n        /* \"#utility.yul\":16291:16292   */\n      0x00\n        /* \"#utility.yul\":16286:16289   */\n      dup4\n        /* \"#utility.yul\":16210:16293   */\n      tag_322\n      jump\t// in\n    tag_505:\n        /* \"#utility.yul\":16203:16293   */\n      swap2\n      pop\n        /* \"#utility.yul\":16302:16395   */\n      tag_506\n        /* \"#utility.yul\":16391:16394   */\n      dup3\n        /* \"#utility.yul\":16302:16395   */\n      tag_323\n      jump\t// in\n    tag_506:\n        /* \"#utility.yul\":16420:16421   */\n      0x00\n        /* \"#utility.yul\":16415:16418   */\n      dup3\n        /* \"#utility.yul\":16411:16422   */\n      add\n        /* \"#utility.yul\":16404:16422   */\n      swap1\n      pop\n        /* \"#utility.yul\":16030:16428   */\n      swap2\n      swap1\n      pop\n      jump\t// out\n        /* \"#utility.yul\":16434:16813   */\n    tag_253:\n        /* \"#utility.yul\":16618:16621   */\n      0x00\n        /* \"#utility.yul\":16640:16787   */\n      tag_508\n        /* \"#utility.yul\":16783:16786   */\n      dup3\n        /* \"#utility.yul\":16640:16787   */\n      tag_324\n      jump\t// in\n    tag_508:\n        /* \"#utility.yul\":16633:16787   */\n      swap2\n      pop\n        /* \"#utility.yul\":16804:16807   */\n      dup2\n        /* \"#utility.yul\":16797:16807   */\n      swap1\n      pop\n        /* \"#utility.yul\":16434:16813   */\n      swap2\n      swap1\n      pop\n      jump\t// out\n\n    auxdata: 0xa26469706673582212206be351a037cd66a8606f03a3ff7edcb2eb175324c50b9e7616e03fafb01f212e64736f6c634300081e0033\n}\n",
				"bytecode": {
					"linkReferences": {},
					"object": "60c060405234801561000f575f5ffd5b506040516131143803806131148339818101604052810190610031919061036c565b825f73ffffffffffffffffffffffffffffffffffffffff168173ffffffffffffffffffffffffffffffffffffffff16036100a2575f6040517f1e4fbdf700000000000000000000000000000000000000000000000000000000815260040161009991906103cb565b60405180910390fd5b6100b1816101e460201b60201c565b505f73ffffffffffffffffffffffffffffffffffffffff168373ffffffffffffffffffffffffffffffffffffffff1603610120576040517f08c379a00000000000000000000000000000000000000000000000000000000081526004016101179061043e565b60405180910390fd5b5f8211610162576040517f08c379a0000000000000000000000000000000000000000000000000000000008152600401610159906104a6565b60405180910390fd5b5f81116101a4576040517f08c379a000000000000000000000000000000000000000000000000000000000815260040161019b9061050e565b60405180910390fd5b6101b3836101e460201b60201c565b81608081815250508060a081815250505f60095f6101000a81548160ff02191690831515021790555050505061052c565b60015f6101000a81549073ffffffffffffffffffffffffffffffffffffffff02191690556102178161021a60201b60201c565b50565b5f5f5f9054906101000a900473ffffffffffffffffffffffffffffffffffffffff169050815f5f6101000a81548173ffffffffffffffffffffffffffffffffffffffff021916908373ffffffffffffffffffffffffffffffffffffffff1602179055508173ffffffffffffffffffffffffffffffffffffffff168173ffffffffffffffffffffffffffffffffffffffff167f8be0079c531659141344cd1fd0a4f28419497f9722a3daafe3b4186f6b6457e060405160405180910390a35050565b5f5ffd5b5f73ffffffffffffffffffffffffffffffffffffffff82169050919050565b5f610308826102df565b9050919050565b610318816102fe565b8114610322575f5ffd5b50565b5f815190506103338161030f565b92915050565b5f819050919050565b61034b81610339565b8114610355575f5ffd5b50565b5f8151905061036681610342565b92915050565b5f5f5f60608486031215610383576103826102db565b5b5f61039086828701610325565b93505060206103a186828701610358565b92505060406103b286828701610358565b9150509250925092565b6103c5816102fe565b82525050565b5f6020820190506103de5f8301846103bc565b92915050565b5f82825260208201905092915050565b7f6f776e6572206973207a65726f000000000000000000000000000000000000005f82015250565b5f610428600d836103e4565b9150610433826103f4565b602082019050919050565b5f6020820190508181035f8301526104558161041c565b9050919050565b7f77697468647261774c696d6974206d757374206265203e2030000000000000005f82015250565b5f6104906019836103e4565b915061049b8261045c565b602082019050919050565b5f6020820190508181035f8301526104bd81610484565b9050919050565b7f62616e6b436170206d757374206265203e2030000000000000000000000000005f82015250565b5f6104f86013836103e4565b9150610503826104c4565b602082019050919050565b5f6020820190508181035f830152610525816104ec565b9050919050565b60805160a051612bb26105625f395f81816104ec0152611bd601525f8181610681015281816106a901526117710152612bb25ff3fe60806040526004361061012d575f3560e01c80638da5cb5b116100aa578063d0e30db01161006e578063d0e30db014610400578063d3d7c0021461040a578063e30c397814610446578063ea402b4114610470578063f2fde38b14610498578063ffa1ad74146104c057610164565b80638da5cb5b1461031f5780638e0a30041461034957806392b4f8981461037157806394c2c612146103ae578063a6a66072146103d857610164565b80634a2ecf9e116100f15780634a2ecf9e146102795780634cc05a71146102a15780635dd387b8146102cb578063715018a6146102f357806379ba50971461030957610164565b80630dbad95314610196578063197e2b31146101c057806322bc56bd146101fd5780632dfdf0b5146102275780632e1a7d4d1461025157610164565b36610164576040517f6b388cc800000000000000000000000000000000000000000000000000000000815260040160405180910390fd5b6040517f6b388cc800000000000000000000000000000000000000000000000000000000815260040160405180910390fd5b3480156101a1575f5ffd5b506101aa6104ea565b6040516101b791906122f4565b60405180910390f35b3480156101cb575f5ffd5b506101e660048036038101906101e1919061236f565b61050e565b6040516101f4929190612437565b60405180910390f35b348015610208575f5ffd5b50610211610636565b60405161021e91906122f4565b60405180910390f35b348015610232575f5ffd5b5061023b61063f565b60405161024891906122f4565b60405180910390f35b34801561025c575f5ffd5b506102776004803603810190610272919061248f565b610645565b005b348015610284575f5ffd5b5061029f600480360381019061029a91906124ba565b610897565b005b3480156102ac575f5ffd5b506102b5610b86565b6040516102c291906122f4565b60405180910390f35b3480156102d6575f5ffd5b506102f160048036038101906102ec9190612559565b610b8c565b005b3480156102fe575f5ffd5b506103076111a5565b005b348015610314575f5ffd5b5061031d6111b8565b005b34801561032a575f5ffd5b50610333611246565b60405161034091906125d9565b60405180910390f35b348015610354575f5ffd5b5061036f600480360381019061036a91906125f2565b61126d565b005b34801561037c575f5ffd5b506103976004803603810190610392919061264f565b611618565b6040516103a59291906126ac565b60405180910390f35b3480156103b9575f5ffd5b506103c261176f565b6040516103cf91906122f4565b60405180910390f35b3480156103e3575f5ffd5b506103fe60048036038101906103f991906126d3565b611793565b005b610408611b92565b005b348015610415575f5ffd5b50610430600480360381019061042b91906126d3565b611d93565b60405161043d91906122f4565b60405180910390f35b348015610451575f5ffd5b5061045a611dd9565b60405161046791906125d9565b60405180910390f35b34801561047b575f5ffd5b50610496600480360381019061049191906124ba565b611e01565b005b3480156104a3575f5ffd5b506104be60048036038101906104b991906126d3565b611f36565b005b3480156104cb575f5ffd5b506104d4611fe2565b6040516104e191906126fe565b60405180910390f35b7f000000000000000000000000000000000000000000000000000000000000000081565b60605f5f60025f8673ffffffffffffffffffffffffffffffffffffffff1673ffffffffffffffffffffffffffffffffffffffff1681526020019081526020015f205f8573ffffffffffffffffffffffffffffffffffffffff1673ffffffffffffffffffffffffffffffffffffffff1681526020019081526020015f209050805f01816002015f9054906101000a900460ff168180546105ac9061274b565b80601f01602080910402602001604051908101604052809291908181526020018280546105d89061274b565b80156106235780601f106105fa57610100808354040283529160200191610623565b820191905f5260205f20905b81548152906001019060200180831161060657829003601f168201915b5050505050915092509250509250929050565b5f600654905090565b60075481565b805f810361067f576040517f6b388cc800000000000000000000000000000000000000000000000000000000815260040160405180910390fd5b7f0000000000000000000000000000000000000000000000000000000000000000821115610706577f0000000000000000000000000000000000000000000000000000000000000000826040517f299630490000000000000000000000000000000000000000000000000000000081526004016106fd92919061277b565b60405180910390fd5b5f60055f3373ffffffffffffffffffffffffffffffffffffffff1673ffffffffffffffffffffffffffffffffffffffff1681526020019081526020015f205490508281101561078e5780836040517f9d2afa9000000000000000000000000000000000000000000000000000000000815260040161078592919061277b565b60405180910390fd5b828161079a91906127cf565b60055f3373ffffffffffffffffffffffffffffffffffffffff1673ffffffffffffffffffffffffffffffffffffffff1681526020019081526020015f20819055508260065f8282546107ec91906127cf565b925050819055506107fb61201b565b6108053384612036565b3373ffffffffffffffffffffffffffffffffffffffff167fdf273cb619d95419a9cd0ec88123a0538c85064229baa6363788f743fff90deb8460055f3373ffffffffffffffffffffffffffffffffffffffff1673ffffffffffffffffffffffffffffffffffffffff1681526020019081526020015f205460405161088a92919061277b565b60405180910390a2505050565b805f81036108d1576040517f6b388cc800000000000000000000000000000000000000000000000000000000815260040160405180910390fd5b5f60025f3373ffffffffffffffffffffffffffffffffffffffff1673ffffffffffffffffffffffffffffffffffffffff1681526020019081526020015f205f8573ffffffffffffffffffffffffffffffffffffffff1673ffffffffffffffffffffffffffffffffffffffff1681526020019081526020015f209050806002015f9054906101000a900460ff16610993576040517fda2b2f1300000000000000000000000000000000000000000000000000000000815260040160405180910390fd5b5f8160010154141580156109aa5750806001015483115b156109f2578060010154836040517f299630490000000000000000000000000000000000000000000000000000000081526004016109e992919061277b565b60405180910390fd5b5f60055f3373ffffffffffffffffffffffffffffffffffffffff1673ffffffffffffffffffffffffffffffffffffffff1681526020019081526020015f2054905083811015610a7a5780846040517f9d2afa90000000000000000000000000000000000000000000000000000000008152600401610a7192919061277b565b60405180910390fd5b8381610a8691906127cf565b60055f3373ffffffffffffffffffffffffffffffffffffffff1673ffffffffffffffffffffffffffffffffffffffff1681526020019081526020015f20819055508360055f8773ffffffffffffffffffffffffffffffffffffffff1673ffffffffffffffffffffffffffffffffffffffff1681526020019081526020015f205f828254610b139190612802565b925050819055508473ffffffffffffffffffffffffffffffffffffffff163373ffffffffffffffffffffffffffffffffffffffff167fe2080c8fc8d86c864d8dc081fadaebf2be7191086615e786f954420f13ed122a86604051610b7791906122f4565b60405180910390a35050505050565b60085481565b5f73ffffffffffffffffffffffffffffffffffffffff168473ffffffffffffffffffffffffffffffffffffffff1603610bf1576040517f2a7fb4ea00000000000000000000000000000000000000000000000000000000815260040160405180910390fd5b5f610c3e84848080601f0160208091040260200160405190810160405280939291908181526020018383808284375f81840152601f19601f820116905080830192505050505050506120da565b90505f60035f3373ffffffffffffffffffffffffffffffffffffffff1673ffffffffffffffffffffffffffffffffffffffff1681526020019081526020015f205f8381526020019081526020015f205f9054906101000a900473ffffffffffffffffffffffffffffffffffffffff1690505f73ffffffffffffffffffffffffffffffffffffffff168173ffffffffffffffffffffffffffffffffffffffff1614158015610d1757508573ffffffffffffffffffffffffffffffffffffffff168173ffffffffffffffffffffffffffffffffffffffff1614155b15610d4e576040517f1fba8fb900000000000000000000000000000000000000000000000000000000815260040160405180910390fd5b5f60025f3373ffffffffffffffffffffffffffffffffffffffff1673ffffffffffffffffffffffffffffffffffffffff1681526020019081526020015f205f8873ffffffffffffffffffffffffffffffffffffffff1673ffffffffffffffffffffffffffffffffffffffff1681526020019081526020015f209050806002015f9054906101000a900460ff1615610f90575f610e72825f018054610df19061274b565b80601f0160208091040260200160405190810160405280929190818152602001828054610e1d9061274b565b8015610e685780601f10610e3f57610100808354040283529160200191610e68565b820191905f5260205f20905b815481529060010190602001808311610e4b57829003601f168201915b50505050506120da565b9050838114158015610f1a57508773ffffffffffffffffffffffffffffffffffffffff1660035f3373ffffffffffffffffffffffffffffffffffffffff1673ffffffffffffffffffffffffffffffffffffffff1681526020019081526020015f205f8381526020019081526020015f205f9054906101000a900473ffffffffffffffffffffffffffffffffffffffff1673ffffffffffffffffffffffffffffffffffffffff16145b15610f8e5760035f3373ffffffffffffffffffffffffffffffffffffffff1673ffffffffffffffffffffffffffffffffffffffff1681526020019081526020015f205f8281526020019081526020015f205f6101000a81549073ffffffffffffffffffffffffffffffffffffffff02191690555b505b604051806060016040528087878080601f0160208091040260200160405190810160405280939291908181526020018383808284375f81840152601f19601f8201169050808301925050505050505081526020018581526020016001151581525060025f3373ffffffffffffffffffffffffffffffffffffffff1673ffffffffffffffffffffffffffffffffffffffff1681526020019081526020015f205f8973ffffffffffffffffffffffffffffffffffffffff1673ffffffffffffffffffffffffffffffffffffffff1681526020019081526020015f205f820151815f01908161107c9190612a02565b50602082015181600101556040820151816002015f6101000a81548160ff0219169083151502179055509050508660035f3373ffffffffffffffffffffffffffffffffffffffff1673ffffffffffffffffffffffffffffffffffffffff1681526020019081526020015f205f8581526020019081526020015f205f6101000a81548173ffffffffffffffffffffffffffffffffffffffff021916908373ffffffffffffffffffffffffffffffffffffffff1602179055508673ffffffffffffffffffffffffffffffffffffffff163373ffffffffffffffffffffffffffffffffffffffff167f69e157838b5404594033e52d6411f8b1c5dfbe4fbd04e9bd08d300d6a1524a3288888860405161119493929190612b0b565b60405180910390a350505050505050565b6111ad6120ea565b6111b65f612171565b565b5f6111c16121a1565b90508073ffffffffffffffffffffffffffffffffffffffff166111e2611dd9565b73ffffffffffffffffffffffffffffffffffffffff161461123a57806040517f118cdaa700000000000000000000000000000000000000000000000000000000815260040161123191906125d9565b60405180910390fd5b61124381612171565b50565b5f5f5f9054906101000a900473ffffffffffffffffffffffffffffffffffffffff16905090565b805f81036112a7576040517f6b388cc800000000000000000000000000000000000000000000000000000000815260040160405180910390fd5b5f60035f3373ffffffffffffffffffffffffffffffffffffffff1673ffffffffffffffffffffffffffffffffffffffff1681526020019081526020015f205f61133287878080601f0160208091040260200160405190810160405280939291908181526020018383808284375f81840152601f19601f820116905080830192505050505050506120da565b81526020019081526020015f205f9054906101000a900473ffffffffffffffffffffffffffffffffffffffff1690505f60025f3373ffffffffffffffffffffffffffffffffffffffff1673ffffffffffffffffffffffffffffffffffffffff1681526020019081526020015f205f8373ffffffffffffffffffffffffffffffffffffffff1673ffffffffffffffffffffffffffffffffffffffff1681526020019081526020015f209050806002015f9054906101000a900460ff16611423576040517fda2b2f1300000000000000000000000000000000000000000000000000000000815260040160405180910390fd5b5f81600101541415801561143a5750806001015484115b15611482578060010154846040517f2996304900000000000000000000000000000000000000000000000000000000815260040161147992919061277b565b60405180910390fd5b5f60055f3373ffffffffffffffffffffffffffffffffffffffff1673ffffffffffffffffffffffffffffffffffffffff1681526020019081526020015f205490508481101561150a5780856040517f9d2afa9000000000000000000000000000000000000000000000000000000000815260040161150192919061277b565b60405180910390fd5b848161151691906127cf565b60055f3373ffffffffffffffffffffffffffffffffffffffff1673ffffffffffffffffffffffffffffffffffffffff1681526020019081526020015f20819055508460055f8573ffffffffffffffffffffffffffffffffffffffff1673ffffffffffffffffffffffffffffffffffffffff1681526020019081526020015f205f8282546115a39190612802565b925050819055508273ffffffffffffffffffffffffffffffffffffffff163373ffffffffffffffffffffffffffffffffffffffff167fe2080c8fc8d86c864d8dc081fadaebf2be7191086615e786f954420f13ed122a8760405161160791906122f4565b60405180910390a350505050505050565b5f5f5f60035f8773ffffffffffffffffffffffffffffffffffffffff1673ffffffffffffffffffffffffffffffffffffffff1681526020019081526020015f205f6116a587878080601f0160208091040260200160405190810160405280939291908181526020018383808284375f81840152601f19601f820116905080830192505050505050506120da565b81526020019081526020015f205f9054906101000a900473ffffffffffffffffffffffffffffffffffffffff1690505f60025f8873ffffffffffffffffffffffffffffffffffffffff1673ffffffffffffffffffffffffffffffffffffffff1681526020019081526020015f205f8373ffffffffffffffffffffffffffffffffffffffff1673ffffffffffffffffffffffffffffffffffffffff1681526020019081526020015f20905081816002015f9054906101000a900460ff16935093505050935093915050565b7f000000000000000000000000000000000000000000000000000000000000000081565b5f60025f3373ffffffffffffffffffffffffffffffffffffffff1673ffffffffffffffffffffffffffffffffffffffff1681526020019081526020015f205f8373ffffffffffffffffffffffffffffffffffffffff1673ffffffffffffffffffffffffffffffffffffffff1681526020019081526020015f209050806002015f9054906101000a900460ff16611855576040517fda2b2f1300000000000000000000000000000000000000000000000000000000815260040160405180910390fd5b5f6118e8825f0180546118679061274b565b80601f01602080910402602001604051908101604052809291908181526020018280546118939061274b565b80156118de5780601f106118b5576101008083540402835291602001916118de565b820191905f5260205f20905b8154815290600101906020018083116118c157829003601f168201915b50505050506120da565b90508273ffffffffffffffffffffffffffffffffffffffff1660035f3373ffffffffffffffffffffffffffffffffffffffff1673ffffffffffffffffffffffffffffffffffffffff1681526020019081526020015f205f8381526020019081526020015f205f9054906101000a900473ffffffffffffffffffffffffffffffffffffffff1673ffffffffffffffffffffffffffffffffffffffff16036119f75760035f3373ffffffffffffffffffffffffffffffffffffffff1673ffffffffffffffffffffffffffffffffffffffff1681526020019081526020015f205f8281526020019081526020015f205f6101000a81549073ffffffffffffffffffffffffffffffffffffffff02191690555b5f825f018054611a069061274b565b80601f0160208091040260200160405190810160405280929190818152602001828054611a329061274b565b8015611a7d5780601f10611a5457610100808354040283529160200191611a7d565b820191905f5260205f20905b815481529060010190602001808311611a6057829003601f168201915b5050505050905060025f3373ffffffffffffffffffffffffffffffffffffffff1673ffffffffffffffffffffffffffffffffffffffff1681526020019081526020015f205f8573ffffffffffffffffffffffffffffffffffffffff1673ffffffffffffffffffffffffffffffffffffffff1681526020019081526020015f205f5f82015f611b0b9190612284565b600182015f9055600282015f6101000a81549060ff021916905550508373ffffffffffffffffffffffffffffffffffffffff163373ffffffffffffffffffffffffffffffffffffffff167fe5a25c298748d4cebca849ebdbf68023dac253726538ece59dc0313b6e6839b283604051611b8491906126fe565b60405180910390a350505050565b345f8103611bcc576040517f6b388cc800000000000000000000000000000000000000000000000000000000815260040160405180910390fd5b5f3490505f6006547f0000000000000000000000000000000000000000000000000000000000000000611bff91906127cf565b905060095f9054906101000a900460ff1615611c47576040517f79fc1abc00000000000000000000000000000000000000000000000000000000815260040160405180910390fd5b80821115611c8e5781816040517f82d40bd9000000000000000000000000000000000000000000000000000000008152600401611c8592919061277b565b60405180910390fd5b8160055f3373ffffffffffffffffffffffffffffffffffffffff1673ffffffffffffffffffffffffffffffffffffffff1681526020019081526020015f205f828254611cda9190612802565b925050819055508160065f828254611cf29190612802565b92505081905550611d016121a8565b3373ffffffffffffffffffffffffffffffffffffffff167f90890809c654f11d6e72a28fa60149770a0d11ec6c92319d6ceb2bb0a4ea1a158360055f3373ffffffffffffffffffffffffffffffffffffffff1673ffffffffffffffffffffffffffffffffffffffff1681526020019081526020015f2054604051611d8692919061277b565b60405180910390a2505050565b5f60055f8373ffffffffffffffffffffffffffffffffffffffff1673ffffffffffffffffffffffffffffffffffffffff1681526020019081526020015f20549050919050565b5f60015f9054906101000a900473ffffffffffffffffffffffffffffffffffffffff16905090565b5f60025f3373ffffffffffffffffffffffffffffffffffffffff1673ffffffffffffffffffffffffffffffffffffffff1681526020019081526020015f205f8473ffffffffffffffffffffffffffffffffffffffff1673ffffffffffffffffffffffffffffffffffffffff1681526020019081526020015f209050806002015f9054906101000a900460ff16611ec3576040517fda2b2f1300000000000000000000000000000000000000000000000000000000815260040160405180910390fd5b8181600101819055508273ffffffffffffffffffffffffffffffffffffffff163373ffffffffffffffffffffffffffffffffffffffff167f79bdf489b3a4e4f4c835420c6aa2bc4c1cd787d185d0e56e599a2c92fb88dc2e84604051611f2991906122f4565b60405180910390a3505050565b611f3e6120ea565b8060015f6101000a81548173ffffffffffffffffffffffffffffffffffffffff021916908373ffffffffffffffffffffffffffffffffffffffff1602179055508073ffffffffffffffffffffffffffffffffffffffff16611f9d611246565b73ffffffffffffffffffffffffffffffffffffffff167f38d16b8cac22d99fc7c124b9cd0de2d3fa1faef420bfe791d8c362d765e2270060405160405180910390a350565b6040518060400160405280600b81526020017f4b69707542616e6b20763200000000000000000000000000000000000000000081525081565b600160085f82825461202d9190612802565b92505081905550565b5f8273ffffffffffffffffffffffffffffffffffffffff168260405161205b90612b68565b5f6040518083038185875af1925050503d805f8114612095576040519150601f19603f3d011682016040523d82523d5f602084013e61209a565b606091505b50509050806120d5576040517fce534f4700000000000000000000000000000000000000000000000000000000815260040160405180910390fd5b505050565b5f81805190602001209050919050565b6120f26121a1565b73ffffffffffffffffffffffffffffffffffffffff16612110611246565b73ffffffffffffffffffffffffffffffffffffffff161461216f576121336121a1565b6040517f118cdaa700000000000000000000000000000000000000000000000000000000815260040161216691906125d9565b60405180910390fd5b565b60015f6101000a81549073ffffffffffffffffffffffffffffffffffffffff021916905561219e816121c3565b50565b5f33905090565b600160075f8282546121ba9190612802565b92505081905550565b5f5f5f9054906101000a900473ffffffffffffffffffffffffffffffffffffffff169050815f5f6101000a81548173ffffffffffffffffffffffffffffffffffffffff021916908373ffffffffffffffffffffffffffffffffffffffff1602179055508173ffffffffffffffffffffffffffffffffffffffff168173ffffffffffffffffffffffffffffffffffffffff167f8be0079c531659141344cd1fd0a4f28419497f9722a3daafe3b4186f6b6457e060405160405180910390a35050565b5080546122909061274b565b5f825580601f106122a157506122be565b601f0160209004905f5260205f20908101906122bd91906122c1565b5b50565b5b808211156122d8575f815f9055506001016122c2565b5090565b5f819050919050565b6122ee816122dc565b82525050565b5f6020820190506123075f8301846122e5565b92915050565b5f5ffd5b5f5ffd5b5f73ffffffffffffffffffffffffffffffffffffffff82169050919050565b5f61233e82612315565b9050919050565b61234e81612334565b8114612358575f5ffd5b50565b5f8135905061236981612345565b92915050565b5f5f604083850312156123855761238461230d565b5b5f6123928582860161235b565b92505060206123a38582860161235b565b9150509250929050565b5f81519050919050565b5f82825260208201905092915050565b8281835e5f83830152505050565b5f601f19601f8301169050919050565b5f6123ef826123ad565b6123f981856123b7565b93506124098185602086016123c7565b612412816123d5565b840191505092915050565b5f8115159050919050565b6124318161241d565b82525050565b5f6040820190508181035f83015261244f81856123e5565b905061245e6020830184612428565b9392505050565b61246e816122dc565b8114612478575f5ffd5b50565b5f8135905061248981612465565b92915050565b5f602082840312156124a4576124a361230d565b5b5f6124b18482850161247b565b91505092915050565b5f5f604083850312156124d0576124cf61230d565b5b5f6124dd8582860161235b565b92505060206124ee8582860161247b565b9150509250929050565b5f5ffd5b5f5ffd5b5f5ffd5b5f5f83601f840112612519576125186124f8565b5b8235905067ffffffffffffffff811115612536576125356124fc565b5b60208301915083600182028301111561255257612551612500565b5b9250929050565b5f5f5f5f606085870312156125715761257061230d565b5b5f61257e8782880161235b565b945050602085013567ffffffffffffffff81111561259f5761259e612311565b5b6125ab87828801612504565b935093505060406125be8782880161247b565b91505092959194509250565b6125d381612334565b82525050565b5f6020820190506125ec5f8301846125ca565b92915050565b5f5f5f604084860312156126095761260861230d565b5b5f84013567ffffffffffffffff81111561262657612625612311565b5b61263286828701612504565b935093505060206126458682870161247b565b9150509250925092565b5f5f5f604084860312156126665761266561230d565b5b5f6126738682870161235b565b935050602084013567ffffffffffffffff81111561269457612693612311565b5b6126a086828701612504565b92509250509250925092565b5f6040820190506126bf5f8301856125ca565b6126cc6020830184612428565b9392505050565b5f602082840312156126e8576126e761230d565b5b5f6126f58482850161235b565b91505092915050565b5f6020820190508181035f83015261271681846123e5565b905092915050565b7f4e487b71000000000000000000000000000000000000000000000000000000005f52602260045260245ffd5b5f600282049050600182168061276257607f821691505b6020821081036127755761277461271e565b5b50919050565b5f60408201905061278e5f8301856122e5565b61279b60208301846122e5565b9392505050565b7f4e487b71000000000000000000000000000000000000000000000000000000005f52601160045260245ffd5b5f6127d9826122dc565b91506127e4836122dc565b92508282039050818111156127fc576127fb6127a2565b5b92915050565b5f61280c826122dc565b9150612817836122dc565b925082820190508082111561282f5761282e6127a2565b5b92915050565b7f4e487b71000000000000000000000000000000000000000000000000000000005f52604160045260245ffd5b5f819050815f5260205f209050919050565b5f6020601f8301049050919050565b5f82821b905092915050565b5f600883026128be7fffffffffffffffffffffffffffffffffffffffffffffffffffffffffffffffff82612883565b6128c88683612883565b95508019841693508086168417925050509392505050565b5f819050919050565b5f6129036128fe6128f9846122dc565b6128e0565b6122dc565b9050919050565b5f819050919050565b61291c836128e9565b6129306129288261290a565b84845461288f565b825550505050565b5f5f905090565b612947612938565b612952818484612913565b505050565b5b818110156129755761296a5f8261293f565b600181019050612958565b5050565b601f8211156129ba5761298b81612862565b61299484612874565b810160208510156129a3578190505b6129b76129af85612874565b830182612957565b50505b505050565b5f82821c905092915050565b5f6129da5f19846008026129bf565b1980831691505092915050565b5f6129f283836129cb565b9150826002028217905092915050565b612a0b826123ad565b67ffffffffffffffff811115612a2457612a23612835565b5b612a2e825461274b565b612a39828285612979565b5f60209050601f831160018114612a6a575f8415612a58578287015190505b612a6285826129e7565b865550612ac9565b601f198416612a7886612862565b5f5b82811015612a9f57848901518255600182019150602085019450602081019050612a7a565b86831015612abc5784890151612ab8601f8916826129cb565b8355505b6001600288020188555050505b505050505050565b828183375f83830152505050565b5f612aea83856123b7565b9350612af7838584612ad1565b612b00836123d5565b840190509392505050565b5f6040820190508181035f830152612b24818587612adf565b9050612b3360208301846122e5565b949350505050565b5f81905092915050565b50565b5f612b535f83612b3b565b9150612b5e82612b45565b5f82019050919050565b5f612b7282612b48565b915081905091905056fea26469706673582212206be351a037cd66a8606f03a3ff7edcb2eb175324c50b9e7616e03fafb01f212e64736f6c634300081e0033",
					"opcodes": "PUSH1 0xC0 PUSH1 0x40 MSTORE CALLVALUE DUP1 ISZERO PUSH2 0xF JUMPI PUSH0 PUSH0 REVERT JUMPDEST POP PUSH1 0x40 MLOAD PUSH2 0x3114 CODESIZE SUB DUP1 PUSH2 0x3114 DUP4 CODECOPY DUP2 DUP2 ADD PUSH1 0x40 MSTORE DUP2 ADD SWAP1 PUSH2 0x31 SWAP2 SWAP1 PUSH2 0x36C JUMP JUMPDEST DUP3 PUSH0 PUSH20 0xFFFFFFFFFFFFFFFFFFFFFFFFFFFFFFFFFFFFFFFF AND DUP2 PUSH20 0xFFFFFFFFFFFFFFFFFFFFFFFFFFFFFFFFFFFFFFFF AND SUB PUSH2 0xA2 JUMPI PUSH0 PUSH1 0x40 MLOAD PUSH32 0x1E4FBDF700000000000000000000000000000000000000000000000000000000 DUP2 MSTORE PUSH1 0x4 ADD PUSH2 0x99 SWAP2 SWAP1 PUSH2 0x3CB JUMP JUMPDEST PUSH1 0x40 MLOAD DUP1 SWAP2 SUB SWAP1 REVERT JUMPDEST PUSH2 0xB1 DUP2 PUSH2 0x1E4 PUSH1 0x20 SHL PUSH1 0x20 SHR JUMP JUMPDEST POP PUSH0 PUSH20 0xFFFFFFFFFFFFFFFFFFFFFFFFFFFFFFFFFFFFFFFF AND DUP4 PUSH20 0xFFFFFFFFFFFFFFFFFFFFFFFFFFFFFFFFFFFFFFFF AND SUB PUSH2 0x120 JUMPI PUSH1 0x40 MLOAD PUSH32 0x8C379A000000000000000000000000000000000000000000000000000000000 DUP2 MSTORE PUSH1 0x4 ADD PUSH2 0x117 SWAP1 PUSH2 0x43E JUMP JUMPDEST PUSH1 0x40 MLOAD DUP1 SWAP2 SUB SWAP1 REVERT JUMPDEST PUSH0 DUP3 GT PUSH2 0x162 JUMPI PUSH1 0x40 MLOAD PUSH32 0x8C379A000000000000000000000000000000000000000000000000000000000 DUP2 MSTORE PUSH1 0x4 ADD PUSH2 0x159 SWAP1 PUSH2 0x4A6 JUMP JUMPDEST PUSH1 0x40 MLOAD DUP1 SWAP2 SUB SWAP1 REVERT JUMPDEST PUSH0 DUP2 GT PUSH2 0x1A4 JUMPI PUSH1 0x40 MLOAD PUSH32 0x8C379A000000000000000000000000000000000000000000000000000000000 DUP2 MSTORE PUSH1 0x4 ADD PUSH2 0x19B SWAP1 PUSH2 0x50E JUMP JUMPDEST PUSH1 0x40 MLOAD DUP1 SWAP2 SUB SWAP1 REVERT JUMPDEST PUSH2 0x1B3 DUP4 PUSH2 0x1E4 PUSH1 0x20 SHL PUSH1 0x20 SHR JUMP JUMPDEST DUP2 PUSH1 0x80 DUP2 DUP2 MSTORE POP POP DUP1 PUSH1 0xA0 DUP2 DUP2 MSTORE POP POP PUSH0 PUSH1 0x9 PUSH0 PUSH2 0x100 EXP DUP2 SLOAD DUP2 PUSH1 0xFF MUL NOT AND SWAP1 DUP4 ISZERO ISZERO MUL OR SWAP1 SSTORE POP POP POP POP PUSH2 0x52C JUMP JUMPDEST PUSH1 0x1 PUSH0 PUSH2 0x100 EXP DUP2 SLOAD SWAP1 PUSH20 0xFFFFFFFFFFFFFFFFFFFFFFFFFFFFFFFFFFFFFFFF MUL NOT AND SWAP1 SSTORE PUSH2 0x217 DUP2 PUSH2 0x21A PUSH1 0x20 SHL PUSH1 0x20 SHR JUMP JUMPDEST POP JUMP JUMPDEST PUSH0 PUSH0 PUSH0 SWAP1 SLOAD SWAP1 PUSH2 0x100 EXP SWAP1 DIV PUSH20 0xFFFFFFFFFFFFFFFFFFFFFFFFFFFFFFFFFFFFFFFF AND SWAP1 POP DUP2 PUSH0 PUSH0 PUSH2 0x100 EXP DUP2 SLOAD DUP2 PUSH20 0xFFFFFFFFFFFFFFFFFFFFFFFFFFFFFFFFFFFFFFFF MUL NOT AND SWAP1 DUP4 PUSH20 0xFFFFFFFFFFFFFFFFFFFFFFFFFFFFFFFFFFFFFFFF AND MUL OR SWAP1 SSTORE POP DUP2 PUSH20 0xFFFFFFFFFFFFFFFFFFFFFFFFFFFFFFFFFFFFFFFF AND DUP2 PUSH20 0xFFFFFFFFFFFFFFFFFFFFFFFFFFFFFFFFFFFFFFFF AND PUSH32 0x8BE0079C531659141344CD1FD0A4F28419497F9722A3DAAFE3B4186F6B6457E0 PUSH1 0x40 MLOAD PUSH1 0x40 MLOAD DUP1 SWAP2 SUB SWAP1 LOG3 POP POP JUMP JUMPDEST PUSH0 PUSH0 REVERT JUMPDEST PUSH0 PUSH20 0xFFFFFFFFFFFFFFFFFFFFFFFFFFFFFFFFFFFFFFFF DUP3 AND SWAP1 POP SWAP2 SWAP1 POP JUMP JUMPDEST PUSH0 PUSH2 0x308 DUP3 PUSH2 0x2DF JUMP JUMPDEST SWAP1 POP SWAP2 SWAP1 POP JUMP JUMPDEST PUSH2 0x318 DUP2 PUSH2 0x2FE JUMP JUMPDEST DUP2 EQ PUSH2 0x322 JUMPI PUSH0 PUSH0 REVERT JUMPDEST POP JUMP JUMPDEST PUSH0 DUP2 MLOAD SWAP1 POP PUSH2 0x333 DUP2 PUSH2 0x30F JUMP JUMPDEST SWAP3 SWAP2 POP POP JUMP JUMPDEST PUSH0 DUP2 SWAP1 POP SWAP2 SWAP1 POP JUMP JUMPDEST PUSH2 0x34B DUP2 PUSH2 0x339 JUMP JUMPDEST DUP2 EQ PUSH2 0x355 JUMPI PUSH0 PUSH0 REVERT JUMPDEST POP JUMP JUMPDEST PUSH0 DUP2 MLOAD SWAP1 POP PUSH2 0x366 DUP2 PUSH2 0x342 JUMP JUMPDEST SWAP3 SWAP2 POP POP JUMP JUMPDEST PUSH0 PUSH0 PUSH0 PUSH1 0x60 DUP5 DUP7 SUB SLT ISZERO PUSH2 0x383 JUMPI PUSH2 0x382 PUSH2 0x2DB JUMP JUMPDEST JUMPDEST PUSH0 PUSH2 0x390 DUP7 DUP3 DUP8 ADD PUSH2 0x325 JUMP JUMPDEST SWAP4 POP POP PUSH1 0x20 PUSH2 0x3A1 DUP7 DUP3 DUP8 ADD PUSH2 0x358 JUMP JUMPDEST SWAP3 POP POP PUSH1 0x40 PUSH2 0x3B2 DUP7 DUP3 DUP8 ADD PUSH2 0x358 JUMP JUMPDEST SWAP2 POP POP SWAP3 POP SWAP3 POP SWAP3 JUMP JUMPDEST PUSH2 0x3C5 DUP2 PUSH2 0x2FE JUMP JUMPDEST DUP3 MSTORE POP POP JUMP JUMPDEST PUSH0 PUSH1 0x20 DUP3 ADD SWAP1 POP PUSH2 0x3DE PUSH0 DUP4 ADD DUP5 PUSH2 0x3BC JUMP JUMPDEST SWAP3 SWAP2 POP POP JUMP JUMPDEST PUSH0 DUP3 DUP3 MSTORE PUSH1 0x20 DUP3 ADD SWAP1 POP SWAP3 SWAP2 POP POP JUMP JUMPDEST PUSH32 0x6F776E6572206973207A65726F00000000000000000000000000000000000000 PUSH0 DUP3 ADD MSTORE POP JUMP JUMPDEST PUSH0 PUSH2 0x428 PUSH1 0xD DUP4 PUSH2 0x3E4 JUMP JUMPDEST SWAP2 POP PUSH2 0x433 DUP3 PUSH2 0x3F4 JUMP JUMPDEST PUSH1 0x20 DUP3 ADD SWAP1 POP SWAP2 SWAP1 POP JUMP JUMPDEST PUSH0 PUSH1 0x20 DUP3 ADD SWAP1 POP DUP2 DUP2 SUB PUSH0 DUP4 ADD MSTORE PUSH2 0x455 DUP2 PUSH2 0x41C JUMP JUMPDEST SWAP1 POP SWAP2 SWAP1 POP JUMP JUMPDEST PUSH32 0x77697468647261774C696D6974206D757374206265203E203000000000000000 PUSH0 DUP3 ADD MSTORE POP JUMP JUMPDEST PUSH0 PUSH2 0x490 PUSH1 0x19 DUP4 PUSH2 0x3E4 JUMP JUMPDEST SWAP2 POP PUSH2 0x49B DUP3 PUSH2 0x45C JUMP JUMPDEST PUSH1 0x20 DUP3 ADD SWAP1 POP SWAP2 SWAP1 POP JUMP JUMPDEST PUSH0 PUSH1 0x20 DUP3 ADD SWAP1 POP DUP2 DUP2 SUB PUSH0 DUP4 ADD MSTORE PUSH2 0x4BD DUP2 PUSH2 0x484 JUMP JUMPDEST SWAP1 POP SWAP2 SWAP1 POP JUMP JUMPDEST PUSH32 0x62616E6B436170206D757374206265203E203000000000000000000000000000 PUSH0 DUP3 ADD MSTORE POP JUMP JUMPDEST PUSH0 PUSH2 0x4F8 PUSH1 0x13 DUP4 PUSH2 0x3E4 JUMP JUMPDEST SWAP2 POP PUSH2 0x503 DUP3 PUSH2 0x4C4 JUMP JUMPDEST PUSH1 0x20 DUP3 ADD SWAP1 POP SWAP2 SWAP1 POP JUMP JUMPDEST PUSH0 PUSH1 0x20 DUP3 ADD SWAP1 POP DUP2 DUP2 SUB PUSH0 DUP4 ADD MSTORE PUSH2 0x525 DUP2 PUSH2 0x4EC JUMP JUMPDEST SWAP1 POP SWAP2 SWAP1 POP JUMP JUMPDEST PUSH1 0x80 MLOAD PUSH1 0xA0 MLOAD PUSH2 0x2BB2 PUSH2 0x562 PUSH0 CODECOPY PUSH0 DUP2 DUP2 PUSH2 0x4EC ADD MSTORE PUSH2 0x1BD6 ADD MSTORE PUSH0 DUP2 DUP2 PUSH2 0x681 ADD MSTORE DUP2 DUP2 PUSH2 0x6A9 ADD MSTORE PUSH2 0x1771 ADD MSTORE PUSH2 0x2BB2 PUSH0 RETURN INVALID PUSH1 0x80 PUSH1 0x40 MSTORE PUSH1 0x4 CALLDATASIZE LT PUSH2 0x12D JUMPI PUSH0 CALLDATALOAD PUSH1 0xE0 SHR DUP1 PUSH4 0x8DA5CB5B GT PUSH2 0xAA JUMPI DUP1 PUSH4 0xD0E30DB0 GT PUSH2 0x6E JUMPI DUP1 PUSH4 0xD0E30DB0 EQ PUSH2 0x400 JUMPI DUP1 PUSH4 0xD3D7C002 EQ PUSH2 0x40A JUMPI DUP1 PUSH4 0xE30C3978 EQ PUSH2 0x446 JUMPI DUP1 PUSH4 0xEA402B41 EQ PUSH2 0x470 JUMPI DUP1 PUSH4 0xF2FDE38B EQ PUSH2 0x498 JUMPI DUP1 PUSH4 0xFFA1AD74 EQ PUSH2 0x4C0 JUMPI PUSH2 0x164 JUMP JUMPDEST DUP1 PUSH4 0x8DA5CB5B EQ PUSH2 0x31F JUMPI DUP1 PUSH4 0x8E0A3004 EQ PUSH2 0x349 JUMPI DUP1 PUSH4 0x92B4F898 EQ PUSH2 0x371 JUMPI DUP1 PUSH4 0x94C2C612 EQ PUSH2 0x3AE JUMPI DUP1 PUSH4 0xA6A66072 EQ PUSH2 0x3D8 JUMPI PUSH2 0x164 JUMP JUMPDEST DUP1 PUSH4 0x4A2ECF9E GT PUSH2 0xF1 JUMPI DUP1 PUSH4 0x4A2ECF9E EQ PUSH2 0x279 JUMPI DUP1 PUSH4 0x4CC05A71 EQ PUSH2 0x2A1 JUMPI DUP1 PUSH4 0x5DD387B8 EQ PUSH2 0x2CB JUMPI DUP1 PUSH4 0x715018A6 EQ PUSH2 0x2F3 JUMPI DUP1 PUSH4 0x79BA5097 EQ PUSH2 0x309 JUMPI PUSH2 0x164 JUMP JUMPDEST DUP1 PUSH4 0xDBAD953 EQ PUSH2 0x196 JUMPI DUP1 PUSH4 0x197E2B31 EQ PUSH2 0x1C0 JUMPI DUP1 PUSH4 0x22BC56BD EQ PUSH2 0x1FD JUMPI DUP1 PUSH4 0x2DFDF0B5 EQ PUSH2 0x227 JUMPI DUP1 PUSH4 0x2E1A7D4D EQ PUSH2 0x251 JUMPI PUSH2 0x164 JUMP JUMPDEST CALLDATASIZE PUSH2 0x164 JUMPI PUSH1 0x40 MLOAD PUSH32 0x6B388CC800000000000000000000000000000000000000000000000000000000 DUP2 MSTORE PUSH1 0x4 ADD PUSH1 0x40 MLOAD DUP1 SWAP2 SUB SWAP1 REVERT JUMPDEST PUSH1 0x40 MLOAD PUSH32 0x6B388CC800000000000000000000000000000000000000000000000000000000 DUP2 MSTORE PUSH1 0x4 ADD PUSH1 0x40 MLOAD DUP1 SWAP2 SUB SWAP1 REVERT JUMPDEST CALLVALUE DUP1 ISZERO PUSH2 0x1A1 JUMPI PUSH0 PUSH0 REVERT JUMPDEST POP PUSH2 0x1AA PUSH2 0x4EA JUMP JUMPDEST PUSH1 0x40 MLOAD PUSH2 0x1B7 SWAP2 SWAP1 PUSH2 0x22F4 JUMP JUMPDEST PUSH1 0x40 MLOAD DUP1 SWAP2 SUB SWAP1 RETURN JUMPDEST CALLVALUE DUP1 ISZERO PUSH2 0x1CB JUMPI PUSH0 PUSH0 REVERT JUMPDEST POP PUSH2 0x1E6 PUSH1 0x4 DUP1 CALLDATASIZE SUB DUP2 ADD SWAP1 PUSH2 0x1E1 SWAP2 SWAP1 PUSH2 0x236F JUMP JUMPDEST PUSH2 0x50E JUMP JUMPDEST PUSH1 0x40 MLOAD PUSH2 0x1F4 SWAP3 SWAP2 SWAP1 PUSH2 0x2437 JUMP JUMPDEST PUSH1 0x40 MLOAD DUP1 SWAP2 SUB SWAP1 RETURN JUMPDEST CALLVALUE DUP1 ISZERO PUSH2 0x208 JUMPI PUSH0 PUSH0 REVERT JUMPDEST POP PUSH2 0x211 PUSH2 0x636 JUMP JUMPDEST PUSH1 0x40 MLOAD PUSH2 0x21E SWAP2 SWAP1 PUSH2 0x22F4 JUMP JUMPDEST PUSH1 0x40 MLOAD DUP1 SWAP2 SUB SWAP1 RETURN JUMPDEST CALLVALUE DUP1 ISZERO PUSH2 0x232 JUMPI PUSH0 PUSH0 REVERT JUMPDEST POP PUSH2 0x23B PUSH2 0x63F JUMP JUMPDEST PUSH1 0x40 MLOAD PUSH2 0x248 SWAP2 SWAP1 PUSH2 0x22F4 JUMP JUMPDEST PUSH1 0x40 MLOAD DUP1 SWAP2 SUB SWAP1 RETURN JUMPDEST CALLVALUE DUP1 ISZERO PUSH2 0x25C JUMPI PUSH0 PUSH0 REVERT JUMPDEST POP PUSH2 0x277 PUSH1 0x4 DUP1 CALLDATASIZE SUB DUP2 ADD SWAP1 PUSH2 0x272 SWAP2 SWAP1 PUSH2 0x248F JUMP JUMPDEST PUSH2 0x645 JUMP JUMPDEST STOP JUMPDEST CALLVALUE DUP1 ISZERO PUSH2 0x284 JUMPI PUSH0 PUSH0 REVERT JUMPDEST POP PUSH2 0x29F PUSH1 0x4 DUP1 CALLDATASIZE SUB DUP2 ADD SWAP1 PUSH2 0x29A SWAP2 SWAP1 PUSH2 0x24BA JUMP JUMPDEST PUSH2 0x897 JUMP JUMPDEST STOP JUMPDEST CALLVALUE DUP1 ISZERO PUSH2 0x2AC JUMPI PUSH0 PUSH0 REVERT JUMPDEST POP PUSH2 0x2B5 PUSH2 0xB86 JUMP JUMPDEST PUSH1 0x40 MLOAD PUSH2 0x2C2 SWAP2 SWAP1 PUSH2 0x22F4 JUMP JUMPDEST PUSH1 0x40 MLOAD DUP1 SWAP2 SUB SWAP1 RETURN JUMPDEST CALLVALUE DUP1 ISZERO PUSH2 0x2D6 JUMPI PUSH0 PUSH0 REVERT JUMPDEST POP PUSH2 0x2F1 PUSH1 0x4 DUP1 CALLDATASIZE SUB DUP2 ADD SWAP1 PUSH2 0x2EC SWAP2 SWAP1 PUSH2 0x2559 JUMP JUMPDEST PUSH2 0xB8C JUMP JUMPDEST STOP JUMPDEST CALLVALUE DUP1 ISZERO PUSH2 0x2FE JUMPI PUSH0 PUSH0 REVERT JUMPDEST POP PUSH2 0x307 PUSH2 0x11A5 JUMP JUMPDEST STOP JUMPDEST CALLVALUE DUP1 ISZERO PUSH2 0x314 JUMPI PUSH0 PUSH0 REVERT JUMPDEST POP PUSH2 0x31D PUSH2 0x11B8 JUMP JUMPDEST STOP JUMPDEST CALLVALUE DUP1 ISZERO PUSH2 0x32A JUMPI PUSH0 PUSH0 REVERT JUMPDEST POP PUSH2 0x333 PUSH2 0x1246 JUMP JUMPDEST PUSH1 0x40 MLOAD PUSH2 0x340 SWAP2 SWAP1 PUSH2 0x25D9 JUMP JUMPDEST PUSH1 0x40 MLOAD DUP1 SWAP2 SUB SWAP1 RETURN JUMPDEST CALLVALUE DUP1 ISZERO PUSH2 0x354 JUMPI PUSH0 PUSH0 REVERT JUMPDEST POP PUSH2 0x36F PUSH1 0x4 DUP1 CALLDATASIZE SUB DUP2 ADD SWAP1 PUSH2 0x36A SWAP2 SWAP1 PUSH2 0x25F2 JUMP JUMPDEST PUSH2 0x126D JUMP JUMPDEST STOP JUMPDEST CALLVALUE DUP1 ISZERO PUSH2 0x37C JUMPI PUSH0 PUSH0 REVERT JUMPDEST POP PUSH2 0x397 PUSH1 0x4 DUP1 CALLDATASIZE SUB DUP2 ADD SWAP1 PUSH2 0x392 SWAP2 SWAP1 PUSH2 0x264F JUMP JUMPDEST PUSH2 0x1618 JUMP JUMPDEST PUSH1 0x40 MLOAD PUSH2 0x3A5 SWAP3 SWAP2 SWAP1 PUSH2 0x26AC JUMP JUMPDEST PUSH1 0x40 MLOAD DUP1 SWAP2 SUB SWAP1 RETURN JUMPDEST CALLVALUE DUP1 ISZERO PUSH2 0x3B9 JUMPI PUSH0 PUSH0 REVERT JUMPDEST POP PUSH2 0x3C2 PUSH2 0x176F JUMP JUMPDEST PUSH1 0x40 MLOAD PUSH2 0x3CF SWAP2 SWAP1 PUSH2 0x22F4 JUMP JUMPDEST PUSH1 0x40 MLOAD DUP1 SWAP2 SUB SWAP1 RETURN JUMPDEST CALLVALUE DUP1 ISZERO PUSH2 0x3E3 JUMPI PUSH0 PUSH0 REVERT JUMPDEST POP PUSH2 0x3FE PUSH1 0x4 DUP1 CALLDATASIZE SUB DUP2 ADD SWAP1 PUSH2 0x3F9 SWAP2 SWAP1 PUSH2 0x26D3 JUMP JUMPDEST PUSH2 0x1793 JUMP JUMPDEST STOP JUMPDEST PUSH2 0x408 PUSH2 0x1B92 JUMP JUMPDEST STOP JUMPDEST CALLVALUE DUP1 ISZERO PUSH2 0x415 JUMPI PUSH0 PUSH0 REVERT JUMPDEST POP PUSH2 0x430 PUSH1 0x4 DUP1 CALLDATASIZE SUB DUP2 ADD SWAP1 PUSH2 0x42B SWAP2 SWAP1 PUSH2 0x26D3 JUMP JUMPDEST PUSH2 0x1D93 JUMP JUMPDEST PUSH1 0x40 MLOAD PUSH2 0x43D SWAP2 SWAP1 PUSH2 0x22F4 JUMP JUMPDEST PUSH1 0x40 MLOAD DUP1 SWAP2 SUB SWAP1 RETURN JUMPDEST CALLVALUE DUP1 ISZERO PUSH2 0x451 JUMPI PUSH0 PUSH0 REVERT JUMPDEST POP PUSH2 0x45A PUSH2 0x1DD9 JUMP JUMPDEST PUSH1 0x40 MLOAD PUSH2 0x467 SWAP2 SWAP1 PUSH2 0x25D9 JUMP JUMPDEST PUSH1 0x40 MLOAD DUP1 SWAP2 SUB SWAP1 RETURN JUMPDEST CALLVALUE DUP1 ISZERO PUSH2 0x47B JUMPI PUSH0 PUSH0 REVERT JUMPDEST POP PUSH2 0x496 PUSH1 0x4 DUP1 CALLDATASIZE SUB DUP2 ADD SWAP1 PUSH2 0x491 SWAP2 SWAP1 PUSH2 0x24BA JUMP JUMPDEST PUSH2 0x1E01 JUMP JUMPDEST STOP JUMPDEST CALLVALUE DUP1 ISZERO PUSH2 0x4A3 JUMPI PUSH0 PUSH0 REVERT JUMPDEST POP PUSH2 0x4BE PUSH1 0x4 DUP1 CALLDATASIZE SUB DUP2 ADD SWAP1 PUSH2 0x4B9 SWAP2 SWAP1 PUSH2 0x26D3 JUMP JUMPDEST PUSH2 0x1F36 JUMP JUMPDEST STOP JUMPDEST CALLVALUE DUP1 ISZERO PUSH2 0x4CB JUMPI PUSH0 PUSH0 REVERT JUMPDEST POP PUSH2 0x4D4 PUSH2 0x1FE2 JUMP JUMPDEST PUSH1 0x40 MLOAD PUSH2 0x4E1 SWAP2 SWAP1 PUSH2 0x26FE JUMP JUMPDEST PUSH1 0x40 MLOAD DUP1 SWAP2 SUB SWAP1 RETURN JUMPDEST PUSH32 0x0 DUP2 JUMP JUMPDEST PUSH1 0x60 PUSH0 PUSH0 PUSH1 0x2 PUSH0 DUP7 PUSH20 0xFFFFFFFFFFFFFFFFFFFFFFFFFFFFFFFFFFFFFFFF AND PUSH20 0xFFFFFFFFFFFFFFFFFFFFFFFFFFFFFFFFFFFFFFFF AND DUP2 MSTORE PUSH1 0x20 ADD SWAP1 DUP2 MSTORE PUSH1 0x20 ADD PUSH0 KECCAK256 PUSH0 DUP6 PUSH20 0xFFFFFFFFFFFFFFFFFFFFFFFFFFFFFFFFFFFFFFFF AND PUSH20 0xFFFFFFFFFFFFFFFFFFFFFFFFFFFFFFFFFFFFFFFF AND DUP2 MSTORE PUSH1 0x20 ADD SWAP1 DUP2 MSTORE PUSH1 0x20 ADD PUSH0 KECCAK256 SWAP1 POP DUP1 PUSH0 ADD DUP2 PUSH1 0x2 ADD PUSH0 SWAP1 SLOAD SWAP1 PUSH2 0x100 EXP SWAP1 DIV PUSH1 0xFF AND DUP2 DUP1 SLOAD PUSH2 0x5AC SWAP1 PUSH2 0x274B JUMP JUMPDEST DUP1 PUSH1 0x1F ADD PUSH1 0x20 DUP1 SWAP2 DIV MUL PUSH1 0x20 ADD PUSH1 0x40 MLOAD SWAP1 DUP2 ADD PUSH1 0x40 MSTORE DUP1 SWAP3 SWAP2 SWAP1 DUP2 DUP2 MSTORE PUSH1 0x20 ADD DUP3 DUP1 SLOAD PUSH2 0x5D8 SWAP1 PUSH2 0x274B JUMP JUMPDEST DUP1 ISZERO PUSH2 0x623 JUMPI DUP1 PUSH1 0x1F LT PUSH2 0x5FA JUMPI PUSH2 0x100 DUP1 DUP4 SLOAD DIV MUL DUP4 MSTORE SWAP2 PUSH1 0x20 ADD SWAP2 PUSH2 0x623 JUMP JUMPDEST DUP3 ADD SWAP2 SWAP1 PUSH0 MSTORE PUSH1 0x20 PUSH0 KECCAK256 SWAP1 JUMPDEST DUP2 SLOAD DUP2 MSTORE SWAP1 PUSH1 0x1 ADD SWAP1 PUSH1 0x20 ADD DUP1 DUP4 GT PUSH2 0x606 JUMPI DUP3 SWAP1 SUB PUSH1 0x1F AND DUP3 ADD SWAP2 JUMPDEST POP POP POP POP POP SWAP2 POP SWAP3 POP SWAP3 POP POP SWAP3 POP SWAP3 SWAP1 POP JUMP JUMPDEST PUSH0 PUSH1 0x6 SLOAD SWAP1 POP SWAP1 JUMP JUMPDEST PUSH1 0x7 SLOAD DUP2 JUMP JUMPDEST DUP1 PUSH0 DUP2 SUB PUSH2 0x67F JUMPI PUSH1 0x40 MLOAD PUSH32 0x6B388CC800000000000000000000000000000000000000000000000000000000 DUP2 MSTORE PUSH1 0x4 ADD PUSH1 0x40 MLOAD DUP1 SWAP2 SUB SWAP1 REVERT JUMPDEST PUSH32 0x0 DUP3 GT ISZERO PUSH2 0x706 JUMPI PUSH32 0x0 DUP3 PUSH1 0x40 MLOAD PUSH32 0x2996304900000000000000000000000000000000000000000000000000000000 DUP2 MSTORE PUSH1 0x4 ADD PUSH2 0x6FD SWAP3 SWAP2 SWAP1 PUSH2 0x277B JUMP JUMPDEST PUSH1 0x40 MLOAD DUP1 SWAP2 SUB SWAP1 REVERT JUMPDEST PUSH0 PUSH1 0x5 PUSH0 CALLER PUSH20 0xFFFFFFFFFFFFFFFFFFFFFFFFFFFFFFFFFFFFFFFF AND PUSH20 0xFFFFFFFFFFFFFFFFFFFFFFFFFFFFFFFFFFFFFFFF AND DUP2 MSTORE PUSH1 0x20 ADD SWAP1 DUP2 MSTORE PUSH1 0x20 ADD PUSH0 KECCAK256 SLOAD SWAP1 POP DUP3 DUP2 LT ISZERO PUSH2 0x78E JUMPI DUP1 DUP4 PUSH1 0x40 MLOAD PUSH32 0x9D2AFA9000000000000000000000000000000000000000000000000000000000 DUP2 MSTORE PUSH1 0x4 ADD PUSH2 0x785 SWAP3 SWAP2 SWAP1 PUSH2 0x277B JUMP JUMPDEST PUSH1 0x40 MLOAD DUP1 SWAP2 SUB SWAP1 REVERT JUMPDEST DUP3 DUP2 PUSH2 0x79A SWAP2 SWAP1 PUSH2 0x27CF JUMP JUMPDEST PUSH1 0x5 PUSH0 CALLER PUSH20 0xFFFFFFFFFFFFFFFFFFFFFFFFFFFFFFFFFFFFFFFF AND PUSH20 0xFFFFFFFFFFFFFFFFFFFFFFFFFFFFFFFFFFFFFFFF AND DUP2 MSTORE PUSH1 0x20 ADD SWAP1 DUP2 MSTORE PUSH1 0x20 ADD PUSH0 KECCAK256 DUP2 SWAP1 SSTORE POP DUP3 PUSH1 0x6 PUSH0 DUP3 DUP3 SLOAD PUSH2 0x7EC SWAP2 SWAP1 PUSH2 0x27CF JUMP JUMPDEST SWAP3 POP POP DUP2 SWAP1 SSTORE POP PUSH2 0x7FB PUSH2 0x201B JUMP JUMPDEST PUSH2 0x805 CALLER DUP5 PUSH2 0x2036 JUMP JUMPDEST CALLER PUSH20 0xFFFFFFFFFFFFFFFFFFFFFFFFFFFFFFFFFFFFFFFF AND PUSH32 0xDF273CB619D95419A9CD0EC88123A0538C85064229BAA6363788F743FFF90DEB DUP5 PUSH1 0x5 PUSH0 CALLER PUSH20 0xFFFFFFFFFFFFFFFFFFFFFFFFFFFFFFFFFFFFFFFF AND PUSH20 0xFFFFFFFFFFFFFFFFFFFFFFFFFFFFFFFFFFFFFFFF AND DUP2 MSTORE PUSH1 0x20 ADD SWAP1 DUP2 MSTORE PUSH1 0x20 ADD PUSH0 KECCAK256 SLOAD PUSH1 0x40 MLOAD PUSH2 0x88A SWAP3 SWAP2 SWAP1 PUSH2 0x277B JUMP JUMPDEST PUSH1 0x40 MLOAD DUP1 SWAP2 SUB SWAP1 LOG2 POP POP POP JUMP JUMPDEST DUP1 PUSH0 DUP2 SUB PUSH2 0x8D1 JUMPI PUSH1 0x40 MLOAD PUSH32 0x6B388CC800000000000000000000000000000000000000000000000000000000 DUP2 MSTORE PUSH1 0x4 ADD PUSH1 0x40 MLOAD DUP1 SWAP2 SUB SWAP1 REVERT JUMPDEST PUSH0 PUSH1 0x2 PUSH0 CALLER PUSH20 0xFFFFFFFFFFFFFFFFFFFFFFFFFFFFFFFFFFFFFFFF AND PUSH20 0xFFFFFFFFFFFFFFFFFFFFFFFFFFFFFFFFFFFFFFFF AND DUP2 MSTORE PUSH1 0x20 ADD SWAP1 DUP2 MSTORE PUSH1 0x20 ADD PUSH0 KECCAK256 PUSH0 DUP6 PUSH20 0xFFFFFFFFFFFFFFFFFFFFFFFFFFFFFFFFFFFFFFFF AND PUSH20 0xFFFFFFFFFFFFFFFFFFFFFFFFFFFFFFFFFFFFFFFF AND DUP2 MSTORE PUSH1 0x20 ADD SWAP1 DUP2 MSTORE PUSH1 0x20 ADD PUSH0 KECCAK256 SWAP1 POP DUP1 PUSH1 0x2 ADD PUSH0 SWAP1 SLOAD SWAP1 PUSH2 0x100 EXP SWAP1 DIV PUSH1 0xFF AND PUSH2 0x993 JUMPI PUSH1 0x40 MLOAD PUSH32 0xDA2B2F1300000000000000000000000000000000000000000000000000000000 DUP2 MSTORE PUSH1 0x4 ADD PUSH1 0x40 MLOAD DUP1 SWAP2 SUB SWAP1 REVERT JUMPDEST PUSH0 DUP2 PUSH1 0x1 ADD SLOAD EQ ISZERO DUP1 ISZERO PUSH2 0x9AA JUMPI POP DUP1 PUSH1 0x1 ADD SLOAD DUP4 GT JUMPDEST ISZERO PUSH2 0x9F2 JUMPI DUP1 PUSH1 0x1 ADD SLOAD DUP4 PUSH1 0x40 MLOAD PUSH32 0x2996304900000000000000000000000000000000000000000000000000000000 DUP2 MSTORE PUSH1 0x4 ADD PUSH2 0x9E9 SWAP3 SWAP2 SWAP1 PUSH2 0x277B JUMP JUMPDEST PUSH1 0x40 MLOAD DUP1 SWAP2 SUB SWAP1 REVERT JUMPDEST PUSH0 PUSH1 0x5 PUSH0 CALLER PUSH20 0xFFFFFFFFFFFFFFFFFFFFFFFFFFFFFFFFFFFFFFFF AND PUSH20 0xFFFFFFFFFFFFFFFFFFFFFFFFFFFFFFFFFFFFFFFF AND DUP2 MSTORE PUSH1 0x20 ADD SWAP1 DUP2 MSTORE PUSH1 0x20 ADD PUSH0 KECCAK256 SLOAD SWAP1 POP DUP4 DUP2 LT ISZERO PUSH2 0xA7A JUMPI DUP1 DUP5 PUSH1 0x40 MLOAD PUSH32 0x9D2AFA9000000000000000000000000000000000000000000000000000000000 DUP2 MSTORE PUSH1 0x4 ADD PUSH2 0xA71 SWAP3 SWAP2 SWAP1 PUSH2 0x277B JUMP JUMPDEST PUSH1 0x40 MLOAD DUP1 SWAP2 SUB SWAP1 REVERT JUMPDEST DUP4 DUP2 PUSH2 0xA86 SWAP2 SWAP1 PUSH2 0x27CF JUMP JUMPDEST PUSH1 0x5 PUSH0 CALLER PUSH20 0xFFFFFFFFFFFFFFFFFFFFFFFFFFFFFFFFFFFFFFFF AND PUSH20 0xFFFFFFFFFFFFFFFFFFFFFFFFFFFFFFFFFFFFFFFF AND DUP2 MSTORE PUSH1 0x20 ADD SWAP1 DUP2 MSTORE PUSH1 0x20 ADD PUSH0 KECCAK256 DUP2 SWAP1 SSTORE POP DUP4 PUSH1 0x5 PUSH0 DUP8 PUSH20 0xFFFFFFFFFFFFFFFFFFFFFFFFFFFFFFFFFFFFFFFF AND PUSH20 0xFFFFFFFFFFFFFFFFFFFFFFFFFFFFFFFFFFFFFFFF AND DUP2 MSTORE PUSH1 0x20 ADD SWAP1 DUP2 MSTORE PUSH1 0x20 ADD PUSH0 KECCAK256 PUSH0 DUP3 DUP3 SLOAD PUSH2 0xB13 SWAP2 SWAP1 PUSH2 0x2802 JUMP JUMPDEST SWAP3 POP POP DUP2 SWAP1 SSTORE POP DUP5 PUSH20 0xFFFFFFFFFFFFFFFFFFFFFFFFFFFFFFFFFFFFFFFF AND CALLER PUSH20 0xFFFFFFFFFFFFFFFFFFFFFFFFFFFFFFFFFFFFFFFF AND PUSH32 0xE2080C8FC8D86C864D8DC081FADAEBF2BE7191086615E786F954420F13ED122A DUP7 PUSH1 0x40 MLOAD PUSH2 0xB77 SWAP2 SWAP1 PUSH2 0x22F4 JUMP JUMPDEST PUSH1 0x40 MLOAD DUP1 SWAP2 SUB SWAP1 LOG3 POP POP POP POP POP JUMP JUMPDEST PUSH1 0x8 SLOAD DUP2 JUMP JUMPDEST PUSH0 PUSH20 0xFFFFFFFFFFFFFFFFFFFFFFFFFFFFFFFFFFFFFFFF AND DUP5 PUSH20 0xFFFFFFFFFFFFFFFFFFFFFFFFFFFFFFFFFFFFFFFF AND SUB PUSH2 0xBF1 JUMPI PUSH1 0x40 MLOAD PUSH32 0x2A7FB4EA00000000000000000000000000000000000000000000000000000000 DUP2 MSTORE PUSH1 0x4 ADD PUSH1 0x40 MLOAD DUP1 SWAP2 SUB SWAP1 REVERT JUMPDEST PUSH0 PUSH2 0xC3E DUP5 DUP5 DUP1 DUP1 PUSH1 0x1F ADD PUSH1 0x20 DUP1 SWAP2 DIV MUL PUSH1 0x20 ADD PUSH1 0x40 MLOAD SWAP1 DUP2 ADD PUSH1 0x40 MSTORE DUP1 SWAP4 SWAP3 SWAP2 SWAP1 DUP2 DUP2 MSTORE PUSH1 0x20 ADD DUP4 DUP4 DUP1 DUP3 DUP5 CALLDATACOPY PUSH0 DUP2 DUP5 ADD MSTORE PUSH1 0x1F NOT PUSH1 0x1F DUP3 ADD AND SWAP1 POP DUP1 DUP4 ADD SWAP3 POP POP POP POP POP POP POP PUSH2 0x20DA JUMP JUMPDEST SWAP1 POP PUSH0 PUSH1 0x3 PUSH0 CALLER PUSH20 0xFFFFFFFFFFFFFFFFFFFFFFFFFFFFFFFFFFFFFFFF AND PUSH20 0xFFFFFFFFFFFFFFFFFFFFFFFFFFFFFFFFFFFFFFFF AND DUP2 MSTORE PUSH1 0x20 ADD SWAP1 DUP2 MSTORE PUSH1 0x20 ADD PUSH0 KECCAK256 PUSH0 DUP4 DUP2 MSTORE PUSH1 0x20 ADD SWAP1 DUP2 MSTORE PUSH1 0x20 ADD PUSH0 KECCAK256 PUSH0 SWAP1 SLOAD SWAP1 PUSH2 0x100 EXP SWAP1 DIV PUSH20 0xFFFFFFFFFFFFFFFFFFFFFFFFFFFFFFFFFFFFFFFF AND SWAP1 POP PUSH0 PUSH20 0xFFFFFFFFFFFFFFFFFFFFFFFFFFFFFFFFFFFFFFFF AND DUP2 PUSH20 0xFFFFFFFFFFFFFFFFFFFFFFFFFFFFFFFFFFFFFFFF AND EQ ISZERO DUP1 ISZERO PUSH2 0xD17 JUMPI POP DUP6 PUSH20 0xFFFFFFFFFFFFFFFFFFFFFFFFFFFFFFFFFFFFFFFF AND DUP2 PUSH20 0xFFFFFFFFFFFFFFFFFFFFFFFFFFFFFFFFFFFFFFFF AND EQ ISZERO JUMPDEST ISZERO PUSH2 0xD4E JUMPI PUSH1 0x40 MLOAD PUSH32 0x1FBA8FB900000000000000000000000000000000000000000000000000000000 DUP2 MSTORE PUSH1 0x4 ADD PUSH1 0x40 MLOAD DUP1 SWAP2 SUB SWAP1 REVERT JUMPDEST PUSH0 PUSH1 0x2 PUSH0 CALLER PUSH20 0xFFFFFFFFFFFFFFFFFFFFFFFFFFFFFFFFFFFFFFFF AND PUSH20 0xFFFFFFFFFFFFFFFFFFFFFFFFFFFFFFFFFFFFFFFF AND DUP2 MSTORE PUSH1 0x20 ADD SWAP1 DUP2 MSTORE PUSH1 0x20 ADD PUSH0 KECCAK256 PUSH0 DUP9 PUSH20 0xFFFFFFFFFFFFFFFFFFFFFFFFFFFFFFFFFFFFFFFF AND PUSH20 0xFFFFFFFFFFFFFFFFFFFFFFFFFFFFFFFFFFFFFFFF AND DUP2 MSTORE PUSH1 0x20 ADD SWAP1 DUP2 MSTORE PUSH1 0x20 ADD PUSH0 KECCAK256 SWAP1 POP DUP1 PUSH1 0x2 ADD PUSH0 SWAP1 SLOAD SWAP1 PUSH2 0x100 EXP SWAP1 DIV PUSH1 0xFF AND ISZERO PUSH2 0xF90 JUMPI PUSH0 PUSH2 0xE72 DUP3 PUSH0 ADD DUP1 SLOAD PUSH2 0xDF1 SWAP1 PUSH2 0x274B JUMP JUMPDEST DUP1 PUSH1 0x1F ADD PUSH1 0x20 DUP1 SWAP2 DIV MUL PUSH1 0x20 ADD PUSH1 0x40 MLOAD SWAP1 DUP2 ADD PUSH1 0x40 MSTORE DUP1 SWAP3 SWAP2 SWAP1 DUP2 DUP2 MSTORE PUSH1 0x20 ADD DUP3 DUP1 SLOAD PUSH2 0xE1D SWAP1 PUSH2 0x274B JUMP JUMPDEST DUP1 ISZERO PUSH2 0xE68 JUMPI DUP1 PUSH1 0x1F LT PUSH2 0xE3F JUMPI PUSH2 0x100 DUP1 DUP4 SLOAD DIV MUL DUP4 MSTORE SWAP2 PUSH1 0x20 ADD SWAP2 PUSH2 0xE68 JUMP JUMPDEST DUP3 ADD SWAP2 SWAP1 PUSH0 MSTORE PUSH1 0x20 PUSH0 KECCAK256 SWAP1 JUMPDEST DUP2 SLOAD DUP2 MSTORE SWAP1 PUSH1 0x1 ADD SWAP1 PUSH1 0x20 ADD DUP1 DUP4 GT PUSH2 0xE4B JUMPI DUP3 SWAP1 SUB PUSH1 0x1F AND DUP3 ADD SWAP2 JUMPDEST POP POP POP POP POP PUSH2 0x20DA JUMP JUMPDEST SWAP1 POP DUP4 DUP2 EQ ISZERO DUP1 ISZERO PUSH2 0xF1A JUMPI POP DUP8 PUSH20 0xFFFFFFFFFFFFFFFFFFFFFFFFFFFFFFFFFFFFFFFF AND PUSH1 0x3 PUSH0 CALLER PUSH20 0xFFFFFFFFFFFFFFFFFFFFFFFFFFFFFFFFFFFFFFFF AND PUSH20 0xFFFFFFFFFFFFFFFFFFFFFFFFFFFFFFFFFFFFFFFF AND DUP2 MSTORE PUSH1 0x20 ADD SWAP1 DUP2 MSTORE PUSH1 0x20 ADD PUSH0 KECCAK256 PUSH0 DUP4 DUP2 MSTORE PUSH1 0x20 ADD SWAP1 DUP2 MSTORE PUSH1 0x20 ADD PUSH0 KECCAK256 PUSH0 SWAP1 SLOAD SWAP1 PUSH2 0x100 EXP SWAP1 DIV PUSH20 0xFFFFFFFFFFFFFFFFFFFFFFFFFFFFFFFFFFFFFFFF AND PUSH20 0xFFFFFFFFFFFFFFFFFFFFFFFFFFFFFFFFFFFFFFFF AND EQ JUMPDEST ISZERO PUSH2 0xF8E JUMPI PUSH1 0x3 PUSH0 CALLER PUSH20 0xFFFFFFFFFFFFFFFFFFFFFFFFFFFFFFFFFFFFFFFF AND PUSH20 0xFFFFFFFFFFFFFFFFFFFFFFFFFFFFFFFFFFFFFFFF AND DUP2 MSTORE PUSH1 0x20 ADD SWAP1 DUP2 MSTORE PUSH1 0x20 ADD PUSH0 KECCAK256 PUSH0 DUP3 DUP2 MSTORE PUSH1 0x20 ADD SWAP1 DUP2 MSTORE PUSH1 0x20 ADD PUSH0 KECCAK256 PUSH0 PUSH2 0x100 EXP DUP2 SLOAD SWAP1 PUSH20 0xFFFFFFFFFFFFFFFFFFFFFFFFFFFFFFFFFFFFFFFF MUL NOT AND SWAP1 SSTORE JUMPDEST POP JUMPDEST PUSH1 0x40 MLOAD DUP1 PUSH1 0x60 ADD PUSH1 0x40 MSTORE DUP1 DUP8 DUP8 DUP1 DUP1 PUSH1 0x1F ADD PUSH1 0x20 DUP1 SWAP2 DIV MUL PUSH1 0x20 ADD PUSH1 0x40 MLOAD SWAP1 DUP2 ADD PUSH1 0x40 MSTORE DUP1 SWAP4 SWAP3 SWAP2 SWAP1 DUP2 DUP2 MSTORE PUSH1 0x20 ADD DUP4 DUP4 DUP1 DUP3 DUP5 CALLDATACOPY PUSH0 DUP2 DUP5 ADD MSTORE PUSH1 0x1F NOT PUSH1 0x1F DUP3 ADD AND SWAP1 POP DUP1 DUP4 ADD SWAP3 POP POP POP POP POP POP POP DUP2 MSTORE PUSH1 0x20 ADD DUP6 DUP2 MSTORE PUSH1 0x20 ADD PUSH1 0x1 ISZERO ISZERO DUP2 MSTORE POP PUSH1 0x2 PUSH0 CALLER PUSH20 0xFFFFFFFFFFFFFFFFFFFFFFFFFFFFFFFFFFFFFFFF AND PUSH20 0xFFFFFFFFFFFFFFFFFFFFFFFFFFFFFFFFFFFFFFFF AND DUP2 MSTORE PUSH1 0x20 ADD SWAP1 DUP2 MSTORE PUSH1 0x20 ADD PUSH0 KECCAK256 PUSH0 DUP10 PUSH20 0xFFFFFFFFFFFFFFFFFFFFFFFFFFFFFFFFFFFFFFFF AND PUSH20 0xFFFFFFFFFFFFFFFFFFFFFFFFFFFFFFFFFFFFFFFF AND DUP2 MSTORE PUSH1 0x20 ADD SWAP1 DUP2 MSTORE PUSH1 0x20 ADD PUSH0 KECCAK256 PUSH0 DUP3 ADD MLOAD DUP2 PUSH0 ADD SWAP1 DUP2 PUSH2 0x107C SWAP2 SWAP1 PUSH2 0x2A02 JUMP JUMPDEST POP PUSH1 0x20 DUP3 ADD MLOAD DUP2 PUSH1 0x1 ADD SSTORE PUSH1 0x40 DUP3 ADD MLOAD DUP2 PUSH1 0x2 ADD PUSH0 PUSH2 0x100 EXP DUP2 SLOAD DUP2 PUSH1 0xFF MUL NOT AND SWAP1 DUP4 ISZERO ISZERO MUL OR SWAP1 SSTORE POP SWAP1 POP POP DUP7 PUSH1 0x3 PUSH0 CALLER PUSH20 0xFFFFFFFFFFFFFFFFFFFFFFFFFFFFFFFFFFFFFFFF AND PUSH20 0xFFFFFFFFFFFFFFFFFFFFFFFFFFFFFFFFFFFFFFFF AND DUP2 MSTORE PUSH1 0x20 ADD SWAP1 DUP2 MSTORE PUSH1 0x20 ADD PUSH0 KECCAK256 PUSH0 DUP6 DUP2 MSTORE PUSH1 0x20 ADD SWAP1 DUP2 MSTORE PUSH1 0x20 ADD PUSH0 KECCAK256 PUSH0 PUSH2 0x100 EXP DUP2 SLOAD DUP2 PUSH20 0xFFFFFFFFFFFFFFFFFFFFFFFFFFFFFFFFFFFFFFFF MUL NOT AND SWAP1 DUP4 PUSH20 0xFFFFFFFFFFFFFFFFFFFFFFFFFFFFFFFFFFFFFFFF AND MUL OR SWAP1 SSTORE POP DUP7 PUSH20 0xFFFFFFFFFFFFFFFFFFFFFFFFFFFFFFFFFFFFFFFF AND CALLER PUSH20 0xFFFFFFFFFFFFFFFFFFFFFFFFFFFFFFFFFFFFFFFF AND PUSH32 0x69E157838B5404594033E52D6411F8B1C5DFBE4FBD04E9BD08D300D6A1524A32 DUP9 DUP9 DUP9 PUSH1 0x40 MLOAD PUSH2 0x1194 SWAP4 SWAP3 SWAP2 SWAP1 PUSH2 0x2B0B JUMP JUMPDEST PUSH1 0x40 MLOAD DUP1 SWAP2 SUB SWAP1 LOG3 POP POP POP POP POP POP POP JUMP JUMPDEST PUSH2 0x11AD PUSH2 0x20EA JUMP JUMPDEST PUSH2 0x11B6 PUSH0 PUSH2 0x2171 JUMP JUMPDEST JUMP JUMPDEST PUSH0 PUSH2 0x11C1 PUSH2 0x21A1 JUMP JUMPDEST SWAP1 POP DUP1 PUSH20 0xFFFFFFFFFFFFFFFFFFFFFFFFFFFFFFFFFFFFFFFF AND PUSH2 0x11E2 PUSH2 0x1DD9 JUMP JUMPDEST PUSH20 0xFFFFFFFFFFFFFFFFFFFFFFFFFFFFFFFFFFFFFFFF AND EQ PUSH2 0x123A JUMPI DUP1 PUSH1 0x40 MLOAD PUSH32 0x118CDAA700000000000000000000000000000000000000000000000000000000 DUP2 MSTORE PUSH1 0x4 ADD PUSH2 0x1231 SWAP2 SWAP1 PUSH2 0x25D9 JUMP JUMPDEST PUSH1 0x40 MLOAD DUP1 SWAP2 SUB SWAP1 REVERT JUMPDEST PUSH2 0x1243 DUP2 PUSH2 0x2171 JUMP JUMPDEST POP JUMP JUMPDEST PUSH0 PUSH0 PUSH0 SWAP1 SLOAD SWAP1 PUSH2 0x100 EXP SWAP1 DIV PUSH20 0xFFFFFFFFFFFFFFFFFFFFFFFFFFFFFFFFFFFFFFFF AND SWAP1 POP SWAP1 JUMP JUMPDEST DUP1 PUSH0 DUP2 SUB PUSH2 0x12A7 JUMPI PUSH1 0x40 MLOAD PUSH32 0x6B388CC800000000000000000000000000000000000000000000000000000000 DUP2 MSTORE PUSH1 0x4 ADD PUSH1 0x40 MLOAD DUP1 SWAP2 SUB SWAP1 REVERT JUMPDEST PUSH0 PUSH1 0x3 PUSH0 CALLER PUSH20 0xFFFFFFFFFFFFFFFFFFFFFFFFFFFFFFFFFFFFFFFF AND PUSH20 0xFFFFFFFFFFFFFFFFFFFFFFFFFFFFFFFFFFFFFFFF AND DUP2 MSTORE PUSH1 0x20 ADD SWAP1 DUP2 MSTORE PUSH1 0x20 ADD PUSH0 KECCAK256 PUSH0 PUSH2 0x1332 DUP8 DUP8 DUP1 DUP1 PUSH1 0x1F ADD PUSH1 0x20 DUP1 SWAP2 DIV MUL PUSH1 0x20 ADD PUSH1 0x40 MLOAD SWAP1 DUP2 ADD PUSH1 0x40 MSTORE DUP1 SWAP4 SWAP3 SWAP2 SWAP1 DUP2 DUP2 MSTORE PUSH1 0x20 ADD DUP4 DUP4 DUP1 DUP3 DUP5 CALLDATACOPY PUSH0 DUP2 DUP5 ADD MSTORE PUSH1 0x1F NOT PUSH1 0x1F DUP3 ADD AND SWAP1 POP DUP1 DUP4 ADD SWAP3 POP POP POP POP POP POP POP PUSH2 0x20DA JUMP JUMPDEST DUP2 MSTORE PUSH1 0x20 ADD SWAP1 DUP2 MSTORE PUSH1 0x20 ADD PUSH0 KECCAK256 PUSH0 SWAP1 SLOAD SWAP1 PUSH2 0x100 EXP SWAP1 DIV PUSH20 0xFFFFFFFFFFFFFFFFFFFFFFFFFFFFFFFFFFFFFFFF AND SWAP1 POP PUSH0 PUSH1 0x2 PUSH0 CALLER PUSH20 0xFFFFFFFFFFFFFFFFFFFFFFFFFFFFFFFFFFFFFFFF AND PUSH20 0xFFFFFFFFFFFFFFFFFFFFFFFFFFFFFFFFFFFFFFFF AND DUP2 MSTORE PUSH1 0x20 ADD SWAP1 DUP2 MSTORE PUSH1 0x20 ADD PUSH0 KECCAK256 PUSH0 DUP4 PUSH20 0xFFFFFFFFFFFFFFFFFFFFFFFFFFFFFFFFFFFFFFFF AND PUSH20 0xFFFFFFFFFFFFFFFFFFFFFFFFFFFFFFFFFFFFFFFF AND DUP2 MSTORE PUSH1 0x20 ADD SWAP1 DUP2 MSTORE PUSH1 0x20 ADD PUSH0 KECCAK256 SWAP1 POP DUP1 PUSH1 0x2 ADD PUSH0 SWAP1 SLOAD SWAP1 PUSH2 0x100 EXP SWAP1 DIV PUSH1 0xFF AND PUSH2 0x1423 JUMPI PUSH1 0x40 MLOAD PUSH32 0xDA2B2F1300000000000000000000000000000000000000000000000000000000 DUP2 MSTORE PUSH1 0x4 ADD PUSH1 0x40 MLOAD DUP1 SWAP2 SUB SWAP1 REVERT JUMPDEST PUSH0 DUP2 PUSH1 0x1 ADD SLOAD EQ ISZERO DUP1 ISZERO PUSH2 0x143A JUMPI POP DUP1 PUSH1 0x1 ADD SLOAD DUP5 GT JUMPDEST ISZERO PUSH2 0x1482 JUMPI DUP1 PUSH1 0x1 ADD SLOAD DUP5 PUSH1 0x40 MLOAD PUSH32 0x2996304900000000000000000000000000000000000000000000000000000000 DUP2 MSTORE PUSH1 0x4 ADD PUSH2 0x1479 SWAP3 SWAP2 SWAP1 PUSH2 0x277B JUMP JUMPDEST PUSH1 0x40 MLOAD DUP1 SWAP2 SUB SWAP1 REVERT JUMPDEST PUSH0 PUSH1 0x5 PUSH0 CALLER PUSH20 0xFFFFFFFFFFFFFFFFFFFFFFFFFFFFFFFFFFFFFFFF AND PUSH20 0xFFFFFFFFFFFFFFFFFFFFFFFFFFFFFFFFFFFFFFFF AND DUP2 MSTORE PUSH1 0x20 ADD SWAP1 DUP2 MSTORE PUSH1 0x20 ADD PUSH0 KECCAK256 SLOAD SWAP1 POP DUP5 DUP2 LT ISZERO PUSH2 0x150A JUMPI DUP1 DUP6 PUSH1 0x40 MLOAD PUSH32 0x9D2AFA9000000000000000000000000000000000000000000000000000000000 DUP2 MSTORE PUSH1 0x4 ADD PUSH2 0x1501 SWAP3 SWAP2 SWAP1 PUSH2 0x277B JUMP JUMPDEST PUSH1 0x40 MLOAD DUP1 SWAP2 SUB SWAP1 REVERT JUMPDEST DUP5 DUP2 PUSH2 0x1516 SWAP2 SWAP1 PUSH2 0x27CF JUMP JUMPDEST PUSH1 0x5 PUSH0 CALLER PUSH20 0xFFFFFFFFFFFFFFFFFFFFFFFFFFFFFFFFFFFFFFFF AND PUSH20 0xFFFFFFFFFFFFFFFFFFFFFFFFFFFFFFFFFFFFFFFF AND DUP2 MSTORE PUSH1 0x20 ADD SWAP1 DUP2 MSTORE PUSH1 0x20 ADD PUSH0 KECCAK256 DUP2 SWAP1 SSTORE POP DUP5 PUSH1 0x5 PUSH0 DUP6 PUSH20 0xFFFFFFFFFFFFFFFFFFFFFFFFFFFFFFFFFFFFFFFF AND PUSH20 0xFFFFFFFFFFFFFFFFFFFFFFFFFFFFFFFFFFFFFFFF AND DUP2 MSTORE PUSH1 0x20 ADD SWAP1 DUP2 MSTORE PUSH1 0x20 ADD PUSH0 KECCAK256 PUSH0 DUP3 DUP3 SLOAD PUSH2 0x15A3 SWAP2 SWAP1 PUSH2 0x2802 JUMP JUMPDEST SWAP3 POP POP DUP2 SWAP1 SSTORE POP DUP3 PUSH20 0xFFFFFFFFFFFFFFFFFFFFFFFFFFFFFFFFFFFFFFFF AND CALLER PUSH20 0xFFFFFFFFFFFFFFFFFFFFFFFFFFFFFFFFFFFFFFFF AND PUSH32 0xE2080C8FC8D86C864D8DC081FADAEBF2BE7191086615E786F954420F13ED122A DUP8 PUSH1 0x40 MLOAD PUSH2 0x1607 SWAP2 SWAP1 PUSH2 0x22F4 JUMP JUMPDEST PUSH1 0x40 MLOAD DUP1 SWAP2 SUB SWAP1 LOG3 POP POP POP POP POP POP POP JUMP JUMPDEST PUSH0 PUSH0 PUSH0 PUSH1 0x3 PUSH0 DUP8 PUSH20 0xFFFFFFFFFFFFFFFFFFFFFFFFFFFFFFFFFFFFFFFF AND PUSH20 0xFFFFFFFFFFFFFFFFFFFFFFFFFFFFFFFFFFFFFFFF AND DUP2 MSTORE PUSH1 0x20 ADD SWAP1 DUP2 MSTORE PUSH1 0x20 ADD PUSH0 KECCAK256 PUSH0 PUSH2 0x16A5 DUP8 DUP8 DUP1 DUP1 PUSH1 0x1F ADD PUSH1 0x20 DUP1 SWAP2 DIV MUL PUSH1 0x20 ADD PUSH1 0x40 MLOAD SWAP1 DUP2 ADD PUSH1 0x40 MSTORE DUP1 SWAP4 SWAP3 SWAP2 SWAP1 DUP2 DUP2 MSTORE PUSH1 0x20 ADD DUP4 DUP4 DUP1 DUP3 DUP5 CALLDATACOPY PUSH0 DUP2 DUP5 ADD MSTORE PUSH1 0x1F NOT PUSH1 0x1F DUP3 ADD AND SWAP1 POP DUP1 DUP4 ADD SWAP3 POP POP POP POP POP POP POP PUSH2 0x20DA JUMP JUMPDEST DUP2 MSTORE PUSH1 0x20 ADD SWAP1 DUP2 MSTORE PUSH1 0x20 ADD PUSH0 KECCAK256 PUSH0 SWAP1 SLOAD SWAP1 PUSH2 0x100 EXP SWAP1 DIV PUSH20 0xFFFFFFFFFFFFFFFFFFFFFFFFFFFFFFFFFFFFFFFF AND SWAP1 POP PUSH0 PUSH1 0x2 PUSH0 DUP9 PUSH20 0xFFFFFFFFFFFFFFFFFFFFFFFFFFFFFFFFFFFFFFFF AND PUSH20 0xFFFFFFFFFFFFFFFFFFFFFFFFFFFFFFFFFFFFFFFF AND DUP2 MSTORE PUSH1 0x20 ADD SWAP1 DUP2 MSTORE PUSH1 0x20 ADD PUSH0 KECCAK256 PUSH0 DUP4 PUSH20 0xFFFFFFFFFFFFFFFFFFFFFFFFFFFFFFFFFFFFFFFF AND PUSH20 0xFFFFFFFFFFFFFFFFFFFFFFFFFFFFFFFFFFFFFFFF AND DUP2 MSTORE PUSH1 0x20 ADD SWAP1 DUP2 MSTORE PUSH1 0x20 ADD PUSH0 KECCAK256 SWAP1 POP DUP2 DUP2 PUSH1 0x2 ADD PUSH0 SWAP1 SLOAD SWAP1 PUSH2 0x100 EXP SWAP1 DIV PUSH1 0xFF AND SWAP4 POP SWAP4 POP POP POP SWAP4 POP SWAP4 SWAP2 POP POP JUMP JUMPDEST PUSH32 0x0 DUP2 JUMP JUMPDEST PUSH0 PUSH1 0x2 PUSH0 CALLER PUSH20 0xFFFFFFFFFFFFFFFFFFFFFFFFFFFFFFFFFFFFFFFF AND PUSH20 0xFFFFFFFFFFFFFFFFFFFFFFFFFFFFFFFFFFFFFFFF AND DUP2 MSTORE PUSH1 0x20 ADD SWAP1 DUP2 MSTORE PUSH1 0x20 ADD PUSH0 KECCAK256 PUSH0 DUP4 PUSH20 0xFFFFFFFFFFFFFFFFFFFFFFFFFFFFFFFFFFFFFFFF AND PUSH20 0xFFFFFFFFFFFFFFFFFFFFFFFFFFFFFFFFFFFFFFFF AND DUP2 MSTORE PUSH1 0x20 ADD SWAP1 DUP2 MSTORE PUSH1 0x20 ADD PUSH0 KECCAK256 SWAP1 POP DUP1 PUSH1 0x2 ADD PUSH0 SWAP1 SLOAD SWAP1 PUSH2 0x100 EXP SWAP1 DIV PUSH1 0xFF AND PUSH2 0x1855 JUMPI PUSH1 0x40 MLOAD PUSH32 0xDA2B2F1300000000000000000000000000000000000000000000000000000000 DUP2 MSTORE PUSH1 0x4 ADD PUSH1 0x40 MLOAD DUP1 SWAP2 SUB SWAP1 REVERT JUMPDEST PUSH0 PUSH2 0x18E8 DUP3 PUSH0 ADD DUP1 SLOAD PUSH2 0x1867 SWAP1 PUSH2 0x274B JUMP JUMPDEST DUP1 PUSH1 0x1F ADD PUSH1 0x20 DUP1 SWAP2 DIV MUL PUSH1 0x20 ADD PUSH1 0x40 MLOAD SWAP1 DUP2 ADD PUSH1 0x40 MSTORE DUP1 SWAP3 SWAP2 SWAP1 DUP2 DUP2 MSTORE PUSH1 0x20 ADD DUP3 DUP1 SLOAD PUSH2 0x1893 SWAP1 PUSH2 0x274B JUMP JUMPDEST DUP1 ISZERO PUSH2 0x18DE JUMPI DUP1 PUSH1 0x1F LT PUSH2 0x18B5 JUMPI PUSH2 0x100 DUP1 DUP4 SLOAD DIV MUL DUP4 MSTORE SWAP2 PUSH1 0x20 ADD SWAP2 PUSH2 0x18DE JUMP JUMPDEST DUP3 ADD SWAP2 SWAP1 PUSH0 MSTORE PUSH1 0x20 PUSH0 KECCAK256 SWAP1 JUMPDEST DUP2 SLOAD DUP2 MSTORE SWAP1 PUSH1 0x1 ADD SWAP1 PUSH1 0x20 ADD DUP1 DUP4 GT PUSH2 0x18C1 JUMPI DUP3 SWAP1 SUB PUSH1 0x1F AND DUP3 ADD SWAP2 JUMPDEST POP POP POP POP POP PUSH2 0x20DA JUMP JUMPDEST SWAP1 POP DUP3 PUSH20 0xFFFFFFFFFFFFFFFFFFFFFFFFFFFFFFFFFFFFFFFF AND PUSH1 0x3 PUSH0 CALLER PUSH20 0xFFFFFFFFFFFFFFFFFFFFFFFFFFFFFFFFFFFFFFFF AND PUSH20 0xFFFFFFFFFFFFFFFFFFFFFFFFFFFFFFFFFFFFFFFF AND DUP2 MSTORE PUSH1 0x20 ADD SWAP1 DUP2 MSTORE PUSH1 0x20 ADD PUSH0 KECCAK256 PUSH0 DUP4 DUP2 MSTORE PUSH1 0x20 ADD SWAP1 DUP2 MSTORE PUSH1 0x20 ADD PUSH0 KECCAK256 PUSH0 SWAP1 SLOAD SWAP1 PUSH2 0x100 EXP SWAP1 DIV PUSH20 0xFFFFFFFFFFFFFFFFFFFFFFFFFFFFFFFFFFFFFFFF AND PUSH20 0xFFFFFFFFFFFFFFFFFFFFFFFFFFFFFFFFFFFFFFFF AND SUB PUSH2 0x19F7 JUMPI PUSH1 0x3 PUSH0 CALLER PUSH20 0xFFFFFFFFFFFFFFFFFFFFFFFFFFFFFFFFFFFFFFFF AND PUSH20 0xFFFFFFFFFFFFFFFFFFFFFFFFFFFFFFFFFFFFFFFF AND DUP2 MSTORE PUSH1 0x20 ADD SWAP1 DUP2 MSTORE PUSH1 0x20 ADD PUSH0 KECCAK256 PUSH0 DUP3 DUP2 MSTORE PUSH1 0x20 ADD SWAP1 DUP2 MSTORE PUSH1 0x20 ADD PUSH0 KECCAK256 PUSH0 PUSH2 0x100 EXP DUP2 SLOAD SWAP1 PUSH20 0xFFFFFFFFFFFFFFFFFFFFFFFFFFFFFFFFFFFFFFFF MUL NOT AND SWAP1 SSTORE JUMPDEST PUSH0 DUP3 PUSH0 ADD DUP1 SLOAD PUSH2 0x1A06 SWAP1 PUSH2 0x274B JUMP JUMPDEST DUP1 PUSH1 0x1F ADD PUSH1 0x20 DUP1 SWAP2 DIV MUL PUSH1 0x20 ADD PUSH1 0x40 MLOAD SWAP1 DUP2 ADD PUSH1 0x40 MSTORE DUP1 SWAP3 SWAP2 SWAP1 DUP2 DUP2 MSTORE PUSH1 0x20 ADD DUP3 DUP1 SLOAD PUSH2 0x1A32 SWAP1 PUSH2 0x274B JUMP JUMPDEST DUP1 ISZERO PUSH2 0x1A7D JUMPI DUP1 PUSH1 0x1F LT PUSH2 0x1A54 JUMPI PUSH2 0x100 DUP1 DUP4 SLOAD DIV MUL DUP4 MSTORE SWAP2 PUSH1 0x20 ADD SWAP2 PUSH2 0x1A7D JUMP JUMPDEST DUP3 ADD SWAP2 SWAP1 PUSH0 MSTORE PUSH1 0x20 PUSH0 KECCAK256 SWAP1 JUMPDEST DUP2 SLOAD DUP2 MSTORE SWAP1 PUSH1 0x1 ADD SWAP1 PUSH1 0x20 ADD DUP1 DUP4 GT PUSH2 0x1A60 JUMPI DUP3 SWAP1 SUB PUSH1 0x1F AND DUP3 ADD SWAP2 JUMPDEST POP POP POP POP POP SWAP1 POP PUSH1 0x2 PUSH0 CALLER PUSH20 0xFFFFFFFFFFFFFFFFFFFFFFFFFFFFFFFFFFFFFFFF AND PUSH20 0xFFFFFFFFFFFFFFFFFFFFFFFFFFFFFFFFFFFFFFFF AND DUP2 MSTORE PUSH1 0x20 ADD SWAP1 DUP2 MSTORE PUSH1 0x20 ADD PUSH0 KECCAK256 PUSH0 DUP6 PUSH20 0xFFFFFFFFFFFFFFFFFFFFFFFFFFFFFFFFFFFFFFFF AND PUSH20 0xFFFFFFFFFFFFFFFFFFFFFFFFFFFFFFFFFFFFFFFF AND DUP2 MSTORE PUSH1 0x20 ADD SWAP1 DUP2 MSTORE PUSH1 0x20 ADD PUSH0 KECCAK256 PUSH0 PUSH0 DUP3 ADD PUSH0 PUSH2 0x1B0B SWAP2 SWAP1 PUSH2 0x2284 JUMP JUMPDEST PUSH1 0x1 DUP3 ADD PUSH0 SWAP1 SSTORE PUSH1 0x2 DUP3 ADD PUSH0 PUSH2 0x100 EXP DUP2 SLOAD SWAP1 PUSH1 0xFF MUL NOT AND SWAP1 SSTORE POP POP DUP4 PUSH20 0xFFFFFFFFFFFFFFFFFFFFFFFFFFFFFFFFFFFFFFFF AND CALLER PUSH20 0xFFFFFFFFFFFFFFFFFFFFFFFFFFFFFFFFFFFFFFFF AND PUSH32 0xE5A25C298748D4CEBCA849EBDBF68023DAC253726538ECE59DC0313B6E6839B2 DUP4 PUSH1 0x40 MLOAD PUSH2 0x1B84 SWAP2 SWAP1 PUSH2 0x26FE JUMP JUMPDEST PUSH1 0x40 MLOAD DUP1 SWAP2 SUB SWAP1 LOG3 POP POP POP POP JUMP JUMPDEST CALLVALUE PUSH0 DUP2 SUB PUSH2 0x1BCC JUMPI PUSH1 0x40 MLOAD PUSH32 0x6B388CC800000000000000000000000000000000000000000000000000000000 DUP2 MSTORE PUSH1 0x4 ADD PUSH1 0x40 MLOAD DUP1 SWAP2 SUB SWAP1 REVERT JUMPDEST PUSH0 CALLVALUE SWAP1 POP PUSH0 PUSH1 0x6 SLOAD PUSH32 0x0 PUSH2 0x1BFF SWAP2 SWAP1 PUSH2 0x27CF JUMP JUMPDEST SWAP1 POP PUSH1 0x9 PUSH0 SWAP1 SLOAD SWAP1 PUSH2 0x100 EXP SWAP1 DIV PUSH1 0xFF AND ISZERO PUSH2 0x1C47 JUMPI PUSH1 0x40 MLOAD PUSH32 0x79FC1ABC00000000000000000000000000000000000000000000000000000000 DUP2 MSTORE PUSH1 0x4 ADD PUSH1 0x40 MLOAD DUP1 SWAP2 SUB SWAP1 REVERT JUMPDEST DUP1 DUP3 GT ISZERO PUSH2 0x1C8E JUMPI DUP2 DUP2 PUSH1 0x40 MLOAD PUSH32 0x82D40BD900000000000000000000000000000000000000000000000000000000 DUP2 MSTORE PUSH1 0x4 ADD PUSH2 0x1C85 SWAP3 SWAP2 SWAP1 PUSH2 0x277B JUMP JUMPDEST PUSH1 0x40 MLOAD DUP1 SWAP2 SUB SWAP1 REVERT JUMPDEST DUP2 PUSH1 0x5 PUSH0 CALLER PUSH20 0xFFFFFFFFFFFFFFFFFFFFFFFFFFFFFFFFFFFFFFFF AND PUSH20 0xFFFFFFFFFFFFFFFFFFFFFFFFFFFFFFFFFFFFFFFF AND DUP2 MSTORE PUSH1 0x20 ADD SWAP1 DUP2 MSTORE PUSH1 0x20 ADD PUSH0 KECCAK256 PUSH0 DUP3 DUP3 SLOAD PUSH2 0x1CDA SWAP2 SWAP1 PUSH2 0x2802 JUMP JUMPDEST SWAP3 POP POP DUP2 SWAP1 SSTORE POP DUP2 PUSH1 0x6 PUSH0 DUP3 DUP3 SLOAD PUSH2 0x1CF2 SWAP2 SWAP1 PUSH2 0x2802 JUMP JUMPDEST SWAP3 POP POP DUP2 SWAP1 SSTORE POP PUSH2 0x1D01 PUSH2 0x21A8 JUMP JUMPDEST CALLER PUSH20 0xFFFFFFFFFFFFFFFFFFFFFFFFFFFFFFFFFFFFFFFF AND PUSH32 0x90890809C654F11D6E72A28FA60149770A0D11EC6C92319D6CEB2BB0A4EA1A15 DUP4 PUSH1 0x5 PUSH0 CALLER PUSH20 0xFFFFFFFFFFFFFFFFFFFFFFFFFFFFFFFFFFFFFFFF AND PUSH20 0xFFFFFFFFFFFFFFFFFFFFFFFFFFFFFFFFFFFFFFFF AND DUP2 MSTORE PUSH1 0x20 ADD SWAP1 DUP2 MSTORE PUSH1 0x20 ADD PUSH0 KECCAK256 SLOAD PUSH1 0x40 MLOAD PUSH2 0x1D86 SWAP3 SWAP2 SWAP1 PUSH2 0x277B JUMP JUMPDEST PUSH1 0x40 MLOAD DUP1 SWAP2 SUB SWAP1 LOG2 POP POP POP JUMP JUMPDEST PUSH0 PUSH1 0x5 PUSH0 DUP4 PUSH20 0xFFFFFFFFFFFFFFFFFFFFFFFFFFFFFFFFFFFFFFFF AND PUSH20 0xFFFFFFFFFFFFFFFFFFFFFFFFFFFFFFFFFFFFFFFF AND DUP2 MSTORE PUSH1 0x20 ADD SWAP1 DUP2 MSTORE PUSH1 0x20 ADD PUSH0 KECCAK256 SLOAD SWAP1 POP SWAP2 SWAP1 POP JUMP JUMPDEST PUSH0 PUSH1 0x1 PUSH0 SWAP1 SLOAD SWAP1 PUSH2 0x100 EXP SWAP1 DIV PUSH20 0xFFFFFFFFFFFFFFFFFFFFFFFFFFFFFFFFFFFFFFFF AND SWAP1 POP SWAP1 JUMP JUMPDEST PUSH0 PUSH1 0x2 PUSH0 CALLER PUSH20 0xFFFFFFFFFFFFFFFFFFFFFFFFFFFFFFFFFFFFFFFF AND PUSH20 0xFFFFFFFFFFFFFFFFFFFFFFFFFFFFFFFFFFFFFFFF AND DUP2 MSTORE PUSH1 0x20 ADD SWAP1 DUP2 MSTORE PUSH1 0x20 ADD PUSH0 KECCAK256 PUSH0 DUP5 PUSH20 0xFFFFFFFFFFFFFFFFFFFFFFFFFFFFFFFFFFFFFFFF AND PUSH20 0xFFFFFFFFFFFFFFFFFFFFFFFFFFFFFFFFFFFFFFFF AND DUP2 MSTORE PUSH1 0x20 ADD SWAP1 DUP2 MSTORE PUSH1 0x20 ADD PUSH0 KECCAK256 SWAP1 POP DUP1 PUSH1 0x2 ADD PUSH0 SWAP1 SLOAD SWAP1 PUSH2 0x100 EXP SWAP1 DIV PUSH1 0xFF AND PUSH2 0x1EC3 JUMPI PUSH1 0x40 MLOAD PUSH32 0xDA2B2F1300000000000000000000000000000000000000000000000000000000 DUP2 MSTORE PUSH1 0x4 ADD PUSH1 0x40 MLOAD DUP1 SWAP2 SUB SWAP1 REVERT JUMPDEST DUP2 DUP2 PUSH1 0x1 ADD DUP2 SWAP1 SSTORE POP DUP3 PUSH20 0xFFFFFFFFFFFFFFFFFFFFFFFFFFFFFFFFFFFFFFFF AND CALLER PUSH20 0xFFFFFFFFFFFFFFFFFFFFFFFFFFFFFFFFFFFFFFFF AND PUSH32 0x79BDF489B3A4E4F4C835420C6AA2BC4C1CD787D185D0E56E599A2C92FB88DC2E DUP5 PUSH1 0x40 MLOAD PUSH2 0x1F29 SWAP2 SWAP1 PUSH2 0x22F4 JUMP JUMPDEST PUSH1 0x40 MLOAD DUP1 SWAP2 SUB SWAP1 LOG3 POP POP POP JUMP JUMPDEST PUSH2 0x1F3E PUSH2 0x20EA JUMP JUMPDEST DUP1 PUSH1 0x1 PUSH0 PUSH2 0x100 EXP DUP2 SLOAD DUP2 PUSH20 0xFFFFFFFFFFFFFFFFFFFFFFFFFFFFFFFFFFFFFFFF MUL NOT AND SWAP1 DUP4 PUSH20 0xFFFFFFFFFFFFFFFFFFFFFFFFFFFFFFFFFFFFFFFF AND MUL OR SWAP1 SSTORE POP DUP1 PUSH20 0xFFFFFFFFFFFFFFFFFFFFFFFFFFFFFFFFFFFFFFFF AND PUSH2 0x1F9D PUSH2 0x1246 JUMP JUMPDEST PUSH20 0xFFFFFFFFFFFFFFFFFFFFFFFFFFFFFFFFFFFFFFFF AND PUSH32 0x38D16B8CAC22D99FC7C124B9CD0DE2D3FA1FAEF420BFE791D8C362D765E22700 PUSH1 0x40 MLOAD PUSH1 0x40 MLOAD DUP1 SWAP2 SUB SWAP1 LOG3 POP JUMP JUMPDEST PUSH1 0x40 MLOAD DUP1 PUSH1 0x40 ADD PUSH1 0x40 MSTORE DUP1 PUSH1 0xB DUP2 MSTORE PUSH1 0x20 ADD PUSH32 0x4B69707542616E6B207632000000000000000000000000000000000000000000 DUP2 MSTORE POP DUP2 JUMP JUMPDEST PUSH1 0x1 PUSH1 0x8 PUSH0 DUP3 DUP3 SLOAD PUSH2 0x202D SWAP2 SWAP1 PUSH2 0x2802 JUMP JUMPDEST SWAP3 POP POP DUP2 SWAP1 SSTORE POP JUMP JUMPDEST PUSH0 DUP3 PUSH20 0xFFFFFFFFFFFFFFFFFFFFFFFFFFFFFFFFFFFFFFFF AND DUP3 PUSH1 0x40 MLOAD PUSH2 0x205B SWAP1 PUSH2 0x2B68 JUMP JUMPDEST PUSH0 PUSH1 0x40 MLOAD DUP1 DUP4 SUB DUP2 DUP6 DUP8 GAS CALL SWAP3 POP POP POP RETURNDATASIZE DUP1 PUSH0 DUP2 EQ PUSH2 0x2095 JUMPI PUSH1 0x40 MLOAD SWAP2 POP PUSH1 0x1F NOT PUSH1 0x3F RETURNDATASIZE ADD AND DUP3 ADD PUSH1 0x40 MSTORE RETURNDATASIZE DUP3 MSTORE RETURNDATASIZE PUSH0 PUSH1 0x20 DUP5 ADD RETURNDATACOPY PUSH2 0x209A JUMP JUMPDEST PUSH1 0x60 SWAP2 POP JUMPDEST POP POP SWAP1 POP DUP1 PUSH2 0x20D5 JUMPI PUSH1 0x40 MLOAD PUSH32 0xCE534F4700000000000000000000000000000000000000000000000000000000 DUP2 MSTORE PUSH1 0x4 ADD PUSH1 0x40 MLOAD DUP1 SWAP2 SUB SWAP1 REVERT JUMPDEST POP POP POP JUMP JUMPDEST PUSH0 DUP2 DUP1 MLOAD SWAP1 PUSH1 0x20 ADD KECCAK256 SWAP1 POP SWAP2 SWAP1 POP JUMP JUMPDEST PUSH2 0x20F2 PUSH2 0x21A1 JUMP JUMPDEST PUSH20 0xFFFFFFFFFFFFFFFFFFFFFFFFFFFFFFFFFFFFFFFF AND PUSH2 0x2110 PUSH2 0x1246 JUMP JUMPDEST PUSH20 0xFFFFFFFFFFFFFFFFFFFFFFFFFFFFFFFFFFFFFFFF AND EQ PUSH2 0x216F JUMPI PUSH2 0x2133 PUSH2 0x21A1 JUMP JUMPDEST PUSH1 0x40 MLOAD PUSH32 0x118CDAA700000000000000000000000000000000000000000000000000000000 DUP2 MSTORE PUSH1 0x4 ADD PUSH2 0x2166 SWAP2 SWAP1 PUSH2 0x25D9 JUMP JUMPDEST PUSH1 0x40 MLOAD DUP1 SWAP2 SUB SWAP1 REVERT JUMPDEST JUMP JUMPDEST PUSH1 0x1 PUSH0 PUSH2 0x100 EXP DUP2 SLOAD SWAP1 PUSH20 0xFFFFFFFFFFFFFFFFFFFFFFFFFFFFFFFFFFFFFFFF MUL NOT AND SWAP1 SSTORE PUSH2 0x219E DUP2 PUSH2 0x21C3 JUMP JUMPDEST POP JUMP JUMPDEST PUSH0 CALLER SWAP1 POP SWAP1 JUMP JUMPDEST PUSH1 0x1 PUSH1 0x7 PUSH0 DUP3 DUP3 SLOAD PUSH2 0x21BA SWAP2 SWAP1 PUSH2 0x2802 JUMP JUMPDEST SWAP3 POP POP DUP2 SWAP1 SSTORE POP JUMP JUMPDEST PUSH0 PUSH0 PUSH0 SWAP1 SLOAD SWAP1 PUSH2 0x100 EXP SWAP1 DIV PUSH20 0xFFFFFFFFFFFFFFFFFFFFFFFFFFFFFFFFFFFFFFFF AND SWAP1 POP DUP2 PUSH0 PUSH0 PUSH2 0x100 EXP DUP2 SLOAD DUP2 PUSH20 0xFFFFFFFFFFFFFFFFFFFFFFFFFFFFFFFFFFFFFFFF MUL NOT AND SWAP1 DUP4 PUSH20 0xFFFFFFFFFFFFFFFFFFFFFFFFFFFFFFFFFFFFFFFF AND MUL OR SWAP1 SSTORE POP DUP2 PUSH20 0xFFFFFFFFFFFFFFFFFFFFFFFFFFFFFFFFFFFFFFFF AND DUP2 PUSH20 0xFFFFFFFFFFFFFFFFFFFFFFFFFFFFFFFFFFFFFFFF AND PUSH32 0x8BE0079C531659141344CD1FD0A4F28419497F9722A3DAAFE3B4186F6B6457E0 PUSH1 0x40 MLOAD PUSH1 0x40 MLOAD DUP1 SWAP2 SUB SWAP1 LOG3 POP POP JUMP JUMPDEST POP DUP1 SLOAD PUSH2 0x2290 SWAP1 PUSH2 0x274B JUMP JUMPDEST PUSH0 DUP3 SSTORE DUP1 PUSH1 0x1F LT PUSH2 0x22A1 JUMPI POP PUSH2 0x22BE JUMP JUMPDEST PUSH1 0x1F ADD PUSH1 0x20 SWAP1 DIV SWAP1 PUSH0 MSTORE PUSH1 0x20 PUSH0 KECCAK256 SWAP1 DUP2 ADD SWAP1 PUSH2 0x22BD SWAP2 SWAP1 PUSH2 0x22C1 JUMP JUMPDEST JUMPDEST POP JUMP JUMPDEST JUMPDEST DUP1 DUP3 GT ISZERO PUSH2 0x22D8 JUMPI PUSH0 DUP2 PUSH0 SWAP1 SSTORE POP PUSH1 0x1 ADD PUSH2 0x22C2 JUMP JUMPDEST POP SWAP1 JUMP JUMPDEST PUSH0 DUP2 SWAP1 POP SWAP2 SWAP1 POP JUMP JUMPDEST PUSH2 0x22EE DUP2 PUSH2 0x22DC JUMP JUMPDEST DUP3 MSTORE POP POP JUMP JUMPDEST PUSH0 PUSH1 0x20 DUP3 ADD SWAP1 POP PUSH2 0x2307 PUSH0 DUP4 ADD DUP5 PUSH2 0x22E5 JUMP JUMPDEST SWAP3 SWAP2 POP POP JUMP JUMPDEST PUSH0 PUSH0 REVERT JUMPDEST PUSH0 PUSH0 REVERT JUMPDEST PUSH0 PUSH20 0xFFFFFFFFFFFFFFFFFFFFFFFFFFFFFFFFFFFFFFFF DUP3 AND SWAP1 POP SWAP2 SWAP1 POP JUMP JUMPDEST PUSH0 PUSH2 0x233E DUP3 PUSH2 0x2315 JUMP JUMPDEST SWAP1 POP SWAP2 SWAP1 POP JUMP JUMPDEST PUSH2 0x234E DUP2 PUSH2 0x2334 JUMP JUMPDEST DUP2 EQ PUSH2 0x2358 JUMPI PUSH0 PUSH0 REVERT JUMPDEST POP JUMP JUMPDEST PUSH0 DUP2 CALLDATALOAD SWAP1 POP PUSH2 0x2369 DUP2 PUSH2 0x2345 JUMP JUMPDEST SWAP3 SWAP2 POP POP JUMP JUMPDEST PUSH0 PUSH0 PUSH1 0x40 DUP4 DUP6 SUB SLT ISZERO PUSH2 0x2385 JUMPI PUSH2 0x2384 PUSH2 0x230D JUMP JUMPDEST JUMPDEST PUSH0 PUSH2 0x2392 DUP6 DUP3 DUP7 ADD PUSH2 0x235B JUMP JUMPDEST SWAP3 POP POP PUSH1 0x20 PUSH2 0x23A3 DUP6 DUP3 DUP7 ADD PUSH2 0x235B JUMP JUMPDEST SWAP2 POP POP SWAP3 POP SWAP3 SWAP1 POP JUMP JUMPDEST PUSH0 DUP2 MLOAD SWAP1 POP SWAP2 SWAP1 POP JUMP JUMPDEST PUSH0 DUP3 DUP3 MSTORE PUSH1 0x20 DUP3 ADD SWAP1 POP SWAP3 SWAP2 POP POP JUMP JUMPDEST DUP3 DUP2 DUP4 MCOPY PUSH0 DUP4 DUP4 ADD MSTORE POP POP POP JUMP JUMPDEST PUSH0 PUSH1 0x1F NOT PUSH1 0x1F DUP4 ADD AND SWAP1 POP SWAP2 SWAP1 POP JUMP JUMPDEST PUSH0 PUSH2 0x23EF DUP3 PUSH2 0x23AD JUMP JUMPDEST PUSH2 0x23F9 DUP2 DUP6 PUSH2 0x23B7 JUMP JUMPDEST SWAP4 POP PUSH2 0x2409 DUP2 DUP6 PUSH1 0x20 DUP7 ADD PUSH2 0x23C7 JUMP JUMPDEST PUSH2 0x2412 DUP2 PUSH2 0x23D5 JUMP JUMPDEST DUP5 ADD SWAP2 POP POP SWAP3 SWAP2 POP POP JUMP JUMPDEST PUSH0 DUP2 ISZERO ISZERO SWAP1 POP SWAP2 SWAP1 POP JUMP JUMPDEST PUSH2 0x2431 DUP2 PUSH2 0x241D JUMP JUMPDEST DUP3 MSTORE POP POP JUMP JUMPDEST PUSH0 PUSH1 0x40 DUP3 ADD SWAP1 POP DUP2 DUP2 SUB PUSH0 DUP4 ADD MSTORE PUSH2 0x244F DUP2 DUP6 PUSH2 0x23E5 JUMP JUMPDEST SWAP1 POP PUSH2 0x245E PUSH1 0x20 DUP4 ADD DUP5 PUSH2 0x2428 JUMP JUMPDEST SWAP4 SWAP3 POP POP POP JUMP JUMPDEST PUSH2 0x246E DUP2 PUSH2 0x22DC JUMP JUMPDEST DUP2 EQ PUSH2 0x2478 JUMPI PUSH0 PUSH0 REVERT JUMPDEST POP JUMP JUMPDEST PUSH0 DUP2 CALLDATALOAD SWAP1 POP PUSH2 0x2489 DUP2 PUSH2 0x2465 JUMP JUMPDEST SWAP3 SWAP2 POP POP JUMP JUMPDEST PUSH0 PUSH1 0x20 DUP3 DUP5 SUB SLT ISZERO PUSH2 0x24A4 JUMPI PUSH2 0x24A3 PUSH2 0x230D JUMP JUMPDEST JUMPDEST PUSH0 PUSH2 0x24B1 DUP5 DUP3 DUP6 ADD PUSH2 0x247B JUMP JUMPDEST SWAP2 POP POP SWAP3 SWAP2 POP POP JUMP JUMPDEST PUSH0 PUSH0 PUSH1 0x40 DUP4 DUP6 SUB SLT ISZERO PUSH2 0x24D0 JUMPI PUSH2 0x24CF PUSH2 0x230D JUMP JUMPDEST JUMPDEST PUSH0 PUSH2 0x24DD DUP6 DUP3 DUP7 ADD PUSH2 0x235B JUMP JUMPDEST SWAP3 POP POP PUSH1 0x20 PUSH2 0x24EE DUP6 DUP3 DUP7 ADD PUSH2 0x247B JUMP JUMPDEST SWAP2 POP POP SWAP3 POP SWAP3 SWAP1 POP JUMP JUMPDEST PUSH0 PUSH0 REVERT JUMPDEST PUSH0 PUSH0 REVERT JUMPDEST PUSH0 PUSH0 REVERT JUMPDEST PUSH0 PUSH0 DUP4 PUSH1 0x1F DUP5 ADD SLT PUSH2 0x2519 JUMPI PUSH2 0x2518 PUSH2 0x24F8 JUMP JUMPDEST JUMPDEST DUP3 CALLDATALOAD SWAP1 POP PUSH8 0xFFFFFFFFFFFFFFFF DUP2 GT ISZERO PUSH2 0x2536 JUMPI PUSH2 0x2535 PUSH2 0x24FC JUMP JUMPDEST JUMPDEST PUSH1 0x20 DUP4 ADD SWAP2 POP DUP4 PUSH1 0x1 DUP3 MUL DUP4 ADD GT ISZERO PUSH2 0x2552 JUMPI PUSH2 0x2551 PUSH2 0x2500 JUMP JUMPDEST JUMPDEST SWAP3 POP SWAP3 SWAP1 POP JUMP JUMPDEST PUSH0 PUSH0 PUSH0 PUSH0 PUSH1 0x60 DUP6 DUP8 SUB SLT ISZERO PUSH2 0x2571 JUMPI PUSH2 0x2570 PUSH2 0x230D JUMP JUMPDEST JUMPDEST PUSH0 PUSH2 0x257E DUP8 DUP3 DUP9 ADD PUSH2 0x235B JUMP JUMPDEST SWAP5 POP POP PUSH1 0x20 DUP6 ADD CALLDATALOAD PUSH8 0xFFFFFFFFFFFFFFFF DUP2 GT ISZERO PUSH2 0x259F JUMPI PUSH2 0x259E PUSH2 0x2311 JUMP JUMPDEST JUMPDEST PUSH2 0x25AB DUP8 DUP3 DUP9 ADD PUSH2 0x2504 JUMP JUMPDEST SWAP4 POP SWAP4 POP POP PUSH1 0x40 PUSH2 0x25BE DUP8 DUP3 DUP9 ADD PUSH2 0x247B JUMP JUMPDEST SWAP2 POP POP SWAP3 SWAP6 SWAP2 SWAP5 POP SWAP3 POP JUMP JUMPDEST PUSH2 0x25D3 DUP2 PUSH2 0x2334 JUMP JUMPDEST DUP3 MSTORE POP POP JUMP JUMPDEST PUSH0 PUSH1 0x20 DUP3 ADD SWAP1 POP PUSH2 0x25EC PUSH0 DUP4 ADD DUP5 PUSH2 0x25CA JUMP JUMPDEST SWAP3 SWAP2 POP POP JUMP JUMPDEST PUSH0 PUSH0 PUSH0 PUSH1 0x40 DUP5 DUP7 SUB SLT ISZERO PUSH2 0x2609 JUMPI PUSH2 0x2608 PUSH2 0x230D JUMP JUMPDEST JUMPDEST PUSH0 DUP5 ADD CALLDATALOAD PUSH8 0xFFFFFFFFFFFFFFFF DUP2 GT ISZERO PUSH2 0x2626 JUMPI PUSH2 0x2625 PUSH2 0x2311 JUMP JUMPDEST JUMPDEST PUSH2 0x2632 DUP7 DUP3 DUP8 ADD PUSH2 0x2504 JUMP JUMPDEST SWAP4 POP SWAP4 POP POP PUSH1 0x20 PUSH2 0x2645 DUP7 DUP3 DUP8 ADD PUSH2 0x247B JUMP JUMPDEST SWAP2 POP POP SWAP3 POP SWAP3 POP SWAP3 JUMP JUMPDEST PUSH0 PUSH0 PUSH0 PUSH1 0x40 DUP5 DUP7 SUB SLT ISZERO PUSH2 0x2666 JUMPI PUSH2 0x2665 PUSH2 0x230D JUMP JUMPDEST JUMPDEST PUSH0 PUSH2 0x2673 DUP7 DUP3 DUP8 ADD PUSH2 0x235B JUMP JUMPDEST SWAP4 POP POP PUSH1 0x20 DUP5 ADD CALLDATALOAD PUSH8 0xFFFFFFFFFFFFFFFF DUP2 GT ISZERO PUSH2 0x2694 JUMPI PUSH2 0x2693 PUSH2 0x2311 JUMP JUMPDEST JUMPDEST PUSH2 0x26A0 DUP7 DUP3 DUP8 ADD PUSH2 0x2504 JUMP JUMPDEST SWAP3 POP SWAP3 POP POP SWAP3 POP SWAP3 POP SWAP3 JUMP JUMPDEST PUSH0 PUSH1 0x40 DUP3 ADD SWAP1 POP PUSH2 0x26BF PUSH0 DUP4 ADD DUP6 PUSH2 0x25CA JUMP JUMPDEST PUSH2 0x26CC PUSH1 0x20 DUP4 ADD DUP5 PUSH2 0x2428 JUMP JUMPDEST SWAP4 SWAP3 POP POP POP JUMP JUMPDEST PUSH0 PUSH1 0x20 DUP3 DUP5 SUB SLT ISZERO PUSH2 0x26E8 JUMPI PUSH2 0x26E7 PUSH2 0x230D JUMP JUMPDEST JUMPDEST PUSH0 PUSH2 0x26F5 DUP5 DUP3 DUP6 ADD PUSH2 0x235B JUMP JUMPDEST SWAP2 POP POP SWAP3 SWAP2 POP POP JUMP JUMPDEST PUSH0 PUSH1 0x20 DUP3 ADD SWAP1 POP DUP2 DUP2 SUB PUSH0 DUP4 ADD MSTORE PUSH2 0x2716 DUP2 DUP5 PUSH2 0x23E5 JUMP JUMPDEST SWAP1 POP SWAP3 SWAP2 POP POP JUMP JUMPDEST PUSH32 0x4E487B7100000000000000000000000000000000000000000000000000000000 PUSH0 MSTORE PUSH1 0x22 PUSH1 0x4 MSTORE PUSH1 0x24 PUSH0 REVERT JUMPDEST PUSH0 PUSH1 0x2 DUP3 DIV SWAP1 POP PUSH1 0x1 DUP3 AND DUP1 PUSH2 0x2762 JUMPI PUSH1 0x7F DUP3 AND SWAP2 POP JUMPDEST PUSH1 0x20 DUP3 LT DUP2 SUB PUSH2 0x2775 JUMPI PUSH2 0x2774 PUSH2 0x271E JUMP JUMPDEST JUMPDEST POP SWAP2 SWAP1 POP JUMP JUMPDEST PUSH0 PUSH1 0x40 DUP3 ADD SWAP1 POP PUSH2 0x278E PUSH0 DUP4 ADD DUP6 PUSH2 0x22E5 JUMP JUMPDEST PUSH2 0x279B PUSH1 0x20 DUP4 ADD DUP5 PUSH2 0x22E5 JUMP JUMPDEST SWAP4 SWAP3 POP POP POP JUMP JUMPDEST PUSH32 0x4E487B7100000000000000000000000000000000000000000000000000000000 PUSH0 MSTORE PUSH1 0x11 PUSH1 0x4 MSTORE PUSH1 0x24 PUSH0 REVERT JUMPDEST PUSH0 PUSH2 0x27D9 DUP3 PUSH2 0x22DC JUMP JUMPDEST SWAP2 POP PUSH2 0x27E4 DUP4 PUSH2 0x22DC JUMP JUMPDEST SWAP3 POP DUP3 DUP3 SUB SWAP1 POP DUP2 DUP2 GT ISZERO PUSH2 0x27FC JUMPI PUSH2 0x27FB PUSH2 0x27A2 JUMP JUMPDEST JUMPDEST SWAP3 SWAP2 POP POP JUMP JUMPDEST PUSH0 PUSH2 0x280C DUP3 PUSH2 0x22DC JUMP JUMPDEST SWAP2 POP PUSH2 0x2817 DUP4 PUSH2 0x22DC JUMP JUMPDEST SWAP3 POP DUP3 DUP3 ADD SWAP1 POP DUP1 DUP3 GT ISZERO PUSH2 0x282F JUMPI PUSH2 0x282E PUSH2 0x27A2 JUMP JUMPDEST JUMPDEST SWAP3 SWAP2 POP POP JUMP JUMPDEST PUSH32 0x4E487B7100000000000000000000000000000000000000000000000000000000 PUSH0 MSTORE PUSH1 0x41 PUSH1 0x4 MSTORE PUSH1 0x24 PUSH0 REVERT JUMPDEST PUSH0 DUP2 SWAP1 POP DUP2 PUSH0 MSTORE PUSH1 0x20 PUSH0 KECCAK256 SWAP1 POP SWAP2 SWAP1 POP JUMP JUMPDEST PUSH0 PUSH1 0x20 PUSH1 0x1F DUP4 ADD DIV SWAP1 POP SWAP2 SWAP1 POP JUMP JUMPDEST PUSH0 DUP3 DUP3 SHL SWAP1 POP SWAP3 SWAP2 POP POP JUMP JUMPDEST PUSH0 PUSH1 0x8 DUP4 MUL PUSH2 0x28BE PUSH32 0xFFFFFFFFFFFFFFFFFFFFFFFFFFFFFFFFFFFFFFFFFFFFFFFFFFFFFFFFFFFFFFFF DUP3 PUSH2 0x2883 JUMP JUMPDEST PUSH2 0x28C8 DUP7 DUP4 PUSH2 0x2883 JUMP JUMPDEST SWAP6 POP DUP1 NOT DUP5 AND SWAP4 POP DUP1 DUP7 AND DUP5 OR SWAP3 POP POP POP SWAP4 SWAP3 POP POP POP JUMP JUMPDEST PUSH0 DUP2 SWAP1 POP SWAP2 SWAP1 POP JUMP JUMPDEST PUSH0 PUSH2 0x2903 PUSH2 0x28FE PUSH2 0x28F9 DUP5 PUSH2 0x22DC JUMP JUMPDEST PUSH2 0x28E0 JUMP JUMPDEST PUSH2 0x22DC JUMP JUMPDEST SWAP1 POP SWAP2 SWAP1 POP JUMP JUMPDEST PUSH0 DUP2 SWAP1 POP SWAP2 SWAP1 POP JUMP JUMPDEST PUSH2 0x291C DUP4 PUSH2 0x28E9 JUMP JUMPDEST PUSH2 0x2930 PUSH2 0x2928 DUP3 PUSH2 0x290A JUMP JUMPDEST DUP5 DUP5 SLOAD PUSH2 0x288F JUMP JUMPDEST DUP3 SSTORE POP POP POP POP JUMP JUMPDEST PUSH0 PUSH0 SWAP1 POP SWAP1 JUMP JUMPDEST PUSH2 0x2947 PUSH2 0x2938 JUMP JUMPDEST PUSH2 0x2952 DUP2 DUP5 DUP5 PUSH2 0x2913 JUMP JUMPDEST POP POP POP JUMP JUMPDEST JUMPDEST DUP2 DUP2 LT ISZERO PUSH2 0x2975 JUMPI PUSH2 0x296A PUSH0 DUP3 PUSH2 0x293F JUMP JUMPDEST PUSH1 0x1 DUP2 ADD SWAP1 POP PUSH2 0x2958 JUMP JUMPDEST POP POP JUMP JUMPDEST PUSH1 0x1F DUP3 GT ISZERO PUSH2 0x29BA JUMPI PUSH2 0x298B DUP2 PUSH2 0x2862 JUMP JUMPDEST PUSH2 0x2994 DUP5 PUSH2 0x2874 JUMP JUMPDEST DUP2 ADD PUSH1 0x20 DUP6 LT ISZERO PUSH2 0x29A3 JUMPI DUP2 SWAP1 POP JUMPDEST PUSH2 0x29B7 PUSH2 0x29AF DUP6 PUSH2 0x2874 JUMP JUMPDEST DUP4 ADD DUP3 PUSH2 0x2957 JUMP JUMPDEST POP POP JUMPDEST POP POP POP JUMP JUMPDEST PUSH0 DUP3 DUP3 SHR SWAP1 POP SWAP3 SWAP2 POP POP JUMP JUMPDEST PUSH0 PUSH2 0x29DA PUSH0 NOT DUP5 PUSH1 0x8 MUL PUSH2 0x29BF JUMP JUMPDEST NOT DUP1 DUP4 AND SWAP2 POP POP SWAP3 SWAP2 POP POP JUMP JUMPDEST PUSH0 PUSH2 0x29F2 DUP4 DUP4 PUSH2 0x29CB JUMP JUMPDEST SWAP2 POP DUP3 PUSH1 0x2 MUL DUP3 OR SWAP1 POP SWAP3 SWAP2 POP POP JUMP JUMPDEST PUSH2 0x2A0B DUP3 PUSH2 0x23AD JUMP JUMPDEST PUSH8 0xFFFFFFFFFFFFFFFF DUP2 GT ISZERO PUSH2 0x2A24 JUMPI PUSH2 0x2A23 PUSH2 0x2835 JUMP JUMPDEST JUMPDEST PUSH2 0x2A2E DUP3 SLOAD PUSH2 0x274B JUMP JUMPDEST PUSH2 0x2A39 DUP3 DUP3 DUP6 PUSH2 0x2979 JUMP JUMPDEST PUSH0 PUSH1 0x20 SWAP1 POP PUSH1 0x1F DUP4 GT PUSH1 0x1 DUP2 EQ PUSH2 0x2A6A JUMPI PUSH0 DUP5 ISZERO PUSH2 0x2A58 JUMPI DUP3 DUP8 ADD MLOAD SWAP1 POP JUMPDEST PUSH2 0x2A62 DUP6 DUP3 PUSH2 0x29E7 JUMP JUMPDEST DUP7 SSTORE POP PUSH2 0x2AC9 JUMP JUMPDEST PUSH1 0x1F NOT DUP5 AND PUSH2 0x2A78 DUP7 PUSH2 0x2862 JUMP JUMPDEST PUSH0 JUMPDEST DUP3 DUP2 LT ISZERO PUSH2 0x2A9F JUMPI DUP5 DUP10 ADD MLOAD DUP3 SSTORE PUSH1 0x1 DUP3 ADD SWAP2 POP PUSH1 0x20 DUP6 ADD SWAP5 POP PUSH1 0x20 DUP2 ADD SWAP1 POP PUSH2 0x2A7A JUMP JUMPDEST DUP7 DUP4 LT ISZERO PUSH2 0x2ABC JUMPI DUP5 DUP10 ADD MLOAD PUSH2 0x2AB8 PUSH1 0x1F DUP10 AND DUP3 PUSH2 0x29CB JUMP JUMPDEST DUP4 SSTORE POP JUMPDEST PUSH1 0x1 PUSH1 0x2 DUP9 MUL ADD DUP9 SSTORE POP POP POP JUMPDEST POP POP POP POP POP POP JUMP JUMPDEST DUP3 DUP2 DUP4 CALLDATACOPY PUSH0 DUP4 DUP4 ADD MSTORE POP POP POP JUMP JUMPDEST PUSH0 PUSH2 0x2AEA DUP4 DUP6 PUSH2 0x23B7 JUMP JUMPDEST SWAP4 POP PUSH2 0x2AF7 DUP4 DUP6 DUP5 PUSH2 0x2AD1 JUMP JUMPDEST PUSH2 0x2B00 DUP4 PUSH2 0x23D5 JUMP JUMPDEST DUP5 ADD SWAP1 POP SWAP4 SWAP3 POP POP POP JUMP JUMPDEST PUSH0 PUSH1 0x40 DUP3 ADD SWAP1 POP DUP2 DUP2 SUB PUSH0 DUP4 ADD MSTORE PUSH2 0x2B24 DUP2 DUP6 DUP8 PUSH2 0x2ADF JUMP JUMPDEST SWAP1 POP PUSH2 0x2B33 PUSH1 0x20 DUP4 ADD DUP5 PUSH2 0x22E5 JUMP JUMPDEST SWAP5 SWAP4 POP POP POP POP JUMP JUMPDEST PUSH0 DUP2 SWAP1 POP SWAP3 SWAP2 POP POP JUMP JUMPDEST POP JUMP JUMPDEST PUSH0 PUSH2 0x2B53 PUSH0 DUP4 PUSH2 0x2B3B JUMP JUMPDEST SWAP2 POP PUSH2 0x2B5E DUP3 PUSH2 0x2B45 JUMP JUMPDEST PUSH0 DUP3 ADD SWAP1 POP SWAP2 SWAP1 POP JUMP JUMPDEST PUSH0 PUSH2 0x2B72 DUP3 PUSH2 0x2B48 JUMP JUMPDEST SWAP2 POP DUP2 SWAP1 POP SWAP2 SWAP1 POP JUMP INVALID LOG2 PUSH5 0x6970667358 0x22 SLT KECCAK256 PUSH12 0xE351A037CD66A8606F03A3FF PUSH31 0xDCB2EB175324C50B9E7616E03FAFB01F212E64736F6C634300081E00330000 "
				},
				"gasEstimates": {
					"creation": {
						"codeDepositCost": "2237200",
						"executionCost": "infinite",
						"totalCost": "infinite"
					},
					"external": {
						"": "263",
						"BANK_CAP()": "infinite",
						"VERSION()": "infinite",
						"WITHDRAW_LIMIT()": "infinite",
						"acceptOwnership()": "54758",
						"deposit()": "infinite",
						"depositCount()": "2515",
						"getBankTotalBalance()": "2500",
						"getContact(address,address)": "infinite",
						"getContactByAlias(address,string)": "infinite",
						"getVaultBalance(address)": "2873",
						"owner()": "2537",
						"pendingOwner()": "2581",
						"removeContact(address)": "infinite",
						"renounceOwnership()": "infinite",
						"setContact(address,string,uint256)": "infinite",
						"transferOwnership(address)": "infinite",
						"transferToAlias(string,uint256)": "infinite",
						"transferToContact(address,uint256)": "infinite",
						"updateContactLimit(address,uint256)": "infinite",
						"withdraw(uint256)": "infinite",
						"withdrawCount()": "2470"
					},
					"internal": {
						"_aliasKey(string memory)": "infinite",
						"_incrementDepositCount()": "infinite",
						"_incrementWithdrawCount()": "infinite",
						"_safeTransfer(address payable,uint256)": "infinite"
					}
				},
				"methodIdentifiers": {
					"BANK_CAP()": "0dbad953",
					"VERSION()": "ffa1ad74",
					"WITHDRAW_LIMIT()": "94c2c612",
					"acceptOwnership()": "79ba5097",
					"deposit()": "d0e30db0",
					"depositCount()": "2dfdf0b5",
					"getBankTotalBalance()": "22bc56bd",
					"getContact(address,address)": "197e2b31",
					"getContactByAlias(address,string)": "92b4f898",
					"getVaultBalance(address)": "d3d7c002",
					"owner()": "8da5cb5b",
					"pendingOwner()": "e30c3978",
					"removeContact(address)": "a6a66072",
					"renounceOwnership()": "715018a6",
					"setContact(address,string,uint256)": "5dd387b8",
					"transferOwnership(address)": "f2fde38b",
					"transferToAlias(string,uint256)": "8e0a3004",
					"transferToContact(address,uint256)": "4a2ecf9e",
					"updateContactLimit(address,uint256)": "ea402b41",
					"withdraw(uint256)": "2e1a7d4d",
					"withdrawCount()": "4cc05a71"
				}
			},
			"storageLayout": {
				"storage": [
					{
						"astId": 54,
						"contract": "contracts/KipuBank.sol:KipuBank",
						"label": "_owner",
						"offset": 0,
						"slot": "0",
						"type": "t_address"
					},
					{
						"astId": 202,
						"contract": "contracts/KipuBank.sol:KipuBank",
						"label": "_pendingOwner",
						"offset": 0,
						"slot": "1",
						"type": "t_address"
					},
					{
						"astId": 337,
						"contract": "contracts/KipuBank.sol:KipuBank",
						"label": "_contacts",
						"offset": 0,
						"slot": "2",
						"type": "t_mapping(t_address,t_mapping(t_address,t_struct(Contact)330_storage))"
					},
					{
						"astId": 343,
						"contract": "contracts/KipuBank.sol:KipuBank",
						"label": "_aliasIndex",
						"offset": 0,
						"slot": "3",
						"type": "t_mapping(t_address,t_mapping(t_bytes32,t_address))"
					},
					{
						"astId": 348,
						"contract": "contracts/KipuBank.sol:KipuBank",
						"label": "_contactList",
						"offset": 0,
						"slot": "4",
						"type": "t_mapping(t_address,t_array(t_address)dyn_storage)"
					},
					{
						"astId": 352,
						"contract": "contracts/KipuBank.sol:KipuBank",
						"label": "_balances",
						"offset": 0,
						"slot": "5",
						"type": "t_mapping(t_address,t_uint256)"
					},
					{
						"astId": 354,
						"contract": "contracts/KipuBank.sol:KipuBank",
						"label": "_totalVaultBalance",
						"offset": 0,
						"slot": "6",
						"type": "t_uint256"
					},
					{
						"astId": 356,
						"contract": "contracts/KipuBank.sol:KipuBank",
						"label": "depositCount",
						"offset": 0,
						"slot": "7",
						"type": "t_uint256"
					},
					{
						"astId": 358,
						"contract": "contracts/KipuBank.sol:KipuBank",
						"label": "withdrawCount",
						"offset": 0,
						"slot": "8",
						"type": "t_uint256"
					},
					{
						"astId": 360,
						"contract": "contracts/KipuBank.sol:KipuBank",
						"label": "isPaused",
						"offset": 0,
						"slot": "9",
						"type": "t_bool"
					}
				],
				"types": {
					"t_address": {
						"encoding": "inplace",
						"label": "address",
						"numberOfBytes": "20"
					},
					"t_array(t_address)dyn_storage": {
						"base": "t_address",
						"encoding": "dynamic_array",
						"label": "address[]",
						"numberOfBytes": "32"
					},
					"t_bool": {
						"encoding": "inplace",
						"label": "bool",
						"numberOfBytes": "1"
					},
					"t_bytes32": {
						"encoding": "inplace",
						"label": "bytes32",
						"numberOfBytes": "32"
					},
					"t_mapping(t_address,t_array(t_address)dyn_storage)": {
						"encoding": "mapping",
						"key": "t_address",
						"label": "mapping(address => address[])",
						"numberOfBytes": "32",
						"value": "t_array(t_address)dyn_storage"
					},
					"t_mapping(t_address,t_mapping(t_address,t_struct(Contact)330_storage))": {
						"encoding": "mapping",
						"key": "t_address",
						"label": "mapping(address => mapping(address => struct KipuBank.Contact))",
						"numberOfBytes": "32",
						"value": "t_mapping(t_address,t_struct(Contact)330_storage)"
					},
					"t_mapping(t_address,t_mapping(t_bytes32,t_address))": {
						"encoding": "mapping",
						"key": "t_address",
						"label": "mapping(address => mapping(bytes32 => address))",
						"numberOfBytes": "32",
						"value": "t_mapping(t_bytes32,t_address)"
					},
					"t_mapping(t_address,t_struct(Contact)330_storage)": {
						"encoding": "mapping",
						"key": "t_address",
						"label": "mapping(address => struct KipuBank.Contact)",
						"numberOfBytes": "32",
						"value": "t_struct(Contact)330_storage"
					},
					"t_mapping(t_address,t_uint256)": {
						"encoding": "mapping",
						"key": "t_address",
						"label": "mapping(address => uint256)",
						"numberOfBytes": "32",
						"value": "t_uint256"
					},
					"t_mapping(t_bytes32,t_address)": {
						"encoding": "mapping",
						"key": "t_bytes32",
						"label": "mapping(bytes32 => address)",
						"numberOfBytes": "32",
						"value": "t_address"
					},
					"t_string_storage": {
						"encoding": "bytes",
						"label": "string",
						"numberOfBytes": "32"
					},
					"t_struct(Contact)330_storage": {
						"encoding": "inplace",
						"label": "struct KipuBank.Contact",
						"members": [
							{
								"astId": 325,
								"contract": "contracts/KipuBank.sol:KipuBank",
								"label": "alias_",
								"offset": 0,
								"slot": "0",
								"type": "t_string_storage"
							},
							{
								"astId": 327,
								"contract": "contracts/KipuBank.sol:KipuBank",
								"label": "limit",
								"offset": 0,
								"slot": "1",
								"type": "t_uint256"
							},
							{
								"astId": 329,
								"contract": "contracts/KipuBank.sol:KipuBank",
								"label": "exists",
								"offset": 0,
								"slot": "2",
								"type": "t_bool"
							}
						],
						"numberOfBytes": "96"
					},
					"t_uint256": {
						"encoding": "inplace",
						"label": "uint256",
						"numberOfBytes": "32"
					}
				}
			},
			"userdoc": {
				"kind": "user",
				"methods": {},
				"notice": "Simple vault-like bank donde usuarios depositan ETH en bóvedas personales.",
				"version": 1
			}
		}
	}
}