{
	"data": {
		"bytecode": {
			"linkReferences": {},
			"object": "60c060405234801561000f575f5ffd5b506040516154ff3803806154ff8339818101604052810190610031919061051c565b835f73ffffffffffffffffffffffffffffffffffffffff168173ffffffffffffffffffffffffffffffffffffffff16036100a2575f6040517f1e4fbdf7000000000000000000000000000000000000000000000000000000008152600401610099919061058f565b60405180910390fd5b6100b18161026a60201b60201c565b5060016003819055506100cc5f5f1b8561032b60201b60201c565b506100fd7f65d7a28e3265b37a6474929f336521b332c1681b933f6cb9f3376673440d862a8561032b60201b60201c565b5061012e7fbb4cf8e50e81e9742807782b2bc5c27c5a943f214ee0b993943eff5a774e555b8561032b60201b60201c565b5082608081815250508160a08181525050601260085f5f73ffffffffffffffffffffffffffffffffffffffff1673ffffffffffffffffffffffffffffffffffffffff1681526020019081526020015f205f6101000a81548160ff021916908360ff1602179055508060095f5f73ffffffffffffffffffffffffffffffffffffffff1673ffffffffffffffffffffffffffffffffffffffff1681526020019081526020015f205f6101000a81548173ffffffffffffffffffffffffffffffffffffffff021916908373ffffffffffffffffffffffffffffffffffffffff1602179055505f73ffffffffffffffffffffffffffffffffffffffff167fad641c56c3fb7d6db68a25f7a2df661de9f142cdca30280ab8c4a8566ba760a56012836040516102599291906105f6565b60405180910390a25050505061061d565b5f5f5f9054906101000a900473ffffffffffffffffffffffffffffffffffffffff169050815f5f6101000a81548173ffffffffffffffffffffffffffffffffffffffff021916908373ffffffffffffffffffffffffffffffffffffffff1602179055508173ffffffffffffffffffffffffffffffffffffffff168173ffffffffffffffffffffffffffffffffffffffff167f8be0079c531659141344cd1fd0a4f28419497f9722a3daafe3b4186f6b6457e060405160405180910390a35050565b5f61033c838361042060201b60201c565b610416576001805f8581526020019081526020015f205f015f8473ffffffffffffffffffffffffffffffffffffffff1673ffffffffffffffffffffffffffffffffffffffff1681526020019081526020015f205f6101000a81548160ff0219169083151502179055506103b361048460201b60201c565b73ffffffffffffffffffffffffffffffffffffffff168273ffffffffffffffffffffffffffffffffffffffff16847f2f8788117e7eff1d82e926ec794901d17c78024a50270940304540a733656f0d60405160405180910390a46001905061041a565b5f90505b92915050565b5f60015f8481526020019081526020015f205f015f8373ffffffffffffffffffffffffffffffffffffffff1673ffffffffffffffffffffffffffffffffffffffff1681526020019081526020015f205f9054906101000a900460ff16905092915050565b5f33905090565b5f5ffd5b5f73ffffffffffffffffffffffffffffffffffffffff82169050919050565b5f6104b88261048f565b9050919050565b6104c8816104ae565b81146104d2575f5ffd5b50565b5f815190506104e3816104bf565b92915050565b5f819050919050565b6104fb816104e9565b8114610505575f5ffd5b50565b5f81519050610516816104f2565b92915050565b5f5f5f5f608085870312156105345761053361048b565b5b5f610541878288016104d5565b945050602061055287828801610508565b935050604061056387828801610508565b9250506060610574878288016104d5565b91505092959194509250565b610589816104ae565b82525050565b5f6020820190506105a25f830184610580565b92915050565b5f819050919050565b5f60ff82169050919050565b5f819050919050565b5f6105e06105db6105d6846105a8565b6105bd565b6105b1565b9050919050565b6105f0816105c6565b82525050565b5f6040820190506106095f8301856105e7565b6106166020830184610580565b9392505050565b60805160a051614ea561065a5f395f818161173201528181612bfd0152612c2601525f81816123cb01528181613744015261376d0152614ea55ff3fe608060405260043610610228575f3560e01c8063912c267311610122578063cb150817116100aa578063f2fde38b1161006e578063f2fde38b14610879578063f3fef3a3146108a1578063f7888aec146108c9578063ff7cec6014610905578063ffa1ad74146109215761025f565b8063cb15081714610787578063d547741f146107c3578063e63ab1e9146107eb578063ea57882114610815578063eee41c03146108515761025f565b8063a217fddf116100f1578063a217fddf146106b9578063a6a66072146106e3578063ae2d4ebb1461070b578063c730895714610733578063c86e70641461075d5761025f565b8063912c2673146105c857806391d148541461060457806392b4f898146106405780639bbf2de61461067d5761025f565b806347e7ef24116101b05780635c975abb116101745780635c975abb1461050c578063715018a6146105365780638456cb591461054c5780638da5cb5b146105625780638ee573ac1461058c5761025f565b806347e7ef241461043857806348b21d55146104545780634a4e9e3c1461047c5780634cacfb93146104b85780635509a6ca146104e25761025f565b8063248a9ca3116101f7578063248a9ca31461036e5780632f2ff15d146103aa57806336568abe146103d25780633f4ba83a146103fa5780634739f7e5146104105761025f565b806301ffc9a7146102915780630ef0f0a9146102cd578063197e2b3114610309578063222f5be0146103465761025f565b3661025f576040517f9168bf9900000000000000000000000000000000000000000000000000000000815260040160405180910390fd5b6040517f9168bf9900000000000000000000000000000000000000000000000000000000815260040160405180910390fd5b34801561029c575f5ffd5b506102b760048036038101906102b29190613cae565b61094b565b6040516102c49190613cf3565b60405180910390f35b3480156102d8575f5ffd5b506102f360048036038101906102ee9190613d66565b6109c4565b6040516103009190613dec565b60405180910390f35b348015610314575f5ffd5b5061032f600480360381019061032a9190613e05565b6109f4565b60405161033d929190613eb3565b60405180910390f35b348015610351575f5ffd5b5061036c60048036038101906103679190613f14565b610b1c565b005b348015610379575f5ffd5b50610394600480360381019061038f9190613f97565b610f0e565b6040516103a19190613fd1565b60405180910390f35b3480156103b5575f5ffd5b506103d060048036038101906103cb9190613fea565b610f2b565b005b3480156103dd575f5ffd5b506103f860048036038101906103f39190613fea565b610f4d565b005b348015610405575f5ffd5b5061040e610fc8565b005b34801561041b575f5ffd5b5061043660048036038101906104319190613e05565b610ffd565b005b610452600480360381019061044d9190614028565b6112f7565b005b34801561045f575f5ffd5b5061047a60048036038101906104759190614028565b6115c0565b005b348015610487575f5ffd5b506104a2600480360381019061049d9190614066565b6116f5565b6040516104af91906140a0565b60405180910390f35b3480156104c3575f5ffd5b506104cc61172a565b6040516104d991906140a0565b60405180910390f35b3480156104ed575f5ffd5b506104f6611730565b60405161050391906140a0565b60405180910390f35b348015610517575f5ffd5b50610520611754565b60405161052d9190613cf3565b60405180910390f35b348015610541575f5ffd5b5061054a611769565b005b348015610557575f5ffd5b5061056061177c565b005b34801561056d575f5ffd5b506105766117b1565b60405161058391906140c8565b60405180910390f35b348015610597575f5ffd5b506105b260048036038101906105ad9190613d66565b6117d8565b6040516105bf91906140fc565b60405180910390f35b3480156105d3575f5ffd5b506105ee60048036038101906105e99190613d66565b6117f5565b6040516105fb91906140a0565b60405180910390f35b34801561060f575f5ffd5b5061062a60048036038101906106259190613fea565b61183b565b6040516106379190613cf3565b60405180910390f35b34801561064b575f5ffd5b5061066660048036038101906106619190614176565b61189f565b6040516106749291906141d3565b60405180910390f35b348015610688575f5ffd5b506106a3600480360381019061069e9190613d66565b6119c2565b6040516106b091906140a0565b60405180910390f35b3480156106c4575f5ffd5b506106cd611bba565b6040516106da9190613fd1565b60405180910390f35b3480156106ee575f5ffd5b5061070960048036038101906107049190613d66565b611bc0565b005b348015610716575f5ffd5b50610731600480360381019061072c91906141fa565b611f4c565b005b34801561073e575f5ffd5b506107476123c9565b60405161075491906140a0565b60405180910390f35b348015610768575f5ffd5b506107716123ed565b60405161077e9190613fd1565b60405180910390f35b348015610792575f5ffd5b506107ad60048036038101906107a89190614028565b612411565b6040516107ba91906140a0565b60405180910390f35b3480156107ce575f5ffd5b506107e960048036038101906107e49190613fea565b6124d6565b005b3480156107f6575f5ffd5b506107ff6124f8565b60405161080c9190613fd1565b60405180910390f35b348015610820575f5ffd5b5061083b60048036038101906108369190614028565b61251c565b60405161084891906140a0565b60405180910390f35b34801561085c575f5ffd5b506108776004803603810190610872919061426b565b6125a3565b005b348015610884575f5ffd5b5061089f600480360381019061089a9190613d66565b612b21565b005b3480156108ac575f5ffd5b506108c760048036038101906108c29190614028565b612ba5565b005b3480156108d4575f5ffd5b506108ef60048036038101906108ea9190613e05565b613025565b6040516108fc91906140a0565b60405180910390f35b61091f600480360381019061091a91906142ef565b6130a7565b005b34801561092c575f5ffd5b50610935613324565b604051610942919061432d565b60405180910390f35b5f7f7965db0b000000000000000000000000000000000000000000000000000000007bffffffffffffffffffffffffffffffffffffffffffffffffffffffff1916827bffffffffffffffffffffffffffffffffffffffffffffffffffffffff191614806109bd57506109bc8261335d565b5b9050919050565b6009602052805f5260405f205f915054906101000a900473ffffffffffffffffffffffffffffffffffffffff1681565b60605f5f60045f8673ffffffffffffffffffffffffffffffffffffffff1673ffffffffffffffffffffffffffffffffffffffff1681526020019081526020015f205f8573ffffffffffffffffffffffffffffffffffffffff1673ffffffffffffffffffffffffffffffffffffffff1681526020019081526020015f209050805f01816003015f9054906101000a900460ff16818054610a929061437a565b80601f0160208091040260200160405190810160405280929190818152602001828054610abe9061437a565b8015610b095780601f10610ae057610100808354040283529160200191610b09565b820191905f5260205f20905b815481529060010190602001808311610aec57829003601f168201915b5050505050915092509250509250929050565b610b246133c6565b5f8103610b5d576040517f608294ac00000000000000000000000000000000000000000000000000000000815260040160405180910390fd5b5f73ffffffffffffffffffffffffffffffffffffffff168373ffffffffffffffffffffffffffffffffffffffff1603610cb3575f60045f3373ffffffffffffffffffffffffffffffffffffffff1673ffffffffffffffffffffffffffffffffffffffff1681526020019081526020015f205f8473ffffffffffffffffffffffffffffffffffffffff1673ffffffffffffffffffffffffffffffffffffffff1681526020019081526020015f209050806003015f9054906101000a900460ff16610c52576040517fda2b2f1300000000000000000000000000000000000000000000000000000000815260040160405180910390fd5b5f816001015414158015610c695750806001015482115b15610cb1578181600101546040517fc96b3f29000000000000000000000000000000000000000000000000000000008152600401610ca89291906143aa565b60405180910390fd5b505b5f60065f8573ffffffffffffffffffffffffffffffffffffffff1673ffffffffffffffffffffffffffffffffffffffff1681526020019081526020015f205f3373ffffffffffffffffffffffffffffffffffffffff1673ffffffffffffffffffffffffffffffffffffffff1681526020019081526020015f2054905081811015610d765780826040517f9d2afa90000000000000000000000000000000000000000000000000000000008152600401610d6d9291906143aa565b60405180910390fd5b8181610d8291906143fe565b60065f8673ffffffffffffffffffffffffffffffffffffffff1673ffffffffffffffffffffffffffffffffffffffff1681526020019081526020015f205f3373ffffffffffffffffffffffffffffffffffffffff1673ffffffffffffffffffffffffffffffffffffffff1681526020019081526020015f20819055508160065f8673ffffffffffffffffffffffffffffffffffffffff1673ffffffffffffffffffffffffffffffffffffffff1681526020019081526020015f205f8573ffffffffffffffffffffffffffffffffffffffff1673ffffffffffffffffffffffffffffffffffffffff1681526020019081526020015f205f828254610e859190614431565b925050819055508273ffffffffffffffffffffffffffffffffffffffff163373ffffffffffffffffffffffffffffffffffffffff168573ffffffffffffffffffffffffffffffffffffffff167f77178bcf8f3c991d39734824771477a42787fe19b60d5a29c0ec72de167699b385604051610f0091906140a0565b60405180910390a450505050565b5f60015f8381526020019081526020015f20600101549050919050565b610f3482610f0e565b610f3d81613407565b610f47838361341b565b50505050565b610f55613504565b73ffffffffffffffffffffffffffffffffffffffff168173ffffffffffffffffffffffffffffffffffffffff1614610fb9576040517f6697b23200000000000000000000000000000000000000000000000000000000815260040160405180910390fd5b610fc3828261350b565b505050565b7f65d7a28e3265b37a6474929f336521b332c1681b933f6cb9f3376673440d862a610ff281613407565b610ffa6135f5565b50565b5f5f1b61100981613407565b5f73ffffffffffffffffffffffffffffffffffffffff168373ffffffffffffffffffffffffffffffffffffffff1603611077576040517f08c379a000000000000000000000000000000000000000000000000000000000815260040161106e906144ae565b60405180910390fd5b5f8373ffffffffffffffffffffffffffffffffffffffff1663313ce5676040518163ffffffff1660e01b8152600401602060405180830381865afa1580156110c1573d5f5f3e3d5ffd5b505050506040513d601f19601f820116820180604052508101906110e591906144f6565b90508060085f8673ffffffffffffffffffffffffffffffffffffffff1673ffffffffffffffffffffffffffffffffffffffff1681526020019081526020015f205f6101000a81548160ff021916908360ff1602179055505f60095f8673ffffffffffffffffffffffffffffffffffffffff1673ffffffffffffffffffffffffffffffffffffffff1681526020019081526020015f205f9054906101000a900473ffffffffffffffffffffffffffffffffffffffff1690508360095f8773ffffffffffffffffffffffffffffffffffffffff1673ffffffffffffffffffffffffffffffffffffffff1681526020019081526020015f205f6101000a81548173ffffffffffffffffffffffffffffffffffffffff021916908373ffffffffffffffffffffffffffffffffffffffff1602179055505f73ffffffffffffffffffffffffffffffffffffffff168173ffffffffffffffffffffffffffffffffffffffff160361129f578473ffffffffffffffffffffffffffffffffffffffff167fad641c56c3fb7d6db68a25f7a2df661de9f142cdca30280ab8c4a8566ba760a58386604051611292929190614521565b60405180910390a26112f0565b8473ffffffffffffffffffffffffffffffffffffffff167f321e37f6a0404dbaed483cc2ece840899199567b4a62f4639eff9587735b87fd82866040516112e7929190614548565b60405180910390a25b5050505050565b6112ff6133c6565b611307613656565b5f8103611340576040517f608294ac00000000000000000000000000000000000000000000000000000000815260040160405180910390fd5b5f73ffffffffffffffffffffffffffffffffffffffff168273ffffffffffffffffffffffffffffffffffffffff16036113ba578034146113b5576040517f08c379a00000000000000000000000000000000000000000000000000000000081526004016113ac906145b9565b60405180910390fd5b6113e8565b6113e73330838573ffffffffffffffffffffffffffffffffffffffff1661369c909392919063ffffffff16565b5b6113f48282600161371e565b8060065f8473ffffffffffffffffffffffffffffffffffffffff1673ffffffffffffffffffffffffffffffffffffffff1681526020019081526020015f205f3373ffffffffffffffffffffffffffffffffffffffff1673ffffffffffffffffffffffffffffffffffffffff1681526020019081526020015f205f82825461147b9190614431565b925050819055508060075f8473ffffffffffffffffffffffffffffffffffffffff1673ffffffffffffffffffffffffffffffffffffffff1681526020019081526020015f205f8282546114ce9190614431565b925050819055503373ffffffffffffffffffffffffffffffffffffffff168273ffffffffffffffffffffffffffffffffffffffff167fdcbc1c05240f31ff3ad067ef1ee35ce4997762752e3a095284754544f4c709d78360065f8773ffffffffffffffffffffffffffffffffffffffff1673ffffffffffffffffffffffffffffffffffffffff1681526020019081526020015f205f3373ffffffffffffffffffffffffffffffffffffffff1673ffffffffffffffffffffffffffffffffffffffff1681526020019081526020015f20546040516115ac9291906143aa565b60405180910390a36115bc613801565b5050565b5f60045f3373ffffffffffffffffffffffffffffffffffffffff1673ffffffffffffffffffffffffffffffffffffffff1681526020019081526020015f205f8473ffffffffffffffffffffffffffffffffffffffff1673ffffffffffffffffffffffffffffffffffffffff1681526020019081526020015f209050806003015f9054906101000a900460ff16611682576040517fda2b2f1300000000000000000000000000000000000000000000000000000000815260040160405180910390fd5b8181600101819055508273ffffffffffffffffffffffffffffffffffffffff163373ffffffffffffffffffffffffffffffffffffffff167f79bdf489b3a4e4f4c835420c6aa2bc4c1cd787d185d0e56e599a2c92fb88dc2e846040516116e891906140a0565b60405180910390a3505050565b5f5f6117005f6119c2565b905080600182670de0b6b3a76400008602010381611721576117206145d7565b5b04915050919050565b600a5481565b7f000000000000000000000000000000000000000000000000000000000000000081565b5f60025f9054906101000a900460ff16905090565b61177161380b565b61177a5f613892565b565b7f65d7a28e3265b37a6474929f336521b332c1681b933f6cb9f3376673440d862a6117a681613407565b6117ae613953565b50565b5f5f5f9054906101000a900473ffffffffffffffffffffffffffffffffffffffff16905090565b6008602052805f5260405f205f915054906101000a900460ff1681565b5f60075f8373ffffffffffffffffffffffffffffffffffffffff1673ffffffffffffffffffffffffffffffffffffffff1681526020019081526020015f20549050919050565b5f60015f8481526020019081526020015f205f015f8373ffffffffffffffffffffffffffffffffffffffff1673ffffffffffffffffffffffffffffffffffffffff1681526020019081526020015f205f9054906101000a900460ff16905092915050565b5f5f5f60055f8773ffffffffffffffffffffffffffffffffffffffff1673ffffffffffffffffffffffffffffffffffffffff1681526020019081526020015f205f86866040516118f0929190614640565b604051809103902081526020019081526020015f205f9054906101000a900473ffffffffffffffffffffffffffffffffffffffff1690505f60045f8873ffffffffffffffffffffffffffffffffffffffff1673ffffffffffffffffffffffffffffffffffffffff1681526020019081526020015f205f8373ffffffffffffffffffffffffffffffffffffffff1673ffffffffffffffffffffffffffffffffffffffff1681526020019081526020015f20905081816003015f9054906101000a900460ff16935093505050935093915050565b5f5f60095f8473ffffffffffffffffffffffffffffffffffffffff1673ffffffffffffffffffffffffffffffffffffffff1681526020019081526020015f205f9054906101000a900473ffffffffffffffffffffffffffffffffffffffff1690505f8173ffffffffffffffffffffffffffffffffffffffff1663feaf968c6040518163ffffffff1660e01b815260040160a060405180830381865afa158015611a6d573d5f5f3e3d5ffd5b505050506040513d601f19601f82011682018060405250810190611a9191906146de565b5050509150505f8113611ad0576040517ffd1ee34900000000000000000000000000000000000000000000000000000000815260040160405180910390fd5b5f8273ffffffffffffffffffffffffffffffffffffffff1663313ce5676040518163ffffffff1660e01b8152600401602060405180830381865afa158015611b1a573d5f5f3e3d5ffd5b505050506040513d601f19601f82011682018060405250810190611b3e91906144f6565b90505f82905060088260ff1614611bad5760088260ff1611611b8357816008611b679190614755565b600a611b7391906148b8565b81611b7e9190614902565b611ba8565b600882611b909190614755565b600a611b9c91906148b8565b81611ba79190614943565b5b611baf565b805b945050505050919050565b5f5f1b81565b5f60045f3373ffffffffffffffffffffffffffffffffffffffff1673ffffffffffffffffffffffffffffffffffffffff1681526020019081526020015f205f8373ffffffffffffffffffffffffffffffffffffffff1673ffffffffffffffffffffffffffffffffffffffff1681526020019081526020015f209050806003015f9054906101000a900460ff16611c82576040517fda2b2f1300000000000000000000000000000000000000000000000000000000815260040160405180910390fd5b5f815f01604051611c939190614a05565b604051809103902090508273ffffffffffffffffffffffffffffffffffffffff1660055f3373ffffffffffffffffffffffffffffffffffffffff1673ffffffffffffffffffffffffffffffffffffffff1681526020019081526020015f205f8381526020019081526020015f205f9054906101000a900473ffffffffffffffffffffffffffffffffffffffff1673ffffffffffffffffffffffffffffffffffffffff1603611daa5760055f3373ffffffffffffffffffffffffffffffffffffffff1673ffffffffffffffffffffffffffffffffffffffff1681526020019081526020015f205f8281526020019081526020015f205f6101000a81549073ffffffffffffffffffffffffffffffffffffffff02191690555b5f825f018054611db99061437a565b80601f0160208091040260200160405190810160405280929190818152602001828054611de59061437a565b8015611e305780601f10611e0757610100808354040283529160200191611e30565b820191905f5260205f20905b815481529060010190602001808311611e1357829003601f168201915b5050505050905060045f3373ffffffffffffffffffffffffffffffffffffffff1673ffffffffffffffffffffffffffffffffffffffff1681526020019081526020015f205f8573ffffffffffffffffffffffffffffffffffffffff1673ffffffffffffffffffffffffffffffffffffffff1681526020019081526020015f205f5f82015f611ebe9190613bf9565b600182015f9055600282015f9055600382015f6101000a81549060ff021916905550508373ffffffffffffffffffffffffffffffffffffffff163373ffffffffffffffffffffffffffffffffffffffff167fe5a25c298748d4cebca849ebdbf68023dac253726538ece59dc0313b6e6839b283604051611f3e919061432d565b60405180910390a350505050565b611f546133c6565b5f8103611f8d576040517f608294ac00000000000000000000000000000000000000000000000000000000815260040160405180910390fd5b5f60055f3373ffffffffffffffffffffffffffffffffffffffff1673ffffffffffffffffffffffffffffffffffffffff1681526020019081526020015f205f8585604051611fdc929190614640565b604051809103902081526020019081526020015f205f9054906101000a900473ffffffffffffffffffffffffffffffffffffffff1690505f60045f3373ffffffffffffffffffffffffffffffffffffffff1673ffffffffffffffffffffffffffffffffffffffff1681526020019081526020015f205f8373ffffffffffffffffffffffffffffffffffffffff1673ffffffffffffffffffffffffffffffffffffffff1681526020019081526020015f209050806003015f9054906101000a900460ff166120d5576040517fda2b2f1300000000000000000000000000000000000000000000000000000000815260040160405180910390fd5b5f73ffffffffffffffffffffffffffffffffffffffff168673ffffffffffffffffffffffffffffffffffffffff1614801561211457505f816001015414155b80156121235750806001015483115b1561216b578281600101546040517fc96b3f290000000000000000000000000000000000000000000000000000000081526004016121629291906143aa565b60405180910390fd5b5f60065f8873ffffffffffffffffffffffffffffffffffffffff1673ffffffffffffffffffffffffffffffffffffffff1681526020019081526020015f205f3373ffffffffffffffffffffffffffffffffffffffff1673ffffffffffffffffffffffffffffffffffffffff1681526020019081526020015f205490508381101561222e5780846040517f9d2afa900000000000000000000000000000000000000000000000000000000081526004016122259291906143aa565b60405180910390fd5b838161223a91906143fe565b60065f8973ffffffffffffffffffffffffffffffffffffffff1673ffffffffffffffffffffffffffffffffffffffff1681526020019081526020015f205f3373ffffffffffffffffffffffffffffffffffffffff1673ffffffffffffffffffffffffffffffffffffffff1681526020019081526020015f20819055508360065f8973ffffffffffffffffffffffffffffffffffffffff1673ffffffffffffffffffffffffffffffffffffffff1681526020019081526020015f205f8573ffffffffffffffffffffffffffffffffffffffff1673ffffffffffffffffffffffffffffffffffffffff1681526020019081526020015f205f82825461233d9190614431565b925050819055508273ffffffffffffffffffffffffffffffffffffffff163373ffffffffffffffffffffffffffffffffffffffff168873ffffffffffffffffffffffffffffffffffffffff167f77178bcf8f3c991d39734824771477a42787fe19b60d5a29c0ec72de167699b3876040516123b891906140a0565b60405180910390a450505050505050565b7f000000000000000000000000000000000000000000000000000000000000000081565b7fbb4cf8e50e81e9742807782b2bc5c27c5a943f214ee0b993943eff5a774e555b81565b5f5f60085f8573ffffffffffffffffffffffffffffffffffffffff1673ffffffffffffffffffffffffffffffffffffffff1681526020019081526020015f205f9054906101000a900460ff16905060068160ff160361247357829150506124d0565b60068160ff16116124a75780600661248b9190614755565b600a61249791906148b8565b836124a29190614902565b6124cc565b6006816124b49190614755565b600a6124c091906148b8565b836124cb9190614943565b5b9150505b92915050565b6124df82610f0e565b6124e881613407565b6124f2838361350b565b50505050565b7f65d7a28e3265b37a6474929f336521b332c1681b933f6cb9f3376673440d862a81565b5f5f60085f8573ffffffffffffffffffffffffffffffffffffffff1673ffffffffffffffffffffffffffffffffffffffff1681526020019081526020015f205f9054906101000a900460ff1690505f612574856119c2565b905081600a61258391906148b8565b818561258f9190614902565b6125999190614943565b9250505092915050565b5f73ffffffffffffffffffffffffffffffffffffffff168573ffffffffffffffffffffffffffffffffffffffff1603612608576040517f2a7fb4ea00000000000000000000000000000000000000000000000000000000815260040160405180910390fd5b5f8484604051612619929190614640565b604051809103902090505f60055f3373ffffffffffffffffffffffffffffffffffffffff1673ffffffffffffffffffffffffffffffffffffffff1681526020019081526020015f205f8381526020019081526020015f205f9054906101000a900473ffffffffffffffffffffffffffffffffffffffff1690505f73ffffffffffffffffffffffffffffffffffffffff168173ffffffffffffffffffffffffffffffffffffffff16141580156126fa57508673ffffffffffffffffffffffffffffffffffffffff168173ffffffffffffffffffffffffffffffffffffffff1614155b15612731576040517f1fba8fb900000000000000000000000000000000000000000000000000000000815260040160405180910390fd5b5f60045f3373ffffffffffffffffffffffffffffffffffffffff1673ffffffffffffffffffffffffffffffffffffffff1681526020019081526020015f205f8973ffffffffffffffffffffffffffffffffffffffff1673ffffffffffffffffffffffffffffffffffffffff1681526020019081526020015f209050806003015f9054906101000a900460ff16156128f9575f815f016040516127d39190614a05565b6040518091039020905083811415801561288357508873ffffffffffffffffffffffffffffffffffffffff1660055f3373ffffffffffffffffffffffffffffffffffffffff1673ffffffffffffffffffffffffffffffffffffffff1681526020019081526020015f205f8381526020019081526020015f205f9054906101000a900473ffffffffffffffffffffffffffffffffffffffff1673ffffffffffffffffffffffffffffffffffffffff16145b156128f75760055f3373ffffffffffffffffffffffffffffffffffffffff1673ffffffffffffffffffffffffffffffffffffffff1681526020019081526020015f205f8281526020019081526020015f205f6101000a81549073ffffffffffffffffffffffffffffffffffffffff02191690555b505b604051806080016040528088888080601f0160208091040260200160405190810160405280939291908181526020018383808284375f81840152601f19601f8201169050808301925050505050505081526020018681526020018581526020016001151581525060045f3373ffffffffffffffffffffffffffffffffffffffff1673ffffffffffffffffffffffffffffffffffffffff1681526020019081526020015f205f8a73ffffffffffffffffffffffffffffffffffffffff1673ffffffffffffffffffffffffffffffffffffffff1681526020019081526020015f205f820151815f0190816129eb9190614bdf565b5060208201518160010155604082015181600201556060820151816003015f6101000a81548160ff0219169083151502179055509050508760055f3373ffffffffffffffffffffffffffffffffffffffff1673ffffffffffffffffffffffffffffffffffffffff1681526020019081526020015f205f8581526020019081526020015f205f6101000a81548173ffffffffffffffffffffffffffffffffffffffff021916908373ffffffffffffffffffffffffffffffffffffffff1602179055508773ffffffffffffffffffffffffffffffffffffffff163373ffffffffffffffffffffffffffffffffffffffff167f71579dd34d16c5175ba8ef40e998b9090e833d716d817368715e8ed05a1c61f889898989604051612b0f9493929190614cda565b60405180910390a35050505050505050565b612b2961380b565b5f73ffffffffffffffffffffffffffffffffffffffff168173ffffffffffffffffffffffffffffffffffffffff1603612b99575f6040517f1e4fbdf7000000000000000000000000000000000000000000000000000000008152600401612b9091906140c8565b60405180910390fd5b612ba281613892565b50565b612bad6133c6565b612bb5613656565b5f8103612bee576040517f608294ac00000000000000000000000000000000000000000000000000000000815260040160405180910390fd5b5f612bf9838361251c565b90507f0000000000000000000000000000000000000000000000000000000000000000811115612c8257807f00000000000000000000000000000000000000000000000000000000000000006040517fc96b3f29000000000000000000000000000000000000000000000000000000008152600401612c799291906143aa565b60405180910390fd5b5f60065f8573ffffffffffffffffffffffffffffffffffffffff1673ffffffffffffffffffffffffffffffffffffffff1681526020019081526020015f205f3373ffffffffffffffffffffffffffffffffffffffff1673ffffffffffffffffffffffffffffffffffffffff1681526020019081526020015f2054905082811015612d455780836040517f9d2afa90000000000000000000000000000000000000000000000000000000008152600401612d3c9291906143aa565b60405180910390fd5b8281612d5191906143fe565b60065f8673ffffffffffffffffffffffffffffffffffffffff1673ffffffffffffffffffffffffffffffffffffffff1681526020019081526020015f205f3373ffffffffffffffffffffffffffffffffffffffff1673ffffffffffffffffffffffffffffffffffffffff1681526020019081526020015f20819055508260075f8673ffffffffffffffffffffffffffffffffffffffff1673ffffffffffffffffffffffffffffffffffffffff1681526020019081526020015f205f828254612e1991906143fe565b92505081905550612e2b84845f61371e565b5f73ffffffffffffffffffffffffffffffffffffffff168473ffffffffffffffffffffffffffffffffffffffff1603612f0c575f3373ffffffffffffffffffffffffffffffffffffffff1684604051612e8390614d3b565b5f6040518083038185875af1925050503d805f8114612ebd576040519150601f19603f3d011682016040523d82523d5f602084013e612ec2565b606091505b5050905080612f06576040517f08c379a0000000000000000000000000000000000000000000000000000000008152600401612efd90614d99565b60405180910390fd5b50612f38565b612f3733848673ffffffffffffffffffffffffffffffffffffffff166139b59092919063ffffffff16565b5b3373ffffffffffffffffffffffffffffffffffffffff168473ffffffffffffffffffffffffffffffffffffffff167fc2b4a290c20fb28939d29f102514fbffd2b73c059ffba8b78250c94161d5fcc68560065f8973ffffffffffffffffffffffffffffffffffffffff1673ffffffffffffffffffffffffffffffffffffffff1681526020019081526020015f205f3373ffffffffffffffffffffffffffffffffffffffff1673ffffffffffffffffffffffffffffffffffffffff1681526020019081526020015f205460405161300f9291906143aa565b60405180910390a35050613021613801565b5050565b5f60065f8473ffffffffffffffffffffffffffffffffffffffff1673ffffffffffffffffffffffffffffffffffffffff1681526020019081526020015f205f8373ffffffffffffffffffffffffffffffffffffffff1673ffffffffffffffffffffffffffffffffffffffff1681526020019081526020015f2054905092915050565b6130af6133c6565b6130b7613656565b5f82036130f0576040517f608294ac00000000000000000000000000000000000000000000000000000000815260040160405180910390fd5b5f6130fa83613a34565b9050613107813484613a69565b61314b578034836040517e6eada200000000000000000000000000000000000000000000000000000000815260040161314293929190614db7565b60405180910390fd5b6131575f34600161371e565b3460065f5f73ffffffffffffffffffffffffffffffffffffffff1673ffffffffffffffffffffffffffffffffffffffff1681526020019081526020015f205f3373ffffffffffffffffffffffffffffffffffffffff1673ffffffffffffffffffffffffffffffffffffffff1681526020019081526020015f205f8282546131de9190614431565b925050819055503460075f5f73ffffffffffffffffffffffffffffffffffffffff1673ffffffffffffffffffffffffffffffffffffffff1681526020019081526020015f205f8282546132319190614431565b925050819055503373ffffffffffffffffffffffffffffffffffffffff165f73ffffffffffffffffffffffffffffffffffffffff167fdcbc1c05240f31ff3ad067ef1ee35ce4997762752e3a095284754544f4c709d73460065f5f73ffffffffffffffffffffffffffffffffffffffff1673ffffffffffffffffffffffffffffffffffffffff1681526020019081526020015f205f3373ffffffffffffffffffffffffffffffffffffffff1673ffffffffffffffffffffffffffffffffffffffff1681526020019081526020015f205460405161330f9291906143aa565b60405180910390a350613320613801565b5050565b6040518060400160405280600d81526020017f4b69707542616e6b2076322e310000000000000000000000000000000000000081525081565b5f7f01ffc9a7000000000000000000000000000000000000000000000000000000007bffffffffffffffffffffffffffffffffffffffffffffffffffffffff1916827bffffffffffffffffffffffffffffffffffffffffffffffffffffffff1916149050919050565b6133ce611754565b15613405576040517fd93c066500000000000000000000000000000000000000000000000000000000815260040160405180910390fd5b565b61341881613413613504565b613acd565b50565b5f613426838361183b565b6134fa576001805f8581526020019081526020015f205f015f8473ffffffffffffffffffffffffffffffffffffffff1673ffffffffffffffffffffffffffffffffffffffff1681526020019081526020015f205f6101000a81548160ff021916908315150217905550613497613504565b73ffffffffffffffffffffffffffffffffffffffff168273ffffffffffffffffffffffffffffffffffffffff16847f2f8788117e7eff1d82e926ec794901d17c78024a50270940304540a733656f0d60405160405180910390a4600190506134fe565b5f90505b92915050565b5f33905090565b5f613516838361183b565b156135eb575f60015f8581526020019081526020015f205f015f8473ffffffffffffffffffffffffffffffffffffffff1673ffffffffffffffffffffffffffffffffffffffff1681526020019081526020015f205f6101000a81548160ff021916908315150217905550613588613504565b73ffffffffffffffffffffffffffffffffffffffff168273ffffffffffffffffffffffffffffffffffffffff16847ff6391f5c32d9c69d2a47ea670b442974b53935d1edc7fd64eb21e047a839171b60405160405180910390a4600190506135ef565b5f90505b92915050565b6135fd613b1e565b5f60025f6101000a81548160ff0219169083151502179055507f5db9ee0a495bf2e6ff9c91a7834c1ba4fdd244a5e8aa4e537bd38aeae4b073aa61363f613504565b60405161364c91906140c8565b60405180910390a1565b600260035403613692576040517f3ee5aeb500000000000000000000000000000000000000000000000000000000815260040160405180910390fd5b6002600381905550565b613718848573ffffffffffffffffffffffffffffffffffffffff166323b872dd8686866040516024016136d193929190614dec565b604051602081830303815290604052915060e01b6020820180517bffffffffffffffffffffffffffffffffffffffffffffffffffffffff8381831617835250505050613b5e565b50505050565b5f613729848461251c565b905081156137d6575f81600a546137409190614431565b90507f00000000000000000000000000000000000000000000000000000000000000008111156137c957807f00000000000000000000000000000000000000000000000000000000000000006040517ff6c75df80000000000000000000000000000000000000000000000000000000081526004016137c09291906143aa565b60405180910390fd5b80600a81905550506137fb565b80600a54116137e5575f6137f4565b80600a546137f391906143fe565b5b600a819055505b50505050565b6001600381905550565b613813613504565b73ffffffffffffffffffffffffffffffffffffffff166138316117b1565b73ffffffffffffffffffffffffffffffffffffffff161461389057613854613504565b6040517f118cdaa700000000000000000000000000000000000000000000000000000000815260040161388791906140c8565b60405180910390fd5b565b5f5f5f9054906101000a900473ffffffffffffffffffffffffffffffffffffffff169050815f5f6101000a81548173ffffffffffffffffffffffffffffffffffffffff021916908373ffffffffffffffffffffffffffffffffffffffff1602179055508173ffffffffffffffffffffffffffffffffffffffff168173ffffffffffffffffffffffffffffffffffffffff167f8be0079c531659141344cd1fd0a4f28419497f9722a3daafe3b4186f6b6457e060405160405180910390a35050565b61395b6133c6565b600160025f6101000a81548160ff0219169083151502179055507f62e78cea01bee320cd4e420270b5ea74000d11b0c9f74754ebdbfc544b05a25861399e613504565b6040516139ab91906140c8565b60405180910390a1565b613a2f838473ffffffffffffffffffffffffffffffffffffffff1663a9059cbb85856040516024016139e8929190614e21565b604051602081830303815290604052915060e01b6020820180517bffffffffffffffffffffffffffffffffffffffffffffffffffffffff8381831617835250505050613b5e565b505050565b5f5f613a3f5f6119c2565b905080600182670de0b6b3a76400008602010381613a6057613a5f6145d7565b5b04915050919050565b5f5f8403613a79575f9050613ac6565b5f848411613a92578385613a8d91906143fe565b613a9f565b8484613a9e91906143fe565b5b90505f6127108487613ab19190614902565b613abb9190614943565b905080821115925050505b9392505050565b613ad7828261183b565b613b1a5780826040517fe2517d3f000000000000000000000000000000000000000000000000000000008152600401613b11929190614e48565b60405180910390fd5b5050565b613b26611754565b613b5c576040517f8dfc202b00000000000000000000000000000000000000000000000000000000815260040160405180910390fd5b565b5f5f60205f8451602086015f885af180613b7d576040513d5f823e3d81fd5b3d92505f519150505f8214613b96576001811415613bb1565b5f8473ffffffffffffffffffffffffffffffffffffffff163b145b15613bf357836040517f5274afe7000000000000000000000000000000000000000000000000000000008152600401613bea91906140c8565b60405180910390fd5b50505050565b508054613c059061437a565b5f825580601f10613c165750613c33565b601f0160209004905f5260205f2090810190613c329190613c36565b5b50565b5b80821115613c4d575f815f905550600101613c37565b5090565b5f5ffd5b5f5ffd5b5f7fffffffff0000000000000000000000000000000000000000000000000000000082169050919050565b613c8d81613c59565b8114613c97575f5ffd5b50565b5f81359050613ca881613c84565b92915050565b5f60208284031215613cc357613cc2613c51565b5b5f613cd084828501613c9a565b91505092915050565b5f8115159050919050565b613ced81613cd9565b82525050565b5f602082019050613d065f830184613ce4565b92915050565b5f73ffffffffffffffffffffffffffffffffffffffff82169050919050565b5f613d3582613d0c565b9050919050565b613d4581613d2b565b8114613d4f575f5ffd5b50565b5f81359050613d6081613d3c565b92915050565b5f60208284031215613d7b57613d7a613c51565b5b5f613d8884828501613d52565b91505092915050565b5f819050919050565b5f613db4613daf613daa84613d0c565b613d91565b613d0c565b9050919050565b5f613dc582613d9a565b9050919050565b5f613dd682613dbb565b9050919050565b613de681613dcc565b82525050565b5f602082019050613dff5f830184613ddd565b92915050565b5f5f60408385031215613e1b57613e1a613c51565b5b5f613e2885828601613d52565b9250506020613e3985828601613d52565b9150509250929050565b5f81519050919050565b5f82825260208201905092915050565b8281835e5f83830152505050565b5f601f19601f8301169050919050565b5f613e8582613e43565b613e8f8185613e4d565b9350613e9f818560208601613e5d565b613ea881613e6b565b840191505092915050565b5f6040820190508181035f830152613ecb8185613e7b565b9050613eda6020830184613ce4565b9392505050565b5f819050919050565b613ef381613ee1565b8114613efd575f5ffd5b50565b5f81359050613f0e81613eea565b92915050565b5f5f5f60608486031215613f2b57613f2a613c51565b5b5f613f3886828701613d52565b9350506020613f4986828701613d52565b9250506040613f5a86828701613f00565b9150509250925092565b5f819050919050565b613f7681613f64565b8114613f80575f5ffd5b50565b5f81359050613f9181613f6d565b92915050565b5f60208284031215613fac57613fab613c51565b5b5f613fb984828501613f83565b91505092915050565b613fcb81613f64565b82525050565b5f602082019050613fe45f830184613fc2565b92915050565b5f5f6040838503121561400057613fff613c51565b5b5f61400d85828601613f83565b925050602061401e85828601613d52565b9150509250929050565b5f5f6040838503121561403e5761403d613c51565b5b5f61404b85828601613d52565b925050602061405c85828601613f00565b9150509250929050565b5f6020828403121561407b5761407a613c51565b5b5f61408884828501613f00565b91505092915050565b61409a81613ee1565b82525050565b5f6020820190506140b35f830184614091565b92915050565b6140c281613d2b565b82525050565b5f6020820190506140db5f8301846140b9565b92915050565b5f60ff82169050919050565b6140f6816140e1565b82525050565b5f60208201905061410f5f8301846140ed565b92915050565b5f5ffd5b5f5ffd5b5f5ffd5b5f5f83601f84011261413657614135614115565b5b8235905067ffffffffffffffff81111561415357614152614119565b5b60208301915083600182028301111561416f5761416e61411d565b5b9250929050565b5f5f5f6040848603121561418d5761418c613c51565b5b5f61419a86828701613d52565b935050602084013567ffffffffffffffff8111156141bb576141ba613c55565b5b6141c786828701614121565b92509250509250925092565b5f6040820190506141e65f8301856140b9565b6141f36020830184613ce4565b9392505050565b5f5f5f5f6060858703121561421257614211613c51565b5b5f61421f87828801613d52565b945050602085013567ffffffffffffffff8111156142405761423f613c55565b5b61424c87828801614121565b9350935050604061425f87828801613f00565b91505092959194509250565b5f5f5f5f5f6080868803121561428457614283613c51565b5b5f61429188828901613d52565b955050602086013567ffffffffffffffff8111156142b2576142b1613c55565b5b6142be88828901614121565b945094505060406142d188828901613f00565b92505060606142e288828901613f00565b9150509295509295909350565b5f5f6040838503121561430557614304613c51565b5b5f61431285828601613f00565b925050602061432385828601613f00565b9150509250929050565b5f6020820190508181035f8301526143458184613e7b565b905092915050565b7f4e487b71000000000000000000000000000000000000000000000000000000005f52602260045260245ffd5b5f600282049050600182168061439157607f821691505b6020821081036143a4576143a361434d565b5b50919050565b5f6040820190506143bd5f830185614091565b6143ca6020830184614091565b9392505050565b7f4e487b71000000000000000000000000000000000000000000000000000000005f52601160045260245ffd5b5f61440882613ee1565b915061441383613ee1565b925082820390508181111561442b5761442a6143d1565b5b92915050565b5f61443b82613ee1565b915061444683613ee1565b925082820190508082111561445e5761445d6143d1565b5b92915050565b7f455448207072652d7265676973746572656400000000000000000000000000005f82015250565b5f614498601283613e4d565b91506144a382614464565b602082019050919050565b5f6020820190508181035f8301526144c58161448c565b9050919050565b6144d5816140e1565b81146144df575f5ffd5b50565b5f815190506144f0816144cc565b92915050565b5f6020828403121561450b5761450a613c51565b5b5f614518848285016144e2565b91505092915050565b5f6040820190506145345f8301856140ed565b61454160208301846140b9565b9392505050565b5f60408201905061455b5f8301856140b9565b61456860208301846140b9565b9392505050565b7f626164206d73672e76616c7565000000000000000000000000000000000000005f82015250565b5f6145a3600d83613e4d565b91506145ae8261456f565b602082019050919050565b5f6020820190508181035f8301526145d081614597565b9050919050565b7f4e487b71000000000000000000000000000000000000000000000000000000005f52601260045260245ffd5b5f81905092915050565b828183375f83830152505050565b5f6146278385614604565b935061463483858461460e565b82840190509392505050565b5f61464c82848661461c565b91508190509392505050565b5f69ffffffffffffffffffff82169050919050565b61467681614658565b8114614680575f5ffd5b50565b5f815190506146918161466d565b92915050565b5f819050919050565b6146a981614697565b81146146b3575f5ffd5b50565b5f815190506146c4816146a0565b92915050565b5f815190506146d881613eea565b92915050565b5f5f5f5f5f60a086880312156146f7576146f6613c51565b5b5f61470488828901614683565b9550506020614715888289016146b6565b9450506040614726888289016146ca565b9350506060614737888289016146ca565b925050608061474888828901614683565b9150509295509295909350565b5f61475f826140e1565b915061476a836140e1565b9250828203905060ff811115614783576147826143d1565b5b92915050565b5f8160011c9050919050565b5f5f8291508390505b60018511156147de578086048111156147ba576147b96143d1565b5b60018516156147c95780820291505b80810290506147d785614789565b945061479e565b94509492505050565b5f826147f657600190506148b1565b81614803575f90506148b1565b8160018114614819576002811461482357614852565b60019150506148b1565b60ff841115614835576148346143d1565b5b8360020a91508482111561484c5761484b6143d1565b5b506148b1565b5060208310610133831016604e8410600b84101617156148875782820a905083811115614882576148816143d1565b5b6148b1565b6148948484846001614795565b925090508184048111156148ab576148aa6143d1565b5b81810290505b9392505050565b5f6148c282613ee1565b91506148cd836140e1565b92506148fa7fffffffffffffffffffffffffffffffffffffffffffffffffffffffffffffffff84846147e7565b905092915050565b5f61490c82613ee1565b915061491783613ee1565b925082820261492581613ee1565b9150828204841483151761493c5761493b6143d1565b5b5092915050565b5f61494d82613ee1565b915061495883613ee1565b925082614968576149676145d7565b5b828204905092915050565b5f819050815f5260205f209050919050565b5f81546149918161437a565b61499b8186614604565b9450600182165f81146149b557600181146149ca576149fc565b60ff19831686528115158202860193506149fc565b6149d385614973565b5f5b838110156149f4578154818901526001820191506020810190506149d5565b838801955050505b50505092915050565b5f614a108284614985565b915081905092915050565b7f4e487b71000000000000000000000000000000000000000000000000000000005f52604160045260245ffd5b5f819050815f5260205f209050919050565b5f6020601f8301049050919050565b5f82821b905092915050565b5f60088302614aa47fffffffffffffffffffffffffffffffffffffffffffffffffffffffffffffffff82614a69565b614aae8683614a69565b95508019841693508086168417925050509392505050565b5f614ae0614adb614ad684613ee1565b613d91565b613ee1565b9050919050565b5f819050919050565b614af983614ac6565b614b0d614b0582614ae7565b848454614a75565b825550505050565b5f5f905090565b614b24614b15565b614b2f818484614af0565b505050565b5b81811015614b5257614b475f82614b1c565b600181019050614b35565b5050565b601f821115614b9757614b6881614a48565b614b7184614a5a565b81016020851015614b80578190505b614b94614b8c85614a5a565b830182614b34565b50505b505050565b5f82821c905092915050565b5f614bb75f1984600802614b9c565b1980831691505092915050565b5f614bcf8383614ba8565b9150826002028217905092915050565b614be882613e43565b67ffffffffffffffff811115614c0157614c00614a1b565b5b614c0b825461437a565b614c16828285614b56565b5f60209050601f831160018114614c47575f8415614c35578287015190505b614c3f8582614bc4565b865550614ca6565b601f198416614c5586614a48565b5f5b82811015614c7c57848901518255600182019150602085019450602081019050614c57565b86831015614c995784890151614c95601f891682614ba8565b8355505b6001600288020188555050505b505050505050565b5f614cb98385613e4d565b9350614cc683858461460e565b614ccf83613e6b565b840190509392505050565b5f6060820190508181035f830152614cf3818688614cae565b9050614d026020830185614091565b614d0f6040830184614091565b95945050505050565b50565b5f614d265f83614604565b9150614d3182614d18565b5f82019050919050565b5f614d4582614d1b565b9150819050919050565b7f65746820786665720000000000000000000000000000000000000000000000005f82015250565b5f614d83600883613e4d565b9150614d8e82614d4f565b602082019050919050565b5f6020820190508181035f830152614db081614d77565b9050919050565b5f606082019050614dca5f830186614091565b614dd76020830185614091565b614de46040830184614091565b949350505050565b5f606082019050614dff5f8301866140b9565b614e0c60208301856140b9565b614e196040830184614091565b949350505050565b5f604082019050614e345f8301856140b9565b614e416020830184614091565b9392505050565b5f604082019050614e5b5f8301856140b9565b614e686020830184613fc2565b939250505056fea26469706673582212202ae8e4dee3fce059e008a6001bc57b07b58eef452480ab2073fe8b10e1d1d5b864736f6c634300081e0033",
			"opcodes": "PUSH1 0xC0 PUSH1 0x40 MSTORE CALLVALUE DUP1 ISZERO PUSH2 0xF JUMPI PUSH0 PUSH0 REVERT JUMPDEST POP PUSH1 0x40 MLOAD PUSH2 0x54FF CODESIZE SUB DUP1 PUSH2 0x54FF DUP4 CODECOPY DUP2 DUP2 ADD PUSH1 0x40 MSTORE DUP2 ADD SWAP1 PUSH2 0x31 SWAP2 SWAP1 PUSH2 0x51C JUMP JUMPDEST DUP4 PUSH0 PUSH20 0xFFFFFFFFFFFFFFFFFFFFFFFFFFFFFFFFFFFFFFFF AND DUP2 PUSH20 0xFFFFFFFFFFFFFFFFFFFFFFFFFFFFFFFFFFFFFFFF AND SUB PUSH2 0xA2 JUMPI PUSH0 PUSH1 0x40 MLOAD PUSH32 0x1E4FBDF700000000000000000000000000000000000000000000000000000000 DUP2 MSTORE PUSH1 0x4 ADD PUSH2 0x99 SWAP2 SWAP1 PUSH2 0x58F JUMP JUMPDEST PUSH1 0x40 MLOAD DUP1 SWAP2 SUB SWAP1 REVERT JUMPDEST PUSH2 0xB1 DUP2 PUSH2 0x26A PUSH1 0x20 SHL PUSH1 0x20 SHR JUMP JUMPDEST POP PUSH1 0x1 PUSH1 0x3 DUP2 SWAP1 SSTORE POP PUSH2 0xCC PUSH0 PUSH0 SHL DUP6 PUSH2 0x32B PUSH1 0x20 SHL PUSH1 0x20 SHR JUMP JUMPDEST POP PUSH2 0xFD PUSH32 0x65D7A28E3265B37A6474929F336521B332C1681B933F6CB9F3376673440D862A DUP6 PUSH2 0x32B PUSH1 0x20 SHL PUSH1 0x20 SHR JUMP JUMPDEST POP PUSH2 0x12E PUSH32 0xBB4CF8E50E81E9742807782B2BC5C27C5A943F214EE0B993943EFF5A774E555B DUP6 PUSH2 0x32B PUSH1 0x20 SHL PUSH1 0x20 SHR JUMP JUMPDEST POP DUP3 PUSH1 0x80 DUP2 DUP2 MSTORE POP POP DUP2 PUSH1 0xA0 DUP2 DUP2 MSTORE POP POP PUSH1 0x12 PUSH1 0x8 PUSH0 PUSH0 PUSH20 0xFFFFFFFFFFFFFFFFFFFFFFFFFFFFFFFFFFFFFFFF AND PUSH20 0xFFFFFFFFFFFFFFFFFFFFFFFFFFFFFFFFFFFFFFFF AND DUP2 MSTORE PUSH1 0x20 ADD SWAP1 DUP2 MSTORE PUSH1 0x20 ADD PUSH0 KECCAK256 PUSH0 PUSH2 0x100 EXP DUP2 SLOAD DUP2 PUSH1 0xFF MUL NOT AND SWAP1 DUP4 PUSH1 0xFF AND MUL OR SWAP1 SSTORE POP DUP1 PUSH1 0x9 PUSH0 PUSH0 PUSH20 0xFFFFFFFFFFFFFFFFFFFFFFFFFFFFFFFFFFFFFFFF AND PUSH20 0xFFFFFFFFFFFFFFFFFFFFFFFFFFFFFFFFFFFFFFFF AND DUP2 MSTORE PUSH1 0x20 ADD SWAP1 DUP2 MSTORE PUSH1 0x20 ADD PUSH0 KECCAK256 PUSH0 PUSH2 0x100 EXP DUP2 SLOAD DUP2 PUSH20 0xFFFFFFFFFFFFFFFFFFFFFFFFFFFFFFFFFFFFFFFF MUL NOT AND SWAP1 DUP4 PUSH20 0xFFFFFFFFFFFFFFFFFFFFFFFFFFFFFFFFFFFFFFFF AND MUL OR SWAP1 SSTORE POP PUSH0 PUSH20 0xFFFFFFFFFFFFFFFFFFFFFFFFFFFFFFFFFFFFFFFF AND PUSH32 0xAD641C56C3FB7D6DB68A25F7A2DF661DE9F142CDCA30280AB8C4A8566BA760A5 PUSH1 0x12 DUP4 PUSH1 0x40 MLOAD PUSH2 0x259 SWAP3 SWAP2 SWAP1 PUSH2 0x5F6 JUMP JUMPDEST PUSH1 0x40 MLOAD DUP1 SWAP2 SUB SWAP1 LOG2 POP POP POP POP PUSH2 0x61D JUMP JUMPDEST PUSH0 PUSH0 PUSH0 SWAP1 SLOAD SWAP1 PUSH2 0x100 EXP SWAP1 DIV PUSH20 0xFFFFFFFFFFFFFFFFFFFFFFFFFFFFFFFFFFFFFFFF AND SWAP1 POP DUP2 PUSH0 PUSH0 PUSH2 0x100 EXP DUP2 SLOAD DUP2 PUSH20 0xFFFFFFFFFFFFFFFFFFFFFFFFFFFFFFFFFFFFFFFF MUL NOT AND SWAP1 DUP4 PUSH20 0xFFFFFFFFFFFFFFFFFFFFFFFFFFFFFFFFFFFFFFFF AND MUL OR SWAP1 SSTORE POP DUP2 PUSH20 0xFFFFFFFFFFFFFFFFFFFFFFFFFFFFFFFFFFFFFFFF AND DUP2 PUSH20 0xFFFFFFFFFFFFFFFFFFFFFFFFFFFFFFFFFFFFFFFF AND PUSH32 0x8BE0079C531659141344CD1FD0A4F28419497F9722A3DAAFE3B4186F6B6457E0 PUSH1 0x40 MLOAD PUSH1 0x40 MLOAD DUP1 SWAP2 SUB SWAP1 LOG3 POP POP JUMP JUMPDEST PUSH0 PUSH2 0x33C DUP4 DUP4 PUSH2 0x420 PUSH1 0x20 SHL PUSH1 0x20 SHR JUMP JUMPDEST PUSH2 0x416 JUMPI PUSH1 0x1 DUP1 PUSH0 DUP6 DUP2 MSTORE PUSH1 0x20 ADD SWAP1 DUP2 MSTORE PUSH1 0x20 ADD PUSH0 KECCAK256 PUSH0 ADD PUSH0 DUP5 PUSH20 0xFFFFFFFFFFFFFFFFFFFFFFFFFFFFFFFFFFFFFFFF AND PUSH20 0xFFFFFFFFFFFFFFFFFFFFFFFFFFFFFFFFFFFFFFFF AND DUP2 MSTORE PUSH1 0x20 ADD SWAP1 DUP2 MSTORE PUSH1 0x20 ADD PUSH0 KECCAK256 PUSH0 PUSH2 0x100 EXP DUP2 SLOAD DUP2 PUSH1 0xFF MUL NOT AND SWAP1 DUP4 ISZERO ISZERO MUL OR SWAP1 SSTORE POP PUSH2 0x3B3 PUSH2 0x484 PUSH1 0x20 SHL PUSH1 0x20 SHR JUMP JUMPDEST PUSH20 0xFFFFFFFFFFFFFFFFFFFFFFFFFFFFFFFFFFFFFFFF AND DUP3 PUSH20 0xFFFFFFFFFFFFFFFFFFFFFFFFFFFFFFFFFFFFFFFF AND DUP5 PUSH32 0x2F8788117E7EFF1D82E926EC794901D17C78024A50270940304540A733656F0D PUSH1 0x40 MLOAD PUSH1 0x40 MLOAD DUP1 SWAP2 SUB SWAP1 LOG4 PUSH1 0x1 SWAP1 POP PUSH2 0x41A JUMP JUMPDEST PUSH0 SWAP1 POP JUMPDEST SWAP3 SWAP2 POP POP JUMP JUMPDEST PUSH0 PUSH1 0x1 PUSH0 DUP5 DUP2 MSTORE PUSH1 0x20 ADD SWAP1 DUP2 MSTORE PUSH1 0x20 ADD PUSH0 KECCAK256 PUSH0 ADD PUSH0 DUP4 PUSH20 0xFFFFFFFFFFFFFFFFFFFFFFFFFFFFFFFFFFFFFFFF AND PUSH20 0xFFFFFFFFFFFFFFFFFFFFFFFFFFFFFFFFFFFFFFFF AND DUP2 MSTORE PUSH1 0x20 ADD SWAP1 DUP2 MSTORE PUSH1 0x20 ADD PUSH0 KECCAK256 PUSH0 SWAP1 SLOAD SWAP1 PUSH2 0x100 EXP SWAP1 DIV PUSH1 0xFF AND SWAP1 POP SWAP3 SWAP2 POP POP JUMP JUMPDEST PUSH0 CALLER SWAP1 POP SWAP1 JUMP JUMPDEST PUSH0 PUSH0 REVERT JUMPDEST PUSH0 PUSH20 0xFFFFFFFFFFFFFFFFFFFFFFFFFFFFFFFFFFFFFFFF DUP3 AND SWAP1 POP SWAP2 SWAP1 POP JUMP JUMPDEST PUSH0 PUSH2 0x4B8 DUP3 PUSH2 0x48F JUMP JUMPDEST SWAP1 POP SWAP2 SWAP1 POP JUMP JUMPDEST PUSH2 0x4C8 DUP2 PUSH2 0x4AE JUMP JUMPDEST DUP2 EQ PUSH2 0x4D2 JUMPI PUSH0 PUSH0 REVERT JUMPDEST POP JUMP JUMPDEST PUSH0 DUP2 MLOAD SWAP1 POP PUSH2 0x4E3 DUP2 PUSH2 0x4BF JUMP JUMPDEST SWAP3 SWAP2 POP POP JUMP JUMPDEST PUSH0 DUP2 SWAP1 POP SWAP2 SWAP1 POP JUMP JUMPDEST PUSH2 0x4FB DUP2 PUSH2 0x4E9 JUMP JUMPDEST DUP2 EQ PUSH2 0x505 JUMPI PUSH0 PUSH0 REVERT JUMPDEST POP JUMP JUMPDEST PUSH0 DUP2 MLOAD SWAP1 POP PUSH2 0x516 DUP2 PUSH2 0x4F2 JUMP JUMPDEST SWAP3 SWAP2 POP POP JUMP JUMPDEST PUSH0 PUSH0 PUSH0 PUSH0 PUSH1 0x80 DUP6 DUP8 SUB SLT ISZERO PUSH2 0x534 JUMPI PUSH2 0x533 PUSH2 0x48B JUMP JUMPDEST JUMPDEST PUSH0 PUSH2 0x541 DUP8 DUP3 DUP9 ADD PUSH2 0x4D5 JUMP JUMPDEST SWAP5 POP POP PUSH1 0x20 PUSH2 0x552 DUP8 DUP3 DUP9 ADD PUSH2 0x508 JUMP JUMPDEST SWAP4 POP POP PUSH1 0x40 PUSH2 0x563 DUP8 DUP3 DUP9 ADD PUSH2 0x508 JUMP JUMPDEST SWAP3 POP POP PUSH1 0x60 PUSH2 0x574 DUP8 DUP3 DUP9 ADD PUSH2 0x4D5 JUMP JUMPDEST SWAP2 POP POP SWAP3 SWAP6 SWAP2 SWAP5 POP SWAP3 POP JUMP JUMPDEST PUSH2 0x589 DUP2 PUSH2 0x4AE JUMP JUMPDEST DUP3 MSTORE POP POP JUMP JUMPDEST PUSH0 PUSH1 0x20 DUP3 ADD SWAP1 POP PUSH2 0x5A2 PUSH0 DUP4 ADD DUP5 PUSH2 0x580 JUMP JUMPDEST SWAP3 SWAP2 POP POP JUMP JUMPDEST PUSH0 DUP2 SWAP1 POP SWAP2 SWAP1 POP JUMP JUMPDEST PUSH0 PUSH1 0xFF DUP3 AND SWAP1 POP SWAP2 SWAP1 POP JUMP JUMPDEST PUSH0 DUP2 SWAP1 POP SWAP2 SWAP1 POP JUMP JUMPDEST PUSH0 PUSH2 0x5E0 PUSH2 0x5DB PUSH2 0x5D6 DUP5 PUSH2 0x5A8 JUMP JUMPDEST PUSH2 0x5BD JUMP JUMPDEST PUSH2 0x5B1 JUMP JUMPDEST SWAP1 POP SWAP2 SWAP1 POP JUMP JUMPDEST PUSH2 0x5F0 DUP2 PUSH2 0x5C6 JUMP JUMPDEST DUP3 MSTORE POP POP JUMP JUMPDEST PUSH0 PUSH1 0x40 DUP3 ADD SWAP1 POP PUSH2 0x609 PUSH0 DUP4 ADD DUP6 PUSH2 0x5E7 JUMP JUMPDEST PUSH2 0x616 PUSH1 0x20 DUP4 ADD DUP5 PUSH2 0x580 JUMP JUMPDEST SWAP4 SWAP3 POP POP POP JUMP JUMPDEST PUSH1 0x80 MLOAD PUSH1 0xA0 MLOAD PUSH2 0x4EA5 PUSH2 0x65A PUSH0 CODECOPY PUSH0 DUP2 DUP2 PUSH2 0x1732 ADD MSTORE DUP2 DUP2 PUSH2 0x2BFD ADD MSTORE PUSH2 0x2C26 ADD MSTORE PUSH0 DUP2 DUP2 PUSH2 0x23CB ADD MSTORE DUP2 DUP2 PUSH2 0x3744 ADD MSTORE PUSH2 0x376D ADD MSTORE PUSH2 0x4EA5 PUSH0 RETURN INVALID PUSH1 0x80 PUSH1 0x40 MSTORE PUSH1 0x4 CALLDATASIZE LT PUSH2 0x228 JUMPI PUSH0 CALLDATALOAD PUSH1 0xE0 SHR DUP1 PUSH4 0x912C2673 GT PUSH2 0x122 JUMPI DUP1 PUSH4 0xCB150817 GT PUSH2 0xAA JUMPI DUP1 PUSH4 0xF2FDE38B GT PUSH2 0x6E JUMPI DUP1 PUSH4 0xF2FDE38B EQ PUSH2 0x879 JUMPI DUP1 PUSH4 0xF3FEF3A3 EQ PUSH2 0x8A1 JUMPI DUP1 PUSH4 0xF7888AEC EQ PUSH2 0x8C9 JUMPI DUP1 PUSH4 0xFF7CEC60 EQ PUSH2 0x905 JUMPI DUP1 PUSH4 0xFFA1AD74 EQ PUSH2 0x921 JUMPI PUSH2 0x25F JUMP JUMPDEST DUP1 PUSH4 0xCB150817 EQ PUSH2 0x787 JUMPI DUP1 PUSH4 0xD547741F EQ PUSH2 0x7C3 JUMPI DUP1 PUSH4 0xE63AB1E9 EQ PUSH2 0x7EB JUMPI DUP1 PUSH4 0xEA578821 EQ PUSH2 0x815 JUMPI DUP1 PUSH4 0xEEE41C03 EQ PUSH2 0x851 JUMPI PUSH2 0x25F JUMP JUMPDEST DUP1 PUSH4 0xA217FDDF GT PUSH2 0xF1 JUMPI DUP1 PUSH4 0xA217FDDF EQ PUSH2 0x6B9 JUMPI DUP1 PUSH4 0xA6A66072 EQ PUSH2 0x6E3 JUMPI DUP1 PUSH4 0xAE2D4EBB EQ PUSH2 0x70B JUMPI DUP1 PUSH4 0xC7308957 EQ PUSH2 0x733 JUMPI DUP1 PUSH4 0xC86E7064 EQ PUSH2 0x75D JUMPI PUSH2 0x25F JUMP JUMPDEST DUP1 PUSH4 0x912C2673 EQ PUSH2 0x5C8 JUMPI DUP1 PUSH4 0x91D14854 EQ PUSH2 0x604 JUMPI DUP1 PUSH4 0x92B4F898 EQ PUSH2 0x640 JUMPI DUP1 PUSH4 0x9BBF2DE6 EQ PUSH2 0x67D JUMPI PUSH2 0x25F JUMP JUMPDEST DUP1 PUSH4 0x47E7EF24 GT PUSH2 0x1B0 JUMPI DUP1 PUSH4 0x5C975ABB GT PUSH2 0x174 JUMPI DUP1 PUSH4 0x5C975ABB EQ PUSH2 0x50C JUMPI DUP1 PUSH4 0x715018A6 EQ PUSH2 0x536 JUMPI DUP1 PUSH4 0x8456CB59 EQ PUSH2 0x54C JUMPI DUP1 PUSH4 0x8DA5CB5B EQ PUSH2 0x562 JUMPI DUP1 PUSH4 0x8EE573AC EQ PUSH2 0x58C JUMPI PUSH2 0x25F JUMP JUMPDEST DUP1 PUSH4 0x47E7EF24 EQ PUSH2 0x438 JUMPI DUP1 PUSH4 0x48B21D55 EQ PUSH2 0x454 JUMPI DUP1 PUSH4 0x4A4E9E3C EQ PUSH2 0x47C JUMPI DUP1 PUSH4 0x4CACFB93 EQ PUSH2 0x4B8 JUMPI DUP1 PUSH4 0x5509A6CA EQ PUSH2 0x4E2 JUMPI PUSH2 0x25F JUMP JUMPDEST DUP1 PUSH4 0x248A9CA3 GT PUSH2 0x1F7 JUMPI DUP1 PUSH4 0x248A9CA3 EQ PUSH2 0x36E JUMPI DUP1 PUSH4 0x2F2FF15D EQ PUSH2 0x3AA JUMPI DUP1 PUSH4 0x36568ABE EQ PUSH2 0x3D2 JUMPI DUP1 PUSH4 0x3F4BA83A EQ PUSH2 0x3FA JUMPI DUP1 PUSH4 0x4739F7E5 EQ PUSH2 0x410 JUMPI PUSH2 0x25F JUMP JUMPDEST DUP1 PUSH4 0x1FFC9A7 EQ PUSH2 0x291 JUMPI DUP1 PUSH4 0xEF0F0A9 EQ PUSH2 0x2CD JUMPI DUP1 PUSH4 0x197E2B31 EQ PUSH2 0x309 JUMPI DUP1 PUSH4 0x222F5BE0 EQ PUSH2 0x346 JUMPI PUSH2 0x25F JUMP JUMPDEST CALLDATASIZE PUSH2 0x25F JUMPI PUSH1 0x40 MLOAD PUSH32 0x9168BF9900000000000000000000000000000000000000000000000000000000 DUP2 MSTORE PUSH1 0x4 ADD PUSH1 0x40 MLOAD DUP1 SWAP2 SUB SWAP1 REVERT JUMPDEST PUSH1 0x40 MLOAD PUSH32 0x9168BF9900000000000000000000000000000000000000000000000000000000 DUP2 MSTORE PUSH1 0x4 ADD PUSH1 0x40 MLOAD DUP1 SWAP2 SUB SWAP1 REVERT JUMPDEST CALLVALUE DUP1 ISZERO PUSH2 0x29C JUMPI PUSH0 PUSH0 REVERT JUMPDEST POP PUSH2 0x2B7 PUSH1 0x4 DUP1 CALLDATASIZE SUB DUP2 ADD SWAP1 PUSH2 0x2B2 SWAP2 SWAP1 PUSH2 0x3CAE JUMP JUMPDEST PUSH2 0x94B JUMP JUMPDEST PUSH1 0x40 MLOAD PUSH2 0x2C4 SWAP2 SWAP1 PUSH2 0x3CF3 JUMP JUMPDEST PUSH1 0x40 MLOAD DUP1 SWAP2 SUB SWAP1 RETURN JUMPDEST CALLVALUE DUP1 ISZERO PUSH2 0x2D8 JUMPI PUSH0 PUSH0 REVERT JUMPDEST POP PUSH2 0x2F3 PUSH1 0x4 DUP1 CALLDATASIZE SUB DUP2 ADD SWAP1 PUSH2 0x2EE SWAP2 SWAP1 PUSH2 0x3D66 JUMP JUMPDEST PUSH2 0x9C4 JUMP JUMPDEST PUSH1 0x40 MLOAD PUSH2 0x300 SWAP2 SWAP1 PUSH2 0x3DEC JUMP JUMPDEST PUSH1 0x40 MLOAD DUP1 SWAP2 SUB SWAP1 RETURN JUMPDEST CALLVALUE DUP1 ISZERO PUSH2 0x314 JUMPI PUSH0 PUSH0 REVERT JUMPDEST POP PUSH2 0x32F PUSH1 0x4 DUP1 CALLDATASIZE SUB DUP2 ADD SWAP1 PUSH2 0x32A SWAP2 SWAP1 PUSH2 0x3E05 JUMP JUMPDEST PUSH2 0x9F4 JUMP JUMPDEST PUSH1 0x40 MLOAD PUSH2 0x33D SWAP3 SWAP2 SWAP1 PUSH2 0x3EB3 JUMP JUMPDEST PUSH1 0x40 MLOAD DUP1 SWAP2 SUB SWAP1 RETURN JUMPDEST CALLVALUE DUP1 ISZERO PUSH2 0x351 JUMPI PUSH0 PUSH0 REVERT JUMPDEST POP PUSH2 0x36C PUSH1 0x4 DUP1 CALLDATASIZE SUB DUP2 ADD SWAP1 PUSH2 0x367 SWAP2 SWAP1 PUSH2 0x3F14 JUMP JUMPDEST PUSH2 0xB1C JUMP JUMPDEST STOP JUMPDEST CALLVALUE DUP1 ISZERO PUSH2 0x379 JUMPI PUSH0 PUSH0 REVERT JUMPDEST POP PUSH2 0x394 PUSH1 0x4 DUP1 CALLDATASIZE SUB DUP2 ADD SWAP1 PUSH2 0x38F SWAP2 SWAP1 PUSH2 0x3F97 JUMP JUMPDEST PUSH2 0xF0E JUMP JUMPDEST PUSH1 0x40 MLOAD PUSH2 0x3A1 SWAP2 SWAP1 PUSH2 0x3FD1 JUMP JUMPDEST PUSH1 0x40 MLOAD DUP1 SWAP2 SUB SWAP1 RETURN JUMPDEST CALLVALUE DUP1 ISZERO PUSH2 0x3B5 JUMPI PUSH0 PUSH0 REVERT JUMPDEST POP PUSH2 0x3D0 PUSH1 0x4 DUP1 CALLDATASIZE SUB DUP2 ADD SWAP1 PUSH2 0x3CB SWAP2 SWAP1 PUSH2 0x3FEA JUMP JUMPDEST PUSH2 0xF2B JUMP JUMPDEST STOP JUMPDEST CALLVALUE DUP1 ISZERO PUSH2 0x3DD JUMPI PUSH0 PUSH0 REVERT JUMPDEST POP PUSH2 0x3F8 PUSH1 0x4 DUP1 CALLDATASIZE SUB DUP2 ADD SWAP1 PUSH2 0x3F3 SWAP2 SWAP1 PUSH2 0x3FEA JUMP JUMPDEST PUSH2 0xF4D JUMP JUMPDEST STOP JUMPDEST CALLVALUE DUP1 ISZERO PUSH2 0x405 JUMPI PUSH0 PUSH0 REVERT JUMPDEST POP PUSH2 0x40E PUSH2 0xFC8 JUMP JUMPDEST STOP JUMPDEST CALLVALUE DUP1 ISZERO PUSH2 0x41B JUMPI PUSH0 PUSH0 REVERT JUMPDEST POP PUSH2 0x436 PUSH1 0x4 DUP1 CALLDATASIZE SUB DUP2 ADD SWAP1 PUSH2 0x431 SWAP2 SWAP1 PUSH2 0x3E05 JUMP JUMPDEST PUSH2 0xFFD JUMP JUMPDEST STOP JUMPDEST PUSH2 0x452 PUSH1 0x4 DUP1 CALLDATASIZE SUB DUP2 ADD SWAP1 PUSH2 0x44D SWAP2 SWAP1 PUSH2 0x4028 JUMP JUMPDEST PUSH2 0x12F7 JUMP JUMPDEST STOP JUMPDEST CALLVALUE DUP1 ISZERO PUSH2 0x45F JUMPI PUSH0 PUSH0 REVERT JUMPDEST POP PUSH2 0x47A PUSH1 0x4 DUP1 CALLDATASIZE SUB DUP2 ADD SWAP1 PUSH2 0x475 SWAP2 SWAP1 PUSH2 0x4028 JUMP JUMPDEST PUSH2 0x15C0 JUMP JUMPDEST STOP JUMPDEST CALLVALUE DUP1 ISZERO PUSH2 0x487 JUMPI PUSH0 PUSH0 REVERT JUMPDEST POP PUSH2 0x4A2 PUSH1 0x4 DUP1 CALLDATASIZE SUB DUP2 ADD SWAP1 PUSH2 0x49D SWAP2 SWAP1 PUSH2 0x4066 JUMP JUMPDEST PUSH2 0x16F5 JUMP JUMPDEST PUSH1 0x40 MLOAD PUSH2 0x4AF SWAP2 SWAP1 PUSH2 0x40A0 JUMP JUMPDEST PUSH1 0x40 MLOAD DUP1 SWAP2 SUB SWAP1 RETURN JUMPDEST CALLVALUE DUP1 ISZERO PUSH2 0x4C3 JUMPI PUSH0 PUSH0 REVERT JUMPDEST POP PUSH2 0x4CC PUSH2 0x172A JUMP JUMPDEST PUSH1 0x40 MLOAD PUSH2 0x4D9 SWAP2 SWAP1 PUSH2 0x40A0 JUMP JUMPDEST PUSH1 0x40 MLOAD DUP1 SWAP2 SUB SWAP1 RETURN JUMPDEST CALLVALUE DUP1 ISZERO PUSH2 0x4ED JUMPI PUSH0 PUSH0 REVERT JUMPDEST POP PUSH2 0x4F6 PUSH2 0x1730 JUMP JUMPDEST PUSH1 0x40 MLOAD PUSH2 0x503 SWAP2 SWAP1 PUSH2 0x40A0 JUMP JUMPDEST PUSH1 0x40 MLOAD DUP1 SWAP2 SUB SWAP1 RETURN JUMPDEST CALLVALUE DUP1 ISZERO PUSH2 0x517 JUMPI PUSH0 PUSH0 REVERT JUMPDEST POP PUSH2 0x520 PUSH2 0x1754 JUMP JUMPDEST PUSH1 0x40 MLOAD PUSH2 0x52D SWAP2 SWAP1 PUSH2 0x3CF3 JUMP JUMPDEST PUSH1 0x40 MLOAD DUP1 SWAP2 SUB SWAP1 RETURN JUMPDEST CALLVALUE DUP1 ISZERO PUSH2 0x541 JUMPI PUSH0 PUSH0 REVERT JUMPDEST POP PUSH2 0x54A PUSH2 0x1769 JUMP JUMPDEST STOP JUMPDEST CALLVALUE DUP1 ISZERO PUSH2 0x557 JUMPI PUSH0 PUSH0 REVERT JUMPDEST POP PUSH2 0x560 PUSH2 0x177C JUMP JUMPDEST STOP JUMPDEST CALLVALUE DUP1 ISZERO PUSH2 0x56D JUMPI PUSH0 PUSH0 REVERT JUMPDEST POP PUSH2 0x576 PUSH2 0x17B1 JUMP JUMPDEST PUSH1 0x40 MLOAD PUSH2 0x583 SWAP2 SWAP1 PUSH2 0x40C8 JUMP JUMPDEST PUSH1 0x40 MLOAD DUP1 SWAP2 SUB SWAP1 RETURN JUMPDEST CALLVALUE DUP1 ISZERO PUSH2 0x597 JUMPI PUSH0 PUSH0 REVERT JUMPDEST POP PUSH2 0x5B2 PUSH1 0x4 DUP1 CALLDATASIZE SUB DUP2 ADD SWAP1 PUSH2 0x5AD SWAP2 SWAP1 PUSH2 0x3D66 JUMP JUMPDEST PUSH2 0x17D8 JUMP JUMPDEST PUSH1 0x40 MLOAD PUSH2 0x5BF SWAP2 SWAP1 PUSH2 0x40FC JUMP JUMPDEST PUSH1 0x40 MLOAD DUP1 SWAP2 SUB SWAP1 RETURN JUMPDEST CALLVALUE DUP1 ISZERO PUSH2 0x5D3 JUMPI PUSH0 PUSH0 REVERT JUMPDEST POP PUSH2 0x5EE PUSH1 0x4 DUP1 CALLDATASIZE SUB DUP2 ADD SWAP1 PUSH2 0x5E9 SWAP2 SWAP1 PUSH2 0x3D66 JUMP JUMPDEST PUSH2 0x17F5 JUMP JUMPDEST PUSH1 0x40 MLOAD PUSH2 0x5FB SWAP2 SWAP1 PUSH2 0x40A0 JUMP JUMPDEST PUSH1 0x40 MLOAD DUP1 SWAP2 SUB SWAP1 RETURN JUMPDEST CALLVALUE DUP1 ISZERO PUSH2 0x60F JUMPI PUSH0 PUSH0 REVERT JUMPDEST POP PUSH2 0x62A PUSH1 0x4 DUP1 CALLDATASIZE SUB DUP2 ADD SWAP1 PUSH2 0x625 SWAP2 SWAP1 PUSH2 0x3FEA JUMP JUMPDEST PUSH2 0x183B JUMP JUMPDEST PUSH1 0x40 MLOAD PUSH2 0x637 SWAP2 SWAP1 PUSH2 0x3CF3 JUMP JUMPDEST PUSH1 0x40 MLOAD DUP1 SWAP2 SUB SWAP1 RETURN JUMPDEST CALLVALUE DUP1 ISZERO PUSH2 0x64B JUMPI PUSH0 PUSH0 REVERT JUMPDEST POP PUSH2 0x666 PUSH1 0x4 DUP1 CALLDATASIZE SUB DUP2 ADD SWAP1 PUSH2 0x661 SWAP2 SWAP1 PUSH2 0x4176 JUMP JUMPDEST PUSH2 0x189F JUMP JUMPDEST PUSH1 0x40 MLOAD PUSH2 0x674 SWAP3 SWAP2 SWAP1 PUSH2 0x41D3 JUMP JUMPDEST PUSH1 0x40 MLOAD DUP1 SWAP2 SUB SWAP1 RETURN JUMPDEST CALLVALUE DUP1 ISZERO PUSH2 0x688 JUMPI PUSH0 PUSH0 REVERT JUMPDEST POP PUSH2 0x6A3 PUSH1 0x4 DUP1 CALLDATASIZE SUB DUP2 ADD SWAP1 PUSH2 0x69E SWAP2 SWAP1 PUSH2 0x3D66 JUMP JUMPDEST PUSH2 0x19C2 JUMP JUMPDEST PUSH1 0x40 MLOAD PUSH2 0x6B0 SWAP2 SWAP1 PUSH2 0x40A0 JUMP JUMPDEST PUSH1 0x40 MLOAD DUP1 SWAP2 SUB SWAP1 RETURN JUMPDEST CALLVALUE DUP1 ISZERO PUSH2 0x6C4 JUMPI PUSH0 PUSH0 REVERT JUMPDEST POP PUSH2 0x6CD PUSH2 0x1BBA JUMP JUMPDEST PUSH1 0x40 MLOAD PUSH2 0x6DA SWAP2 SWAP1 PUSH2 0x3FD1 JUMP JUMPDEST PUSH1 0x40 MLOAD DUP1 SWAP2 SUB SWAP1 RETURN JUMPDEST CALLVALUE DUP1 ISZERO PUSH2 0x6EE JUMPI PUSH0 PUSH0 REVERT JUMPDEST POP PUSH2 0x709 PUSH1 0x4 DUP1 CALLDATASIZE SUB DUP2 ADD SWAP1 PUSH2 0x704 SWAP2 SWAP1 PUSH2 0x3D66 JUMP JUMPDEST PUSH2 0x1BC0 JUMP JUMPDEST STOP JUMPDEST CALLVALUE DUP1 ISZERO PUSH2 0x716 JUMPI PUSH0 PUSH0 REVERT JUMPDEST POP PUSH2 0x731 PUSH1 0x4 DUP1 CALLDATASIZE SUB DUP2 ADD SWAP1 PUSH2 0x72C SWAP2 SWAP1 PUSH2 0x41FA JUMP JUMPDEST PUSH2 0x1F4C JUMP JUMPDEST STOP JUMPDEST CALLVALUE DUP1 ISZERO PUSH2 0x73E JUMPI PUSH0 PUSH0 REVERT JUMPDEST POP PUSH2 0x747 PUSH2 0x23C9 JUMP JUMPDEST PUSH1 0x40 MLOAD PUSH2 0x754 SWAP2 SWAP1 PUSH2 0x40A0 JUMP JUMPDEST PUSH1 0x40 MLOAD DUP1 SWAP2 SUB SWAP1 RETURN JUMPDEST CALLVALUE DUP1 ISZERO PUSH2 0x768 JUMPI PUSH0 PUSH0 REVERT JUMPDEST POP PUSH2 0x771 PUSH2 0x23ED JUMP JUMPDEST PUSH1 0x40 MLOAD PUSH2 0x77E SWAP2 SWAP1 PUSH2 0x3FD1 JUMP JUMPDEST PUSH1 0x40 MLOAD DUP1 SWAP2 SUB SWAP1 RETURN JUMPDEST CALLVALUE DUP1 ISZERO PUSH2 0x792 JUMPI PUSH0 PUSH0 REVERT JUMPDEST POP PUSH2 0x7AD PUSH1 0x4 DUP1 CALLDATASIZE SUB DUP2 ADD SWAP1 PUSH2 0x7A8 SWAP2 SWAP1 PUSH2 0x4028 JUMP JUMPDEST PUSH2 0x2411 JUMP JUMPDEST PUSH1 0x40 MLOAD PUSH2 0x7BA SWAP2 SWAP1 PUSH2 0x40A0 JUMP JUMPDEST PUSH1 0x40 MLOAD DUP1 SWAP2 SUB SWAP1 RETURN JUMPDEST CALLVALUE DUP1 ISZERO PUSH2 0x7CE JUMPI PUSH0 PUSH0 REVERT JUMPDEST POP PUSH2 0x7E9 PUSH1 0x4 DUP1 CALLDATASIZE SUB DUP2 ADD SWAP1 PUSH2 0x7E4 SWAP2 SWAP1 PUSH2 0x3FEA JUMP JUMPDEST PUSH2 0x24D6 JUMP JUMPDEST STOP JUMPDEST CALLVALUE DUP1 ISZERO PUSH2 0x7F6 JUMPI PUSH0 PUSH0 REVERT JUMPDEST POP PUSH2 0x7FF PUSH2 0x24F8 JUMP JUMPDEST PUSH1 0x40 MLOAD PUSH2 0x80C SWAP2 SWAP1 PUSH2 0x3FD1 JUMP JUMPDEST PUSH1 0x40 MLOAD DUP1 SWAP2 SUB SWAP1 RETURN JUMPDEST CALLVALUE DUP1 ISZERO PUSH2 0x820 JUMPI PUSH0 PUSH0 REVERT JUMPDEST POP PUSH2 0x83B PUSH1 0x4 DUP1 CALLDATASIZE SUB DUP2 ADD SWAP1 PUSH2 0x836 SWAP2 SWAP1 PUSH2 0x4028 JUMP JUMPDEST PUSH2 0x251C JUMP JUMPDEST PUSH1 0x40 MLOAD PUSH2 0x848 SWAP2 SWAP1 PUSH2 0x40A0 JUMP JUMPDEST PUSH1 0x40 MLOAD DUP1 SWAP2 SUB SWAP1 RETURN JUMPDEST CALLVALUE DUP1 ISZERO PUSH2 0x85C JUMPI PUSH0 PUSH0 REVERT JUMPDEST POP PUSH2 0x877 PUSH1 0x4 DUP1 CALLDATASIZE SUB DUP2 ADD SWAP1 PUSH2 0x872 SWAP2 SWAP1 PUSH2 0x426B JUMP JUMPDEST PUSH2 0x25A3 JUMP JUMPDEST STOP JUMPDEST CALLVALUE DUP1 ISZERO PUSH2 0x884 JUMPI PUSH0 PUSH0 REVERT JUMPDEST POP PUSH2 0x89F PUSH1 0x4 DUP1 CALLDATASIZE SUB DUP2 ADD SWAP1 PUSH2 0x89A SWAP2 SWAP1 PUSH2 0x3D66 JUMP JUMPDEST PUSH2 0x2B21 JUMP JUMPDEST STOP JUMPDEST CALLVALUE DUP1 ISZERO PUSH2 0x8AC JUMPI PUSH0 PUSH0 REVERT JUMPDEST POP PUSH2 0x8C7 PUSH1 0x4 DUP1 CALLDATASIZE SUB DUP2 ADD SWAP1 PUSH2 0x8C2 SWAP2 SWAP1 PUSH2 0x4028 JUMP JUMPDEST PUSH2 0x2BA5 JUMP JUMPDEST STOP JUMPDEST CALLVALUE DUP1 ISZERO PUSH2 0x8D4 JUMPI PUSH0 PUSH0 REVERT JUMPDEST POP PUSH2 0x8EF PUSH1 0x4 DUP1 CALLDATASIZE SUB DUP2 ADD SWAP1 PUSH2 0x8EA SWAP2 SWAP1 PUSH2 0x3E05 JUMP JUMPDEST PUSH2 0x3025 JUMP JUMPDEST PUSH1 0x40 MLOAD PUSH2 0x8FC SWAP2 SWAP1 PUSH2 0x40A0 JUMP JUMPDEST PUSH1 0x40 MLOAD DUP1 SWAP2 SUB SWAP1 RETURN JUMPDEST PUSH2 0x91F PUSH1 0x4 DUP1 CALLDATASIZE SUB DUP2 ADD SWAP1 PUSH2 0x91A SWAP2 SWAP1 PUSH2 0x42EF JUMP JUMPDEST PUSH2 0x30A7 JUMP JUMPDEST STOP JUMPDEST CALLVALUE DUP1 ISZERO PUSH2 0x92C JUMPI PUSH0 PUSH0 REVERT JUMPDEST POP PUSH2 0x935 PUSH2 0x3324 JUMP JUMPDEST PUSH1 0x40 MLOAD PUSH2 0x942 SWAP2 SWAP1 PUSH2 0x432D JUMP JUMPDEST PUSH1 0x40 MLOAD DUP1 SWAP2 SUB SWAP1 RETURN JUMPDEST PUSH0 PUSH32 0x7965DB0B00000000000000000000000000000000000000000000000000000000 PUSH28 0xFFFFFFFFFFFFFFFFFFFFFFFFFFFFFFFFFFFFFFFFFFFFFFFFFFFFFFFF NOT AND DUP3 PUSH28 0xFFFFFFFFFFFFFFFFFFFFFFFFFFFFFFFFFFFFFFFFFFFFFFFFFFFFFFFF NOT AND EQ DUP1 PUSH2 0x9BD JUMPI POP PUSH2 0x9BC DUP3 PUSH2 0x335D JUMP JUMPDEST JUMPDEST SWAP1 POP SWAP2 SWAP1 POP JUMP JUMPDEST PUSH1 0x9 PUSH1 0x20 MSTORE DUP1 PUSH0 MSTORE PUSH1 0x40 PUSH0 KECCAK256 PUSH0 SWAP2 POP SLOAD SWAP1 PUSH2 0x100 EXP SWAP1 DIV PUSH20 0xFFFFFFFFFFFFFFFFFFFFFFFFFFFFFFFFFFFFFFFF AND DUP2 JUMP JUMPDEST PUSH1 0x60 PUSH0 PUSH0 PUSH1 0x4 PUSH0 DUP7 PUSH20 0xFFFFFFFFFFFFFFFFFFFFFFFFFFFFFFFFFFFFFFFF AND PUSH20 0xFFFFFFFFFFFFFFFFFFFFFFFFFFFFFFFFFFFFFFFF AND DUP2 MSTORE PUSH1 0x20 ADD SWAP1 DUP2 MSTORE PUSH1 0x20 ADD PUSH0 KECCAK256 PUSH0 DUP6 PUSH20 0xFFFFFFFFFFFFFFFFFFFFFFFFFFFFFFFFFFFFFFFF AND PUSH20 0xFFFFFFFFFFFFFFFFFFFFFFFFFFFFFFFFFFFFFFFF AND DUP2 MSTORE PUSH1 0x20 ADD SWAP1 DUP2 MSTORE PUSH1 0x20 ADD PUSH0 KECCAK256 SWAP1 POP DUP1 PUSH0 ADD DUP2 PUSH1 0x3 ADD PUSH0 SWAP1 SLOAD SWAP1 PUSH2 0x100 EXP SWAP1 DIV PUSH1 0xFF AND DUP2 DUP1 SLOAD PUSH2 0xA92 SWAP1 PUSH2 0x437A JUMP JUMPDEST DUP1 PUSH1 0x1F ADD PUSH1 0x20 DUP1 SWAP2 DIV MUL PUSH1 0x20 ADD PUSH1 0x40 MLOAD SWAP1 DUP2 ADD PUSH1 0x40 MSTORE DUP1 SWAP3 SWAP2 SWAP1 DUP2 DUP2 MSTORE PUSH1 0x20 ADD DUP3 DUP1 SLOAD PUSH2 0xABE SWAP1 PUSH2 0x437A JUMP JUMPDEST DUP1 ISZERO PUSH2 0xB09 JUMPI DUP1 PUSH1 0x1F LT PUSH2 0xAE0 JUMPI PUSH2 0x100 DUP1 DUP4 SLOAD DIV MUL DUP4 MSTORE SWAP2 PUSH1 0x20 ADD SWAP2 PUSH2 0xB09 JUMP JUMPDEST DUP3 ADD SWAP2 SWAP1 PUSH0 MSTORE PUSH1 0x20 PUSH0 KECCAK256 SWAP1 JUMPDEST DUP2 SLOAD DUP2 MSTORE SWAP1 PUSH1 0x1 ADD SWAP1 PUSH1 0x20 ADD DUP1 DUP4 GT PUSH2 0xAEC JUMPI DUP3 SWAP1 SUB PUSH1 0x1F AND DUP3 ADD SWAP2 JUMPDEST POP POP POP POP POP SWAP2 POP SWAP3 POP SWAP3 POP POP SWAP3 POP SWAP3 SWAP1 POP JUMP JUMPDEST PUSH2 0xB24 PUSH2 0x33C6 JUMP JUMPDEST PUSH0 DUP2 SUB PUSH2 0xB5D JUMPI PUSH1 0x40 MLOAD PUSH32 0x608294AC00000000000000000000000000000000000000000000000000000000 DUP2 MSTORE PUSH1 0x4 ADD PUSH1 0x40 MLOAD DUP1 SWAP2 SUB SWAP1 REVERT JUMPDEST PUSH0 PUSH20 0xFFFFFFFFFFFFFFFFFFFFFFFFFFFFFFFFFFFFFFFF AND DUP4 PUSH20 0xFFFFFFFFFFFFFFFFFFFFFFFFFFFFFFFFFFFFFFFF AND SUB PUSH2 0xCB3 JUMPI PUSH0 PUSH1 0x4 PUSH0 CALLER PUSH20 0xFFFFFFFFFFFFFFFFFFFFFFFFFFFFFFFFFFFFFFFF AND PUSH20 0xFFFFFFFFFFFFFFFFFFFFFFFFFFFFFFFFFFFFFFFF AND DUP2 MSTORE PUSH1 0x20 ADD SWAP1 DUP2 MSTORE PUSH1 0x20 ADD PUSH0 KECCAK256 PUSH0 DUP5 PUSH20 0xFFFFFFFFFFFFFFFFFFFFFFFFFFFFFFFFFFFFFFFF AND PUSH20 0xFFFFFFFFFFFFFFFFFFFFFFFFFFFFFFFFFFFFFFFF AND DUP2 MSTORE PUSH1 0x20 ADD SWAP1 DUP2 MSTORE PUSH1 0x20 ADD PUSH0 KECCAK256 SWAP1 POP DUP1 PUSH1 0x3 ADD PUSH0 SWAP1 SLOAD SWAP1 PUSH2 0x100 EXP SWAP1 DIV PUSH1 0xFF AND PUSH2 0xC52 JUMPI PUSH1 0x40 MLOAD PUSH32 0xDA2B2F1300000000000000000000000000000000000000000000000000000000 DUP2 MSTORE PUSH1 0x4 ADD PUSH1 0x40 MLOAD DUP1 SWAP2 SUB SWAP1 REVERT JUMPDEST PUSH0 DUP2 PUSH1 0x1 ADD SLOAD EQ ISZERO DUP1 ISZERO PUSH2 0xC69 JUMPI POP DUP1 PUSH1 0x1 ADD SLOAD DUP3 GT JUMPDEST ISZERO PUSH2 0xCB1 JUMPI DUP2 DUP2 PUSH1 0x1 ADD SLOAD PUSH1 0x40 MLOAD PUSH32 0xC96B3F2900000000000000000000000000000000000000000000000000000000 DUP2 MSTORE PUSH1 0x4 ADD PUSH2 0xCA8 SWAP3 SWAP2 SWAP1 PUSH2 0x43AA JUMP JUMPDEST PUSH1 0x40 MLOAD DUP1 SWAP2 SUB SWAP1 REVERT JUMPDEST POP JUMPDEST PUSH0 PUSH1 0x6 PUSH0 DUP6 PUSH20 0xFFFFFFFFFFFFFFFFFFFFFFFFFFFFFFFFFFFFFFFF AND PUSH20 0xFFFFFFFFFFFFFFFFFFFFFFFFFFFFFFFFFFFFFFFF AND DUP2 MSTORE PUSH1 0x20 ADD SWAP1 DUP2 MSTORE PUSH1 0x20 ADD PUSH0 KECCAK256 PUSH0 CALLER PUSH20 0xFFFFFFFFFFFFFFFFFFFFFFFFFFFFFFFFFFFFFFFF AND PUSH20 0xFFFFFFFFFFFFFFFFFFFFFFFFFFFFFFFFFFFFFFFF AND DUP2 MSTORE PUSH1 0x20 ADD SWAP1 DUP2 MSTORE PUSH1 0x20 ADD PUSH0 KECCAK256 SLOAD SWAP1 POP DUP2 DUP2 LT ISZERO PUSH2 0xD76 JUMPI DUP1 DUP3 PUSH1 0x40 MLOAD PUSH32 0x9D2AFA9000000000000000000000000000000000000000000000000000000000 DUP2 MSTORE PUSH1 0x4 ADD PUSH2 0xD6D SWAP3 SWAP2 SWAP1 PUSH2 0x43AA JUMP JUMPDEST PUSH1 0x40 MLOAD DUP1 SWAP2 SUB SWAP1 REVERT JUMPDEST DUP2 DUP2 PUSH2 0xD82 SWAP2 SWAP1 PUSH2 0x43FE JUMP JUMPDEST PUSH1 0x6 PUSH0 DUP7 PUSH20 0xFFFFFFFFFFFFFFFFFFFFFFFFFFFFFFFFFFFFFFFF AND PUSH20 0xFFFFFFFFFFFFFFFFFFFFFFFFFFFFFFFFFFFFFFFF AND DUP2 MSTORE PUSH1 0x20 ADD SWAP1 DUP2 MSTORE PUSH1 0x20 ADD PUSH0 KECCAK256 PUSH0 CALLER PUSH20 0xFFFFFFFFFFFFFFFFFFFFFFFFFFFFFFFFFFFFFFFF AND PUSH20 0xFFFFFFFFFFFFFFFFFFFFFFFFFFFFFFFFFFFFFFFF AND DUP2 MSTORE PUSH1 0x20 ADD SWAP1 DUP2 MSTORE PUSH1 0x20 ADD PUSH0 KECCAK256 DUP2 SWAP1 SSTORE POP DUP2 PUSH1 0x6 PUSH0 DUP7 PUSH20 0xFFFFFFFFFFFFFFFFFFFFFFFFFFFFFFFFFFFFFFFF AND PUSH20 0xFFFFFFFFFFFFFFFFFFFFFFFFFFFFFFFFFFFFFFFF AND DUP2 MSTORE PUSH1 0x20 ADD SWAP1 DUP2 MSTORE PUSH1 0x20 ADD PUSH0 KECCAK256 PUSH0 DUP6 PUSH20 0xFFFFFFFFFFFFFFFFFFFFFFFFFFFFFFFFFFFFFFFF AND PUSH20 0xFFFFFFFFFFFFFFFFFFFFFFFFFFFFFFFFFFFFFFFF AND DUP2 MSTORE PUSH1 0x20 ADD SWAP1 DUP2 MSTORE PUSH1 0x20 ADD PUSH0 KECCAK256 PUSH0 DUP3 DUP3 SLOAD PUSH2 0xE85 SWAP2 SWAP1 PUSH2 0x4431 JUMP JUMPDEST SWAP3 POP POP DUP2 SWAP1 SSTORE POP DUP3 PUSH20 0xFFFFFFFFFFFFFFFFFFFFFFFFFFFFFFFFFFFFFFFF AND CALLER PUSH20 0xFFFFFFFFFFFFFFFFFFFFFFFFFFFFFFFFFFFFFFFF AND DUP6 PUSH20 0xFFFFFFFFFFFFFFFFFFFFFFFFFFFFFFFFFFFFFFFF AND PUSH32 0x77178BCF8F3C991D39734824771477A42787FE19B60D5A29C0EC72DE167699B3 DUP6 PUSH1 0x40 MLOAD PUSH2 0xF00 SWAP2 SWAP1 PUSH2 0x40A0 JUMP JUMPDEST PUSH1 0x40 MLOAD DUP1 SWAP2 SUB SWAP1 LOG4 POP POP POP POP JUMP JUMPDEST PUSH0 PUSH1 0x1 PUSH0 DUP4 DUP2 MSTORE PUSH1 0x20 ADD SWAP1 DUP2 MSTORE PUSH1 0x20 ADD PUSH0 KECCAK256 PUSH1 0x1 ADD SLOAD SWAP1 POP SWAP2 SWAP1 POP JUMP JUMPDEST PUSH2 0xF34 DUP3 PUSH2 0xF0E JUMP JUMPDEST PUSH2 0xF3D DUP2 PUSH2 0x3407 JUMP JUMPDEST PUSH2 0xF47 DUP4 DUP4 PUSH2 0x341B JUMP JUMPDEST POP POP POP POP JUMP JUMPDEST PUSH2 0xF55 PUSH2 0x3504 JUMP JUMPDEST PUSH20 0xFFFFFFFFFFFFFFFFFFFFFFFFFFFFFFFFFFFFFFFF AND DUP2 PUSH20 0xFFFFFFFFFFFFFFFFFFFFFFFFFFFFFFFFFFFFFFFF AND EQ PUSH2 0xFB9 JUMPI PUSH1 0x40 MLOAD PUSH32 0x6697B23200000000000000000000000000000000000000000000000000000000 DUP2 MSTORE PUSH1 0x4 ADD PUSH1 0x40 MLOAD DUP1 SWAP2 SUB SWAP1 REVERT JUMPDEST PUSH2 0xFC3 DUP3 DUP3 PUSH2 0x350B JUMP JUMPDEST POP POP POP JUMP JUMPDEST PUSH32 0x65D7A28E3265B37A6474929F336521B332C1681B933F6CB9F3376673440D862A PUSH2 0xFF2 DUP2 PUSH2 0x3407 JUMP JUMPDEST PUSH2 0xFFA PUSH2 0x35F5 JUMP JUMPDEST POP JUMP JUMPDEST PUSH0 PUSH0 SHL PUSH2 0x1009 DUP2 PUSH2 0x3407 JUMP JUMPDEST PUSH0 PUSH20 0xFFFFFFFFFFFFFFFFFFFFFFFFFFFFFFFFFFFFFFFF AND DUP4 PUSH20 0xFFFFFFFFFFFFFFFFFFFFFFFFFFFFFFFFFFFFFFFF AND SUB PUSH2 0x1077 JUMPI PUSH1 0x40 MLOAD PUSH32 0x8C379A000000000000000000000000000000000000000000000000000000000 DUP2 MSTORE PUSH1 0x4 ADD PUSH2 0x106E SWAP1 PUSH2 0x44AE JUMP JUMPDEST PUSH1 0x40 MLOAD DUP1 SWAP2 SUB SWAP1 REVERT JUMPDEST PUSH0 DUP4 PUSH20 0xFFFFFFFFFFFFFFFFFFFFFFFFFFFFFFFFFFFFFFFF AND PUSH4 0x313CE567 PUSH1 0x40 MLOAD DUP2 PUSH4 0xFFFFFFFF AND PUSH1 0xE0 SHL DUP2 MSTORE PUSH1 0x4 ADD PUSH1 0x20 PUSH1 0x40 MLOAD DUP1 DUP4 SUB DUP2 DUP7 GAS STATICCALL ISZERO DUP1 ISZERO PUSH2 0x10C1 JUMPI RETURNDATASIZE PUSH0 PUSH0 RETURNDATACOPY RETURNDATASIZE PUSH0 REVERT JUMPDEST POP POP POP POP PUSH1 0x40 MLOAD RETURNDATASIZE PUSH1 0x1F NOT PUSH1 0x1F DUP3 ADD AND DUP3 ADD DUP1 PUSH1 0x40 MSTORE POP DUP2 ADD SWAP1 PUSH2 0x10E5 SWAP2 SWAP1 PUSH2 0x44F6 JUMP JUMPDEST SWAP1 POP DUP1 PUSH1 0x8 PUSH0 DUP7 PUSH20 0xFFFFFFFFFFFFFFFFFFFFFFFFFFFFFFFFFFFFFFFF AND PUSH20 0xFFFFFFFFFFFFFFFFFFFFFFFFFFFFFFFFFFFFFFFF AND DUP2 MSTORE PUSH1 0x20 ADD SWAP1 DUP2 MSTORE PUSH1 0x20 ADD PUSH0 KECCAK256 PUSH0 PUSH2 0x100 EXP DUP2 SLOAD DUP2 PUSH1 0xFF MUL NOT AND SWAP1 DUP4 PUSH1 0xFF AND MUL OR SWAP1 SSTORE POP PUSH0 PUSH1 0x9 PUSH0 DUP7 PUSH20 0xFFFFFFFFFFFFFFFFFFFFFFFFFFFFFFFFFFFFFFFF AND PUSH20 0xFFFFFFFFFFFFFFFFFFFFFFFFFFFFFFFFFFFFFFFF AND DUP2 MSTORE PUSH1 0x20 ADD SWAP1 DUP2 MSTORE PUSH1 0x20 ADD PUSH0 KECCAK256 PUSH0 SWAP1 SLOAD SWAP1 PUSH2 0x100 EXP SWAP1 DIV PUSH20 0xFFFFFFFFFFFFFFFFFFFFFFFFFFFFFFFFFFFFFFFF AND SWAP1 POP DUP4 PUSH1 0x9 PUSH0 DUP8 PUSH20 0xFFFFFFFFFFFFFFFFFFFFFFFFFFFFFFFFFFFFFFFF AND PUSH20 0xFFFFFFFFFFFFFFFFFFFFFFFFFFFFFFFFFFFFFFFF AND DUP2 MSTORE PUSH1 0x20 ADD SWAP1 DUP2 MSTORE PUSH1 0x20 ADD PUSH0 KECCAK256 PUSH0 PUSH2 0x100 EXP DUP2 SLOAD DUP2 PUSH20 0xFFFFFFFFFFFFFFFFFFFFFFFFFFFFFFFFFFFFFFFF MUL NOT AND SWAP1 DUP4 PUSH20 0xFFFFFFFFFFFFFFFFFFFFFFFFFFFFFFFFFFFFFFFF AND MUL OR SWAP1 SSTORE POP PUSH0 PUSH20 0xFFFFFFFFFFFFFFFFFFFFFFFFFFFFFFFFFFFFFFFF AND DUP2 PUSH20 0xFFFFFFFFFFFFFFFFFFFFFFFFFFFFFFFFFFFFFFFF AND SUB PUSH2 0x129F JUMPI DUP5 PUSH20 0xFFFFFFFFFFFFFFFFFFFFFFFFFFFFFFFFFFFFFFFF AND PUSH32 0xAD641C56C3FB7D6DB68A25F7A2DF661DE9F142CDCA30280AB8C4A8566BA760A5 DUP4 DUP7 PUSH1 0x40 MLOAD PUSH2 0x1292 SWAP3 SWAP2 SWAP1 PUSH2 0x4521 JUMP JUMPDEST PUSH1 0x40 MLOAD DUP1 SWAP2 SUB SWAP1 LOG2 PUSH2 0x12F0 JUMP JUMPDEST DUP5 PUSH20 0xFFFFFFFFFFFFFFFFFFFFFFFFFFFFFFFFFFFFFFFF AND PUSH32 0x321E37F6A0404DBAED483CC2ECE840899199567B4A62F4639EFF9587735B87FD DUP3 DUP7 PUSH1 0x40 MLOAD PUSH2 0x12E7 SWAP3 SWAP2 SWAP1 PUSH2 0x4548 JUMP JUMPDEST PUSH1 0x40 MLOAD DUP1 SWAP2 SUB SWAP1 LOG2 JUMPDEST POP POP POP POP POP JUMP JUMPDEST PUSH2 0x12FF PUSH2 0x33C6 JUMP JUMPDEST PUSH2 0x1307 PUSH2 0x3656 JUMP JUMPDEST PUSH0 DUP2 SUB PUSH2 0x1340 JUMPI PUSH1 0x40 MLOAD PUSH32 0x608294AC00000000000000000000000000000000000000000000000000000000 DUP2 MSTORE PUSH1 0x4 ADD PUSH1 0x40 MLOAD DUP1 SWAP2 SUB SWAP1 REVERT JUMPDEST PUSH0 PUSH20 0xFFFFFFFFFFFFFFFFFFFFFFFFFFFFFFFFFFFFFFFF AND DUP3 PUSH20 0xFFFFFFFFFFFFFFFFFFFFFFFFFFFFFFFFFFFFFFFF AND SUB PUSH2 0x13BA JUMPI DUP1 CALLVALUE EQ PUSH2 0x13B5 JUMPI PUSH1 0x40 MLOAD PUSH32 0x8C379A000000000000000000000000000000000000000000000000000000000 DUP2 MSTORE PUSH1 0x4 ADD PUSH2 0x13AC SWAP1 PUSH2 0x45B9 JUMP JUMPDEST PUSH1 0x40 MLOAD DUP1 SWAP2 SUB SWAP1 REVERT JUMPDEST PUSH2 0x13E8 JUMP JUMPDEST PUSH2 0x13E7 CALLER ADDRESS DUP4 DUP6 PUSH20 0xFFFFFFFFFFFFFFFFFFFFFFFFFFFFFFFFFFFFFFFF AND PUSH2 0x369C SWAP1 SWAP4 SWAP3 SWAP2 SWAP1 PUSH4 0xFFFFFFFF AND JUMP JUMPDEST JUMPDEST PUSH2 0x13F4 DUP3 DUP3 PUSH1 0x1 PUSH2 0x371E JUMP JUMPDEST DUP1 PUSH1 0x6 PUSH0 DUP5 PUSH20 0xFFFFFFFFFFFFFFFFFFFFFFFFFFFFFFFFFFFFFFFF AND PUSH20 0xFFFFFFFFFFFFFFFFFFFFFFFFFFFFFFFFFFFFFFFF AND DUP2 MSTORE PUSH1 0x20 ADD SWAP1 DUP2 MSTORE PUSH1 0x20 ADD PUSH0 KECCAK256 PUSH0 CALLER PUSH20 0xFFFFFFFFFFFFFFFFFFFFFFFFFFFFFFFFFFFFFFFF AND PUSH20 0xFFFFFFFFFFFFFFFFFFFFFFFFFFFFFFFFFFFFFFFF AND DUP2 MSTORE PUSH1 0x20 ADD SWAP1 DUP2 MSTORE PUSH1 0x20 ADD PUSH0 KECCAK256 PUSH0 DUP3 DUP3 SLOAD PUSH2 0x147B SWAP2 SWAP1 PUSH2 0x4431 JUMP JUMPDEST SWAP3 POP POP DUP2 SWAP1 SSTORE POP DUP1 PUSH1 0x7 PUSH0 DUP5 PUSH20 0xFFFFFFFFFFFFFFFFFFFFFFFFFFFFFFFFFFFFFFFF AND PUSH20 0xFFFFFFFFFFFFFFFFFFFFFFFFFFFFFFFFFFFFFFFF AND DUP2 MSTORE PUSH1 0x20 ADD SWAP1 DUP2 MSTORE PUSH1 0x20 ADD PUSH0 KECCAK256 PUSH0 DUP3 DUP3 SLOAD PUSH2 0x14CE SWAP2 SWAP1 PUSH2 0x4431 JUMP JUMPDEST SWAP3 POP POP DUP2 SWAP1 SSTORE POP CALLER PUSH20 0xFFFFFFFFFFFFFFFFFFFFFFFFFFFFFFFFFFFFFFFF AND DUP3 PUSH20 0xFFFFFFFFFFFFFFFFFFFFFFFFFFFFFFFFFFFFFFFF AND PUSH32 0xDCBC1C05240F31FF3AD067EF1EE35CE4997762752E3A095284754544F4C709D7 DUP4 PUSH1 0x6 PUSH0 DUP8 PUSH20 0xFFFFFFFFFFFFFFFFFFFFFFFFFFFFFFFFFFFFFFFF AND PUSH20 0xFFFFFFFFFFFFFFFFFFFFFFFFFFFFFFFFFFFFFFFF AND DUP2 MSTORE PUSH1 0x20 ADD SWAP1 DUP2 MSTORE PUSH1 0x20 ADD PUSH0 KECCAK256 PUSH0 CALLER PUSH20 0xFFFFFFFFFFFFFFFFFFFFFFFFFFFFFFFFFFFFFFFF AND PUSH20 0xFFFFFFFFFFFFFFFFFFFFFFFFFFFFFFFFFFFFFFFF AND DUP2 MSTORE PUSH1 0x20 ADD SWAP1 DUP2 MSTORE PUSH1 0x20 ADD PUSH0 KECCAK256 SLOAD PUSH1 0x40 MLOAD PUSH2 0x15AC SWAP3 SWAP2 SWAP1 PUSH2 0x43AA JUMP JUMPDEST PUSH1 0x40 MLOAD DUP1 SWAP2 SUB SWAP1 LOG3 PUSH2 0x15BC PUSH2 0x3801 JUMP JUMPDEST POP POP JUMP JUMPDEST PUSH0 PUSH1 0x4 PUSH0 CALLER PUSH20 0xFFFFFFFFFFFFFFFFFFFFFFFFFFFFFFFFFFFFFFFF AND PUSH20 0xFFFFFFFFFFFFFFFFFFFFFFFFFFFFFFFFFFFFFFFF AND DUP2 MSTORE PUSH1 0x20 ADD SWAP1 DUP2 MSTORE PUSH1 0x20 ADD PUSH0 KECCAK256 PUSH0 DUP5 PUSH20 0xFFFFFFFFFFFFFFFFFFFFFFFFFFFFFFFFFFFFFFFF AND PUSH20 0xFFFFFFFFFFFFFFFFFFFFFFFFFFFFFFFFFFFFFFFF AND DUP2 MSTORE PUSH1 0x20 ADD SWAP1 DUP2 MSTORE PUSH1 0x20 ADD PUSH0 KECCAK256 SWAP1 POP DUP1 PUSH1 0x3 ADD PUSH0 SWAP1 SLOAD SWAP1 PUSH2 0x100 EXP SWAP1 DIV PUSH1 0xFF AND PUSH2 0x1682 JUMPI PUSH1 0x40 MLOAD PUSH32 0xDA2B2F1300000000000000000000000000000000000000000000000000000000 DUP2 MSTORE PUSH1 0x4 ADD PUSH1 0x40 MLOAD DUP1 SWAP2 SUB SWAP1 REVERT JUMPDEST DUP2 DUP2 PUSH1 0x1 ADD DUP2 SWAP1 SSTORE POP DUP3 PUSH20 0xFFFFFFFFFFFFFFFFFFFFFFFFFFFFFFFFFFFFFFFF AND CALLER PUSH20 0xFFFFFFFFFFFFFFFFFFFFFFFFFFFFFFFFFFFFFFFF AND PUSH32 0x79BDF489B3A4E4F4C835420C6AA2BC4C1CD787D185D0E56E599A2C92FB88DC2E DUP5 PUSH1 0x40 MLOAD PUSH2 0x16E8 SWAP2 SWAP1 PUSH2 0x40A0 JUMP JUMPDEST PUSH1 0x40 MLOAD DUP1 SWAP2 SUB SWAP1 LOG3 POP POP POP JUMP JUMPDEST PUSH0 PUSH0 PUSH2 0x1700 PUSH0 PUSH2 0x19C2 JUMP JUMPDEST SWAP1 POP DUP1 PUSH1 0x1 DUP3 PUSH8 0xDE0B6B3A7640000 DUP7 MUL ADD SUB DUP2 PUSH2 0x1721 JUMPI PUSH2 0x1720 PUSH2 0x45D7 JUMP JUMPDEST JUMPDEST DIV SWAP2 POP POP SWAP2 SWAP1 POP JUMP JUMPDEST PUSH1 0xA SLOAD DUP2 JUMP JUMPDEST PUSH32 0x0 DUP2 JUMP JUMPDEST PUSH0 PUSH1 0x2 PUSH0 SWAP1 SLOAD SWAP1 PUSH2 0x100 EXP SWAP1 DIV PUSH1 0xFF AND SWAP1 POP SWAP1 JUMP JUMPDEST PUSH2 0x1771 PUSH2 0x380B JUMP JUMPDEST PUSH2 0x177A PUSH0 PUSH2 0x3892 JUMP JUMPDEST JUMP JUMPDEST PUSH32 0x65D7A28E3265B37A6474929F336521B332C1681B933F6CB9F3376673440D862A PUSH2 0x17A6 DUP2 PUSH2 0x3407 JUMP JUMPDEST PUSH2 0x17AE PUSH2 0x3953 JUMP JUMPDEST POP JUMP JUMPDEST PUSH0 PUSH0 PUSH0 SWAP1 SLOAD SWAP1 PUSH2 0x100 EXP SWAP1 DIV PUSH20 0xFFFFFFFFFFFFFFFFFFFFFFFFFFFFFFFFFFFFFFFF AND SWAP1 POP SWAP1 JUMP JUMPDEST PUSH1 0x8 PUSH1 0x20 MSTORE DUP1 PUSH0 MSTORE PUSH1 0x40 PUSH0 KECCAK256 PUSH0 SWAP2 POP SLOAD SWAP1 PUSH2 0x100 EXP SWAP1 DIV PUSH1 0xFF AND DUP2 JUMP JUMPDEST PUSH0 PUSH1 0x7 PUSH0 DUP4 PUSH20 0xFFFFFFFFFFFFFFFFFFFFFFFFFFFFFFFFFFFFFFFF AND PUSH20 0xFFFFFFFFFFFFFFFFFFFFFFFFFFFFFFFFFFFFFFFF AND DUP2 MSTORE PUSH1 0x20 ADD SWAP1 DUP2 MSTORE PUSH1 0x20 ADD PUSH0 KECCAK256 SLOAD SWAP1 POP SWAP2 SWAP1 POP JUMP JUMPDEST PUSH0 PUSH1 0x1 PUSH0 DUP5 DUP2 MSTORE PUSH1 0x20 ADD SWAP1 DUP2 MSTORE PUSH1 0x20 ADD PUSH0 KECCAK256 PUSH0 ADD PUSH0 DUP4 PUSH20 0xFFFFFFFFFFFFFFFFFFFFFFFFFFFFFFFFFFFFFFFF AND PUSH20 0xFFFFFFFFFFFFFFFFFFFFFFFFFFFFFFFFFFFFFFFF AND DUP2 MSTORE PUSH1 0x20 ADD SWAP1 DUP2 MSTORE PUSH1 0x20 ADD PUSH0 KECCAK256 PUSH0 SWAP1 SLOAD SWAP1 PUSH2 0x100 EXP SWAP1 DIV PUSH1 0xFF AND SWAP1 POP SWAP3 SWAP2 POP POP JUMP JUMPDEST PUSH0 PUSH0 PUSH0 PUSH1 0x5 PUSH0 DUP8 PUSH20 0xFFFFFFFFFFFFFFFFFFFFFFFFFFFFFFFFFFFFFFFF AND PUSH20 0xFFFFFFFFFFFFFFFFFFFFFFFFFFFFFFFFFFFFFFFF AND DUP2 MSTORE PUSH1 0x20 ADD SWAP1 DUP2 MSTORE PUSH1 0x20 ADD PUSH0 KECCAK256 PUSH0 DUP7 DUP7 PUSH1 0x40 MLOAD PUSH2 0x18F0 SWAP3 SWAP2 SWAP1 PUSH2 0x4640 JUMP JUMPDEST PUSH1 0x40 MLOAD DUP1 SWAP2 SUB SWAP1 KECCAK256 DUP2 MSTORE PUSH1 0x20 ADD SWAP1 DUP2 MSTORE PUSH1 0x20 ADD PUSH0 KECCAK256 PUSH0 SWAP1 SLOAD SWAP1 PUSH2 0x100 EXP SWAP1 DIV PUSH20 0xFFFFFFFFFFFFFFFFFFFFFFFFFFFFFFFFFFFFFFFF AND SWAP1 POP PUSH0 PUSH1 0x4 PUSH0 DUP9 PUSH20 0xFFFFFFFFFFFFFFFFFFFFFFFFFFFFFFFFFFFFFFFF AND PUSH20 0xFFFFFFFFFFFFFFFFFFFFFFFFFFFFFFFFFFFFFFFF AND DUP2 MSTORE PUSH1 0x20 ADD SWAP1 DUP2 MSTORE PUSH1 0x20 ADD PUSH0 KECCAK256 PUSH0 DUP4 PUSH20 0xFFFFFFFFFFFFFFFFFFFFFFFFFFFFFFFFFFFFFFFF AND PUSH20 0xFFFFFFFFFFFFFFFFFFFFFFFFFFFFFFFFFFFFFFFF AND DUP2 MSTORE PUSH1 0x20 ADD SWAP1 DUP2 MSTORE PUSH1 0x20 ADD PUSH0 KECCAK256 SWAP1 POP DUP2 DUP2 PUSH1 0x3 ADD PUSH0 SWAP1 SLOAD SWAP1 PUSH2 0x100 EXP SWAP1 DIV PUSH1 0xFF AND SWAP4 POP SWAP4 POP POP POP SWAP4 POP SWAP4 SWAP2 POP POP JUMP JUMPDEST PUSH0 PUSH0 PUSH1 0x9 PUSH0 DUP5 PUSH20 0xFFFFFFFFFFFFFFFFFFFFFFFFFFFFFFFFFFFFFFFF AND PUSH20 0xFFFFFFFFFFFFFFFFFFFFFFFFFFFFFFFFFFFFFFFF AND DUP2 MSTORE PUSH1 0x20 ADD SWAP1 DUP2 MSTORE PUSH1 0x20 ADD PUSH0 KECCAK256 PUSH0 SWAP1 SLOAD SWAP1 PUSH2 0x100 EXP SWAP1 DIV PUSH20 0xFFFFFFFFFFFFFFFFFFFFFFFFFFFFFFFFFFFFFFFF AND SWAP1 POP PUSH0 DUP2 PUSH20 0xFFFFFFFFFFFFFFFFFFFFFFFFFFFFFFFFFFFFFFFF AND PUSH4 0xFEAF968C PUSH1 0x40 MLOAD DUP2 PUSH4 0xFFFFFFFF AND PUSH1 0xE0 SHL DUP2 MSTORE PUSH1 0x4 ADD PUSH1 0xA0 PUSH1 0x40 MLOAD DUP1 DUP4 SUB DUP2 DUP7 GAS STATICCALL ISZERO DUP1 ISZERO PUSH2 0x1A6D JUMPI RETURNDATASIZE PUSH0 PUSH0 RETURNDATACOPY RETURNDATASIZE PUSH0 REVERT JUMPDEST POP POP POP POP PUSH1 0x40 MLOAD RETURNDATASIZE PUSH1 0x1F NOT PUSH1 0x1F DUP3 ADD AND DUP3 ADD DUP1 PUSH1 0x40 MSTORE POP DUP2 ADD SWAP1 PUSH2 0x1A91 SWAP2 SWAP1 PUSH2 0x46DE JUMP JUMPDEST POP POP POP SWAP2 POP POP PUSH0 DUP2 SGT PUSH2 0x1AD0 JUMPI PUSH1 0x40 MLOAD PUSH32 0xFD1EE34900000000000000000000000000000000000000000000000000000000 DUP2 MSTORE PUSH1 0x4 ADD PUSH1 0x40 MLOAD DUP1 SWAP2 SUB SWAP1 REVERT JUMPDEST PUSH0 DUP3 PUSH20 0xFFFFFFFFFFFFFFFFFFFFFFFFFFFFFFFFFFFFFFFF AND PUSH4 0x313CE567 PUSH1 0x40 MLOAD DUP2 PUSH4 0xFFFFFFFF AND PUSH1 0xE0 SHL DUP2 MSTORE PUSH1 0x4 ADD PUSH1 0x20 PUSH1 0x40 MLOAD DUP1 DUP4 SUB DUP2 DUP7 GAS STATICCALL ISZERO DUP1 ISZERO PUSH2 0x1B1A JUMPI RETURNDATASIZE PUSH0 PUSH0 RETURNDATACOPY RETURNDATASIZE PUSH0 REVERT JUMPDEST POP POP POP POP PUSH1 0x40 MLOAD RETURNDATASIZE PUSH1 0x1F NOT PUSH1 0x1F DUP3 ADD AND DUP3 ADD DUP1 PUSH1 0x40 MSTORE POP DUP2 ADD SWAP1 PUSH2 0x1B3E SWAP2 SWAP1 PUSH2 0x44F6 JUMP JUMPDEST SWAP1 POP PUSH0 DUP3 SWAP1 POP PUSH1 0x8 DUP3 PUSH1 0xFF AND EQ PUSH2 0x1BAD JUMPI PUSH1 0x8 DUP3 PUSH1 0xFF AND GT PUSH2 0x1B83 JUMPI DUP2 PUSH1 0x8 PUSH2 0x1B67 SWAP2 SWAP1 PUSH2 0x4755 JUMP JUMPDEST PUSH1 0xA PUSH2 0x1B73 SWAP2 SWAP1 PUSH2 0x48B8 JUMP JUMPDEST DUP2 PUSH2 0x1B7E SWAP2 SWAP1 PUSH2 0x4902 JUMP JUMPDEST PUSH2 0x1BA8 JUMP JUMPDEST PUSH1 0x8 DUP3 PUSH2 0x1B90 SWAP2 SWAP1 PUSH2 0x4755 JUMP JUMPDEST PUSH1 0xA PUSH2 0x1B9C SWAP2 SWAP1 PUSH2 0x48B8 JUMP JUMPDEST DUP2 PUSH2 0x1BA7 SWAP2 SWAP1 PUSH2 0x4943 JUMP JUMPDEST JUMPDEST PUSH2 0x1BAF JUMP JUMPDEST DUP1 JUMPDEST SWAP5 POP POP POP POP POP SWAP2 SWAP1 POP JUMP JUMPDEST PUSH0 PUSH0 SHL DUP2 JUMP JUMPDEST PUSH0 PUSH1 0x4 PUSH0 CALLER PUSH20 0xFFFFFFFFFFFFFFFFFFFFFFFFFFFFFFFFFFFFFFFF AND PUSH20 0xFFFFFFFFFFFFFFFFFFFFFFFFFFFFFFFFFFFFFFFF AND DUP2 MSTORE PUSH1 0x20 ADD SWAP1 DUP2 MSTORE PUSH1 0x20 ADD PUSH0 KECCAK256 PUSH0 DUP4 PUSH20 0xFFFFFFFFFFFFFFFFFFFFFFFFFFFFFFFFFFFFFFFF AND PUSH20 0xFFFFFFFFFFFFFFFFFFFFFFFFFFFFFFFFFFFFFFFF AND DUP2 MSTORE PUSH1 0x20 ADD SWAP1 DUP2 MSTORE PUSH1 0x20 ADD PUSH0 KECCAK256 SWAP1 POP DUP1 PUSH1 0x3 ADD PUSH0 SWAP1 SLOAD SWAP1 PUSH2 0x100 EXP SWAP1 DIV PUSH1 0xFF AND PUSH2 0x1C82 JUMPI PUSH1 0x40 MLOAD PUSH32 0xDA2B2F1300000000000000000000000000000000000000000000000000000000 DUP2 MSTORE PUSH1 0x4 ADD PUSH1 0x40 MLOAD DUP1 SWAP2 SUB SWAP1 REVERT JUMPDEST PUSH0 DUP2 PUSH0 ADD PUSH1 0x40 MLOAD PUSH2 0x1C93 SWAP2 SWAP1 PUSH2 0x4A05 JUMP JUMPDEST PUSH1 0x40 MLOAD DUP1 SWAP2 SUB SWAP1 KECCAK256 SWAP1 POP DUP3 PUSH20 0xFFFFFFFFFFFFFFFFFFFFFFFFFFFFFFFFFFFFFFFF AND PUSH1 0x5 PUSH0 CALLER PUSH20 0xFFFFFFFFFFFFFFFFFFFFFFFFFFFFFFFFFFFFFFFF AND PUSH20 0xFFFFFFFFFFFFFFFFFFFFFFFFFFFFFFFFFFFFFFFF AND DUP2 MSTORE PUSH1 0x20 ADD SWAP1 DUP2 MSTORE PUSH1 0x20 ADD PUSH0 KECCAK256 PUSH0 DUP4 DUP2 MSTORE PUSH1 0x20 ADD SWAP1 DUP2 MSTORE PUSH1 0x20 ADD PUSH0 KECCAK256 PUSH0 SWAP1 SLOAD SWAP1 PUSH2 0x100 EXP SWAP1 DIV PUSH20 0xFFFFFFFFFFFFFFFFFFFFFFFFFFFFFFFFFFFFFFFF AND PUSH20 0xFFFFFFFFFFFFFFFFFFFFFFFFFFFFFFFFFFFFFFFF AND SUB PUSH2 0x1DAA JUMPI PUSH1 0x5 PUSH0 CALLER PUSH20 0xFFFFFFFFFFFFFFFFFFFFFFFFFFFFFFFFFFFFFFFF AND PUSH20 0xFFFFFFFFFFFFFFFFFFFFFFFFFFFFFFFFFFFFFFFF AND DUP2 MSTORE PUSH1 0x20 ADD SWAP1 DUP2 MSTORE PUSH1 0x20 ADD PUSH0 KECCAK256 PUSH0 DUP3 DUP2 MSTORE PUSH1 0x20 ADD SWAP1 DUP2 MSTORE PUSH1 0x20 ADD PUSH0 KECCAK256 PUSH0 PUSH2 0x100 EXP DUP2 SLOAD SWAP1 PUSH20 0xFFFFFFFFFFFFFFFFFFFFFFFFFFFFFFFFFFFFFFFF MUL NOT AND SWAP1 SSTORE JUMPDEST PUSH0 DUP3 PUSH0 ADD DUP1 SLOAD PUSH2 0x1DB9 SWAP1 PUSH2 0x437A JUMP JUMPDEST DUP1 PUSH1 0x1F ADD PUSH1 0x20 DUP1 SWAP2 DIV MUL PUSH1 0x20 ADD PUSH1 0x40 MLOAD SWAP1 DUP2 ADD PUSH1 0x40 MSTORE DUP1 SWAP3 SWAP2 SWAP1 DUP2 DUP2 MSTORE PUSH1 0x20 ADD DUP3 DUP1 SLOAD PUSH2 0x1DE5 SWAP1 PUSH2 0x437A JUMP JUMPDEST DUP1 ISZERO PUSH2 0x1E30 JUMPI DUP1 PUSH1 0x1F LT PUSH2 0x1E07 JUMPI PUSH2 0x100 DUP1 DUP4 SLOAD DIV MUL DUP4 MSTORE SWAP2 PUSH1 0x20 ADD SWAP2 PUSH2 0x1E30 JUMP JUMPDEST DUP3 ADD SWAP2 SWAP1 PUSH0 MSTORE PUSH1 0x20 PUSH0 KECCAK256 SWAP1 JUMPDEST DUP2 SLOAD DUP2 MSTORE SWAP1 PUSH1 0x1 ADD SWAP1 PUSH1 0x20 ADD DUP1 DUP4 GT PUSH2 0x1E13 JUMPI DUP3 SWAP1 SUB PUSH1 0x1F AND DUP3 ADD SWAP2 JUMPDEST POP POP POP POP POP SWAP1 POP PUSH1 0x4 PUSH0 CALLER PUSH20 0xFFFFFFFFFFFFFFFFFFFFFFFFFFFFFFFFFFFFFFFF AND PUSH20 0xFFFFFFFFFFFFFFFFFFFFFFFFFFFFFFFFFFFFFFFF AND DUP2 MSTORE PUSH1 0x20 ADD SWAP1 DUP2 MSTORE PUSH1 0x20 ADD PUSH0 KECCAK256 PUSH0 DUP6 PUSH20 0xFFFFFFFFFFFFFFFFFFFFFFFFFFFFFFFFFFFFFFFF AND PUSH20 0xFFFFFFFFFFFFFFFFFFFFFFFFFFFFFFFFFFFFFFFF AND DUP2 MSTORE PUSH1 0x20 ADD SWAP1 DUP2 MSTORE PUSH1 0x20 ADD PUSH0 KECCAK256 PUSH0 PUSH0 DUP3 ADD PUSH0 PUSH2 0x1EBE SWAP2 SWAP1 PUSH2 0x3BF9 JUMP JUMPDEST PUSH1 0x1 DUP3 ADD PUSH0 SWAP1 SSTORE PUSH1 0x2 DUP3 ADD PUSH0 SWAP1 SSTORE PUSH1 0x3 DUP3 ADD PUSH0 PUSH2 0x100 EXP DUP2 SLOAD SWAP1 PUSH1 0xFF MUL NOT AND SWAP1 SSTORE POP POP DUP4 PUSH20 0xFFFFFFFFFFFFFFFFFFFFFFFFFFFFFFFFFFFFFFFF AND CALLER PUSH20 0xFFFFFFFFFFFFFFFFFFFFFFFFFFFFFFFFFFFFFFFF AND PUSH32 0xE5A25C298748D4CEBCA849EBDBF68023DAC253726538ECE59DC0313B6E6839B2 DUP4 PUSH1 0x40 MLOAD PUSH2 0x1F3E SWAP2 SWAP1 PUSH2 0x432D JUMP JUMPDEST PUSH1 0x40 MLOAD DUP1 SWAP2 SUB SWAP1 LOG3 POP POP POP POP JUMP JUMPDEST PUSH2 0x1F54 PUSH2 0x33C6 JUMP JUMPDEST PUSH0 DUP2 SUB PUSH2 0x1F8D JUMPI PUSH1 0x40 MLOAD PUSH32 0x608294AC00000000000000000000000000000000000000000000000000000000 DUP2 MSTORE PUSH1 0x4 ADD PUSH1 0x40 MLOAD DUP1 SWAP2 SUB SWAP1 REVERT JUMPDEST PUSH0 PUSH1 0x5 PUSH0 CALLER PUSH20 0xFFFFFFFFFFFFFFFFFFFFFFFFFFFFFFFFFFFFFFFF AND PUSH20 0xFFFFFFFFFFFFFFFFFFFFFFFFFFFFFFFFFFFFFFFF AND DUP2 MSTORE PUSH1 0x20 ADD SWAP1 DUP2 MSTORE PUSH1 0x20 ADD PUSH0 KECCAK256 PUSH0 DUP6 DUP6 PUSH1 0x40 MLOAD PUSH2 0x1FDC SWAP3 SWAP2 SWAP1 PUSH2 0x4640 JUMP JUMPDEST PUSH1 0x40 MLOAD DUP1 SWAP2 SUB SWAP1 KECCAK256 DUP2 MSTORE PUSH1 0x20 ADD SWAP1 DUP2 MSTORE PUSH1 0x20 ADD PUSH0 KECCAK256 PUSH0 SWAP1 SLOAD SWAP1 PUSH2 0x100 EXP SWAP1 DIV PUSH20 0xFFFFFFFFFFFFFFFFFFFFFFFFFFFFFFFFFFFFFFFF AND SWAP1 POP PUSH0 PUSH1 0x4 PUSH0 CALLER PUSH20 0xFFFFFFFFFFFFFFFFFFFFFFFFFFFFFFFFFFFFFFFF AND PUSH20 0xFFFFFFFFFFFFFFFFFFFFFFFFFFFFFFFFFFFFFFFF AND DUP2 MSTORE PUSH1 0x20 ADD SWAP1 DUP2 MSTORE PUSH1 0x20 ADD PUSH0 KECCAK256 PUSH0 DUP4 PUSH20 0xFFFFFFFFFFFFFFFFFFFFFFFFFFFFFFFFFFFFFFFF AND PUSH20 0xFFFFFFFFFFFFFFFFFFFFFFFFFFFFFFFFFFFFFFFF AND DUP2 MSTORE PUSH1 0x20 ADD SWAP1 DUP2 MSTORE PUSH1 0x20 ADD PUSH0 KECCAK256 SWAP1 POP DUP1 PUSH1 0x3 ADD PUSH0 SWAP1 SLOAD SWAP1 PUSH2 0x100 EXP SWAP1 DIV PUSH1 0xFF AND PUSH2 0x20D5 JUMPI PUSH1 0x40 MLOAD PUSH32 0xDA2B2F1300000000000000000000000000000000000000000000000000000000 DUP2 MSTORE PUSH1 0x4 ADD PUSH1 0x40 MLOAD DUP1 SWAP2 SUB SWAP1 REVERT JUMPDEST PUSH0 PUSH20 0xFFFFFFFFFFFFFFFFFFFFFFFFFFFFFFFFFFFFFFFF AND DUP7 PUSH20 0xFFFFFFFFFFFFFFFFFFFFFFFFFFFFFFFFFFFFFFFF AND EQ DUP1 ISZERO PUSH2 0x2114 JUMPI POP PUSH0 DUP2 PUSH1 0x1 ADD SLOAD EQ ISZERO JUMPDEST DUP1 ISZERO PUSH2 0x2123 JUMPI POP DUP1 PUSH1 0x1 ADD SLOAD DUP4 GT JUMPDEST ISZERO PUSH2 0x216B JUMPI DUP3 DUP2 PUSH1 0x1 ADD SLOAD PUSH1 0x40 MLOAD PUSH32 0xC96B3F2900000000000000000000000000000000000000000000000000000000 DUP2 MSTORE PUSH1 0x4 ADD PUSH2 0x2162 SWAP3 SWAP2 SWAP1 PUSH2 0x43AA JUMP JUMPDEST PUSH1 0x40 MLOAD DUP1 SWAP2 SUB SWAP1 REVERT JUMPDEST PUSH0 PUSH1 0x6 PUSH0 DUP9 PUSH20 0xFFFFFFFFFFFFFFFFFFFFFFFFFFFFFFFFFFFFFFFF AND PUSH20 0xFFFFFFFFFFFFFFFFFFFFFFFFFFFFFFFFFFFFFFFF AND DUP2 MSTORE PUSH1 0x20 ADD SWAP1 DUP2 MSTORE PUSH1 0x20 ADD PUSH0 KECCAK256 PUSH0 CALLER PUSH20 0xFFFFFFFFFFFFFFFFFFFFFFFFFFFFFFFFFFFFFFFF AND PUSH20 0xFFFFFFFFFFFFFFFFFFFFFFFFFFFFFFFFFFFFFFFF AND DUP2 MSTORE PUSH1 0x20 ADD SWAP1 DUP2 MSTORE PUSH1 0x20 ADD PUSH0 KECCAK256 SLOAD SWAP1 POP DUP4 DUP2 LT ISZERO PUSH2 0x222E JUMPI DUP1 DUP5 PUSH1 0x40 MLOAD PUSH32 0x9D2AFA9000000000000000000000000000000000000000000000000000000000 DUP2 MSTORE PUSH1 0x4 ADD PUSH2 0x2225 SWAP3 SWAP2 SWAP1 PUSH2 0x43AA JUMP JUMPDEST PUSH1 0x40 MLOAD DUP1 SWAP2 SUB SWAP1 REVERT JUMPDEST DUP4 DUP2 PUSH2 0x223A SWAP2 SWAP1 PUSH2 0x43FE JUMP JUMPDEST PUSH1 0x6 PUSH0 DUP10 PUSH20 0xFFFFFFFFFFFFFFFFFFFFFFFFFFFFFFFFFFFFFFFF AND PUSH20 0xFFFFFFFFFFFFFFFFFFFFFFFFFFFFFFFFFFFFFFFF AND DUP2 MSTORE PUSH1 0x20 ADD SWAP1 DUP2 MSTORE PUSH1 0x20 ADD PUSH0 KECCAK256 PUSH0 CALLER PUSH20 0xFFFFFFFFFFFFFFFFFFFFFFFFFFFFFFFFFFFFFFFF AND PUSH20 0xFFFFFFFFFFFFFFFFFFFFFFFFFFFFFFFFFFFFFFFF AND DUP2 MSTORE PUSH1 0x20 ADD SWAP1 DUP2 MSTORE PUSH1 0x20 ADD PUSH0 KECCAK256 DUP2 SWAP1 SSTORE POP DUP4 PUSH1 0x6 PUSH0 DUP10 PUSH20 0xFFFFFFFFFFFFFFFFFFFFFFFFFFFFFFFFFFFFFFFF AND PUSH20 0xFFFFFFFFFFFFFFFFFFFFFFFFFFFFFFFFFFFFFFFF AND DUP2 MSTORE PUSH1 0x20 ADD SWAP1 DUP2 MSTORE PUSH1 0x20 ADD PUSH0 KECCAK256 PUSH0 DUP6 PUSH20 0xFFFFFFFFFFFFFFFFFFFFFFFFFFFFFFFFFFFFFFFF AND PUSH20 0xFFFFFFFFFFFFFFFFFFFFFFFFFFFFFFFFFFFFFFFF AND DUP2 MSTORE PUSH1 0x20 ADD SWAP1 DUP2 MSTORE PUSH1 0x20 ADD PUSH0 KECCAK256 PUSH0 DUP3 DUP3 SLOAD PUSH2 0x233D SWAP2 SWAP1 PUSH2 0x4431 JUMP JUMPDEST SWAP3 POP POP DUP2 SWAP1 SSTORE POP DUP3 PUSH20 0xFFFFFFFFFFFFFFFFFFFFFFFFFFFFFFFFFFFFFFFF AND CALLER PUSH20 0xFFFFFFFFFFFFFFFFFFFFFFFFFFFFFFFFFFFFFFFF AND DUP9 PUSH20 0xFFFFFFFFFFFFFFFFFFFFFFFFFFFFFFFFFFFFFFFF AND PUSH32 0x77178BCF8F3C991D39734824771477A42787FE19B60D5A29C0EC72DE167699B3 DUP8 PUSH1 0x40 MLOAD PUSH2 0x23B8 SWAP2 SWAP1 PUSH2 0x40A0 JUMP JUMPDEST PUSH1 0x40 MLOAD DUP1 SWAP2 SUB SWAP1 LOG4 POP POP POP POP POP POP POP JUMP JUMPDEST PUSH32 0x0 DUP2 JUMP JUMPDEST PUSH32 0xBB4CF8E50E81E9742807782B2BC5C27C5A943F214EE0B993943EFF5A774E555B DUP2 JUMP JUMPDEST PUSH0 PUSH0 PUSH1 0x8 PUSH0 DUP6 PUSH20 0xFFFFFFFFFFFFFFFFFFFFFFFFFFFFFFFFFFFFFFFF AND PUSH20 0xFFFFFFFFFFFFFFFFFFFFFFFFFFFFFFFFFFFFFFFF AND DUP2 MSTORE PUSH1 0x20 ADD SWAP1 DUP2 MSTORE PUSH1 0x20 ADD PUSH0 KECCAK256 PUSH0 SWAP1 SLOAD SWAP1 PUSH2 0x100 EXP SWAP1 DIV PUSH1 0xFF AND SWAP1 POP PUSH1 0x6 DUP2 PUSH1 0xFF AND SUB PUSH2 0x2473 JUMPI DUP3 SWAP2 POP POP PUSH2 0x24D0 JUMP JUMPDEST PUSH1 0x6 DUP2 PUSH1 0xFF AND GT PUSH2 0x24A7 JUMPI DUP1 PUSH1 0x6 PUSH2 0x248B SWAP2 SWAP1 PUSH2 0x4755 JUMP JUMPDEST PUSH1 0xA PUSH2 0x2497 SWAP2 SWAP1 PUSH2 0x48B8 JUMP JUMPDEST DUP4 PUSH2 0x24A2 SWAP2 SWAP1 PUSH2 0x4902 JUMP JUMPDEST PUSH2 0x24CC JUMP JUMPDEST PUSH1 0x6 DUP2 PUSH2 0x24B4 SWAP2 SWAP1 PUSH2 0x4755 JUMP JUMPDEST PUSH1 0xA PUSH2 0x24C0 SWAP2 SWAP1 PUSH2 0x48B8 JUMP JUMPDEST DUP4 PUSH2 0x24CB SWAP2 SWAP1 PUSH2 0x4943 JUMP JUMPDEST JUMPDEST SWAP2 POP POP JUMPDEST SWAP3 SWAP2 POP POP JUMP JUMPDEST PUSH2 0x24DF DUP3 PUSH2 0xF0E JUMP JUMPDEST PUSH2 0x24E8 DUP2 PUSH2 0x3407 JUMP JUMPDEST PUSH2 0x24F2 DUP4 DUP4 PUSH2 0x350B JUMP JUMPDEST POP POP POP POP JUMP JUMPDEST PUSH32 0x65D7A28E3265B37A6474929F336521B332C1681B933F6CB9F3376673440D862A DUP2 JUMP JUMPDEST PUSH0 PUSH0 PUSH1 0x8 PUSH0 DUP6 PUSH20 0xFFFFFFFFFFFFFFFFFFFFFFFFFFFFFFFFFFFFFFFF AND PUSH20 0xFFFFFFFFFFFFFFFFFFFFFFFFFFFFFFFFFFFFFFFF AND DUP2 MSTORE PUSH1 0x20 ADD SWAP1 DUP2 MSTORE PUSH1 0x20 ADD PUSH0 KECCAK256 PUSH0 SWAP1 SLOAD SWAP1 PUSH2 0x100 EXP SWAP1 DIV PUSH1 0xFF AND SWAP1 POP PUSH0 PUSH2 0x2574 DUP6 PUSH2 0x19C2 JUMP JUMPDEST SWAP1 POP DUP2 PUSH1 0xA PUSH2 0x2583 SWAP2 SWAP1 PUSH2 0x48B8 JUMP JUMPDEST DUP2 DUP6 PUSH2 0x258F SWAP2 SWAP1 PUSH2 0x4902 JUMP JUMPDEST PUSH2 0x2599 SWAP2 SWAP1 PUSH2 0x4943 JUMP JUMPDEST SWAP3 POP POP POP SWAP3 SWAP2 POP POP JUMP JUMPDEST PUSH0 PUSH20 0xFFFFFFFFFFFFFFFFFFFFFFFFFFFFFFFFFFFFFFFF AND DUP6 PUSH20 0xFFFFFFFFFFFFFFFFFFFFFFFFFFFFFFFFFFFFFFFF AND SUB PUSH2 0x2608 JUMPI PUSH1 0x40 MLOAD PUSH32 0x2A7FB4EA00000000000000000000000000000000000000000000000000000000 DUP2 MSTORE PUSH1 0x4 ADD PUSH1 0x40 MLOAD DUP1 SWAP2 SUB SWAP1 REVERT JUMPDEST PUSH0 DUP5 DUP5 PUSH1 0x40 MLOAD PUSH2 0x2619 SWAP3 SWAP2 SWAP1 PUSH2 0x4640 JUMP JUMPDEST PUSH1 0x40 MLOAD DUP1 SWAP2 SUB SWAP1 KECCAK256 SWAP1 POP PUSH0 PUSH1 0x5 PUSH0 CALLER PUSH20 0xFFFFFFFFFFFFFFFFFFFFFFFFFFFFFFFFFFFFFFFF AND PUSH20 0xFFFFFFFFFFFFFFFFFFFFFFFFFFFFFFFFFFFFFFFF AND DUP2 MSTORE PUSH1 0x20 ADD SWAP1 DUP2 MSTORE PUSH1 0x20 ADD PUSH0 KECCAK256 PUSH0 DUP4 DUP2 MSTORE PUSH1 0x20 ADD SWAP1 DUP2 MSTORE PUSH1 0x20 ADD PUSH0 KECCAK256 PUSH0 SWAP1 SLOAD SWAP1 PUSH2 0x100 EXP SWAP1 DIV PUSH20 0xFFFFFFFFFFFFFFFFFFFFFFFFFFFFFFFFFFFFFFFF AND SWAP1 POP PUSH0 PUSH20 0xFFFFFFFFFFFFFFFFFFFFFFFFFFFFFFFFFFFFFFFF AND DUP2 PUSH20 0xFFFFFFFFFFFFFFFFFFFFFFFFFFFFFFFFFFFFFFFF AND EQ ISZERO DUP1 ISZERO PUSH2 0x26FA JUMPI POP DUP7 PUSH20 0xFFFFFFFFFFFFFFFFFFFFFFFFFFFFFFFFFFFFFFFF AND DUP2 PUSH20 0xFFFFFFFFFFFFFFFFFFFFFFFFFFFFFFFFFFFFFFFF AND EQ ISZERO JUMPDEST ISZERO PUSH2 0x2731 JUMPI PUSH1 0x40 MLOAD PUSH32 0x1FBA8FB900000000000000000000000000000000000000000000000000000000 DUP2 MSTORE PUSH1 0x4 ADD PUSH1 0x40 MLOAD DUP1 SWAP2 SUB SWAP1 REVERT JUMPDEST PUSH0 PUSH1 0x4 PUSH0 CALLER PUSH20 0xFFFFFFFFFFFFFFFFFFFFFFFFFFFFFFFFFFFFFFFF AND PUSH20 0xFFFFFFFFFFFFFFFFFFFFFFFFFFFFFFFFFFFFFFFF AND DUP2 MSTORE PUSH1 0x20 ADD SWAP1 DUP2 MSTORE PUSH1 0x20 ADD PUSH0 KECCAK256 PUSH0 DUP10 PUSH20 0xFFFFFFFFFFFFFFFFFFFFFFFFFFFFFFFFFFFFFFFF AND PUSH20 0xFFFFFFFFFFFFFFFFFFFFFFFFFFFFFFFFFFFFFFFF AND DUP2 MSTORE PUSH1 0x20 ADD SWAP1 DUP2 MSTORE PUSH1 0x20 ADD PUSH0 KECCAK256 SWAP1 POP DUP1 PUSH1 0x3 ADD PUSH0 SWAP1 SLOAD SWAP1 PUSH2 0x100 EXP SWAP1 DIV PUSH1 0xFF AND ISZERO PUSH2 0x28F9 JUMPI PUSH0 DUP2 PUSH0 ADD PUSH1 0x40 MLOAD PUSH2 0x27D3 SWAP2 SWAP1 PUSH2 0x4A05 JUMP JUMPDEST PUSH1 0x40 MLOAD DUP1 SWAP2 SUB SWAP1 KECCAK256 SWAP1 POP DUP4 DUP2 EQ ISZERO DUP1 ISZERO PUSH2 0x2883 JUMPI POP DUP9 PUSH20 0xFFFFFFFFFFFFFFFFFFFFFFFFFFFFFFFFFFFFFFFF AND PUSH1 0x5 PUSH0 CALLER PUSH20 0xFFFFFFFFFFFFFFFFFFFFFFFFFFFFFFFFFFFFFFFF AND PUSH20 0xFFFFFFFFFFFFFFFFFFFFFFFFFFFFFFFFFFFFFFFF AND DUP2 MSTORE PUSH1 0x20 ADD SWAP1 DUP2 MSTORE PUSH1 0x20 ADD PUSH0 KECCAK256 PUSH0 DUP4 DUP2 MSTORE PUSH1 0x20 ADD SWAP1 DUP2 MSTORE PUSH1 0x20 ADD PUSH0 KECCAK256 PUSH0 SWAP1 SLOAD SWAP1 PUSH2 0x100 EXP SWAP1 DIV PUSH20 0xFFFFFFFFFFFFFFFFFFFFFFFFFFFFFFFFFFFFFFFF AND PUSH20 0xFFFFFFFFFFFFFFFFFFFFFFFFFFFFFFFFFFFFFFFF AND EQ JUMPDEST ISZERO PUSH2 0x28F7 JUMPI PUSH1 0x5 PUSH0 CALLER PUSH20 0xFFFFFFFFFFFFFFFFFFFFFFFFFFFFFFFFFFFFFFFF AND PUSH20 0xFFFFFFFFFFFFFFFFFFFFFFFFFFFFFFFFFFFFFFFF AND DUP2 MSTORE PUSH1 0x20 ADD SWAP1 DUP2 MSTORE PUSH1 0x20 ADD PUSH0 KECCAK256 PUSH0 DUP3 DUP2 MSTORE PUSH1 0x20 ADD SWAP1 DUP2 MSTORE PUSH1 0x20 ADD PUSH0 KECCAK256 PUSH0 PUSH2 0x100 EXP DUP2 SLOAD SWAP1 PUSH20 0xFFFFFFFFFFFFFFFFFFFFFFFFFFFFFFFFFFFFFFFF MUL NOT AND SWAP1 SSTORE JUMPDEST POP JUMPDEST PUSH1 0x40 MLOAD DUP1 PUSH1 0x80 ADD PUSH1 0x40 MSTORE DUP1 DUP9 DUP9 DUP1 DUP1 PUSH1 0x1F ADD PUSH1 0x20 DUP1 SWAP2 DIV MUL PUSH1 0x20 ADD PUSH1 0x40 MLOAD SWAP1 DUP2 ADD PUSH1 0x40 MSTORE DUP1 SWAP4 SWAP3 SWAP2 SWAP1 DUP2 DUP2 MSTORE PUSH1 0x20 ADD DUP4 DUP4 DUP1 DUP3 DUP5 CALLDATACOPY PUSH0 DUP2 DUP5 ADD MSTORE PUSH1 0x1F NOT PUSH1 0x1F DUP3 ADD AND SWAP1 POP DUP1 DUP4 ADD SWAP3 POP POP POP POP POP POP POP DUP2 MSTORE PUSH1 0x20 ADD DUP7 DUP2 MSTORE PUSH1 0x20 ADD DUP6 DUP2 MSTORE PUSH1 0x20 ADD PUSH1 0x1 ISZERO ISZERO DUP2 MSTORE POP PUSH1 0x4 PUSH0 CALLER PUSH20 0xFFFFFFFFFFFFFFFFFFFFFFFFFFFFFFFFFFFFFFFF AND PUSH20 0xFFFFFFFFFFFFFFFFFFFFFFFFFFFFFFFFFFFFFFFF AND DUP2 MSTORE PUSH1 0x20 ADD SWAP1 DUP2 MSTORE PUSH1 0x20 ADD PUSH0 KECCAK256 PUSH0 DUP11 PUSH20 0xFFFFFFFFFFFFFFFFFFFFFFFFFFFFFFFFFFFFFFFF AND PUSH20 0xFFFFFFFFFFFFFFFFFFFFFFFFFFFFFFFFFFFFFFFF AND DUP2 MSTORE PUSH1 0x20 ADD SWAP1 DUP2 MSTORE PUSH1 0x20 ADD PUSH0 KECCAK256 PUSH0 DUP3 ADD MLOAD DUP2 PUSH0 ADD SWAP1 DUP2 PUSH2 0x29EB SWAP2 SWAP1 PUSH2 0x4BDF JUMP JUMPDEST POP PUSH1 0x20 DUP3 ADD MLOAD DUP2 PUSH1 0x1 ADD SSTORE PUSH1 0x40 DUP3 ADD MLOAD DUP2 PUSH1 0x2 ADD SSTORE PUSH1 0x60 DUP3 ADD MLOAD DUP2 PUSH1 0x3 ADD PUSH0 PUSH2 0x100 EXP DUP2 SLOAD DUP2 PUSH1 0xFF MUL NOT AND SWAP1 DUP4 ISZERO ISZERO MUL OR SWAP1 SSTORE POP SWAP1 POP POP DUP8 PUSH1 0x5 PUSH0 CALLER PUSH20 0xFFFFFFFFFFFFFFFFFFFFFFFFFFFFFFFFFFFFFFFF AND PUSH20 0xFFFFFFFFFFFFFFFFFFFFFFFFFFFFFFFFFFFFFFFF AND DUP2 MSTORE PUSH1 0x20 ADD SWAP1 DUP2 MSTORE PUSH1 0x20 ADD PUSH0 KECCAK256 PUSH0 DUP6 DUP2 MSTORE PUSH1 0x20 ADD SWAP1 DUP2 MSTORE PUSH1 0x20 ADD PUSH0 KECCAK256 PUSH0 PUSH2 0x100 EXP DUP2 SLOAD DUP2 PUSH20 0xFFFFFFFFFFFFFFFFFFFFFFFFFFFFFFFFFFFFFFFF MUL NOT AND SWAP1 DUP4 PUSH20 0xFFFFFFFFFFFFFFFFFFFFFFFFFFFFFFFFFFFFFFFF AND MUL OR SWAP1 SSTORE POP DUP8 PUSH20 0xFFFFFFFFFFFFFFFFFFFFFFFFFFFFFFFFFFFFFFFF AND CALLER PUSH20 0xFFFFFFFFFFFFFFFFFFFFFFFFFFFFFFFFFFFFFFFF AND PUSH32 0x71579DD34D16C5175BA8EF40E998B9090E833D716D817368715E8ED05A1C61F8 DUP10 DUP10 DUP10 DUP10 PUSH1 0x40 MLOAD PUSH2 0x2B0F SWAP5 SWAP4 SWAP3 SWAP2 SWAP1 PUSH2 0x4CDA JUMP JUMPDEST PUSH1 0x40 MLOAD DUP1 SWAP2 SUB SWAP1 LOG3 POP POP POP POP POP POP POP POP JUMP JUMPDEST PUSH2 0x2B29 PUSH2 0x380B JUMP JUMPDEST PUSH0 PUSH20 0xFFFFFFFFFFFFFFFFFFFFFFFFFFFFFFFFFFFFFFFF AND DUP2 PUSH20 0xFFFFFFFFFFFFFFFFFFFFFFFFFFFFFFFFFFFFFFFF AND SUB PUSH2 0x2B99 JUMPI PUSH0 PUSH1 0x40 MLOAD PUSH32 0x1E4FBDF700000000000000000000000000000000000000000000000000000000 DUP2 MSTORE PUSH1 0x4 ADD PUSH2 0x2B90 SWAP2 SWAP1 PUSH2 0x40C8 JUMP JUMPDEST PUSH1 0x40 MLOAD DUP1 SWAP2 SUB SWAP1 REVERT JUMPDEST PUSH2 0x2BA2 DUP2 PUSH2 0x3892 JUMP JUMPDEST POP JUMP JUMPDEST PUSH2 0x2BAD PUSH2 0x33C6 JUMP JUMPDEST PUSH2 0x2BB5 PUSH2 0x3656 JUMP JUMPDEST PUSH0 DUP2 SUB PUSH2 0x2BEE JUMPI PUSH1 0x40 MLOAD PUSH32 0x608294AC00000000000000000000000000000000000000000000000000000000 DUP2 MSTORE PUSH1 0x4 ADD PUSH1 0x40 MLOAD DUP1 SWAP2 SUB SWAP1 REVERT JUMPDEST PUSH0 PUSH2 0x2BF9 DUP4 DUP4 PUSH2 0x251C JUMP JUMPDEST SWAP1 POP PUSH32 0x0 DUP2 GT ISZERO PUSH2 0x2C82 JUMPI DUP1 PUSH32 0x0 PUSH1 0x40 MLOAD PUSH32 0xC96B3F2900000000000000000000000000000000000000000000000000000000 DUP2 MSTORE PUSH1 0x4 ADD PUSH2 0x2C79 SWAP3 SWAP2 SWAP1 PUSH2 0x43AA JUMP JUMPDEST PUSH1 0x40 MLOAD DUP1 SWAP2 SUB SWAP1 REVERT JUMPDEST PUSH0 PUSH1 0x6 PUSH0 DUP6 PUSH20 0xFFFFFFFFFFFFFFFFFFFFFFFFFFFFFFFFFFFFFFFF AND PUSH20 0xFFFFFFFFFFFFFFFFFFFFFFFFFFFFFFFFFFFFFFFF AND DUP2 MSTORE PUSH1 0x20 ADD SWAP1 DUP2 MSTORE PUSH1 0x20 ADD PUSH0 KECCAK256 PUSH0 CALLER PUSH20 0xFFFFFFFFFFFFFFFFFFFFFFFFFFFFFFFFFFFFFFFF AND PUSH20 0xFFFFFFFFFFFFFFFFFFFFFFFFFFFFFFFFFFFFFFFF AND DUP2 MSTORE PUSH1 0x20 ADD SWAP1 DUP2 MSTORE PUSH1 0x20 ADD PUSH0 KECCAK256 SLOAD SWAP1 POP DUP3 DUP2 LT ISZERO PUSH2 0x2D45 JUMPI DUP1 DUP4 PUSH1 0x40 MLOAD PUSH32 0x9D2AFA9000000000000000000000000000000000000000000000000000000000 DUP2 MSTORE PUSH1 0x4 ADD PUSH2 0x2D3C SWAP3 SWAP2 SWAP1 PUSH2 0x43AA JUMP JUMPDEST PUSH1 0x40 MLOAD DUP1 SWAP2 SUB SWAP1 REVERT JUMPDEST DUP3 DUP2 PUSH2 0x2D51 SWAP2 SWAP1 PUSH2 0x43FE JUMP JUMPDEST PUSH1 0x6 PUSH0 DUP7 PUSH20 0xFFFFFFFFFFFFFFFFFFFFFFFFFFFFFFFFFFFFFFFF AND PUSH20 0xFFFFFFFFFFFFFFFFFFFFFFFFFFFFFFFFFFFFFFFF AND DUP2 MSTORE PUSH1 0x20 ADD SWAP1 DUP2 MSTORE PUSH1 0x20 ADD PUSH0 KECCAK256 PUSH0 CALLER PUSH20 0xFFFFFFFFFFFFFFFFFFFFFFFFFFFFFFFFFFFFFFFF AND PUSH20 0xFFFFFFFFFFFFFFFFFFFFFFFFFFFFFFFFFFFFFFFF AND DUP2 MSTORE PUSH1 0x20 ADD SWAP1 DUP2 MSTORE PUSH1 0x20 ADD PUSH0 KECCAK256 DUP2 SWAP1 SSTORE POP DUP3 PUSH1 0x7 PUSH0 DUP7 PUSH20 0xFFFFFFFFFFFFFFFFFFFFFFFFFFFFFFFFFFFFFFFF AND PUSH20 0xFFFFFFFFFFFFFFFFFFFFFFFFFFFFFFFFFFFFFFFF AND DUP2 MSTORE PUSH1 0x20 ADD SWAP1 DUP2 MSTORE PUSH1 0x20 ADD PUSH0 KECCAK256 PUSH0 DUP3 DUP3 SLOAD PUSH2 0x2E19 SWAP2 SWAP1 PUSH2 0x43FE JUMP JUMPDEST SWAP3 POP POP DUP2 SWAP1 SSTORE POP PUSH2 0x2E2B DUP5 DUP5 PUSH0 PUSH2 0x371E JUMP JUMPDEST PUSH0 PUSH20 0xFFFFFFFFFFFFFFFFFFFFFFFFFFFFFFFFFFFFFFFF AND DUP5 PUSH20 0xFFFFFFFFFFFFFFFFFFFFFFFFFFFFFFFFFFFFFFFF AND SUB PUSH2 0x2F0C JUMPI PUSH0 CALLER PUSH20 0xFFFFFFFFFFFFFFFFFFFFFFFFFFFFFFFFFFFFFFFF AND DUP5 PUSH1 0x40 MLOAD PUSH2 0x2E83 SWAP1 PUSH2 0x4D3B JUMP JUMPDEST PUSH0 PUSH1 0x40 MLOAD DUP1 DUP4 SUB DUP2 DUP6 DUP8 GAS CALL SWAP3 POP POP POP RETURNDATASIZE DUP1 PUSH0 DUP2 EQ PUSH2 0x2EBD JUMPI PUSH1 0x40 MLOAD SWAP2 POP PUSH1 0x1F NOT PUSH1 0x3F RETURNDATASIZE ADD AND DUP3 ADD PUSH1 0x40 MSTORE RETURNDATASIZE DUP3 MSTORE RETURNDATASIZE PUSH0 PUSH1 0x20 DUP5 ADD RETURNDATACOPY PUSH2 0x2EC2 JUMP JUMPDEST PUSH1 0x60 SWAP2 POP JUMPDEST POP POP SWAP1 POP DUP1 PUSH2 0x2F06 JUMPI PUSH1 0x40 MLOAD PUSH32 0x8C379A000000000000000000000000000000000000000000000000000000000 DUP2 MSTORE PUSH1 0x4 ADD PUSH2 0x2EFD SWAP1 PUSH2 0x4D99 JUMP JUMPDEST PUSH1 0x40 MLOAD DUP1 SWAP2 SUB SWAP1 REVERT JUMPDEST POP PUSH2 0x2F38 JUMP JUMPDEST PUSH2 0x2F37 CALLER DUP5 DUP7 PUSH20 0xFFFFFFFFFFFFFFFFFFFFFFFFFFFFFFFFFFFFFFFF AND PUSH2 0x39B5 SWAP1 SWAP3 SWAP2 SWAP1 PUSH4 0xFFFFFFFF AND JUMP JUMPDEST JUMPDEST CALLER PUSH20 0xFFFFFFFFFFFFFFFFFFFFFFFFFFFFFFFFFFFFFFFF AND DUP5 PUSH20 0xFFFFFFFFFFFFFFFFFFFFFFFFFFFFFFFFFFFFFFFF AND PUSH32 0xC2B4A290C20FB28939D29F102514FBFFD2B73C059FFBA8B78250C94161D5FCC6 DUP6 PUSH1 0x6 PUSH0 DUP10 PUSH20 0xFFFFFFFFFFFFFFFFFFFFFFFFFFFFFFFFFFFFFFFF AND PUSH20 0xFFFFFFFFFFFFFFFFFFFFFFFFFFFFFFFFFFFFFFFF AND DUP2 MSTORE PUSH1 0x20 ADD SWAP1 DUP2 MSTORE PUSH1 0x20 ADD PUSH0 KECCAK256 PUSH0 CALLER PUSH20 0xFFFFFFFFFFFFFFFFFFFFFFFFFFFFFFFFFFFFFFFF AND PUSH20 0xFFFFFFFFFFFFFFFFFFFFFFFFFFFFFFFFFFFFFFFF AND DUP2 MSTORE PUSH1 0x20 ADD SWAP1 DUP2 MSTORE PUSH1 0x20 ADD PUSH0 KECCAK256 SLOAD PUSH1 0x40 MLOAD PUSH2 0x300F SWAP3 SWAP2 SWAP1 PUSH2 0x43AA JUMP JUMPDEST PUSH1 0x40 MLOAD DUP1 SWAP2 SUB SWAP1 LOG3 POP POP PUSH2 0x3021 PUSH2 0x3801 JUMP JUMPDEST POP POP JUMP JUMPDEST PUSH0 PUSH1 0x6 PUSH0 DUP5 PUSH20 0xFFFFFFFFFFFFFFFFFFFFFFFFFFFFFFFFFFFFFFFF AND PUSH20 0xFFFFFFFFFFFFFFFFFFFFFFFFFFFFFFFFFFFFFFFF AND DUP2 MSTORE PUSH1 0x20 ADD SWAP1 DUP2 MSTORE PUSH1 0x20 ADD PUSH0 KECCAK256 PUSH0 DUP4 PUSH20 0xFFFFFFFFFFFFFFFFFFFFFFFFFFFFFFFFFFFFFFFF AND PUSH20 0xFFFFFFFFFFFFFFFFFFFFFFFFFFFFFFFFFFFFFFFF AND DUP2 MSTORE PUSH1 0x20 ADD SWAP1 DUP2 MSTORE PUSH1 0x20 ADD PUSH0 KECCAK256 SLOAD SWAP1 POP SWAP3 SWAP2 POP POP JUMP JUMPDEST PUSH2 0x30AF PUSH2 0x33C6 JUMP JUMPDEST PUSH2 0x30B7 PUSH2 0x3656 JUMP JUMPDEST PUSH0 DUP3 SUB PUSH2 0x30F0 JUMPI PUSH1 0x40 MLOAD PUSH32 0x608294AC00000000000000000000000000000000000000000000000000000000 DUP2 MSTORE PUSH1 0x4 ADD PUSH1 0x40 MLOAD DUP1 SWAP2 SUB SWAP1 REVERT JUMPDEST PUSH0 PUSH2 0x30FA DUP4 PUSH2 0x3A34 JUMP JUMPDEST SWAP1 POP PUSH2 0x3107 DUP2 CALLVALUE DUP5 PUSH2 0x3A69 JUMP JUMPDEST PUSH2 0x314B JUMPI DUP1 CALLVALUE DUP4 PUSH1 0x40 MLOAD PUSH31 0x6EADA200000000000000000000000000000000000000000000000000000000 DUP2 MSTORE PUSH1 0x4 ADD PUSH2 0x3142 SWAP4 SWAP3 SWAP2 SWAP1 PUSH2 0x4DB7 JUMP JUMPDEST PUSH1 0x40 MLOAD DUP1 SWAP2 SUB SWAP1 REVERT JUMPDEST PUSH2 0x3157 PUSH0 CALLVALUE PUSH1 0x1 PUSH2 0x371E JUMP JUMPDEST CALLVALUE PUSH1 0x6 PUSH0 PUSH0 PUSH20 0xFFFFFFFFFFFFFFFFFFFFFFFFFFFFFFFFFFFFFFFF AND PUSH20 0xFFFFFFFFFFFFFFFFFFFFFFFFFFFFFFFFFFFFFFFF AND DUP2 MSTORE PUSH1 0x20 ADD SWAP1 DUP2 MSTORE PUSH1 0x20 ADD PUSH0 KECCAK256 PUSH0 CALLER PUSH20 0xFFFFFFFFFFFFFFFFFFFFFFFFFFFFFFFFFFFFFFFF AND PUSH20 0xFFFFFFFFFFFFFFFFFFFFFFFFFFFFFFFFFFFFFFFF AND DUP2 MSTORE PUSH1 0x20 ADD SWAP1 DUP2 MSTORE PUSH1 0x20 ADD PUSH0 KECCAK256 PUSH0 DUP3 DUP3 SLOAD PUSH2 0x31DE SWAP2 SWAP1 PUSH2 0x4431 JUMP JUMPDEST SWAP3 POP POP DUP2 SWAP1 SSTORE POP CALLVALUE PUSH1 0x7 PUSH0 PUSH0 PUSH20 0xFFFFFFFFFFFFFFFFFFFFFFFFFFFFFFFFFFFFFFFF AND PUSH20 0xFFFFFFFFFFFFFFFFFFFFFFFFFFFFFFFFFFFFFFFF AND DUP2 MSTORE PUSH1 0x20 ADD SWAP1 DUP2 MSTORE PUSH1 0x20 ADD PUSH0 KECCAK256 PUSH0 DUP3 DUP3 SLOAD PUSH2 0x3231 SWAP2 SWAP1 PUSH2 0x4431 JUMP JUMPDEST SWAP3 POP POP DUP2 SWAP1 SSTORE POP CALLER PUSH20 0xFFFFFFFFFFFFFFFFFFFFFFFFFFFFFFFFFFFFFFFF AND PUSH0 PUSH20 0xFFFFFFFFFFFFFFFFFFFFFFFFFFFFFFFFFFFFFFFF AND PUSH32 0xDCBC1C05240F31FF3AD067EF1EE35CE4997762752E3A095284754544F4C709D7 CALLVALUE PUSH1 0x6 PUSH0 PUSH0 PUSH20 0xFFFFFFFFFFFFFFFFFFFFFFFFFFFFFFFFFFFFFFFF AND PUSH20 0xFFFFFFFFFFFFFFFFFFFFFFFFFFFFFFFFFFFFFFFF AND DUP2 MSTORE PUSH1 0x20 ADD SWAP1 DUP2 MSTORE PUSH1 0x20 ADD PUSH0 KECCAK256 PUSH0 CALLER PUSH20 0xFFFFFFFFFFFFFFFFFFFFFFFFFFFFFFFFFFFFFFFF AND PUSH20 0xFFFFFFFFFFFFFFFFFFFFFFFFFFFFFFFFFFFFFFFF AND DUP2 MSTORE PUSH1 0x20 ADD SWAP1 DUP2 MSTORE PUSH1 0x20 ADD PUSH0 KECCAK256 SLOAD PUSH1 0x40 MLOAD PUSH2 0x330F SWAP3 SWAP2 SWAP1 PUSH2 0x43AA JUMP JUMPDEST PUSH1 0x40 MLOAD DUP1 SWAP2 SUB SWAP1 LOG3 POP PUSH2 0x3320 PUSH2 0x3801 JUMP JUMPDEST POP POP JUMP JUMPDEST PUSH1 0x40 MLOAD DUP1 PUSH1 0x40 ADD PUSH1 0x40 MSTORE DUP1 PUSH1 0xD DUP2 MSTORE PUSH1 0x20 ADD PUSH32 0x4B69707542616E6B2076322E3100000000000000000000000000000000000000 DUP2 MSTORE POP DUP2 JUMP JUMPDEST PUSH0 PUSH32 0x1FFC9A700000000000000000000000000000000000000000000000000000000 PUSH28 0xFFFFFFFFFFFFFFFFFFFFFFFFFFFFFFFFFFFFFFFFFFFFFFFFFFFFFFFF NOT AND DUP3 PUSH28 0xFFFFFFFFFFFFFFFFFFFFFFFFFFFFFFFFFFFFFFFFFFFFFFFFFFFFFFFF NOT AND EQ SWAP1 POP SWAP2 SWAP1 POP JUMP JUMPDEST PUSH2 0x33CE PUSH2 0x1754 JUMP JUMPDEST ISZERO PUSH2 0x3405 JUMPI PUSH1 0x40 MLOAD PUSH32 0xD93C066500000000000000000000000000000000000000000000000000000000 DUP2 MSTORE PUSH1 0x4 ADD PUSH1 0x40 MLOAD DUP1 SWAP2 SUB SWAP1 REVERT JUMPDEST JUMP JUMPDEST PUSH2 0x3418 DUP2 PUSH2 0x3413 PUSH2 0x3504 JUMP JUMPDEST PUSH2 0x3ACD JUMP JUMPDEST POP JUMP JUMPDEST PUSH0 PUSH2 0x3426 DUP4 DUP4 PUSH2 0x183B JUMP JUMPDEST PUSH2 0x34FA JUMPI PUSH1 0x1 DUP1 PUSH0 DUP6 DUP2 MSTORE PUSH1 0x20 ADD SWAP1 DUP2 MSTORE PUSH1 0x20 ADD PUSH0 KECCAK256 PUSH0 ADD PUSH0 DUP5 PUSH20 0xFFFFFFFFFFFFFFFFFFFFFFFFFFFFFFFFFFFFFFFF AND PUSH20 0xFFFFFFFFFFFFFFFFFFFFFFFFFFFFFFFFFFFFFFFF AND DUP2 MSTORE PUSH1 0x20 ADD SWAP1 DUP2 MSTORE PUSH1 0x20 ADD PUSH0 KECCAK256 PUSH0 PUSH2 0x100 EXP DUP2 SLOAD DUP2 PUSH1 0xFF MUL NOT AND SWAP1 DUP4 ISZERO ISZERO MUL OR SWAP1 SSTORE POP PUSH2 0x3497 PUSH2 0x3504 JUMP JUMPDEST PUSH20 0xFFFFFFFFFFFFFFFFFFFFFFFFFFFFFFFFFFFFFFFF AND DUP3 PUSH20 0xFFFFFFFFFFFFFFFFFFFFFFFFFFFFFFFFFFFFFFFF AND DUP5 PUSH32 0x2F8788117E7EFF1D82E926EC794901D17C78024A50270940304540A733656F0D PUSH1 0x40 MLOAD PUSH1 0x40 MLOAD DUP1 SWAP2 SUB SWAP1 LOG4 PUSH1 0x1 SWAP1 POP PUSH2 0x34FE JUMP JUMPDEST PUSH0 SWAP1 POP JUMPDEST SWAP3 SWAP2 POP POP JUMP JUMPDEST PUSH0 CALLER SWAP1 POP SWAP1 JUMP JUMPDEST PUSH0 PUSH2 0x3516 DUP4 DUP4 PUSH2 0x183B JUMP JUMPDEST ISZERO PUSH2 0x35EB JUMPI PUSH0 PUSH1 0x1 PUSH0 DUP6 DUP2 MSTORE PUSH1 0x20 ADD SWAP1 DUP2 MSTORE PUSH1 0x20 ADD PUSH0 KECCAK256 PUSH0 ADD PUSH0 DUP5 PUSH20 0xFFFFFFFFFFFFFFFFFFFFFFFFFFFFFFFFFFFFFFFF AND PUSH20 0xFFFFFFFFFFFFFFFFFFFFFFFFFFFFFFFFFFFFFFFF AND DUP2 MSTORE PUSH1 0x20 ADD SWAP1 DUP2 MSTORE PUSH1 0x20 ADD PUSH0 KECCAK256 PUSH0 PUSH2 0x100 EXP DUP2 SLOAD DUP2 PUSH1 0xFF MUL NOT AND SWAP1 DUP4 ISZERO ISZERO MUL OR SWAP1 SSTORE POP PUSH2 0x3588 PUSH2 0x3504 JUMP JUMPDEST PUSH20 0xFFFFFFFFFFFFFFFFFFFFFFFFFFFFFFFFFFFFFFFF AND DUP3 PUSH20 0xFFFFFFFFFFFFFFFFFFFFFFFFFFFFFFFFFFFFFFFF AND DUP5 PUSH32 0xF6391F5C32D9C69D2A47EA670B442974B53935D1EDC7FD64EB21E047A839171B PUSH1 0x40 MLOAD PUSH1 0x40 MLOAD DUP1 SWAP2 SUB SWAP1 LOG4 PUSH1 0x1 SWAP1 POP PUSH2 0x35EF JUMP JUMPDEST PUSH0 SWAP1 POP JUMPDEST SWAP3 SWAP2 POP POP JUMP JUMPDEST PUSH2 0x35FD PUSH2 0x3B1E JUMP JUMPDEST PUSH0 PUSH1 0x2 PUSH0 PUSH2 0x100 EXP DUP2 SLOAD DUP2 PUSH1 0xFF MUL NOT AND SWAP1 DUP4 ISZERO ISZERO MUL OR SWAP1 SSTORE POP PUSH32 0x5DB9EE0A495BF2E6FF9C91A7834C1BA4FDD244A5E8AA4E537BD38AEAE4B073AA PUSH2 0x363F PUSH2 0x3504 JUMP JUMPDEST PUSH1 0x40 MLOAD PUSH2 0x364C SWAP2 SWAP1 PUSH2 0x40C8 JUMP JUMPDEST PUSH1 0x40 MLOAD DUP1 SWAP2 SUB SWAP1 LOG1 JUMP JUMPDEST PUSH1 0x2 PUSH1 0x3 SLOAD SUB PUSH2 0x3692 JUMPI PUSH1 0x40 MLOAD PUSH32 0x3EE5AEB500000000000000000000000000000000000000000000000000000000 DUP2 MSTORE PUSH1 0x4 ADD PUSH1 0x40 MLOAD DUP1 SWAP2 SUB SWAP1 REVERT JUMPDEST PUSH1 0x2 PUSH1 0x3 DUP2 SWAP1 SSTORE POP JUMP JUMPDEST PUSH2 0x3718 DUP5 DUP6 PUSH20 0xFFFFFFFFFFFFFFFFFFFFFFFFFFFFFFFFFFFFFFFF AND PUSH4 0x23B872DD DUP7 DUP7 DUP7 PUSH1 0x40 MLOAD PUSH1 0x24 ADD PUSH2 0x36D1 SWAP4 SWAP3 SWAP2 SWAP1 PUSH2 0x4DEC JUMP JUMPDEST PUSH1 0x40 MLOAD PUSH1 0x20 DUP2 DUP4 SUB SUB DUP2 MSTORE SWAP1 PUSH1 0x40 MSTORE SWAP2 POP PUSH1 0xE0 SHL PUSH1 0x20 DUP3 ADD DUP1 MLOAD PUSH28 0xFFFFFFFFFFFFFFFFFFFFFFFFFFFFFFFFFFFFFFFFFFFFFFFFFFFFFFFF DUP4 DUP2 DUP4 AND OR DUP4 MSTORE POP POP POP POP PUSH2 0x3B5E JUMP JUMPDEST POP POP POP POP JUMP JUMPDEST PUSH0 PUSH2 0x3729 DUP5 DUP5 PUSH2 0x251C JUMP JUMPDEST SWAP1 POP DUP2 ISZERO PUSH2 0x37D6 JUMPI PUSH0 DUP2 PUSH1 0xA SLOAD PUSH2 0x3740 SWAP2 SWAP1 PUSH2 0x4431 JUMP JUMPDEST SWAP1 POP PUSH32 0x0 DUP2 GT ISZERO PUSH2 0x37C9 JUMPI DUP1 PUSH32 0x0 PUSH1 0x40 MLOAD PUSH32 0xF6C75DF800000000000000000000000000000000000000000000000000000000 DUP2 MSTORE PUSH1 0x4 ADD PUSH2 0x37C0 SWAP3 SWAP2 SWAP1 PUSH2 0x43AA JUMP JUMPDEST PUSH1 0x40 MLOAD DUP1 SWAP2 SUB SWAP1 REVERT JUMPDEST DUP1 PUSH1 0xA DUP2 SWAP1 SSTORE POP POP PUSH2 0x37FB JUMP JUMPDEST DUP1 PUSH1 0xA SLOAD GT PUSH2 0x37E5 JUMPI PUSH0 PUSH2 0x37F4 JUMP JUMPDEST DUP1 PUSH1 0xA SLOAD PUSH2 0x37F3 SWAP2 SWAP1 PUSH2 0x43FE JUMP JUMPDEST JUMPDEST PUSH1 0xA DUP2 SWAP1 SSTORE POP JUMPDEST POP POP POP POP JUMP JUMPDEST PUSH1 0x1 PUSH1 0x3 DUP2 SWAP1 SSTORE POP JUMP JUMPDEST PUSH2 0x3813 PUSH2 0x3504 JUMP JUMPDEST PUSH20 0xFFFFFFFFFFFFFFFFFFFFFFFFFFFFFFFFFFFFFFFF AND PUSH2 0x3831 PUSH2 0x17B1 JUMP JUMPDEST PUSH20 0xFFFFFFFFFFFFFFFFFFFFFFFFFFFFFFFFFFFFFFFF AND EQ PUSH2 0x3890 JUMPI PUSH2 0x3854 PUSH2 0x3504 JUMP JUMPDEST PUSH1 0x40 MLOAD PUSH32 0x118CDAA700000000000000000000000000000000000000000000000000000000 DUP2 MSTORE PUSH1 0x4 ADD PUSH2 0x3887 SWAP2 SWAP1 PUSH2 0x40C8 JUMP JUMPDEST PUSH1 0x40 MLOAD DUP1 SWAP2 SUB SWAP1 REVERT JUMPDEST JUMP JUMPDEST PUSH0 PUSH0 PUSH0 SWAP1 SLOAD SWAP1 PUSH2 0x100 EXP SWAP1 DIV PUSH20 0xFFFFFFFFFFFFFFFFFFFFFFFFFFFFFFFFFFFFFFFF AND SWAP1 POP DUP2 PUSH0 PUSH0 PUSH2 0x100 EXP DUP2 SLOAD DUP2 PUSH20 0xFFFFFFFFFFFFFFFFFFFFFFFFFFFFFFFFFFFFFFFF MUL NOT AND SWAP1 DUP4 PUSH20 0xFFFFFFFFFFFFFFFFFFFFFFFFFFFFFFFFFFFFFFFF AND MUL OR SWAP1 SSTORE POP DUP2 PUSH20 0xFFFFFFFFFFFFFFFFFFFFFFFFFFFFFFFFFFFFFFFF AND DUP2 PUSH20 0xFFFFFFFFFFFFFFFFFFFFFFFFFFFFFFFFFFFFFFFF AND PUSH32 0x8BE0079C531659141344CD1FD0A4F28419497F9722A3DAAFE3B4186F6B6457E0 PUSH1 0x40 MLOAD PUSH1 0x40 MLOAD DUP1 SWAP2 SUB SWAP1 LOG3 POP POP JUMP JUMPDEST PUSH2 0x395B PUSH2 0x33C6 JUMP JUMPDEST PUSH1 0x1 PUSH1 0x2 PUSH0 PUSH2 0x100 EXP DUP2 SLOAD DUP2 PUSH1 0xFF MUL NOT AND SWAP1 DUP4 ISZERO ISZERO MUL OR SWAP1 SSTORE POP PUSH32 0x62E78CEA01BEE320CD4E420270B5EA74000D11B0C9F74754EBDBFC544B05A258 PUSH2 0x399E PUSH2 0x3504 JUMP JUMPDEST PUSH1 0x40 MLOAD PUSH2 0x39AB SWAP2 SWAP1 PUSH2 0x40C8 JUMP JUMPDEST PUSH1 0x40 MLOAD DUP1 SWAP2 SUB SWAP1 LOG1 JUMP JUMPDEST PUSH2 0x3A2F DUP4 DUP5 PUSH20 0xFFFFFFFFFFFFFFFFFFFFFFFFFFFFFFFFFFFFFFFF AND PUSH4 0xA9059CBB DUP6 DUP6 PUSH1 0x40 MLOAD PUSH1 0x24 ADD PUSH2 0x39E8 SWAP3 SWAP2 SWAP1 PUSH2 0x4E21 JUMP JUMPDEST PUSH1 0x40 MLOAD PUSH1 0x20 DUP2 DUP4 SUB SUB DUP2 MSTORE SWAP1 PUSH1 0x40 MSTORE SWAP2 POP PUSH1 0xE0 SHL PUSH1 0x20 DUP3 ADD DUP1 MLOAD PUSH28 0xFFFFFFFFFFFFFFFFFFFFFFFFFFFFFFFFFFFFFFFFFFFFFFFFFFFFFFFF DUP4 DUP2 DUP4 AND OR DUP4 MSTORE POP POP POP POP PUSH2 0x3B5E JUMP JUMPDEST POP POP POP JUMP JUMPDEST PUSH0 PUSH0 PUSH2 0x3A3F PUSH0 PUSH2 0x19C2 JUMP JUMPDEST SWAP1 POP DUP1 PUSH1 0x1 DUP3 PUSH8 0xDE0B6B3A7640000 DUP7 MUL ADD SUB DUP2 PUSH2 0x3A60 JUMPI PUSH2 0x3A5F PUSH2 0x45D7 JUMP JUMPDEST JUMPDEST DIV SWAP2 POP POP SWAP2 SWAP1 POP JUMP JUMPDEST PUSH0 PUSH0 DUP5 SUB PUSH2 0x3A79 JUMPI PUSH0 SWAP1 POP PUSH2 0x3AC6 JUMP JUMPDEST PUSH0 DUP5 DUP5 GT PUSH2 0x3A92 JUMPI DUP4 DUP6 PUSH2 0x3A8D SWAP2 SWAP1 PUSH2 0x43FE JUMP JUMPDEST PUSH2 0x3A9F JUMP JUMPDEST DUP5 DUP5 PUSH2 0x3A9E SWAP2 SWAP1 PUSH2 0x43FE JUMP JUMPDEST JUMPDEST SWAP1 POP PUSH0 PUSH2 0x2710 DUP5 DUP8 PUSH2 0x3AB1 SWAP2 SWAP1 PUSH2 0x4902 JUMP JUMPDEST PUSH2 0x3ABB SWAP2 SWAP1 PUSH2 0x4943 JUMP JUMPDEST SWAP1 POP DUP1 DUP3 GT ISZERO SWAP3 POP POP POP JUMPDEST SWAP4 SWAP3 POP POP POP JUMP JUMPDEST PUSH2 0x3AD7 DUP3 DUP3 PUSH2 0x183B JUMP JUMPDEST PUSH2 0x3B1A JUMPI DUP1 DUP3 PUSH1 0x40 MLOAD PUSH32 0xE2517D3F00000000000000000000000000000000000000000000000000000000 DUP2 MSTORE PUSH1 0x4 ADD PUSH2 0x3B11 SWAP3 SWAP2 SWAP1 PUSH2 0x4E48 JUMP JUMPDEST PUSH1 0x40 MLOAD DUP1 SWAP2 SUB SWAP1 REVERT JUMPDEST POP POP JUMP JUMPDEST PUSH2 0x3B26 PUSH2 0x1754 JUMP JUMPDEST PUSH2 0x3B5C JUMPI PUSH1 0x40 MLOAD PUSH32 0x8DFC202B00000000000000000000000000000000000000000000000000000000 DUP2 MSTORE PUSH1 0x4 ADD PUSH1 0x40 MLOAD DUP1 SWAP2 SUB SWAP1 REVERT JUMPDEST JUMP JUMPDEST PUSH0 PUSH0 PUSH1 0x20 PUSH0 DUP5 MLOAD PUSH1 0x20 DUP7 ADD PUSH0 DUP9 GAS CALL DUP1 PUSH2 0x3B7D JUMPI PUSH1 0x40 MLOAD RETURNDATASIZE PUSH0 DUP3 RETURNDATACOPY RETURNDATASIZE DUP2 REVERT JUMPDEST RETURNDATASIZE SWAP3 POP PUSH0 MLOAD SWAP2 POP POP PUSH0 DUP3 EQ PUSH2 0x3B96 JUMPI PUSH1 0x1 DUP2 EQ ISZERO PUSH2 0x3BB1 JUMP JUMPDEST PUSH0 DUP5 PUSH20 0xFFFFFFFFFFFFFFFFFFFFFFFFFFFFFFFFFFFFFFFF AND EXTCODESIZE EQ JUMPDEST ISZERO PUSH2 0x3BF3 JUMPI DUP4 PUSH1 0x40 MLOAD PUSH32 0x5274AFE700000000000000000000000000000000000000000000000000000000 DUP2 MSTORE PUSH1 0x4 ADD PUSH2 0x3BEA SWAP2 SWAP1 PUSH2 0x40C8 JUMP JUMPDEST PUSH1 0x40 MLOAD DUP1 SWAP2 SUB SWAP1 REVERT JUMPDEST POP POP POP POP JUMP JUMPDEST POP DUP1 SLOAD PUSH2 0x3C05 SWAP1 PUSH2 0x437A JUMP JUMPDEST PUSH0 DUP3 SSTORE DUP1 PUSH1 0x1F LT PUSH2 0x3C16 JUMPI POP PUSH2 0x3C33 JUMP JUMPDEST PUSH1 0x1F ADD PUSH1 0x20 SWAP1 DIV SWAP1 PUSH0 MSTORE PUSH1 0x20 PUSH0 KECCAK256 SWAP1 DUP2 ADD SWAP1 PUSH2 0x3C32 SWAP2 SWAP1 PUSH2 0x3C36 JUMP JUMPDEST JUMPDEST POP JUMP JUMPDEST JUMPDEST DUP1 DUP3 GT ISZERO PUSH2 0x3C4D JUMPI PUSH0 DUP2 PUSH0 SWAP1 SSTORE POP PUSH1 0x1 ADD PUSH2 0x3C37 JUMP JUMPDEST POP SWAP1 JUMP JUMPDEST PUSH0 PUSH0 REVERT JUMPDEST PUSH0 PUSH0 REVERT JUMPDEST PUSH0 PUSH32 0xFFFFFFFF00000000000000000000000000000000000000000000000000000000 DUP3 AND SWAP1 POP SWAP2 SWAP1 POP JUMP JUMPDEST PUSH2 0x3C8D DUP2 PUSH2 0x3C59 JUMP JUMPDEST DUP2 EQ PUSH2 0x3C97 JUMPI PUSH0 PUSH0 REVERT JUMPDEST POP JUMP JUMPDEST PUSH0 DUP2 CALLDATALOAD SWAP1 POP PUSH2 0x3CA8 DUP2 PUSH2 0x3C84 JUMP JUMPDEST SWAP3 SWAP2 POP POP JUMP JUMPDEST PUSH0 PUSH1 0x20 DUP3 DUP5 SUB SLT ISZERO PUSH2 0x3CC3 JUMPI PUSH2 0x3CC2 PUSH2 0x3C51 JUMP JUMPDEST JUMPDEST PUSH0 PUSH2 0x3CD0 DUP5 DUP3 DUP6 ADD PUSH2 0x3C9A JUMP JUMPDEST SWAP2 POP POP SWAP3 SWAP2 POP POP JUMP JUMPDEST PUSH0 DUP2 ISZERO ISZERO SWAP1 POP SWAP2 SWAP1 POP JUMP JUMPDEST PUSH2 0x3CED DUP2 PUSH2 0x3CD9 JUMP JUMPDEST DUP3 MSTORE POP POP JUMP JUMPDEST PUSH0 PUSH1 0x20 DUP3 ADD SWAP1 POP PUSH2 0x3D06 PUSH0 DUP4 ADD DUP5 PUSH2 0x3CE4 JUMP JUMPDEST SWAP3 SWAP2 POP POP JUMP JUMPDEST PUSH0 PUSH20 0xFFFFFFFFFFFFFFFFFFFFFFFFFFFFFFFFFFFFFFFF DUP3 AND SWAP1 POP SWAP2 SWAP1 POP JUMP JUMPDEST PUSH0 PUSH2 0x3D35 DUP3 PUSH2 0x3D0C JUMP JUMPDEST SWAP1 POP SWAP2 SWAP1 POP JUMP JUMPDEST PUSH2 0x3D45 DUP2 PUSH2 0x3D2B JUMP JUMPDEST DUP2 EQ PUSH2 0x3D4F JUMPI PUSH0 PUSH0 REVERT JUMPDEST POP JUMP JUMPDEST PUSH0 DUP2 CALLDATALOAD SWAP1 POP PUSH2 0x3D60 DUP2 PUSH2 0x3D3C JUMP JUMPDEST SWAP3 SWAP2 POP POP JUMP JUMPDEST PUSH0 PUSH1 0x20 DUP3 DUP5 SUB SLT ISZERO PUSH2 0x3D7B JUMPI PUSH2 0x3D7A PUSH2 0x3C51 JUMP JUMPDEST JUMPDEST PUSH0 PUSH2 0x3D88 DUP5 DUP3 DUP6 ADD PUSH2 0x3D52 JUMP JUMPDEST SWAP2 POP POP SWAP3 SWAP2 POP POP JUMP JUMPDEST PUSH0 DUP2 SWAP1 POP SWAP2 SWAP1 POP JUMP JUMPDEST PUSH0 PUSH2 0x3DB4 PUSH2 0x3DAF PUSH2 0x3DAA DUP5 PUSH2 0x3D0C JUMP JUMPDEST PUSH2 0x3D91 JUMP JUMPDEST PUSH2 0x3D0C JUMP JUMPDEST SWAP1 POP SWAP2 SWAP1 POP JUMP JUMPDEST PUSH0 PUSH2 0x3DC5 DUP3 PUSH2 0x3D9A JUMP JUMPDEST SWAP1 POP SWAP2 SWAP1 POP JUMP JUMPDEST PUSH0 PUSH2 0x3DD6 DUP3 PUSH2 0x3DBB JUMP JUMPDEST SWAP1 POP SWAP2 SWAP1 POP JUMP JUMPDEST PUSH2 0x3DE6 DUP2 PUSH2 0x3DCC JUMP JUMPDEST DUP3 MSTORE POP POP JUMP JUMPDEST PUSH0 PUSH1 0x20 DUP3 ADD SWAP1 POP PUSH2 0x3DFF PUSH0 DUP4 ADD DUP5 PUSH2 0x3DDD JUMP JUMPDEST SWAP3 SWAP2 POP POP JUMP JUMPDEST PUSH0 PUSH0 PUSH1 0x40 DUP4 DUP6 SUB SLT ISZERO PUSH2 0x3E1B JUMPI PUSH2 0x3E1A PUSH2 0x3C51 JUMP JUMPDEST JUMPDEST PUSH0 PUSH2 0x3E28 DUP6 DUP3 DUP7 ADD PUSH2 0x3D52 JUMP JUMPDEST SWAP3 POP POP PUSH1 0x20 PUSH2 0x3E39 DUP6 DUP3 DUP7 ADD PUSH2 0x3D52 JUMP JUMPDEST SWAP2 POP POP SWAP3 POP SWAP3 SWAP1 POP JUMP JUMPDEST PUSH0 DUP2 MLOAD SWAP1 POP SWAP2 SWAP1 POP JUMP JUMPDEST PUSH0 DUP3 DUP3 MSTORE PUSH1 0x20 DUP3 ADD SWAP1 POP SWAP3 SWAP2 POP POP JUMP JUMPDEST DUP3 DUP2 DUP4 MCOPY PUSH0 DUP4 DUP4 ADD MSTORE POP POP POP JUMP JUMPDEST PUSH0 PUSH1 0x1F NOT PUSH1 0x1F DUP4 ADD AND SWAP1 POP SWAP2 SWAP1 POP JUMP JUMPDEST PUSH0 PUSH2 0x3E85 DUP3 PUSH2 0x3E43 JUMP JUMPDEST PUSH2 0x3E8F DUP2 DUP6 PUSH2 0x3E4D JUMP JUMPDEST SWAP4 POP PUSH2 0x3E9F DUP2 DUP6 PUSH1 0x20 DUP7 ADD PUSH2 0x3E5D JUMP JUMPDEST PUSH2 0x3EA8 DUP2 PUSH2 0x3E6B JUMP JUMPDEST DUP5 ADD SWAP2 POP POP SWAP3 SWAP2 POP POP JUMP JUMPDEST PUSH0 PUSH1 0x40 DUP3 ADD SWAP1 POP DUP2 DUP2 SUB PUSH0 DUP4 ADD MSTORE PUSH2 0x3ECB DUP2 DUP6 PUSH2 0x3E7B JUMP JUMPDEST SWAP1 POP PUSH2 0x3EDA PUSH1 0x20 DUP4 ADD DUP5 PUSH2 0x3CE4 JUMP JUMPDEST SWAP4 SWAP3 POP POP POP JUMP JUMPDEST PUSH0 DUP2 SWAP1 POP SWAP2 SWAP1 POP JUMP JUMPDEST PUSH2 0x3EF3 DUP2 PUSH2 0x3EE1 JUMP JUMPDEST DUP2 EQ PUSH2 0x3EFD JUMPI PUSH0 PUSH0 REVERT JUMPDEST POP JUMP JUMPDEST PUSH0 DUP2 CALLDATALOAD SWAP1 POP PUSH2 0x3F0E DUP2 PUSH2 0x3EEA JUMP JUMPDEST SWAP3 SWAP2 POP POP JUMP JUMPDEST PUSH0 PUSH0 PUSH0 PUSH1 0x60 DUP5 DUP7 SUB SLT ISZERO PUSH2 0x3F2B JUMPI PUSH2 0x3F2A PUSH2 0x3C51 JUMP JUMPDEST JUMPDEST PUSH0 PUSH2 0x3F38 DUP7 DUP3 DUP8 ADD PUSH2 0x3D52 JUMP JUMPDEST SWAP4 POP POP PUSH1 0x20 PUSH2 0x3F49 DUP7 DUP3 DUP8 ADD PUSH2 0x3D52 JUMP JUMPDEST SWAP3 POP POP PUSH1 0x40 PUSH2 0x3F5A DUP7 DUP3 DUP8 ADD PUSH2 0x3F00 JUMP JUMPDEST SWAP2 POP POP SWAP3 POP SWAP3 POP SWAP3 JUMP JUMPDEST PUSH0 DUP2 SWAP1 POP SWAP2 SWAP1 POP JUMP JUMPDEST PUSH2 0x3F76 DUP2 PUSH2 0x3F64 JUMP JUMPDEST DUP2 EQ PUSH2 0x3F80 JUMPI PUSH0 PUSH0 REVERT JUMPDEST POP JUMP JUMPDEST PUSH0 DUP2 CALLDATALOAD SWAP1 POP PUSH2 0x3F91 DUP2 PUSH2 0x3F6D JUMP JUMPDEST SWAP3 SWAP2 POP POP JUMP JUMPDEST PUSH0 PUSH1 0x20 DUP3 DUP5 SUB SLT ISZERO PUSH2 0x3FAC JUMPI PUSH2 0x3FAB PUSH2 0x3C51 JUMP JUMPDEST JUMPDEST PUSH0 PUSH2 0x3FB9 DUP5 DUP3 DUP6 ADD PUSH2 0x3F83 JUMP JUMPDEST SWAP2 POP POP SWAP3 SWAP2 POP POP JUMP JUMPDEST PUSH2 0x3FCB DUP2 PUSH2 0x3F64 JUMP JUMPDEST DUP3 MSTORE POP POP JUMP JUMPDEST PUSH0 PUSH1 0x20 DUP3 ADD SWAP1 POP PUSH2 0x3FE4 PUSH0 DUP4 ADD DUP5 PUSH2 0x3FC2 JUMP JUMPDEST SWAP3 SWAP2 POP POP JUMP JUMPDEST PUSH0 PUSH0 PUSH1 0x40 DUP4 DUP6 SUB SLT ISZERO PUSH2 0x4000 JUMPI PUSH2 0x3FFF PUSH2 0x3C51 JUMP JUMPDEST JUMPDEST PUSH0 PUSH2 0x400D DUP6 DUP3 DUP7 ADD PUSH2 0x3F83 JUMP JUMPDEST SWAP3 POP POP PUSH1 0x20 PUSH2 0x401E DUP6 DUP3 DUP7 ADD PUSH2 0x3D52 JUMP JUMPDEST SWAP2 POP POP SWAP3 POP SWAP3 SWAP1 POP JUMP JUMPDEST PUSH0 PUSH0 PUSH1 0x40 DUP4 DUP6 SUB SLT ISZERO PUSH2 0x403E JUMPI PUSH2 0x403D PUSH2 0x3C51 JUMP JUMPDEST JUMPDEST PUSH0 PUSH2 0x404B DUP6 DUP3 DUP7 ADD PUSH2 0x3D52 JUMP JUMPDEST SWAP3 POP POP PUSH1 0x20 PUSH2 0x405C DUP6 DUP3 DUP7 ADD PUSH2 0x3F00 JUMP JUMPDEST SWAP2 POP POP SWAP3 POP SWAP3 SWAP1 POP JUMP JUMPDEST PUSH0 PUSH1 0x20 DUP3 DUP5 SUB SLT ISZERO PUSH2 0x407B JUMPI PUSH2 0x407A PUSH2 0x3C51 JUMP JUMPDEST JUMPDEST PUSH0 PUSH2 0x4088 DUP5 DUP3 DUP6 ADD PUSH2 0x3F00 JUMP JUMPDEST SWAP2 POP POP SWAP3 SWAP2 POP POP JUMP JUMPDEST PUSH2 0x409A DUP2 PUSH2 0x3EE1 JUMP JUMPDEST DUP3 MSTORE POP POP JUMP JUMPDEST PUSH0 PUSH1 0x20 DUP3 ADD SWAP1 POP PUSH2 0x40B3 PUSH0 DUP4 ADD DUP5 PUSH2 0x4091 JUMP JUMPDEST SWAP3 SWAP2 POP POP JUMP JUMPDEST PUSH2 0x40C2 DUP2 PUSH2 0x3D2B JUMP JUMPDEST DUP3 MSTORE POP POP JUMP JUMPDEST PUSH0 PUSH1 0x20 DUP3 ADD SWAP1 POP PUSH2 0x40DB PUSH0 DUP4 ADD DUP5 PUSH2 0x40B9 JUMP JUMPDEST SWAP3 SWAP2 POP POP JUMP JUMPDEST PUSH0 PUSH1 0xFF DUP3 AND SWAP1 POP SWAP2 SWAP1 POP JUMP JUMPDEST PUSH2 0x40F6 DUP2 PUSH2 0x40E1 JUMP JUMPDEST DUP3 MSTORE POP POP JUMP JUMPDEST PUSH0 PUSH1 0x20 DUP3 ADD SWAP1 POP PUSH2 0x410F PUSH0 DUP4 ADD DUP5 PUSH2 0x40ED JUMP JUMPDEST SWAP3 SWAP2 POP POP JUMP JUMPDEST PUSH0 PUSH0 REVERT JUMPDEST PUSH0 PUSH0 REVERT JUMPDEST PUSH0 PUSH0 REVERT JUMPDEST PUSH0 PUSH0 DUP4 PUSH1 0x1F DUP5 ADD SLT PUSH2 0x4136 JUMPI PUSH2 0x4135 PUSH2 0x4115 JUMP JUMPDEST JUMPDEST DUP3 CALLDATALOAD SWAP1 POP PUSH8 0xFFFFFFFFFFFFFFFF DUP2 GT ISZERO PUSH2 0x4153 JUMPI PUSH2 0x4152 PUSH2 0x4119 JUMP JUMPDEST JUMPDEST PUSH1 0x20 DUP4 ADD SWAP2 POP DUP4 PUSH1 0x1 DUP3 MUL DUP4 ADD GT ISZERO PUSH2 0x416F JUMPI PUSH2 0x416E PUSH2 0x411D JUMP JUMPDEST JUMPDEST SWAP3 POP SWAP3 SWAP1 POP JUMP JUMPDEST PUSH0 PUSH0 PUSH0 PUSH1 0x40 DUP5 DUP7 SUB SLT ISZERO PUSH2 0x418D JUMPI PUSH2 0x418C PUSH2 0x3C51 JUMP JUMPDEST JUMPDEST PUSH0 PUSH2 0x419A DUP7 DUP3 DUP8 ADD PUSH2 0x3D52 JUMP JUMPDEST SWAP4 POP POP PUSH1 0x20 DUP5 ADD CALLDATALOAD PUSH8 0xFFFFFFFFFFFFFFFF DUP2 GT ISZERO PUSH2 0x41BB JUMPI PUSH2 0x41BA PUSH2 0x3C55 JUMP JUMPDEST JUMPDEST PUSH2 0x41C7 DUP7 DUP3 DUP8 ADD PUSH2 0x4121 JUMP JUMPDEST SWAP3 POP SWAP3 POP POP SWAP3 POP SWAP3 POP SWAP3 JUMP JUMPDEST PUSH0 PUSH1 0x40 DUP3 ADD SWAP1 POP PUSH2 0x41E6 PUSH0 DUP4 ADD DUP6 PUSH2 0x40B9 JUMP JUMPDEST PUSH2 0x41F3 PUSH1 0x20 DUP4 ADD DUP5 PUSH2 0x3CE4 JUMP JUMPDEST SWAP4 SWAP3 POP POP POP JUMP JUMPDEST PUSH0 PUSH0 PUSH0 PUSH0 PUSH1 0x60 DUP6 DUP8 SUB SLT ISZERO PUSH2 0x4212 JUMPI PUSH2 0x4211 PUSH2 0x3C51 JUMP JUMPDEST JUMPDEST PUSH0 PUSH2 0x421F DUP8 DUP3 DUP9 ADD PUSH2 0x3D52 JUMP JUMPDEST SWAP5 POP POP PUSH1 0x20 DUP6 ADD CALLDATALOAD PUSH8 0xFFFFFFFFFFFFFFFF DUP2 GT ISZERO PUSH2 0x4240 JUMPI PUSH2 0x423F PUSH2 0x3C55 JUMP JUMPDEST JUMPDEST PUSH2 0x424C DUP8 DUP3 DUP9 ADD PUSH2 0x4121 JUMP JUMPDEST SWAP4 POP SWAP4 POP POP PUSH1 0x40 PUSH2 0x425F DUP8 DUP3 DUP9 ADD PUSH2 0x3F00 JUMP JUMPDEST SWAP2 POP POP SWAP3 SWAP6 SWAP2 SWAP5 POP SWAP3 POP JUMP JUMPDEST PUSH0 PUSH0 PUSH0 PUSH0 PUSH0 PUSH1 0x80 DUP7 DUP9 SUB SLT ISZERO PUSH2 0x4284 JUMPI PUSH2 0x4283 PUSH2 0x3C51 JUMP JUMPDEST JUMPDEST PUSH0 PUSH2 0x4291 DUP9 DUP3 DUP10 ADD PUSH2 0x3D52 JUMP JUMPDEST SWAP6 POP POP PUSH1 0x20 DUP7 ADD CALLDATALOAD PUSH8 0xFFFFFFFFFFFFFFFF DUP2 GT ISZERO PUSH2 0x42B2 JUMPI PUSH2 0x42B1 PUSH2 0x3C55 JUMP JUMPDEST JUMPDEST PUSH2 0x42BE DUP9 DUP3 DUP10 ADD PUSH2 0x4121 JUMP JUMPDEST SWAP5 POP SWAP5 POP POP PUSH1 0x40 PUSH2 0x42D1 DUP9 DUP3 DUP10 ADD PUSH2 0x3F00 JUMP JUMPDEST SWAP3 POP POP PUSH1 0x60 PUSH2 0x42E2 DUP9 DUP3 DUP10 ADD PUSH2 0x3F00 JUMP JUMPDEST SWAP2 POP POP SWAP3 SWAP6 POP SWAP3 SWAP6 SWAP1 SWAP4 POP JUMP JUMPDEST PUSH0 PUSH0 PUSH1 0x40 DUP4 DUP6 SUB SLT ISZERO PUSH2 0x4305 JUMPI PUSH2 0x4304 PUSH2 0x3C51 JUMP JUMPDEST JUMPDEST PUSH0 PUSH2 0x4312 DUP6 DUP3 DUP7 ADD PUSH2 0x3F00 JUMP JUMPDEST SWAP3 POP POP PUSH1 0x20 PUSH2 0x4323 DUP6 DUP3 DUP7 ADD PUSH2 0x3F00 JUMP JUMPDEST SWAP2 POP POP SWAP3 POP SWAP3 SWAP1 POP JUMP JUMPDEST PUSH0 PUSH1 0x20 DUP3 ADD SWAP1 POP DUP2 DUP2 SUB PUSH0 DUP4 ADD MSTORE PUSH2 0x4345 DUP2 DUP5 PUSH2 0x3E7B JUMP JUMPDEST SWAP1 POP SWAP3 SWAP2 POP POP JUMP JUMPDEST PUSH32 0x4E487B7100000000000000000000000000000000000000000000000000000000 PUSH0 MSTORE PUSH1 0x22 PUSH1 0x4 MSTORE PUSH1 0x24 PUSH0 REVERT JUMPDEST PUSH0 PUSH1 0x2 DUP3 DIV SWAP1 POP PUSH1 0x1 DUP3 AND DUP1 PUSH2 0x4391 JUMPI PUSH1 0x7F DUP3 AND SWAP2 POP JUMPDEST PUSH1 0x20 DUP3 LT DUP2 SUB PUSH2 0x43A4 JUMPI PUSH2 0x43A3 PUSH2 0x434D JUMP JUMPDEST JUMPDEST POP SWAP2 SWAP1 POP JUMP JUMPDEST PUSH0 PUSH1 0x40 DUP3 ADD SWAP1 POP PUSH2 0x43BD PUSH0 DUP4 ADD DUP6 PUSH2 0x4091 JUMP JUMPDEST PUSH2 0x43CA PUSH1 0x20 DUP4 ADD DUP5 PUSH2 0x4091 JUMP JUMPDEST SWAP4 SWAP3 POP POP POP JUMP JUMPDEST PUSH32 0x4E487B7100000000000000000000000000000000000000000000000000000000 PUSH0 MSTORE PUSH1 0x11 PUSH1 0x4 MSTORE PUSH1 0x24 PUSH0 REVERT JUMPDEST PUSH0 PUSH2 0x4408 DUP3 PUSH2 0x3EE1 JUMP JUMPDEST SWAP2 POP PUSH2 0x4413 DUP4 PUSH2 0x3EE1 JUMP JUMPDEST SWAP3 POP DUP3 DUP3 SUB SWAP1 POP DUP2 DUP2 GT ISZERO PUSH2 0x442B JUMPI PUSH2 0x442A PUSH2 0x43D1 JUMP JUMPDEST JUMPDEST SWAP3 SWAP2 POP POP JUMP JUMPDEST PUSH0 PUSH2 0x443B DUP3 PUSH2 0x3EE1 JUMP JUMPDEST SWAP2 POP PUSH2 0x4446 DUP4 PUSH2 0x3EE1 JUMP JUMPDEST SWAP3 POP DUP3 DUP3 ADD SWAP1 POP DUP1 DUP3 GT ISZERO PUSH2 0x445E JUMPI PUSH2 0x445D PUSH2 0x43D1 JUMP JUMPDEST JUMPDEST SWAP3 SWAP2 POP POP JUMP JUMPDEST PUSH32 0x455448207072652D726567697374657265640000000000000000000000000000 PUSH0 DUP3 ADD MSTORE POP JUMP JUMPDEST PUSH0 PUSH2 0x4498 PUSH1 0x12 DUP4 PUSH2 0x3E4D JUMP JUMPDEST SWAP2 POP PUSH2 0x44A3 DUP3 PUSH2 0x4464 JUMP JUMPDEST PUSH1 0x20 DUP3 ADD SWAP1 POP SWAP2 SWAP1 POP JUMP JUMPDEST PUSH0 PUSH1 0x20 DUP3 ADD SWAP1 POP DUP2 DUP2 SUB PUSH0 DUP4 ADD MSTORE PUSH2 0x44C5 DUP2 PUSH2 0x448C JUMP JUMPDEST SWAP1 POP SWAP2 SWAP1 POP JUMP JUMPDEST PUSH2 0x44D5 DUP2 PUSH2 0x40E1 JUMP JUMPDEST DUP2 EQ PUSH2 0x44DF JUMPI PUSH0 PUSH0 REVERT JUMPDEST POP JUMP JUMPDEST PUSH0 DUP2 MLOAD SWAP1 POP PUSH2 0x44F0 DUP2 PUSH2 0x44CC JUMP JUMPDEST SWAP3 SWAP2 POP POP JUMP JUMPDEST PUSH0 PUSH1 0x20 DUP3 DUP5 SUB SLT ISZERO PUSH2 0x450B JUMPI PUSH2 0x450A PUSH2 0x3C51 JUMP JUMPDEST JUMPDEST PUSH0 PUSH2 0x4518 DUP5 DUP3 DUP6 ADD PUSH2 0x44E2 JUMP JUMPDEST SWAP2 POP POP SWAP3 SWAP2 POP POP JUMP JUMPDEST PUSH0 PUSH1 0x40 DUP3 ADD SWAP1 POP PUSH2 0x4534 PUSH0 DUP4 ADD DUP6 PUSH2 0x40ED JUMP JUMPDEST PUSH2 0x4541 PUSH1 0x20 DUP4 ADD DUP5 PUSH2 0x40B9 JUMP JUMPDEST SWAP4 SWAP3 POP POP POP JUMP JUMPDEST PUSH0 PUSH1 0x40 DUP3 ADD SWAP1 POP PUSH2 0x455B PUSH0 DUP4 ADD DUP6 PUSH2 0x40B9 JUMP JUMPDEST PUSH2 0x4568 PUSH1 0x20 DUP4 ADD DUP5 PUSH2 0x40B9 JUMP JUMPDEST SWAP4 SWAP3 POP POP POP JUMP JUMPDEST PUSH32 0x626164206D73672E76616C756500000000000000000000000000000000000000 PUSH0 DUP3 ADD MSTORE POP JUMP JUMPDEST PUSH0 PUSH2 0x45A3 PUSH1 0xD DUP4 PUSH2 0x3E4D JUMP JUMPDEST SWAP2 POP PUSH2 0x45AE DUP3 PUSH2 0x456F JUMP JUMPDEST PUSH1 0x20 DUP3 ADD SWAP1 POP SWAP2 SWAP1 POP JUMP JUMPDEST PUSH0 PUSH1 0x20 DUP3 ADD SWAP1 POP DUP2 DUP2 SUB PUSH0 DUP4 ADD MSTORE PUSH2 0x45D0 DUP2 PUSH2 0x4597 JUMP JUMPDEST SWAP1 POP SWAP2 SWAP1 POP JUMP JUMPDEST PUSH32 0x4E487B7100000000000000000000000000000000000000000000000000000000 PUSH0 MSTORE PUSH1 0x12 PUSH1 0x4 MSTORE PUSH1 0x24 PUSH0 REVERT JUMPDEST PUSH0 DUP2 SWAP1 POP SWAP3 SWAP2 POP POP JUMP JUMPDEST DUP3 DUP2 DUP4 CALLDATACOPY PUSH0 DUP4 DUP4 ADD MSTORE POP POP POP JUMP JUMPDEST PUSH0 PUSH2 0x4627 DUP4 DUP6 PUSH2 0x4604 JUMP JUMPDEST SWAP4 POP PUSH2 0x4634 DUP4 DUP6 DUP5 PUSH2 0x460E JUMP JUMPDEST DUP3 DUP5 ADD SWAP1 POP SWAP4 SWAP3 POP POP POP JUMP JUMPDEST PUSH0 PUSH2 0x464C DUP3 DUP5 DUP7 PUSH2 0x461C JUMP JUMPDEST SWAP2 POP DUP2 SWAP1 POP SWAP4 SWAP3 POP POP POP JUMP JUMPDEST PUSH0 PUSH10 0xFFFFFFFFFFFFFFFFFFFF DUP3 AND SWAP1 POP SWAP2 SWAP1 POP JUMP JUMPDEST PUSH2 0x4676 DUP2 PUSH2 0x4658 JUMP JUMPDEST DUP2 EQ PUSH2 0x4680 JUMPI PUSH0 PUSH0 REVERT JUMPDEST POP JUMP JUMPDEST PUSH0 DUP2 MLOAD SWAP1 POP PUSH2 0x4691 DUP2 PUSH2 0x466D JUMP JUMPDEST SWAP3 SWAP2 POP POP JUMP JUMPDEST PUSH0 DUP2 SWAP1 POP SWAP2 SWAP1 POP JUMP JUMPDEST PUSH2 0x46A9 DUP2 PUSH2 0x4697 JUMP JUMPDEST DUP2 EQ PUSH2 0x46B3 JUMPI PUSH0 PUSH0 REVERT JUMPDEST POP JUMP JUMPDEST PUSH0 DUP2 MLOAD SWAP1 POP PUSH2 0x46C4 DUP2 PUSH2 0x46A0 JUMP JUMPDEST SWAP3 SWAP2 POP POP JUMP JUMPDEST PUSH0 DUP2 MLOAD SWAP1 POP PUSH2 0x46D8 DUP2 PUSH2 0x3EEA JUMP JUMPDEST SWAP3 SWAP2 POP POP JUMP JUMPDEST PUSH0 PUSH0 PUSH0 PUSH0 PUSH0 PUSH1 0xA0 DUP7 DUP9 SUB SLT ISZERO PUSH2 0x46F7 JUMPI PUSH2 0x46F6 PUSH2 0x3C51 JUMP JUMPDEST JUMPDEST PUSH0 PUSH2 0x4704 DUP9 DUP3 DUP10 ADD PUSH2 0x4683 JUMP JUMPDEST SWAP6 POP POP PUSH1 0x20 PUSH2 0x4715 DUP9 DUP3 DUP10 ADD PUSH2 0x46B6 JUMP JUMPDEST SWAP5 POP POP PUSH1 0x40 PUSH2 0x4726 DUP9 DUP3 DUP10 ADD PUSH2 0x46CA JUMP JUMPDEST SWAP4 POP POP PUSH1 0x60 PUSH2 0x4737 DUP9 DUP3 DUP10 ADD PUSH2 0x46CA JUMP JUMPDEST SWAP3 POP POP PUSH1 0x80 PUSH2 0x4748 DUP9 DUP3 DUP10 ADD PUSH2 0x4683 JUMP JUMPDEST SWAP2 POP POP SWAP3 SWAP6 POP SWAP3 SWAP6 SWAP1 SWAP4 POP JUMP JUMPDEST PUSH0 PUSH2 0x475F DUP3 PUSH2 0x40E1 JUMP JUMPDEST SWAP2 POP PUSH2 0x476A DUP4 PUSH2 0x40E1 JUMP JUMPDEST SWAP3 POP DUP3 DUP3 SUB SWAP1 POP PUSH1 0xFF DUP2 GT ISZERO PUSH2 0x4783 JUMPI PUSH2 0x4782 PUSH2 0x43D1 JUMP JUMPDEST JUMPDEST SWAP3 SWAP2 POP POP JUMP JUMPDEST PUSH0 DUP2 PUSH1 0x1 SHR SWAP1 POP SWAP2 SWAP1 POP JUMP JUMPDEST PUSH0 PUSH0 DUP3 SWAP2 POP DUP4 SWAP1 POP JUMPDEST PUSH1 0x1 DUP6 GT ISZERO PUSH2 0x47DE JUMPI DUP1 DUP7 DIV DUP2 GT ISZERO PUSH2 0x47BA JUMPI PUSH2 0x47B9 PUSH2 0x43D1 JUMP JUMPDEST JUMPDEST PUSH1 0x1 DUP6 AND ISZERO PUSH2 0x47C9 JUMPI DUP1 DUP3 MUL SWAP2 POP JUMPDEST DUP1 DUP2 MUL SWAP1 POP PUSH2 0x47D7 DUP6 PUSH2 0x4789 JUMP JUMPDEST SWAP5 POP PUSH2 0x479E JUMP JUMPDEST SWAP5 POP SWAP5 SWAP3 POP POP POP JUMP JUMPDEST PUSH0 DUP3 PUSH2 0x47F6 JUMPI PUSH1 0x1 SWAP1 POP PUSH2 0x48B1 JUMP JUMPDEST DUP2 PUSH2 0x4803 JUMPI PUSH0 SWAP1 POP PUSH2 0x48B1 JUMP JUMPDEST DUP2 PUSH1 0x1 DUP2 EQ PUSH2 0x4819 JUMPI PUSH1 0x2 DUP2 EQ PUSH2 0x4823 JUMPI PUSH2 0x4852 JUMP JUMPDEST PUSH1 0x1 SWAP2 POP POP PUSH2 0x48B1 JUMP JUMPDEST PUSH1 0xFF DUP5 GT ISZERO PUSH2 0x4835 JUMPI PUSH2 0x4834 PUSH2 0x43D1 JUMP JUMPDEST JUMPDEST DUP4 PUSH1 0x2 EXP SWAP2 POP DUP5 DUP3 GT ISZERO PUSH2 0x484C JUMPI PUSH2 0x484B PUSH2 0x43D1 JUMP JUMPDEST JUMPDEST POP PUSH2 0x48B1 JUMP JUMPDEST POP PUSH1 0x20 DUP4 LT PUSH2 0x133 DUP4 LT AND PUSH1 0x4E DUP5 LT PUSH1 0xB DUP5 LT AND OR ISZERO PUSH2 0x4887 JUMPI DUP3 DUP3 EXP SWAP1 POP DUP4 DUP2 GT ISZERO PUSH2 0x4882 JUMPI PUSH2 0x4881 PUSH2 0x43D1 JUMP JUMPDEST JUMPDEST PUSH2 0x48B1 JUMP JUMPDEST PUSH2 0x4894 DUP5 DUP5 DUP5 PUSH1 0x1 PUSH2 0x4795 JUMP JUMPDEST SWAP3 POP SWAP1 POP DUP2 DUP5 DIV DUP2 GT ISZERO PUSH2 0x48AB JUMPI PUSH2 0x48AA PUSH2 0x43D1 JUMP JUMPDEST JUMPDEST DUP2 DUP2 MUL SWAP1 POP JUMPDEST SWAP4 SWAP3 POP POP POP JUMP JUMPDEST PUSH0 PUSH2 0x48C2 DUP3 PUSH2 0x3EE1 JUMP JUMPDEST SWAP2 POP PUSH2 0x48CD DUP4 PUSH2 0x40E1 JUMP JUMPDEST SWAP3 POP PUSH2 0x48FA PUSH32 0xFFFFFFFFFFFFFFFFFFFFFFFFFFFFFFFFFFFFFFFFFFFFFFFFFFFFFFFFFFFFFFFF DUP5 DUP5 PUSH2 0x47E7 JUMP JUMPDEST SWAP1 POP SWAP3 SWAP2 POP POP JUMP JUMPDEST PUSH0 PUSH2 0x490C DUP3 PUSH2 0x3EE1 JUMP JUMPDEST SWAP2 POP PUSH2 0x4917 DUP4 PUSH2 0x3EE1 JUMP JUMPDEST SWAP3 POP DUP3 DUP3 MUL PUSH2 0x4925 DUP2 PUSH2 0x3EE1 JUMP JUMPDEST SWAP2 POP DUP3 DUP3 DIV DUP5 EQ DUP4 ISZERO OR PUSH2 0x493C JUMPI PUSH2 0x493B PUSH2 0x43D1 JUMP JUMPDEST JUMPDEST POP SWAP3 SWAP2 POP POP JUMP JUMPDEST PUSH0 PUSH2 0x494D DUP3 PUSH2 0x3EE1 JUMP JUMPDEST SWAP2 POP PUSH2 0x4958 DUP4 PUSH2 0x3EE1 JUMP JUMPDEST SWAP3 POP DUP3 PUSH2 0x4968 JUMPI PUSH2 0x4967 PUSH2 0x45D7 JUMP JUMPDEST JUMPDEST DUP3 DUP3 DIV SWAP1 POP SWAP3 SWAP2 POP POP JUMP JUMPDEST PUSH0 DUP2 SWAP1 POP DUP2 PUSH0 MSTORE PUSH1 0x20 PUSH0 KECCAK256 SWAP1 POP SWAP2 SWAP1 POP JUMP JUMPDEST PUSH0 DUP2 SLOAD PUSH2 0x4991 DUP2 PUSH2 0x437A JUMP JUMPDEST PUSH2 0x499B DUP2 DUP7 PUSH2 0x4604 JUMP JUMPDEST SWAP5 POP PUSH1 0x1 DUP3 AND PUSH0 DUP2 EQ PUSH2 0x49B5 JUMPI PUSH1 0x1 DUP2 EQ PUSH2 0x49CA JUMPI PUSH2 0x49FC JUMP JUMPDEST PUSH1 0xFF NOT DUP4 AND DUP7 MSTORE DUP2 ISZERO ISZERO DUP3 MUL DUP7 ADD SWAP4 POP PUSH2 0x49FC JUMP JUMPDEST PUSH2 0x49D3 DUP6 PUSH2 0x4973 JUMP JUMPDEST PUSH0 JUMPDEST DUP4 DUP2 LT ISZERO PUSH2 0x49F4 JUMPI DUP2 SLOAD DUP2 DUP10 ADD MSTORE PUSH1 0x1 DUP3 ADD SWAP2 POP PUSH1 0x20 DUP2 ADD SWAP1 POP PUSH2 0x49D5 JUMP JUMPDEST DUP4 DUP9 ADD SWAP6 POP POP POP JUMPDEST POP POP POP SWAP3 SWAP2 POP POP JUMP JUMPDEST PUSH0 PUSH2 0x4A10 DUP3 DUP5 PUSH2 0x4985 JUMP JUMPDEST SWAP2 POP DUP2 SWAP1 POP SWAP3 SWAP2 POP POP JUMP JUMPDEST PUSH32 0x4E487B7100000000000000000000000000000000000000000000000000000000 PUSH0 MSTORE PUSH1 0x41 PUSH1 0x4 MSTORE PUSH1 0x24 PUSH0 REVERT JUMPDEST PUSH0 DUP2 SWAP1 POP DUP2 PUSH0 MSTORE PUSH1 0x20 PUSH0 KECCAK256 SWAP1 POP SWAP2 SWAP1 POP JUMP JUMPDEST PUSH0 PUSH1 0x20 PUSH1 0x1F DUP4 ADD DIV SWAP1 POP SWAP2 SWAP1 POP JUMP JUMPDEST PUSH0 DUP3 DUP3 SHL SWAP1 POP SWAP3 SWAP2 POP POP JUMP JUMPDEST PUSH0 PUSH1 0x8 DUP4 MUL PUSH2 0x4AA4 PUSH32 0xFFFFFFFFFFFFFFFFFFFFFFFFFFFFFFFFFFFFFFFFFFFFFFFFFFFFFFFFFFFFFFFF DUP3 PUSH2 0x4A69 JUMP JUMPDEST PUSH2 0x4AAE DUP7 DUP4 PUSH2 0x4A69 JUMP JUMPDEST SWAP6 POP DUP1 NOT DUP5 AND SWAP4 POP DUP1 DUP7 AND DUP5 OR SWAP3 POP POP POP SWAP4 SWAP3 POP POP POP JUMP JUMPDEST PUSH0 PUSH2 0x4AE0 PUSH2 0x4ADB PUSH2 0x4AD6 DUP5 PUSH2 0x3EE1 JUMP JUMPDEST PUSH2 0x3D91 JUMP JUMPDEST PUSH2 0x3EE1 JUMP JUMPDEST SWAP1 POP SWAP2 SWAP1 POP JUMP JUMPDEST PUSH0 DUP2 SWAP1 POP SWAP2 SWAP1 POP JUMP JUMPDEST PUSH2 0x4AF9 DUP4 PUSH2 0x4AC6 JUMP JUMPDEST PUSH2 0x4B0D PUSH2 0x4B05 DUP3 PUSH2 0x4AE7 JUMP JUMPDEST DUP5 DUP5 SLOAD PUSH2 0x4A75 JUMP JUMPDEST DUP3 SSTORE POP POP POP POP JUMP JUMPDEST PUSH0 PUSH0 SWAP1 POP SWAP1 JUMP JUMPDEST PUSH2 0x4B24 PUSH2 0x4B15 JUMP JUMPDEST PUSH2 0x4B2F DUP2 DUP5 DUP5 PUSH2 0x4AF0 JUMP JUMPDEST POP POP POP JUMP JUMPDEST JUMPDEST DUP2 DUP2 LT ISZERO PUSH2 0x4B52 JUMPI PUSH2 0x4B47 PUSH0 DUP3 PUSH2 0x4B1C JUMP JUMPDEST PUSH1 0x1 DUP2 ADD SWAP1 POP PUSH2 0x4B35 JUMP JUMPDEST POP POP JUMP JUMPDEST PUSH1 0x1F DUP3 GT ISZERO PUSH2 0x4B97 JUMPI PUSH2 0x4B68 DUP2 PUSH2 0x4A48 JUMP JUMPDEST PUSH2 0x4B71 DUP5 PUSH2 0x4A5A JUMP JUMPDEST DUP2 ADD PUSH1 0x20 DUP6 LT ISZERO PUSH2 0x4B80 JUMPI DUP2 SWAP1 POP JUMPDEST PUSH2 0x4B94 PUSH2 0x4B8C DUP6 PUSH2 0x4A5A JUMP JUMPDEST DUP4 ADD DUP3 PUSH2 0x4B34 JUMP JUMPDEST POP POP JUMPDEST POP POP POP JUMP JUMPDEST PUSH0 DUP3 DUP3 SHR SWAP1 POP SWAP3 SWAP2 POP POP JUMP JUMPDEST PUSH0 PUSH2 0x4BB7 PUSH0 NOT DUP5 PUSH1 0x8 MUL PUSH2 0x4B9C JUMP JUMPDEST NOT DUP1 DUP4 AND SWAP2 POP POP SWAP3 SWAP2 POP POP JUMP JUMPDEST PUSH0 PUSH2 0x4BCF DUP4 DUP4 PUSH2 0x4BA8 JUMP JUMPDEST SWAP2 POP DUP3 PUSH1 0x2 MUL DUP3 OR SWAP1 POP SWAP3 SWAP2 POP POP JUMP JUMPDEST PUSH2 0x4BE8 DUP3 PUSH2 0x3E43 JUMP JUMPDEST PUSH8 0xFFFFFFFFFFFFFFFF DUP2 GT ISZERO PUSH2 0x4C01 JUMPI PUSH2 0x4C00 PUSH2 0x4A1B JUMP JUMPDEST JUMPDEST PUSH2 0x4C0B DUP3 SLOAD PUSH2 0x437A JUMP JUMPDEST PUSH2 0x4C16 DUP3 DUP3 DUP6 PUSH2 0x4B56 JUMP JUMPDEST PUSH0 PUSH1 0x20 SWAP1 POP PUSH1 0x1F DUP4 GT PUSH1 0x1 DUP2 EQ PUSH2 0x4C47 JUMPI PUSH0 DUP5 ISZERO PUSH2 0x4C35 JUMPI DUP3 DUP8 ADD MLOAD SWAP1 POP JUMPDEST PUSH2 0x4C3F DUP6 DUP3 PUSH2 0x4BC4 JUMP JUMPDEST DUP7 SSTORE POP PUSH2 0x4CA6 JUMP JUMPDEST PUSH1 0x1F NOT DUP5 AND PUSH2 0x4C55 DUP7 PUSH2 0x4A48 JUMP JUMPDEST PUSH0 JUMPDEST DUP3 DUP2 LT ISZERO PUSH2 0x4C7C JUMPI DUP5 DUP10 ADD MLOAD DUP3 SSTORE PUSH1 0x1 DUP3 ADD SWAP2 POP PUSH1 0x20 DUP6 ADD SWAP5 POP PUSH1 0x20 DUP2 ADD SWAP1 POP PUSH2 0x4C57 JUMP JUMPDEST DUP7 DUP4 LT ISZERO PUSH2 0x4C99 JUMPI DUP5 DUP10 ADD MLOAD PUSH2 0x4C95 PUSH1 0x1F DUP10 AND DUP3 PUSH2 0x4BA8 JUMP JUMPDEST DUP4 SSTORE POP JUMPDEST PUSH1 0x1 PUSH1 0x2 DUP9 MUL ADD DUP9 SSTORE POP POP POP JUMPDEST POP POP POP POP POP POP JUMP JUMPDEST PUSH0 PUSH2 0x4CB9 DUP4 DUP6 PUSH2 0x3E4D JUMP JUMPDEST SWAP4 POP PUSH2 0x4CC6 DUP4 DUP6 DUP5 PUSH2 0x460E JUMP JUMPDEST PUSH2 0x4CCF DUP4 PUSH2 0x3E6B JUMP JUMPDEST DUP5 ADD SWAP1 POP SWAP4 SWAP3 POP POP POP JUMP JUMPDEST PUSH0 PUSH1 0x60 DUP3 ADD SWAP1 POP DUP2 DUP2 SUB PUSH0 DUP4 ADD MSTORE PUSH2 0x4CF3 DUP2 DUP7 DUP9 PUSH2 0x4CAE JUMP JUMPDEST SWAP1 POP PUSH2 0x4D02 PUSH1 0x20 DUP4 ADD DUP6 PUSH2 0x4091 JUMP JUMPDEST PUSH2 0x4D0F PUSH1 0x40 DUP4 ADD DUP5 PUSH2 0x4091 JUMP JUMPDEST SWAP6 SWAP5 POP POP POP POP POP JUMP JUMPDEST POP JUMP JUMPDEST PUSH0 PUSH2 0x4D26 PUSH0 DUP4 PUSH2 0x4604 JUMP JUMPDEST SWAP2 POP PUSH2 0x4D31 DUP3 PUSH2 0x4D18 JUMP JUMPDEST PUSH0 DUP3 ADD SWAP1 POP SWAP2 SWAP1 POP JUMP JUMPDEST PUSH0 PUSH2 0x4D45 DUP3 PUSH2 0x4D1B JUMP JUMPDEST SWAP2 POP DUP2 SWAP1 POP SWAP2 SWAP1 POP JUMP JUMPDEST PUSH32 0x6574682078666572000000000000000000000000000000000000000000000000 PUSH0 DUP3 ADD MSTORE POP JUMP JUMPDEST PUSH0 PUSH2 0x4D83 PUSH1 0x8 DUP4 PUSH2 0x3E4D JUMP JUMPDEST SWAP2 POP PUSH2 0x4D8E DUP3 PUSH2 0x4D4F JUMP JUMPDEST PUSH1 0x20 DUP3 ADD SWAP1 POP SWAP2 SWAP1 POP JUMP JUMPDEST PUSH0 PUSH1 0x20 DUP3 ADD SWAP1 POP DUP2 DUP2 SUB PUSH0 DUP4 ADD MSTORE PUSH2 0x4DB0 DUP2 PUSH2 0x4D77 JUMP JUMPDEST SWAP1 POP SWAP2 SWAP1 POP JUMP JUMPDEST PUSH0 PUSH1 0x60 DUP3 ADD SWAP1 POP PUSH2 0x4DCA PUSH0 DUP4 ADD DUP7 PUSH2 0x4091 JUMP JUMPDEST PUSH2 0x4DD7 PUSH1 0x20 DUP4 ADD DUP6 PUSH2 0x4091 JUMP JUMPDEST PUSH2 0x4DE4 PUSH1 0x40 DUP4 ADD DUP5 PUSH2 0x4091 JUMP JUMPDEST SWAP5 SWAP4 POP POP POP POP JUMP JUMPDEST PUSH0 PUSH1 0x60 DUP3 ADD SWAP1 POP PUSH2 0x4DFF PUSH0 DUP4 ADD DUP7 PUSH2 0x40B9 JUMP JUMPDEST PUSH2 0x4E0C PUSH1 0x20 DUP4 ADD DUP6 PUSH2 0x40B9 JUMP JUMPDEST PUSH2 0x4E19 PUSH1 0x40 DUP4 ADD DUP5 PUSH2 0x4091 JUMP JUMPDEST SWAP5 SWAP4 POP POP POP POP JUMP JUMPDEST PUSH0 PUSH1 0x40 DUP3 ADD SWAP1 POP PUSH2 0x4E34 PUSH0 DUP4 ADD DUP6 PUSH2 0x40B9 JUMP JUMPDEST PUSH2 0x4E41 PUSH1 0x20 DUP4 ADD DUP5 PUSH2 0x4091 JUMP JUMPDEST SWAP4 SWAP3 POP POP POP JUMP JUMPDEST PUSH0 PUSH1 0x40 DUP3 ADD SWAP1 POP PUSH2 0x4E5B PUSH0 DUP4 ADD DUP6 PUSH2 0x40B9 JUMP JUMPDEST PUSH2 0x4E68 PUSH1 0x20 DUP4 ADD DUP5 PUSH2 0x3FC2 JUMP JUMPDEST SWAP4 SWAP3 POP POP POP JUMP INVALID LOG2 PUSH5 0x6970667358 0x22 SLT KECCAK256 0x2A 0xE8 RETF 0xDE CALLF 0xFCE0 MSIZE RJUMP 0x8A6 STOP SHL 0xC5 PUSH28 0x7B58EEF452480AB2073FE8B10E1D1D5B864736F6C634300081E0033 "
		},
		"gasEstimates": {
			"creation": {
				"codeDepositCost": "4026600",
				"executionCost": "infinite",
				"totalCost": "infinite"
			},
			"external": {
				"": "264",
				"BANK_CAP_USD8()": "infinite",
				"DEFAULT_ADMIN_ROLE()": "374",
				"PAUSER_ROLE()": "414",
				"RISK_ROLE()": "458",
				"VERSION()": "infinite",
				"WITHDRAW_LIMIT_USD8()": "infinite",
				"balanceOf(address,address)": "infinite",
				"deposit(address,uint256)": "infinite",
				"depositEthByUsd(uint256,uint256)": "infinite",
				"getContact(address,address)": "infinite",
				"getContactByAlias(address,string)": "infinite",
				"getRoleAdmin(bytes32)": "infinite",
				"grantRole(bytes32,address)": "infinite",
				"hasRole(bytes32,address)": "3189",
				"owner()": "2625",
				"pause()": "infinite",
				"paused()": "2518",
				"priceFeedUsd(address)": "infinite",
				"priceUsd8(address)": "infinite",
				"quoteWeiForUsd(uint256)": "infinite",
				"registerToken(address,address)": "infinite",
				"removeContact(address)": "infinite",
				"renounceOwnership()": "infinite",
				"renounceRole(bytes32,address)": "infinite",
				"revokeRole(bytes32,address)": "infinite",
				"setContact(address,string,uint256,uint256)": "infinite",
				"supportsInterface(bytes4)": "764",
				"toUnit6(address,uint256)": "infinite",
				"toUsd8(address,uint256)": "infinite",
				"tokenDecimals(address)": "2966",
				"totalBankUsd8()": "2537",
				"totalOf(address)": "2875",
				"transferInternal(address,address,uint256)": "infinite",
				"transferInternalByAlias(address,string,uint256)": "infinite",
				"transferOwnership(address)": "infinite",
				"unpause()": "infinite",
				"updateContactEthLimit(address,uint256)": "infinite",
				"withdraw(address,uint256)": "infinite"
			},
			"internal": {
				"_enforceBankCapOnChange(address,uint256,bool)": "infinite",
				"_quoteWeiForUsdInternal(uint256)": "infinite",
				"_withinSlippage(uint256,uint256,uint256)": "infinite"
			}
		},
		"methodIdentifiers": {
			"BANK_CAP_USD8()": "c7308957",
			"DEFAULT_ADMIN_ROLE()": "a217fddf",
			"PAUSER_ROLE()": "e63ab1e9",
			"RISK_ROLE()": "c86e7064",
			"VERSION()": "ffa1ad74",
			"WITHDRAW_LIMIT_USD8()": "5509a6ca",
			"balanceOf(address,address)": "f7888aec",
			"deposit(address,uint256)": "47e7ef24",
			"depositEthByUsd(uint256,uint256)": "ff7cec60",
			"getContact(address,address)": "197e2b31",
			"getContactByAlias(address,string)": "92b4f898",
			"getRoleAdmin(bytes32)": "248a9ca3",
			"grantRole(bytes32,address)": "2f2ff15d",
			"hasRole(bytes32,address)": "91d14854",
			"owner()": "8da5cb5b",
			"pause()": "8456cb59",
			"paused()": "5c975abb",
			"priceFeedUsd(address)": "0ef0f0a9",
			"priceUsd8(address)": "9bbf2de6",
			"quoteWeiForUsd(uint256)": "4a4e9e3c",
			"registerToken(address,address)": "4739f7e5",
			"removeContact(address)": "a6a66072",
			"renounceOwnership()": "715018a6",
			"renounceRole(bytes32,address)": "36568abe",
			"revokeRole(bytes32,address)": "d547741f",
			"setContact(address,string,uint256,uint256)": "eee41c03",
			"supportsInterface(bytes4)": "01ffc9a7",
			"toUnit6(address,uint256)": "cb150817",
			"toUsd8(address,uint256)": "ea578821",
			"tokenDecimals(address)": "8ee573ac",
			"totalBankUsd8()": "4cacfb93",
			"totalOf(address)": "912c2673",
			"transferInternal(address,address,uint256)": "222f5be0",
			"transferInternalByAlias(address,string,uint256)": "ae2d4ebb",
			"transferOwnership(address)": "f2fde38b",
			"unpause()": "3f4ba83a",
			"updateContactEthLimit(address,uint256)": "48b21d55",
			"withdraw(address,uint256)": "f3fef3a3"
		}
	},
	"abi": [
		{
			"inputs": [
				{
					"internalType": "address",
					"name": "owner_",
					"type": "address"
				},
				{
					"internalType": "uint256",
					"name": "bankCapUsd8",
					"type": "uint256"
				},
				{
					"internalType": "uint256",
					"name": "withdrawLimitUsd8",
					"type": "uint256"
				},
				{
					"internalType": "address",
					"name": "ethUsdFeed",
					"type": "address"
				}
			],
			"stateMutability": "nonpayable",
			"type": "constructor"
		},
		{
			"inputs": [],
			"name": "AccessControlBadConfirmation",
			"type": "error"
		},
		{
			"inputs": [
				{
					"internalType": "address",
					"name": "account",
					"type": "address"
				},
				{
					"internalType": "bytes32",
					"name": "neededRole",
					"type": "bytes32"
				}
			],
			"name": "AccessControlUnauthorizedAccount",
			"type": "error"
		},
		{
			"inputs": [],
			"name": "BadPrice",
			"type": "error"
		},
		{
			"inputs": [],
			"name": "DirectEthNotAllowed",
			"type": "error"
		},
		{
			"inputs": [],
			"name": "EnforcedPause",
			"type": "error"
		},
		{
			"inputs": [],
			"name": "ErrAliasTaken",
			"type": "error"
		},
		{
			"inputs": [
				{
					"internalType": "uint256",
					"name": "attemptedUsd8",
					"type": "uint256"
				},
				{
					"internalType": "uint256",
					"name": "capUsd8",
					"type": "uint256"
				}
			],
			"name": "ErrCapExceeded",
			"type": "error"
		},
		{
			"inputs": [],
			"name": "ErrContactNotFound",
			"type": "error"
		},
		{
			"inputs": [
				{
					"internalType": "uint256",
					"name": "available",
					"type": "uint256"
				},
				{
					"internalType": "uint256",
					"name": "requested",
					"type": "uint256"
				}
			],
			"name": "ErrInsufficientBalance",
			"type": "error"
		},
		{
			"inputs": [],
			"name": "ErrInvalidContact",
			"type": "error"
		},
		{
			"inputs": [
				{
					"internalType": "uint256",
					"name": "requestedUsd8",
					"type": "uint256"
				},
				{
					"internalType": "uint256",
					"name": "limitUsd8",
					"type": "uint256"
				}
			],
			"name": "ErrWithdrawLimitUSD",
			"type": "error"
		},
		{
			"inputs": [],
			"name": "ErrZeroAmount",
			"type": "error"
		},
		{
			"inputs": [],
			"name": "ExpectedPause",
			"type": "error"
		},
		{
			"inputs": [
				{
					"internalType": "address",
					"name": "owner",
					"type": "address"
				}
			],
			"name": "OwnableInvalidOwner",
			"type": "error"
		},
		{
			"inputs": [
				{
					"internalType": "address",
					"name": "account",
					"type": "address"
				}
			],
			"name": "OwnableUnauthorizedAccount",
			"type": "error"
		},
		{
			"inputs": [],
			"name": "ReentrancyGuardReentrantCall",
			"type": "error"
		},
		{
			"inputs": [
				{
					"internalType": "address",
					"name": "token",
					"type": "address"
				}
			],
			"name": "SafeERC20FailedOperation",
			"type": "error"
		},
		{
			"inputs": [
				{
					"internalType": "uint256",
					"name": "quoteWei",
					"type": "uint256"
				},
				{
					"internalType": "uint256",
					"name": "sentWei",
					"type": "uint256"
				},
				{
					"internalType": "uint256",
					"name": "maxBps",
					"type": "uint256"
				}
			],
			"name": "SlippageExceeded",
			"type": "error"
		},
		{
			"anonymous": false,
			"inputs": [
				{
					"indexed": true,
					"internalType": "address",
					"name": "owner",
					"type": "address"
				},
				{
					"indexed": true,
					"internalType": "address",
					"name": "contact",
					"type": "address"
				},
				{
					"indexed": false,
					"internalType": "uint256",
					"name": "newEthLimit",
					"type": "uint256"
				}
			],
			"name": "ContactLimitUpdated",
			"type": "event"
		},
		{
			"anonymous": false,
			"inputs": [
				{
					"indexed": true,
					"internalType": "address",
					"name": "owner",
					"type": "address"
				},
				{
					"indexed": true,
					"internalType": "address",
					"name": "contact",
					"type": "address"
				},
				{
					"indexed": false,
					"internalType": "string",
					"name": "alias_",
					"type": "string"
				}
			],
			"name": "ContactRemoved",
			"type": "event"
		},
		{
			"anonymous": false,
			"inputs": [
				{
					"indexed": true,
					"internalType": "address",
					"name": "owner",
					"type": "address"
				},
				{
					"indexed": true,
					"internalType": "address",
					"name": "contact",
					"type": "address"
				},
				{
					"indexed": false,
					"internalType": "string",
					"name": "alias_",
					"type": "string"
				},
				{
					"indexed": false,
					"internalType": "uint256",
					"name": "ethLimit",
					"type": "uint256"
				},
				{
					"indexed": false,
					"internalType": "uint256",
					"name": "usdLimit",
					"type": "uint256"
				}
			],
			"name": "ContactSet",
			"type": "event"
		},
		{
			"anonymous": false,
			"inputs": [
				{
					"indexed": true,
					"internalType": "address",
					"name": "token",
					"type": "address"
				},
				{
					"indexed": true,
					"internalType": "address",
					"name": "user",
					"type": "address"
				},
				{
					"indexed": false,
					"internalType": "uint256",
					"name": "amountRaw",
					"type": "uint256"
				},
				{
					"indexed": false,
					"internalType": "uint256",
					"name": "newBalanceRaw",
					"type": "uint256"
				}
			],
			"name": "Deposit",
			"type": "event"
		},
		{
			"anonymous": false,
			"inputs": [
				{
					"indexed": true,
					"internalType": "address",
					"name": "token",
					"type": "address"
				},
				{
					"indexed": false,
					"internalType": "address",
					"name": "oldFeed",
					"type": "address"
				},
				{
					"indexed": false,
					"internalType": "address",
					"name": "newFeed",
					"type": "address"
				}
			],
			"name": "FeedUpdated",
			"type": "event"
		},
		{
			"anonymous": false,
			"inputs": [
				{
					"indexed": true,
					"internalType": "address",
					"name": "token",
					"type": "address"
				},
				{
					"indexed": true,
					"internalType": "address",
					"name": "from",
					"type": "address"
				},
				{
					"indexed": true,
					"internalType": "address",
					"name": "to",
					"type": "address"
				},
				{
					"indexed": false,
					"internalType": "uint256",
					"name": "amountRaw",
					"type": "uint256"
				}
			],
			"name": "InternalTransfer",
			"type": "event"
		},
		{
			"anonymous": false,
			"inputs": [
				{
					"indexed": true,
					"internalType": "address",
					"name": "previousOwner",
					"type": "address"
				},
				{
					"indexed": true,
					"internalType": "address",
					"name": "newOwner",
					"type": "address"
				}
			],
			"name": "OwnershipTransferred",
			"type": "event"
		},
		{
			"anonymous": false,
			"inputs": [
				{
					"indexed": false,
					"internalType": "address",
					"name": "account",
					"type": "address"
				}
			],
			"name": "Paused",
			"type": "event"
		},
		{
			"anonymous": false,
			"inputs": [
				{
					"indexed": true,
					"internalType": "bytes32",
					"name": "role",
					"type": "bytes32"
				},
				{
					"indexed": true,
					"internalType": "bytes32",
					"name": "previousAdminRole",
					"type": "bytes32"
				},
				{
					"indexed": true,
					"internalType": "bytes32",
					"name": "newAdminRole",
					"type": "bytes32"
				}
			],
			"name": "RoleAdminChanged",
			"type": "event"
		},
		{
			"anonymous": false,
			"inputs": [
				{
					"indexed": true,
					"internalType": "bytes32",
					"name": "role",
					"type": "bytes32"
				},
				{
					"indexed": true,
					"internalType": "address",
					"name": "account",
					"type": "address"
				},
				{
					"indexed": true,
					"internalType": "address",
					"name": "sender",
					"type": "address"
				}
			],
			"name": "RoleGranted",
			"type": "event"
		},
		{
			"anonymous": false,
			"inputs": [
				{
					"indexed": true,
					"internalType": "bytes32",
					"name": "role",
					"type": "bytes32"
				},
				{
					"indexed": true,
					"internalType": "address",
					"name": "account",
					"type": "address"
				},
				{
					"indexed": true,
					"internalType": "address",
					"name": "sender",
					"type": "address"
				}
			],
			"name": "RoleRevoked",
			"type": "event"
		},
		{
			"anonymous": false,
			"inputs": [
				{
					"indexed": true,
					"internalType": "address",
					"name": "token",
					"type": "address"
				},
				{
					"indexed": false,
					"internalType": "uint8",
					"name": "decimals",
					"type": "uint8"
				},
				{
					"indexed": false,
					"internalType": "address",
					"name": "feed",
					"type": "address"
				}
			],
			"name": "TokenRegistered",
			"type": "event"
		},
		{
			"anonymous": false,
			"inputs": [
				{
					"indexed": false,
					"internalType": "address",
					"name": "account",
					"type": "address"
				}
			],
			"name": "Unpaused",
			"type": "event"
		},
		{
			"anonymous": false,
			"inputs": [
				{
					"indexed": true,
					"internalType": "address",
					"name": "token",
					"type": "address"
				},
				{
					"indexed": true,
					"internalType": "address",
					"name": "user",
					"type": "address"
				},
				{
					"indexed": false,
					"internalType": "uint256",
					"name": "amountRaw",
					"type": "uint256"
				},
				{
					"indexed": false,
					"internalType": "uint256",
					"name": "newBalanceRaw",
					"type": "uint256"
				}
			],
			"name": "Withdrawal",
			"type": "event"
		},
		{
			"stateMutability": "payable",
			"type": "fallback"
		},
		{
			"inputs": [],
			"name": "BANK_CAP_USD8",
			"outputs": [
				{
					"internalType": "uint256",
					"name": "",
					"type": "uint256"
				}
			],
			"stateMutability": "view",
			"type": "function"
		},
		{
			"inputs": [],
			"name": "DEFAULT_ADMIN_ROLE",
			"outputs": [
				{
					"internalType": "bytes32",
					"name": "",
					"type": "bytes32"
				}
			],
			"stateMutability": "view",
			"type": "function"
		},
		{
			"inputs": [],
			"name": "PAUSER_ROLE",
			"outputs": [
				{
					"internalType": "bytes32",
					"name": "",
					"type": "bytes32"
				}
			],
			"stateMutability": "view",
			"type": "function"
		},
		{
			"inputs": [],
			"name": "RISK_ROLE",
			"outputs": [
				{
					"internalType": "bytes32",
					"name": "",
					"type": "bytes32"
				}
			],
			"stateMutability": "view",
			"type": "function"
		},
		{
			"inputs": [],
			"name": "VERSION",
			"outputs": [
				{
					"internalType": "string",
					"name": "",
					"type": "string"
				}
			],
			"stateMutability": "view",
			"type": "function"
		},
		{
			"inputs": [],
			"name": "WITHDRAW_LIMIT_USD8",
			"outputs": [
				{
					"internalType": "uint256",
					"name": "",
					"type": "uint256"
				}
			],
			"stateMutability": "view",
			"type": "function"
		},
		{
			"inputs": [
				{
					"internalType": "address",
					"name": "token",
					"type": "address"
				},
				{
					"internalType": "address",
					"name": "user",
					"type": "address"
				}
			],
			"name": "balanceOf",
			"outputs": [
				{
					"internalType": "uint256",
					"name": "balanceRaw",
					"type": "uint256"
				}
			],
			"stateMutability": "view",
			"type": "function"
		},
		{
			"inputs": [
				{
					"internalType": "address",
					"name": "token",
					"type": "address"
				},
				{
					"internalType": "uint256",
					"name": "amountRaw",
					"type": "uint256"
				}
			],
			"name": "deposit",
			"outputs": [],
			"stateMutability": "payable",
			"type": "function"
		},
		{
			"inputs": [
				{
					"internalType": "uint256",
					"name": "usd8",
					"type": "uint256"
				},
				{
					"internalType": "uint256",
					"name": "maxSlippageBps",
					"type": "uint256"
				}
			],
			"name": "depositEthByUsd",
			"outputs": [],
			"stateMutability": "payable",
			"type": "function"
		},
		{
			"inputs": [
				{
					"internalType": "address",
					"name": "owner",
					"type": "address"
				},
				{
					"internalType": "address",
					"name": "contact",
					"type": "address"
				}
			],
			"name": "getContact",
			"outputs": [
				{
					"internalType": "string",
					"name": "alias_",
					"type": "string"
				},
				{
					"internalType": "bool",
					"name": "exists",
					"type": "bool"
				}
			],
			"stateMutability": "view",
			"type": "function"
		},
		{
			"inputs": [
				{
					"internalType": "address",
					"name": "owner",
					"type": "address"
				},
				{
					"internalType": "string",
					"name": "alias_",
					"type": "string"
				}
			],
			"name": "getContactByAlias",
			"outputs": [
				{
					"internalType": "address",
					"name": "contact",
					"type": "address"
				},
				{
					"internalType": "bool",
					"name": "exists",
					"type": "bool"
				}
			],
			"stateMutability": "view",
			"type": "function"
		},
		{
			"inputs": [
				{
					"internalType": "bytes32",
					"name": "role",
					"type": "bytes32"
				}
			],
			"name": "getRoleAdmin",
			"outputs": [
				{
					"internalType": "bytes32",
					"name": "",
					"type": "bytes32"
				}
			],
			"stateMutability": "view",
			"type": "function"
		},
		{
			"inputs": [
				{
					"internalType": "bytes32",
					"name": "role",
					"type": "bytes32"
				},
				{
					"internalType": "address",
					"name": "account",
					"type": "address"
				}
			],
			"name": "grantRole",
			"outputs": [],
			"stateMutability": "nonpayable",
			"type": "function"
		},
		{
			"inputs": [
				{
					"internalType": "bytes32",
					"name": "role",
					"type": "bytes32"
				},
				{
					"internalType": "address",
					"name": "account",
					"type": "address"
				}
			],
			"name": "hasRole",
			"outputs": [
				{
					"internalType": "bool",
					"name": "",
					"type": "bool"
				}
			],
			"stateMutability": "view",
			"type": "function"
		},
		{
			"inputs": [],
			"name": "owner",
			"outputs": [
				{
					"internalType": "address",
					"name": "",
					"type": "address"
				}
			],
			"stateMutability": "view",
			"type": "function"
		},
		{
			"inputs": [],
			"name": "pause",
			"outputs": [],
			"stateMutability": "nonpayable",
			"type": "function"
		},
		{
			"inputs": [],
			"name": "paused",
			"outputs": [
				{
					"internalType": "bool",
					"name": "",
					"type": "bool"
				}
			],
			"stateMutability": "view",
			"type": "function"
		},
		{
			"inputs": [
				{
					"internalType": "address",
					"name": "token",
					"type": "address"
				}
			],
			"name": "priceFeedUsd",
			"outputs": [
				{
					"internalType": "contract AggregatorV3Interface",
					"name": "",
					"type": "address"
				}
			],
			"stateMutability": "view",
			"type": "function"
		},
		{
			"inputs": [
				{
					"internalType": "address",
					"name": "token",
					"type": "address"
				}
			],
			"name": "priceUsd8",
			"outputs": [
				{
					"internalType": "uint256",
					"name": "p8",
					"type": "uint256"
				}
			],
			"stateMutability": "view",
			"type": "function"
		},
		{
			"inputs": [
				{
					"internalType": "uint256",
					"name": "usd8",
					"type": "uint256"
				}
			],
			"name": "quoteWeiForUsd",
			"outputs": [
				{
					"internalType": "uint256",
					"name": "weiReq",
					"type": "uint256"
				}
			],
			"stateMutability": "view",
			"type": "function"
		},
		{
			"inputs": [
				{
					"internalType": "address",
					"name": "token",
					"type": "address"
				},
				{
					"internalType": "address",
					"name": "feed",
					"type": "address"
				}
			],
			"name": "registerToken",
			"outputs": [],
			"stateMutability": "nonpayable",
			"type": "function"
		},
		{
			"inputs": [
				{
					"internalType": "address",
					"name": "contact",
					"type": "address"
				}
			],
			"name": "removeContact",
			"outputs": [],
			"stateMutability": "nonpayable",
			"type": "function"
		},
		{
			"inputs": [],
			"name": "renounceOwnership",
			"outputs": [],
			"stateMutability": "nonpayable",
			"type": "function"
		},
		{
			"inputs": [
				{
					"internalType": "bytes32",
					"name": "role",
					"type": "bytes32"
				},
				{
					"internalType": "address",
					"name": "callerConfirmation",
					"type": "address"
				}
			],
			"name": "renounceRole",
			"outputs": [],
			"stateMutability": "nonpayable",
			"type": "function"
		},
		{
			"inputs": [
				{
					"internalType": "bytes32",
					"name": "role",
					"type": "bytes32"
				},
				{
					"internalType": "address",
					"name": "account",
					"type": "address"
				}
			],
			"name": "revokeRole",
			"outputs": [],
			"stateMutability": "nonpayable",
			"type": "function"
		},
		{
			"inputs": [
				{
					"internalType": "address",
					"name": "contact",
					"type": "address"
				},
				{
					"internalType": "string",
					"name": "alias_",
					"type": "string"
				},
				{
					"internalType": "uint256",
					"name": "ethLimit",
					"type": "uint256"
				},
				{
					"internalType": "uint256",
					"name": "usdLimit",
					"type": "uint256"
				}
			],
			"name": "setContact",
			"outputs": [],
			"stateMutability": "nonpayable",
			"type": "function"
		},
		{
			"inputs": [
				{
					"internalType": "bytes4",
					"name": "interfaceId",
					"type": "bytes4"
				}
			],
			"name": "supportsInterface",
			"outputs": [
				{
					"internalType": "bool",
					"name": "",
					"type": "bool"
				}
			],
			"stateMutability": "view",
			"type": "function"
		},
		{
			"inputs": [
				{
					"internalType": "address",
					"name": "token",
					"type": "address"
				},
				{
					"internalType": "uint256",
					"name": "amountRaw",
					"type": "uint256"
				}
			],
			"name": "toUnit6",
			"outputs": [
				{
					"internalType": "uint256",
					"name": "amount6",
					"type": "uint256"
				}
			],
			"stateMutability": "view",
			"type": "function"
		},
		{
			"inputs": [
				{
					"internalType": "address",
					"name": "token",
					"type": "address"
				},
				{
					"internalType": "uint256",
					"name": "amountRaw",
					"type": "uint256"
				}
			],
			"name": "toUsd8",
			"outputs": [
				{
					"internalType": "uint256",
					"name": "usd8",
					"type": "uint256"
				}
			],
			"stateMutability": "view",
			"type": "function"
		},
		{
			"inputs": [
				{
					"internalType": "address",
					"name": "token",
					"type": "address"
				}
			],
			"name": "tokenDecimals",
			"outputs": [
				{
					"internalType": "uint8",
					"name": "",
					"type": "uint8"
				}
			],
			"stateMutability": "view",
			"type": "function"
		},
		{
			"inputs": [],
			"name": "totalBankUsd8",
			"outputs": [
				{
					"internalType": "uint256",
					"name": "",
					"type": "uint256"
				}
			],
			"stateMutability": "view",
			"type": "function"
		},
		{
			"inputs": [
				{
					"internalType": "address",
					"name": "token",
					"type": "address"
				}
			],
			"name": "totalOf",
			"outputs": [
				{
					"internalType": "uint256",
					"name": "totalRaw",
					"type": "uint256"
				}
			],
			"stateMutability": "view",
			"type": "function"
		},
		{
			"inputs": [
				{
					"internalType": "address",
					"name": "token",
					"type": "address"
				},
				{
					"internalType": "address",
					"name": "to",
					"type": "address"
				},
				{
					"internalType": "uint256",
					"name": "amountRaw",
					"type": "uint256"
				}
			],
			"name": "transferInternal",
			"outputs": [],
			"stateMutability": "nonpayable",
			"type": "function"
		},
		{
			"inputs": [
				{
					"internalType": "address",
					"name": "token",
					"type": "address"
				},
				{
					"internalType": "string",
					"name": "alias_",
					"type": "string"
				},
				{
					"internalType": "uint256",
					"name": "amountRaw",
					"type": "uint256"
				}
			],
			"name": "transferInternalByAlias",
			"outputs": [],
			"stateMutability": "nonpayable",
			"type": "function"
		},
		{
			"inputs": [
				{
					"internalType": "address",
					"name": "newOwner",
					"type": "address"
				}
			],
			"name": "transferOwnership",
			"outputs": [],
			"stateMutability": "nonpayable",
			"type": "function"
		},
		{
			"inputs": [],
			"name": "unpause",
			"outputs": [],
			"stateMutability": "nonpayable",
			"type": "function"
		},
		{
			"inputs": [
				{
					"internalType": "address",
					"name": "contact",
					"type": "address"
				},
				{
					"internalType": "uint256",
					"name": "newLimit",
					"type": "uint256"
				}
			],
			"name": "updateContactEthLimit",
			"outputs": [],
			"stateMutability": "nonpayable",
			"type": "function"
		},
		{
			"inputs": [
				{
					"internalType": "address",
					"name": "token",
					"type": "address"
				},
				{
					"internalType": "uint256",
					"name": "amountRaw",
					"type": "uint256"
				}
			],
			"name": "withdraw",
			"outputs": [],
			"stateMutability": "nonpayable",
			"type": "function"
		},
		{
			"stateMutability": "payable",
			"type": "receive"
		}
	]
}